:1000000004C100002EC100002CC100002AC1000064
:1000100028C1000026C1000024C1000022C1000048
:1000200020C100001EC100001CC100001AC1000058
:1000300018C1000016C1000014C1000012C1000068
:1000400010C1000043C100000CC100000AC1000043
:1000500008C1000006C1000004C100000C941B0987
:1000600000C1000015C3000063C40000FAC0000016
:10007000F8C00000F6C00000F4C00000F2C00000AC
:10008000F0C00000EEC00000ECC0000048C100005D
:100090003FC300008CC40000E4C00000E2C00000C8
:1000A000E0C00000DEC00000DCC00000DAC00000DC
:1000B000D8C00000D6C00000D4C00000D2C00000EC
:1000C000D0C00000CEC00000CCC0000061C3000062
:1000D000ADC40000C6C000009BC30000E6C4000021
:1000E000C0C0000000002100240027002A002D00CD
:1000F0003000330001010000040107010A01000083
:100100002200250028002B002E00310034000201BF
:100110000000050108010B0100002000230026005B
:1001200029002C002F00320000010000030106010D
:10013000090105050505070508080808020202026D
:100140000A0A080804040404010101010101010173
:100150000303030303030303040707070C0C0C0C3E
:100160000C0C0C0C02020202060606060606060627
:100170000B0B0B0B0B0B0B0B0102102020080810B4
:100180002040102040800201020108040201010207
:1001900004081020408080402010080402018004E0
:1001A000020180402010080402010804020101023B
:1001B0000408102040800102040810204080000044
:1001C000090A02080B0C0D070603040100000000D9
:1001D000000000000000000000000000000000001F
:1001E0000000000000000000000011100F000000DF
:1001F00000000000000000000000000000000000FF
:10020000000000006101C5065C0111241FBECFEF94
:10021000D1E2DEBFCDBF00E00CBF12E0A0E0B2E053
:10022000E4E6F8E100E00BBF02C007900D92A831B0
:10023000B107D9F71BBE14E0A8E1B2E001C01D92DE
:10024000A23EB107E1F712E0C8E0D2E004C0229775
:10025000FE010E94220CC430D107C9F7CDD60C9400
:10026000260CCECEFB01DC0102C001900D92415064
:100270005040D8F70895FB01DC0101900D92002059
:10028000E1F7089588E192E079C088E192E0ADC09D
:100290008130910541F46F5F7F4F69F488E192E00E
:1002A00060E072E095C7892B31F46F5F7F4F19F4DE
:1002B00088E192E0BCC7089580E090E06FEF7FEFA7
:1002C000E7CF81E090E06FEF7FEFE2CF1F920F92D8
:1002D0000FB60F920BB60F9211242F933F934F93AB
:1002E0005F936F937F938F939F93AF93BF93EF939E
:1002F000FF938FE192E0A0D0FF91EF91BF91AF917A
:100300009F918F917F916F915F914F913F912F912D
:100310000F900BBE0F900FBE0F901F9018951F925D
:100320000F920FB60F920BB60F9211242F933F939B
:100330004F935F936F937F938F939F93AF93BF93ED
:10034000EF93FF938DE074D161E068278DE03ED19B
:10035000FF91EF91BF91AF919F918F917F916F919D
:100360005F914F913F912F910F900BBE0F900FBE59
:100370000F901F90189561E070E074C6EF92FF92A5
:100380000F931F93CF93DF93EC01082FFD2EEE24E4
:10039000E3940BC08CE494E07FD4182F802F9F2D22
:1003A000612FD4D61A3009F4EE828CE494E042D462
:1003B000892B81F78E81882389F0802F9F2D60E023
:1003C00070E050D6FC018081843241F4CE01D3DF4D
:1003D000802F9F2D60E072E013D71E82DF91CF91B6
:1003E0001F910F91FF90EF9008950F931F938C0131
:1003F0008DE061E038D010929000E1E9F0E01082E9
:100400001092950010929400808184608083E1E7CF
:10041000F0E08081816080838CE494E040E855E2E4
:1004200060E070E081D3F8011682C80160E072E0FC
:10043000E7D61F910F910895CF93DF93EC018BE0E6
:10044000F7D0892B69F08A819B81892B21F08B85DC
:100450009C85019603C08B859C8501979C878B8723
:10046000DF91CF910895CF93DF93482F50E0CA01D9
:1004700088589E4FFC0134914E5C5E4FFA01849186
:10048000882369F190E0880F991FFC01EC51FF4F20
:10049000A591B491FC01E250FF4FC591D491662320
:1004A00051F42FB7F8948C91932F909589238C93C6
:1004B000888189230BC0623061F42FB7F8948C9146
:1004C000932F909589238C938881832B88832FBFCA
:1004D00006C09FB7F8948C91832B8C939FBFDF91BC
:1004E000CF910895893009F449C08A30A0F484304E
:1004F00051F1853040F4823079F1833000F581305C
:1005000009F063C026C0873079F1883098F58630CD
:1005100009F05BC025C08D3009F442C08E3028F44C
:100520008B30B1F18C30C0F52DC0803109F442C060
:10053000813109F445C08F3009F047C037C0809140
:1005400080008F7703C0809180008F7D8093800032
:10055000089584B58F7702C084B58F7D84BD0895DA
:100560008091B0008F7703C08091B0008F7D809321
:10057000B0000895809190008F7707C0809190001F
:100580008F7D03C080919000877F809390000895B5
:100590008091A0008F7707C08091A0008F7D03C05D
:1005A0008091A000877F8093A00008958091200112
:1005B0008F7703C0809120018F7D80932001089563
:1005C00080912001877F809320010895FF920F93EF
:1005D0001F93F62E482F50E0CA0182549E4FFC0113
:1005E0002491CA0188589E4FFC0114914E5C5E4FC5
:1005F000FA0104910023C1F0222311F0822F72DF4F
:10060000E02FF0E0EE0FFF1FE250FF4FA591B491F5
:100610009FB7F894FF2021F48C911095812302C09C
:100620008C91812B8C939FBF1F910F91FF90089508
:100630000F931F93482F50E0CA0182549E4FFC0134
:100640002491CA0188589E4FFC0104914E5C5E4F74
:10065000FA011491112319F420E030E014C0222390
:1006600011F0822F3FDF812F90E0880F991F885E65
:100670009E4FFC01A591B4918C9120E030E0802345
:1006800011F021E030E0C9011F910F910895089504
:100690001F920F920FB60F920BB60F9211242F9349
:1006A0003F934F938F939F93EF93FF938091C0005D
:1006B00082FD1DC04091C60020916C0230916D02F8
:1006C0002F5F3F4F2F73307080916E0290916F02B9
:1006D0002817390771F0E0916C02F0916D02E45D2A
:1006E000FD4F408330936D0220936C0202C08091D5
:1006F000C600FF91EF919F918F914F913F912F9164
:100700000F900BBE0F900FBE0F901F90189508957D
:100710001F920F920FB60F920BB60F9211242F93C8
:100720003F934F938F939F93EF93FF938091C800D4
:1007300082FD1DC04091CE002091F4023091F5025F
:100740002F5F3F4F2F7330708091F6029091F70228
:100750002817390771F0E091F402F091F502EC549A
:10076000FD4F40833093F5022093F40202C0809144
:10077000CE00FF91EF919F918F914F913F912F91DB
:100780000F900BBE0F900FBE0F901F9018950895FD
:100790001F920F920FB60F920BB60F9211242F9348
:1007A0003F934F938F939F93EF93FF938091D0004C
:1007B00082FD1DC04091D60020917C0330917D03C5
:1007C0002F5F3F4F2F73307080917E0390917F0396
:1007D0002817390771F0E0917C03F0917D03E45C08
:1007E000FC4F408330937D0320937C0302C08091B3
:1007F000D600FF91EF919F918F914F913F912F9153
:100800000F900BBE0F900FBE0F901F90189508957C
:100810001F920F920FB60F920BB60F9211242F93C7
:100820003F934F938F939F93EF93FF93809130016A
:1008300082FD1DC0409136012091040430910504D1
:100840002F5F3F4F2F733070809106049091070403
:100850002817390771F0E0910404F0910504EC5376
:10086000FC4F4083309305042093040402C0809120
:100870003601FF91EF919F918F914F913F912F9171
:100880000F900BBE0F900FBE0F901F901895E09128
:100890005804F0915904E05CFF4F819191912081BF
:1008A0003181805C9F4F821B930B60E470E07FD7A7
:1008B000892B09F0ECDEE0917A04F0917B04E05C96
:1008C000FF4F8191919120813181805C9F4F821BEC
:1008D000930B60E470E06BD7892B09F018DFE0918F
:1008E0009C04F0919D04E05CFF4F819191912081E7
:1008F0003181805C9F4F821B930B60E470E057D77F
:10090000892B09F044DFE091BE04F091BF04E05C64
:10091000FF4F8191919120813181805C9F4F821B9B
:10092000930B60E470E043D7892B09F070CF0895F2
:100930001F920F920FB60F920BB60F9211242F93A6
:100940003F938F939F93EF93FF932091B002309149
:10095000B1028091B2029091B3022817390731F4A5
:100960008091C1008F7D8093C10014C0E091B202DC
:10097000F091B302E059FD4F20818091B202909135
:10098000B30201968F7390709093B3028093B2027A
:100990002093C600FF91EF919F918F913F912F91EE
:1009A0000F900BBE0F900FBE0F901F9018951F92C7
:1009B0000F920FB60F920BB60F9211242F933F9305
:1009C0008F939F93EF93FF932091380330913903D6
:1009D00080913A0390913B032817390731F48091B5
:1009E000C9008F7D8093C90014C0E0913A03F09153
:1009F0003B03E850FD4F208180913A0390913B03E7
:100A000001968F73907090933B0380933A032093E9
:100A1000CE00FF91EF919F918F913F912F910F9079
:100A20000BBE0F900FBE0F901F9018951F920F9244
:100A30000FB60F920BB60F9211242F933F938F9303
:100A40009F93EF93FF932091C0033091C103809156
:100A5000C2039091C3032817390731F48091D10064
:100A60008F7D8093D10014C0E091C203F091C30345
:100A7000E058FC4F20818091C2039091C3030196FE
:100A80008F7390709093C3038093C2032093D6001A
:100A9000FF91EF919F918F913F912F910F900BBEFE
:100AA0000F900FBE0F901F9018951F920F920FB6C8
:100AB0000F920BB60F9211242F933F938F939F9316
:100AC000EF93FF93209148043091490480914A04A8
:100AD00090914B042817390731F4809131018F7DB3
:100AE0008093310114C0E0914A04F0914B04E85F17
:100AF000FB4F208180914A0490914B0401968F73A3
:100B0000907090934B0480934A0420933601FF9198
:100B1000EF919F918F913F912F910F900BBE0F906E
:100B20000FBE0F901F901895AF92BF92DF92EF9279
:100B3000FF920F931F93CF93DF93EC017A018B0108
:100B4000DD24403081EE580780E0680780E07807B8
:100B500011F0DD24D39491E0A92EB12CEC89FD890C
:100B6000DD2069F0C50108A002C0880F991F0A9412
:100B7000E2F7808360E079E08DE390E005C01082C9
:100B800060E874E88EE190E0A801970123D6215037
:100B9000304040405040569547953795279580E125
:100BA0002030380720F0DD2011F0DD24D7CFE88990
:100BB000F9893083EA89FB89208319A2EE89FF89AC
:100BC000408121E030E0C9010C8C02C0880F991FE0
:100BD0000A94E2F7482B4083EE89FF894081C901DE
:100BE0000D8C02C0880F991F0A94E2F7482B4083AE
:100BF000EE89FF894081C9010E8C02C0880F991FC0
:100C00000A94E2F7482B4083EE89FF8980810F8C9C
:100C100002C0220F331F0A94E2F720952823208375
:100C2000DF91CF911F910F91FF90EF90DF90BF90D8
:100C3000AF900895DC011C96ED91FC911D97E05C4E
:100C4000FF4F8191919120813181805C9F4F821B68
:100C5000930B60E470E0ABC5DC011C96ED91FC9158
:100C60001D97E05CFF4F20813181E054F040DF01AF
:100C7000AE5BBF4F8D919C9111972817390719F4DE
:100C80002FEF3FEF07C08D919C91E80FF91F8081F6
:100C9000282F30E0C9010895DC011C96ED91FC91EC
:100CA0001D97E05CFF4F20813181E054F040DF016F
:100CB000AE5BBF4F8D919C9111972817390719F49E
:100CC0002FEF3FEF10C08D919C911197E80FF91F06
:100CD00020818D919C91119701968F739070119640
:100CE0009C938E9330E0C9010895DC0191968C911C
:100CF0009197882339F05496ED91FC915597808116
:100D000086FFF9CF91961C920895CF93DF93EC0163
:100D1000EE85FF85E05CFF4F20813181E054F0409B
:100D20002F5F3F4F2F733070DF01AE5BBF4F8D9150
:100D30009C91119728173907D1F3E05CFF4F808110
:100D40009181E054F040E80FF91F6083EE85FF8544
:100D5000E05CFF4F31832083EE89FF89208181E0B1
:100D600090E00F8C02C0880F991F0A94E2F7282B9D
:100D7000208381E089A3EC89FD8980818064808360
:100D800081E090E0DF91CF9108951F9310924F047E
:100D900010924E0428EE33E040E050E020935004DF
:100DA0003093510440935204509353046BE072E02B
:100DB00070934D0460934C048CE292E0909359043C
:100DC0008093580480E792E090935B0480935A04E8
:100DD00085EC90E090935D0480935C0484EC90E05B
:100DE00090935F0480935E0480EC90E090936104A4
:100DF0008093600481EC90E090936304809362049C
:100E000082EC90E0909365048093640486EC90E01B
:100E1000909367048093660414E010936804B3E031
:100E2000B0936904A7E0A0936A04F5E0F0936B0423
:100E3000E1E0E0936C04109271041092700420932E
:100E40007204309373044093740450937504709348
:100E50006F0460936E0484EB92E090937B04809324
:100E60007A0488EF92E090937D0480937C048DEC6B
:100E700090E090937F0480937E048CEC90E09093BC
:100E800081048093800488EC90E0909383048093A5
:100E9000820489EC90E090938504809384048AEC2A
:100EA00090E090938704809386048EEC90E090937A
:100EB00089048093880410938A04B0938B04A093D0
:100EC0008C04F0938D04E0938E041092930410929E
:100ED0009204209394043093950440939604509385
:100EE000970470939104609390048CE393E0909343
:100EF0009D0480939C0480E893E090939F048093EA
:100F00009E0485ED90E09093A1048093A00484ED6D
:100F100090E09093A3048093A20480ED90E09093DE
:100F2000A5048093A40481ED90E09093A70480939E
:100F3000A60482ED90E09093A9048093A80486ED26
:100F400090E09093AB048093AA041093AC04B09308
:100F5000AD04A093AE04F093AF04E093B0041092FC
:100F6000B5041092B4042093B6043093B7044093B0
:100F7000B8045093B9047093B3046093B20484EC42
:100F800093E09093BF048093BE0488E094E0909334
:100F9000C1048093C00485E391E09093C3048093DF
:100FA000C20484E391E09093C5048093C40480E379
:100FB00091E09093C7048093C60481E391E09093FD
:100FC000C9048093C80482E391E09093CB0480939A
:100FD000CA0486E391E09093CD048093CC041093EF
:100FE000CE04B093CF04A093D004F093D104E09347
:100FF000D2041F9108950895CF93DF9364D1FBDF4E
:1010000044D9C7E4D4E03ED92097E9F340DCFBCFD4
:10101000CF92DF92EF92FF920F931F93CF93DF93C4
:101020007C016B018A01C0E0D0E00FC0D6016D9158
:101030006D01D701ED91FC910190F081E02DC70188
:101040001995C80FD91F015010400115110571F7EE
:10105000CE01DF91CF911F910F91FF90EF90DF9024
:10106000CF900895FC019B018481958168177907D1
:1010700028F4608171816115710529F41092D404FE
:1010800064ED74E002C0620F731FCB0108950F93EB
:101090001F93CF93DF93EC018B016F5F7F4F8881AC
:1010A0009981A8D2009711F480E005C099838883C4
:1010B0001B830A8381E0DF91CF911F910F910895E7
:1010C000CF93DF93EC0188819981892B29F08A8164
:1010D0009B818617970758F4CE01D9DF882341F00A
:1010E0008C819D81892B19F4E881F981108281E03E
:1010F000DF91CF910895EF92FF920F931F93CF93BB
:10110000DF93EC017B016C817D81E114F104B1F08E
:101110004115510589F08A01060F171FB801D0DF6C
:10112000882361F0888199812C813D81820F931FF2
:10113000B701A1D81D830C8381E001C080E0DF915D
:10114000CF911F910F91FF90EF900895DF93CF9370
:101150000F920F92CDB7DEB769831A82BE016F5F1F
:101160007F4F41E050E0C7DF0F900F90CF91DF91AC
:101170000895CF93DF93EC0188819981009709F05E
:10118000A1D1198218821D821C821B821A82DF91D2
:10119000CF910895EF92FF920F931F93CF93DF9318
:1011A000EC017B018A01BA018BDF882319F4CE019F
:1011B000E0DF06C01D830C8388819981B7015BD86D
:1011C000CE01DF91CF911F910F91FF90EF90089585
:1011D000CF93DF93EC01198218821B821A821D8241
:1011E0001C826115710549F0DB010D900020E9F7C3
:1011F0001197A61BB70BAD01CDDFDF91CF910895FD
:101200000F931F93182F092F6115710551F0DB0102
:101210000D900020E9F71197A61BB70BAD01BADFBF
:1012200001C0A7DF812F902F1F910F910895FC011E
:101230008081918147C11F920F920FB60F921124A6
:101240002F933F938F939F93AF93BF938091D90434
:101250009091DA04A091DB04B091DC043091DD04BC
:101260000196A11DB11D232F2D5F2D3720F02D5785
:101270000196A11DB11D2093DD048093D9049093A4
:10128000DA04A093DB04B093DC048091D504909140
:10129000D604A091D704B091D8040196A11DB11D28
:1012A0008093D5049093D604A093D704B093D80428
:1012B000BF91AF919F918F913F912F910F900FBE52
:1012C0000F901F901895789484B5826084BD84B582
:1012D000816084BD85B5826085BD85B5816085BD31
:1012E000EEE6F0E0808181608083E1E8F0E010824A
:1012F000808182608083808181608083E0E8F0E08B
:10130000808181608083E1EBF0E080818460808374
:10131000E0EBF0E0808181608083E1E9F0E08081B2
:1013200082608083808181608083E0E9F0E0808159
:1013300081608083E1EAF0E0808182608083808147
:1013400081608083E0EAF0E0808181608083E1E277
:10135000F1E0808182608083808181608083E0E22F
:10136000F1E0808181608083EAE7F0E08081846041
:10137000808380818260808380818160808380819E
:10138000806880831092C10008950F931F93CF93BC
:10139000DF93BC018230910510F462E070E0E091CF
:1013A000E004F091E10440E050E0A0E0B0E024C0AF
:1013B0008081918186179707D0F08617970771F47F
:1013C00082819381109729F013969C938E931297A4
:1013D0002CC09093E1048093E00427C0411551058F
:1013E00019F08417950718F48D01AC01EF01DF01A6
:1013F000828193819C01F9013097D1F64115510505
:10140000F9F0CA01861B970B8430910580F48A811C
:101410009B810115110521F0F8019383828304C09B
:101420009093E1048093E004FE01329645C0FE01F2
:10143000E80FF91F619371930297998388833CC0E9
:101440008091DE049091DF04892B41F480910302A6
:10145000909104029093DF048093DE044091050292
:10146000509106024115510541F44DB75EB7809188
:10147000010290910202481B590B2091DE04309129
:10148000DF0424173507B0F4CA01821B930B8617BB
:10149000970780F0AB014E5F5F4F8417950750F0C0
:1014A000420F531F5093DF044093DE04F901619310
:1014B000719302C0E0E0F0E0CF01DF91CF911F9186
:1014C0000F910895CF93DF939C01009709F48FC08B
:1014D000EC0122971B821A826091E0047091E10472
:1014E0006115710581F488819981820F931F209184
:1014F000DE043091DF042817390739F5D093DF0473
:10150000C093DE0474C0DB0140E050E0AC17BD07BF
:1015100008F1BB83AA83FE0121913191E20FF31FF1
:10152000AE17BF0779F48D919C911197280F391F41
:101530002E5F3F4F3983288312968D919C9113978C
:101540009B838A834115510571F4D093E104C093C4
:10155000E0044DC012968D919C911397AD010097B8
:1015600011F0DC01D3CFDA011396DC93CE931297FE
:10157000FA0121913191E20FF31FCE17DF0769F4D1
:1015800088819981280F391F2E5F3F4FFA013183DF
:1015900020838A819B8193838283E0E0F0E0DB01FA
:1015A00012968D919C911397009719F0BC01FD0143
:1015B000F6CFAB014E5F5F4FDB018D919C91840FA5
:1015C000951F2091DE043091DF042817390779F444
:1015D000309729F41092E1041092E00402C01382C3
:1015E0001282425050405093DF044093DE04DF915A
:1015F000CF9108956F927F928F929F92AF92BF92F8
:10160000CF92DF92EF92FF920F931F93CF93DF93CE
:101610008C01009721F4CB01B8DE8C01B8C08EEFAD
:10162000E82E8FEFF82EE00EF11E4801860E971E71
:101630008E149F0408F4A9C0D7014D915C911197B5
:1016400046175707B0F04530510508F4A0C0CA014D
:1016500004978617970708F49AC042505040461BDB
:10166000570BF401419351936D937C93CF012ADF83
:101670008EC05B01A41AB50A3801640E751EA091D4
:10168000E004B091E104E0E0F0E0CC24DD2447C0C8
:10169000A615B705A9F5CD91DC911197CE0102965B
:1016A0008A159B0568F1CE018A199B09029612964C
:1016B0002C91129713963C91059758F0F4012283D0
:1016C0003383CA19DB09D183C083D7016D937C931F
:1016D00009C04E5F5F4F4C0F5D1FF7015183408380
:1016E000C901FC01C114D10431F0D6011396FC9359
:1016F000EE9312974CC0F093E104E093E00447C0EE
:101700008D919C911197E817F90708F4FC016D0180
:1017100012968C91129713969C919C01D901109767
:1017200009F0B6CF8091DE049091DF04861597050D
:10173000E9F4E617F707D0F420910502309106028C
:101740002115310541F42DB73EB7809101029091EA
:101750000202281B390B82169306B8F49092DF041C
:101760008092DE04F7017183608311C0CB010DDE2E
:10177000EC01009751F0D7014D915C91B8010E94A6
:101780003201C8019FDE8E0102C000E010E0C801F6
:10179000DF91CF911F910F91FF90EF90DF90CF904D
:1017A000BF90AF909F908F907F906F90089597FB20
:1017B000092E07260AD077FD04D02ED006D00020AF
:1017C0001AF4709561957F4F0895F6F7909581957D
:1017D0009F4F0895A1E21A2EAA1BBB1BFD010DC04D
:1017E000AA1FBB1FEE1FFF1FA217B307E407F507D1
:1017F00020F0A21BB30BE40BF50B661F771F881FAD
:10180000991F1A9469F760957095809590959B0142
:10181000AC01BD01CF010895AA1BBB1B51E107C05C
:10182000AA1FBB1FA617B70710F0A61BB70B881F70
:10183000991F5A95A9F780959095BC01CD010895FF
:10184000EE0FFF1F0590F491E02D199412E0C8E00F
:10185000D2E003C0FE01F6DF2296CA30D107D1F7ED
:04186000F894FFCF2A
:10186400008000E204000000000000850608081A59
:08187400064C062C0675060067
:00000001FF
