:100000000C946B010C94340C0C94650C0C94960CB1
:100010000C94C70C0C94F80C0C94290D0C945A0DEC
:100020000C948B0D0C949C010C949C010C949C01E1
:100030000C949C010C949C010C949C010C949C01CC
:100040000C949C010C94EB030C949C010C949C016B
:100050000C949C010C949C010C949C010C94BC0D80
:100060000C949C010C9444110C947A110C949C01F6
:100070000C949C010C949C010C949C010C949C018C
:100080000C949C010C949C010C949C010C94BD0359
:100090000C949C010C949C010C949C010C949C016C
:1000A0000C949C010C949C010C949C010C949C015C
:1000B0000C949C010C949C010C949C010C949C014C
:1000C0000C949C010C949C010C949C010C949C013C
:1000D0000C949C010C949C010C94F1110C9427122B
:1000E0000C949C010E0CD80BE00BEC0BF90B1A0CCA
:1000F000270CFD0E000FEF0EF30EF90E370F040F55
:10010000080F0E0F120F160F1C0F200F240F370FA2
:100110002A0F2E0F320F0C940E0C0C94120F0C940D
:1001200029020C94200F0C94270C0C94FD0E0C94B7
:10013000AE110C94040F0C94EC0B0C94080F0C945F
:10014000F90B0C94370F0C942A0F0C94A4110C94F7
:100150007D100C94AE120C945B100C94E00B0C947C
:10016000DB0F0C94D80B0C94D00F0C941A0C0C943D
:10017000000F0C9422040C942E0F0C945B120C9420
:10018000E90F0C94FD0F0C94F90E0C94240F0C94B1
:100190001C0F0C94EF0E0C94160F0C94F30E0C9491
:1001A00016040C94320F0C9451120C940E0F000094
:1001B0000A0B02090C0D0E080703040100000000E1
:1001C000000000000000000000000000000000002F
:1001D00000000000000000000000121110000000EC
:1001E000000000000000000000000000000000000F
:1001F00000000000010210202008081020401020FC
:1002000040800201020108040201010204081020DA
:1002100040808040201008040201800402018040D8
:100220002010080402010804020101020408102041
:1002300040800102040810204080050505050705DF
:1002400008080808020202020A0A08080404040452
:10025000010101010101010103030303030303037E
:10026000040707070C0C0C0C0C0C0C0C020202020D
:1002700006060606060606060B0B0B0B0B0B0B0BF6
:10028000000020002300260029002C002F0032004F
:100290000001000003010601090100002200250001
:1002A00028002B002E00310034000201000005015F
:1002B00008010B0100002100240027002A002D0066
:1002C0003000330001010000040107010A01160497
:1002D000AE115B12220411241FBECFEFD1E2DEBFAC
:1002E000CDBF00E00CBF13E0A0E0B2E0EEEFF5E31D
:1002F00000E00BBF02C007900D92A235B107D9F7FD
:1003000024E0A2E5B3E001C01D92AD3DB207E1F7E4
:1003100012E0C4EDD2E000E006C022970109FE0120
:100320000BBF0E943918CE3CD10780E00807A9F71F
:100330000E949F120C94ED1A0C940000EF92FF9211
:100340000F931F93CF93DF931F92CDB7DEB77C013E
:10035000FC01718360835383428326873787048738
:100360001587148215821682178260E0802F2983F8
:100370000E94380F61E0802F0E94710F60E0298198
:10038000822F0E94380FF701108A0F90DF91CF91D2
:100390001F910F91FF90EF900895FC018089448197
:1003A000558166817781882329F04150510961097F
:1003B000710904C04F5F5F4F6F4F7F4F4483558378
:1003C000668377830895CF92DF92EF92FF92CF9367
:1003D000DF93EC016C817D818E819F810E94C71625
:1003E0009B01AC010E94C8152BED3FE049E450E4AD
:1003F0000E947B176B017C016A817B81882777FDD6
:100400008095982F0E94C7169B01AC01C701B601C9
:100410000E942C1620E030E04AE952E40E942C169B
:1004200023E333E343E950E40E947B170E949416D0
:10043000CB01DF91CF91FF90EF90DF90CF900895A7
:10044000FC0164817581868197810895FC01608B30
:10045000089582E593E00C94BA0382E593E00E944C
:100460003C0242E050E069E272E082E00C94C30B8F
:1004700082E593E00C949A0A0F931F93CF93DF9336
:10048000EC0161E08DE00E94380F10929000E1E9EC
:10049000F0E01082109295001092940080818460A8
:1004A0008083E1E7F0E080818160808329E030E0B3
:1004B0004AE050E061E070E086E793E00E94E00AE5
:1004C00005E110E02EE130E04CE251E062E070E046
:1004D000CE010E960E949E0119A218A21BA21AA27A
:1004E00026E040E052EC61E070E08EE993E00E948B
:1004F000E21026E040E052EC61E070E08BE394E033
:100500000E94E2101E826EEC72E0CE010E949A14EC
:100510001D866EEC72E0CE0107960E949A1480E36D
:100520008F8FDF91CF911F910F910895EF92FF92DE
:100530000F931F93CF93DF938C017B01FC0182A16A
:1005400093A1E80EF91EE8012E9660E0CE010E940C
:10055000260260E070E086E793E00E94510B68E5B8
:100560007BE186E793E00E943C0B86E793E00E94E4
:10057000570BF80182A193A18E159F0584F464E6C0
:1005800070E080E090E00E94350ECE010E942002D3
:10059000CE010E94E301F80193A382A3EACFCE012A
:1005A0000E94200286E793E0DF91CF911F910F9187
:1005B000FF90EF900C94640BEF92FF920F931F93B8
:1005C000CF93DF93EC010AA11BA1061B170B61E07F
:1005D00070E086E793E00E94510B7E018EE0E80E0A
:1005E000F11C61E0C7010E94260268E57BE186E715
:1005F00093E00E943C0B86E793E00E94570B8AA190
:100600009BA108171907BCF4C7010E94E3019BA333
:100610008AA364E670E080E090E00E94350E8AA133
:100620009BA18E3691055CF760ED77E086E793E05D
:100630000E943C0BE4CF86E793E0DF91CF911F91BE
:100640000F91FF90EF900C94640B0F931F93CF9337
:10065000DF938B0164EF71E080E090E00E94350E43
:10066000C0E0D0E0C017D10704F560E08DE00E9443
:10067000710F6AEF70E080E090E00E94350E61E05B
:100680008DE00E94710F6AEF70E080E090E00E94C0
:10069000350E60E08DE00E94710F6AEF70E080E03F
:1006A00090E00E94350E2196DDCFDF91CF911F9112
:1006B0000F910895CF92DF92EF92FF920F931F93C5
:1006C000CF93DF93CDB7DEB72C970FB6F894DEBF8C
:1006D0000FBECDBF8C016EEC72E0CE0107960E947A
:1006E000641463E070E0C8010E94250327E030E055
:1006F00044E050E0B801CE0101960E947615BE019B
:100700006F5F7F4FCE0107960E947A14CE0101964B
:100710000E94F613CE0107960E94BB156B017C0167
:1007200063E070E0C8010E946415FC018081B6019D
:100730008B3221F4C8010E94960203C0C8010E94B6
:10074000DC0267E072E08EE993E00E942913CE019B
:1007500007960E94F6132C960FB6F894DEBF0FBED4
:10076000CDBFDF91CF911F910F91FF90EF90DF9060
:10077000CF9008950E960C94CD011F920F920FB654
:100780000F9211240BB60F922F933F934F935F93C9
:100790006F937F938F939F93AF93BF93EF93FF9349
:1007A0008DE00E94A70F61E068278DE00E94710F25
:1007B000FF91EF91BF91AF919F918F917F916F9139
:1007C0005F914F913F912F910F900BBE0F900FBEF5
:1007D0000F901F9018951F920F920FB60F92112431
:1007E0000F900FBE0F901F90189586E30E94BF0ECA
:1007F0006FEF70E00E94DE17CB0125E0289FB0016B
:10080000299F700D1124882777FD8095982F0E94CD
:10081000C71620E030ED44E856E40E947B1720E044
:1008200030E44CE955E40E942C1608956EEC72E019
:1008300082E593E00E9464146EEC72E089E593E037
:100840000C94641489E593E00E94F61382E593E02A
:100850000C94F6130F931F93CF93DF93CDB7DEB7AE
:1008600062970FB6F894DEBF0FBECDBF8A014AE093
:10087000CE010D960E94CB146EEC72E0CE0107966D
:100880000E94641489899A898330910519F46BE078
:1008900072E007C0029719F461E172E002C066E1FC
:1008A00072E0CE0101960E946414BE01635F7F4F27
:1008B000CE0101960E943715B8010E9437156DECE4
:1008C00072E00E944A15BC01CE0107960E947A147C
:1008D000CE0101960E94F613BE01695F7F4F8BE344
:1008E00094E00E94EC128BE394E00E94D00F892BDD
:1008F000D1F369E170E080E090E00E94350E10E0F5
:100900008BE394E00E94D00F1816190644F48BE391
:1009100094E00E94E90F843299F711E0F1CF11239E
:1009200011F3CE0107960E94F613CE010D960E9498
:10093000F61362960FB6F894DEBF0FBECDBFDF91FF
:10094000CF911F910F910895EF92FF920F931F93F4
:10095000CF93DF9300D000D0CDB7DEB78C017C0100
:100960008EE0E80EF11CC7010E94E301813491057D
:1009700024F56AE172E08EE993E00E94291366E0B3
:1009800070E0C8010E9496026BE272E08EE993E08B
:100990000E9429136BEE72E0CE0101960E9464144E
:1009A000AE014F5F5F4F65E070E0C8010E942A040E
:1009B000CE0101960E94F613D6CF63E372E08EE972
:1009C00093E00E9429136EE170E0C8010E94960234
:1009D00066E472E08EE993E00E94291326960FB632
:1009E000F894DEBF0FBECDBFDF91CF911F910F9165
:1009F000FF90EF9008954F925F926F927F928F9247
:100A00009F92AF92BF92DF92EF92FF920F931F934C
:100A1000CF93DF93CDB7DEB768970FB6F894DEBFFC
:100A20000FBECDBF8C016BE472E08EE993E00E94B3
:100A300029136EEC72E0CE0143960E9464146EECB2
:100A400072E0CE010D960E94641467E672E0CE015A
:100A500007960E94641460E070E086E793E00E94CD
:100A6000510B68E57BE186E793E00E943C0B86E74B
:100A700093E00E94570B6CE672E08EE993E00E94CF
:100A8000291362E872E08BE394E00E94FA128BE390
:100A900094E00E94D00F892BD1F365E070E080E0F4
:100AA00090E00E94350EC80107967C018BE394E02C
:100AB0000E94D00F18161906D4F48BE394E00E941C
:100AC000E90FD82E682FCE0101960E94B214BE0104
:100AD0006F5F7F4F8EE993E00E941713CE0101965E
:100AE0000E94F6136D2DC7010E942315DFCF67E822
:100AF00072E08EE993E00E94291326E030E043E0A3
:100B000050E0B701CE0101960E947615BE016F5FDD
:100B10007F4FCE010D960E947A14CE0101960E945D
:100B2000F613CE010D960E94BB15F80171A360A3C8
:100B3000B7018EE993E00E94EC126EEC72E0C701FF
:100B40000E949A146EE972E08EE993E00E942913E4
:100B5000DD24D394F80180A191A146970CF4C7C07D
:100B6000809180008F7B8093800062E872E08BE34D
:100B700094E00E94FA12809180008064809380004B
:100B80000E94060E2B013C01A12CB12C8BE394E0BA
:100B90000E94D00F892B89F50E94060E64197509F1
:100BA0008609970969387341810591057CF363EBE8
:100BB00072E08EE993E00E94FA122FEFA21AB20AB5
:100BC000F89462E872E08BE394E00E94FA12789461
:100BD0000E94060E2B013C0184E0A816B104B1F678
:100BE0006FEC72E08EE993E00E9429136DEE72E0E3
:100BF000CE0107960E949A147AC069E170E080E005
:100C000090E00E94350E8BE394E00E94D00F1816FE
:100C100019067CF48BE394E00E94E90FB82E682F4C
:100C2000C7010E9423159AE0B912EDCFF801D586CD
:100C3000EACF789426E030E043E050E0B701CE01FF
:100C400001960E947615BE016F5F7F4FCE010D9613
:100C50000E947A14CE0101960E94F6136EEC72E0A7
:100C6000C7010E949A14CE010D960E94BB15F8018F
:100C700071A360A34AE050E08EE993E00E94DE1386
:100C8000F80160A171A1653171053CF460E971E082
:100C900086E793E00E94700B2AC06551710988278E
:100CA00077FD8095982F0E94C7164B015C0120E0CC
:100CB00030E040EA51E40E94771718161CF468E50A
:100CC0007BE110C020E030E045EA53E4C501B40107
:100CD0000E947B1720E030E048EC53E40E94C815E6
:100CE0000E94941686E793E00E943C0B33CF86E780
:100CF00093E00E94640B67E070E0C8010E949602D6
:100D0000BE01695F7F4F8EE993E00E941713CE0109
:100D100007960E94F613CE010D960E94F613CE019F
:100D200043960E94F61368960FB6F894DEBF0FBE86
:100D3000CDBFDF91CF911F910F91FF90EF90DF908A
:100D4000BF90AF909F908F907F906F905F904F90EB
:100D500008950F931F93CF93DF9300D000D0CDB7AA
:100D6000DEB78C0162EF72E08BE394E00E94FA122E
:100D70006BE272E08EE993E00E9429138BE394E02A
:100D80000E94D00F892BD1F36AE070E080E090E000
:100D90000E94350E8BE394E00E94D00F18161906BE
:100DA000ACF48BE394E00E94E90F682FCE0101962A
:100DB0000E94B214BE016F5F7F4F8EE993E00E94E4
:100DC0001713CE0101960E94F613E4CF6AE172E098
:100DD0008EE993E00E94291368E270E0C8010E9446
:100DE000960268EF72E08EE993E00E94291369E0B1
:100DF00073E08EE993E00E94FA1268E073E08BE3FF
:100E000094E00E94FA126EE073E08EE993E00E9493
:100E100029138BE394E00E94D00F892BD1F36AE071
:100E200070E080E090E00E94350E8BE394E00E9439
:100E3000D00F18161906ACF48BE394E00E94E90F6A
:100E4000682FCE0101960E94B214BE016F5F7F4FE2
:100E50008EE993E00E941713CE0101960E94F613CB
:100E6000E4CF69E173E08EE993E00E94291367E221
:100E700073E08BE394E00E94FA128BE394E00E940B
:100E8000D00F892BD1F36AE070E080E090E00E94FF
:100E9000350E10E08BE394E00E94D00F181619066F
:100EA00044F48BE394E00E94E90F843299F711E057
:100EB000F1CF112319F06EE273E002C064E373E036
:100EC0008EE993E00E94FA1226960FB6F894DEBFE0
:100ED0000FBECDBFDF91CF911F910F910895FF926B
:100EE0000F931F93CF93DF93CDB7DEB72D970FB638
:100EF000F894DEBF0FBECDBF8C016EEC72E0CE0168
:100F000007960E94641462E070E0C8010E946415B4
:100F1000FC0180818C3409F466C0823509F463C019
:100F2000823409F460C026E030E043E050E0B801CC
:100F3000CE0101960E947615BE016F5F7F4FCE01F4
:100F400007960E947A14CE0101960E94F613CE01F4
:100F500007960E94BB15695F7F4FC8010E949602E9
:100F6000B8018BE394E00E94EC128BE394E00E94C2
:100F7000D00F892BD1F369E170E080E090E00E940E
:100F8000350EFF24F394095F1F4F8BE394E00E941A
:100F9000D00F18161906CCF78BE394E00E94E90FE6
:100FA000282F682F843239F0FF2029F08EE993E052
:100FB0000E94FC12EACFC8012D870E9423152D85BF
:100FC0002A3079F4B8018EE993E00E94EC128EE9A0
:100FD00093E00E945B106EEC72E0C8010E949A14CC
:100FE00002C0F12CD2CFCE0107960E94F6132D96A7
:100FF0000FB6F894DEBF0FBECDBFDF91CF911F912A
:101000000F91FF900895CF93DF93EC0164E070E0BF
:101010000E942503BE018BE394E00E94EC128BE357
:1010200094E00E945B108BE394E00E94D00F1816AE
:101030001906CCF78BE394E00E94E90FC82F682FC4
:101040008EE993E00E94FC12CA3069F78EE993E0C2
:10105000DF91CF910C945B104F925F926F927F92D1
:101060009F92AF92BF92CF92DF92EF92FF920F9337
:101070001F93CF93DF93CDB7DEB768970FB6F89481
:10108000DEBF0FBECDBF8C016EEC72E0CE01439689
:101090000E9464146EEC72E0CE010D960E946414FE
:1010A00067E672E0CE0107960E94641427E030E004
:1010B00044E050E0B801CE0101960E947615BE01D1
:1010C0006F5F7F4FCE0143960E947A14CE01019646
:1010D0000E94F613CE0143960E94BB156B017C0162
:1010E0005B0163E070E0C8010E946415FC0180812F
:1010F0008D3239F4AA24BB24AC18BD0861E070E03D
:1011000002C060E070E086E793E00E94510BF801B6
:10111000E0A0F1A0EA0CFB1CF4E1EF1AF10860E991
:1011200071E086E793E00E94700B86E793E00E94EF
:10113000570B6AE373E08BE394E00E94FA128BE3AF
:1011400094E00E94D00F892BD1F3C80107966C015F
:10115000AA24A3948BE394E00E94D00F18161906DA
:101160007CF48BE394E00E94E90FB82E682FC6014F
:101170000E9423159AE0B912EDCFF801A586EACFB7
:1011800026E030E043E050E0B601CE0101960E9437
:101190007615BE016F5F7F4FCE010D960E947A14C7
:1011A000CE0101960E94F613CE010D960E94BB154A
:1011B000F80171A360A34AE050E08EE993E00E9439
:1011C000DE1399249394F80180A191A18E159F05B7
:1011D0000CF0CCC0809180008F7B809380006AE30C
:1011E00073E08BE394E00E94FA12809180008064A7
:1011F000809380000E94060E2B013C01A12CB12C93
:101200008BE394E00E94D00F892B89F50E94060E93
:101210006419750986099709613D77408105910533
:101220007CF363EB72E08EE993E00E94FA122FEFF9
:10123000A21AB20AF8946AE373E08BE394E00E9486
:10124000FA1278940E94060E2B013C0184E0A81645
:10125000B104B1F66FEC72E08EE993E00E942913BD
:101260006DEE72E0CE0107960E949A147FC069E18C
:1012700070E080E090E00E94350E8BE394E00E94E5
:10128000D00F8BE394E00E94D00F181619067CF45F
:101290008BE394E00E94E90FB82E682FC6010E94EC
:1012A00023159AE0B912EDCFF8019586EACF78942C
:1012B00026E030E043E050E0B601CE0101960E9406
:1012C0007615BE016F5F7F4FCE010D960E947A1496
:1012D000CE0101960E94F6136EEC72E0C6010E94E8
:1012E0009A14CE010D960E94BB15F80171A360A35C
:1012F0004AE050E08EE993E00E94DE13F80180A1FD
:1013000091A18E159F053CF060E971E086E793E0BE
:101310000E94700B2BC0B701681B790B882777FDE3
:101320008095982F0E94C7162B013C0120E030E0E9
:1013300040EA51E40E94771718161CF468E57BE137
:1013400010C020E030E045EA53E4C301B2010E943E
:101350007B1720E030E048EC53E40E94C8150E945F
:10136000941686E793E00E943C0B2DCF86E793E02E
:101370000E94640BBE01695F7F4F8EE993E00E947B
:1013800017138EE993E00E945B10CE0107960E942E
:10139000F613CE010D960E94F613CE0143960E94DD
:1013A000F61368960FB6F894DEBF0FBECDBFDF917F
:1013B000CF911F910F91FF90EF90DF90CF90BF9052
:1013C000AF909F907F906F905F904F9008950F9394
:1013D0001F93CF93DF93CDB7DEB762970FB6F89424
:1013E000DEBF0FBECDBF8C010E94F503C8010E9673
:1013F0000E94E3014AE0BC01CE0107960E94CB1493
:101400006FE373E0CE0101960E946414BE01695F30
:101410007F4FCE0101960E9437156DEC72E00E945D
:101420004A15BC01CE010D960E949114CE01019681
:101430000E94F613CE0107960E94F613BE01635F69
:101440007F4F8EE993E00E94EC128EE993E00E94B8
:101450005B10CE010D960E94F61362960FB6F894BB
:10146000DEBF0FBECDBFDF91CF911F910F910895C9
:10147000CF93DF93EC0161E070E00E946415FC0102
:101480008081843471F13CF4813409F04BC0CE0189
:101490000E945A0305C08934F9F0823509F042C030
:1014A00062E070E0CE010E946415FC01808180330F
:1014B00029F4CE01DF91CF910C942C0862E070E00A
:1014C000CE010E946415FC018081843481F5CE0137
:1014D000DF91CF910C94FB04CE01DF91CF910C945E
:1014E000030862E070E0CE010E946415FC01808177
:1014F000843429F4CE01DF91CF910C94A40462E0EE
:1015000070E0CE010E946415FC018081843529F4CD
:10151000CE01DF91CF910C94A906CE01DF91CF913E
:101520000C946F07CE01DF91CF910C94E709DF9106
:10153000CF9108951F93CF93DF93EC018EE993E051
:101540000E94D00F11E08EE993E00E94D00F181690
:10155000190674F48EE993E00E94E90F8F8F682FCB
:10156000CE010E9423158F8D8A3069F71E83EBCF41
:101570006AEF70E080E090E00E94350E8E81882353
:10158000D9F060E070E0CE010E946415FC0180811A
:10159000843291F48091710080937100CE010E9499
:1015A000380A809171008160809371006EEC72E066
:1015B000CE010E949A141E82DF91CF911F9108954F
:1015C000EF92FF920F931F93CF93DF93EC01042FC1
:1015D000122F7983688349875A872B873C8788270E
:1015E00077FD8095982F0E94C7162BED3FE049ECC0
:1015F00050E40E942C160E9494167B836A8380E834
:10160000E82EF12CF7011082E1E8F0E01082109250
:1016100085001092840080E991E090938900809386
:10162000880080818860808380818260808361E01F
:101630008BE00E94380F61E0802F0E94380F61E03C
:10164000812F0E94380FF7018081808360E0812F15
:101650000E94710F60E08BE00E94710F81E090E0CA
:101660009D838C8318861E861D86DF91CF911F91E6
:101670000F91FF90EF900895882777FD8095982F20
:101680000E94C7169B01AC0160E074E284E799E414
:101690000E942C160E949416709389006093880013
:1016A0000895FC016483758381850C94710F21E09A
:1016B000FC012087E0E8F0E020812064208360E0E6
:1016C000FC0183850C94710FFC011086E0E8F0E0CA
:1016D00020812F7B208360E0FC0183850C94710FB7
:1016E000CF92DF92EF92FF920F931F93CF93DF93EE
:1016F000EC018B016115710511F40E94640BB801B6
:10170000882777FD8095982F0E94C71620E030E04B
:101710004AE952E40E947B176B017C010E949416F7
:101720007F836E836A817B81882777FD8095982FE0
:101730000E94C7169B01AC01C701B6010E947B172E
:101740000E94941628EE33E040E050E00E94141806
:1017500069E07DE380E090E00E941418CA01B901BD
:1017600022E030E040E050E00E94141830938900FD
:1017700020938800DF91CF911F910F91FF90EF9000
:10178000DF90CF900895883008F06DC0E82FF0E02A
:10179000EE0FFF1FEB57FC4F7183608390E0FC015D
:1017A0003197E730F10590F5EE58FF4F0C94331860
:1017B000809169008C7F842B80936900E89A08955A
:1017C00080916900440F551F440F551F837F842B60
:1017D00080936900E99A08958091690074E0440F4C
:1017E000551F7A95E1F78F7C842B80936900EA9AE4
:1017F00008958091690066E0440F551F6A95E1F7EE
:101800008F73842B80936900EB9A089580916A000E
:101810008C7F842B80936A00EC9A089580916A00F3
:10182000440F551F440F551F837F842B80936A00FC
:10183000ED9A089580916A0024E0440F551F2A957F
:10184000E1F78F7C842B80936A00EE9A0895809153
:101850006A0096E0440F551F9A95E1F78F73842B29
:1018600080936A00EF9A08951F920F920FB60F921D
:1018700011240BB60F922F933F934F935F936F9367
:101880007F938F939F93AF93BF93EF93FF93809139
:10189000890390918A03892B29F0E0918903F091C3
:1018A0008A031995FF91EF91BF91AF919F918F910D
:1018B0007F916F915F914F913F912F910F900BBE50
:1018C0000F900FBE0F901F9018951F920F920FB69A
:1018D0000F9211240BB60F922F933F934F935F9368
:1018E0006F937F938F939F93AF93BF93EF93FF93E8
:1018F00080918B0390918C03892B29F0E0918B03CD
:10190000F0918C031995FF91EF91BF91AF919F9149
:101910008F917F916F915F914F913F912F910F9098
:101920000BBE0F900FBE0F901F9018951F920F9235
:101930000FB60F9211240BB60F922F933F934F9334
:101940005F936F937F938F939F93AF93BF93EF9327
:10195000FF9380918D0390918E03892B29F0E09164
:101960008D03F0918E031995FF91EF91BF91AF9187
:101970009F918F917F916F915F914F913F912F91A7
:101980000F900BBE0F900FBE0F901F9018951F92D7
:101990000F920FB60F9211240BB60F922F933F9315
:1019A0004F935F936F937F938F939F93AF93BF9367
:1019B000EF93FF9380918F0390919003892B29F0EF
:1019C000E0918F03F09190031995FF91EF91BF91F2
:1019D000AF919F918F917F916F915F914F913F91C7
:1019E0002F910F900BBE0F900FBE0F901F90189568
:1019F0001F920F920FB60F9211240BB60F922F93D6
:101A00003F934F935F936F937F938F939F93AF9386
:101A1000BF93EF93FF938091850390918603892B69
:101A200029F0E0918503F09186031995FF91EF91DC
:101A3000BF91AF919F918F917F916F915F914F91E6
:101A40003F912F910F900BBE0F900FBE0F901F90E4
:101A500018951F920F920FB60F9211240BB60F928A
:101A60002F933F934F935F936F937F938F939F93A6
:101A7000AF93BF93EF93FF93809187039091880377
:101A8000892B29F0E0918703F09188031995FF9144
:101A9000EF91BF91AF919F918F917F916F915F91E6
:101AA0004F913F912F910F900BBE0F900FBE0F9053
:101AB0001F9018951F920F920FB60F9211240BB61C
:101AC0000F922F933F934F935F936F937F938F93D7
:101AD0009F93AF93BF93EF93FF9380919103909166
:101AE0009203892B29F0E0919103F09192031995CB
:101AF000FF91EF91BF91AF919F918F917F916F91E6
:101B00005F914F913F912F910F900BBE0F900FBEA1
:101B10000F901F9018951F920F920FB60F921124DD
:101B20000BB60F922F933F934F935F936F937F93D7
:101B30008F939F93AF93BF93EF93FF938091930302
:101B400090919403892B29F0E0919303F0919403F1
:101B50001995FF91EF91BF91AF919F918F917F91D7
:101B60006F915F914F913F912F910F900BBE0F900E
:101B70000FBE0F901F9018951F920F920FB60F92E5
:101B800011242F933F938F939F93AF93BF93809193
:101B9000960390919703A0919803B0919903309187
:101BA000950323E0230F2D3720F40196A11DB11DCD
:101BB00005C026E8230F0296A11DB11D20939503B1
:101BC0008093960390939703A0939803B0939903FF
:101BD00080919A0390919B03A0919C03B0919D03E7
:101BE0000196A11DB11D80939A0390939B03A0932E
:101BF0009C03B0939D03BF91AF919F918F913F91B3
:101C00002F910F900FBE0F901F9018952FB7F8943B
:101C10006091960370919703809198039091990336
:101C20002FBF08953FB7F89480919A0390919B033A
:101C3000A0919C03B0919D0326B5A89B05C02F3FA2
:101C400019F00196A11DB11D3FBF6627782F892F7E
:101C50009A2F620F711D811D911D42E0660F771F43
:101C6000881F991F4A95D1F70895CF92DF92EF927E
:101C7000FF92CF93DF936B017C010E94120EEB0168
:101C8000C114D104E104F10489F00E94C6150E9438
:101C9000120E6C1B7D0B683E734090F381E0C81AF6
:101CA000D108E108F108C851DC4FEACFDF91CF91AC
:101CB000FF90EF90DF90CF900895789484B5826084
:101CC00084BD84B5816084BD85B5826085BD85B5E0
:101CD000816085BDEEE6F0E0808181608083E1E88F
:101CE000F0E01082808182608083808181608083C7
:101CF000E0E8F0E0808181608083E1EBF0E08081CA
:101D000084608083E0EBF0E0808181608083E1E9A2
:101D1000F0E0808182608083808181608083E0E95F
:101D2000F0E0808181608083E1EAF0E08081826080
:101D30008083808181608083E0EAF0E0808181603F
:101D40008083E1E2F1E08081826080838081816034
:101D50008083E0E2F1E0808181608083EAE7F0E067
:101D600080818460808380818260808380818160C3
:101D700080838081806880831092C10008958633BB
:101D800008F0865320917B00982F9870277F922B24
:101D900090937B0087702091060290E4299F900128
:101DA0001124822B80937C0080917A008064809340
:101DB0007A0080917A0086FDFCCF80917800209196
:101DC000790090E0922B089590E0FC013197E23188
:101DD000F10508F04CC0E758FF4F0C943318809180
:101DE00080008F7703C0809180008F7D809380007A
:101DF000089580918000877FF9CF84B58F7702C0E6
:101E000084B58F7D84BD08958091B0008F7703C025
:101E10008091B0008F7D8093B000089580919000F4
:101E20008F7707C0809190008F7D03C080919000D4
:101E3000877F8093900008958091A0008F7707C0DE
:101E40008091A0008F7D03C08091A000877F809348
:101E5000A0000895809120018F7707C08091200114
:101E60008F7D03C080912001877F8093200108959A
:101E7000CF93DF9390E0FC01EC50FE4F2491FC01E6
:101E8000E65CFD4F8491882349F190E0880F991F0B
:101E9000FC01EC54FD4FA591B49186569D4FFC0179
:101EA000C591D4919FB7611108C0F8948C91209589
:101EB00082238C93888182230AC0623051F4F89483
:101EC0008C91322F309583238C938881822B888349
:101ED00004C0F8948C91822B8C939FBFDF91CF919B
:101EE00008950F931F93CF93DF931F92CDB7DEB763
:101EF000282F30E0F901E255FE4F8491F901EC50B2
:101F0000FE4F1491F901E65CFD4F04910023C9F0E6
:101F1000882321F069830E94E40E6981E02FF0E0BC
:101F2000EE0FFF1FE656FD4FA591B4919FB7F894B1
:101F30008C91611103C01095812301C0812B8C937A
:101F40009FBF0F90DF91CF911F910F910895CF9375
:101F5000DF93282F30E0F901E255FE4F8491F9011B
:101F6000EC50FE4FD491F901E65CFD4FC491CC23B7
:101F700091F081110E94E40EEC2FF0E0EE0FFF1FB4
:101F8000E058FD4FA591B4912C912D2381E090E074
:101F900021F480E002C080E090E0DF91CF910895CD
:101FA000FC01818D228D90E0805C9F4F821B910906
:101FB0008F7399270895FC01918D828D981731F0C8
:101FC000828DE80FF11D858D90E008958FEF9FEFD2
:101FD0000895FC01918D828D981761F0828DDF014B
:101FE000A80FB11D5D968C91928D9F5F9F73928F0C
:101FF00090E008958FEF9FEF089584EA91E1892B97
:1020000041F080E090E0892B21F00E94A411811121
:1020100025C080E090E0892B41F080E090E0892BA2
:1020200021F00E94000081111CC080E090E0892B0B
:1020300041F080E090E0892B21F00E9400008111A6
:1020400013C081E592E1892BA1F080E090E0892B1B
:1020500081F00E94511281110AC008950E9400006F
:10206000D8CF0E940000E1CF0E940000EACF0C947C
:1020700000000895FC01848DDF01A80FB11DA35A53
:10208000BF4F2C91848D90E001968F739927848F98
:10209000A689B7892C93A089B1898C9180648C938F
:1020A000938D848D981306C00288F389E02D80817A
:1020B0008F7D80830895CF93DF93EC01888D8823F3
:1020C000C9F0EA89FB89808185FD05C0A889B989A5
:1020D0008C9186FD0FC00FB607FCF5CF808185FF80
:1020E000F2CFA889B9898C9185FFEDCFCE010E94EE
:1020F0003A10E7CFDF91CF910895CF92DF92FF9210
:102100000F931F93CF93DF931F92CDB7DEB76C0170
:10211000DC015B969C915B975C968C915C97981325
:1021200007C05096ED91FC915197808185FD32C09A
:10213000F601038D10E00F5F1F4F0F731127F02E74
:10214000F601848DF81211C00FB607FCF9CFD60145
:102150005096ED91FC915197808185FFF1CFC6019A
:1021600069830E943A106981EBCF838DE80FF11DDE
:10217000E35AFF4F6083D6015B960C935B975296B0
:10218000ED91FC91539780818062808381E0589625
:102190008C930DC0D6015696ED91FC9157976083B4
:1021A0005096ED91FC91519780818064808381E00D
:1021B00090E00F90DF91CF911F910F91FF90DF90F2
:1021C000CF900895BF92CF92DF92EF92FF92CF937C
:1021D000DF93EC016A017B01B22EE889F98982E084
:1021E0008083411581EE580761057105A1F060E01B
:1021F00079E08DE390E0A70196010E94F21721504B
:10220000310941095109569547953795279521156B
:1022100080E1380798F0E889F989108260E874E86D
:102220008EE190E0A70196010E94F217215031093A
:10223000410951095695479537952795EC85FD85B8
:102240003083EE85FF852083188EEC89FD89B0826E
:10225000EA89FB89808180618083EA89FB898081AA
:1022600088608083EA89FB89808180688083EA892D
:10227000FB8980818F7D8083DF91CF91FF90EF90EC
:10228000DF90CF90BF9008951F920F920FB60F92DC
:1022900011240BB60F922F938F939F93EF93FF937D
:1022A000E091AE03F091AF038081E091B403F0912F
:1022B000B50382FD12C090818091B7038F5F8F7349
:1022C0002091B803821751F0E091B703F0E0E25695
:1022D000FC4F958F8093B70301C08081FF91EF91F0
:1022E0009F918F912F910F900BBE0F900FBE0F906B
:1022F0001F9018951F920F920FB60F9211240BB6D4
:102300000F922F933F934F935F936F937F938F938E
:102310009F93AF93BF93EF93FF938EE993E00E9457
:102320003A10FF91EF91BF91AF919F918F917F9163
:102330006F915F914F913F912F910F900BBE0F9036
:102340000FBE0F901F9018958EE993E00E94D00F5A
:1023500021E0892B09F420E0822F08951092A10337
:102360001092A00388EE93E0A0E0B0E08093A20377
:102370009093A303A093A403B093A50386E493E0F2
:1023800090939F0380939E0385EC90E09093AB0322
:102390008093AA0384EC90E09093AD038093AC0308
:1023A00080EC90E09093AF038093AE0381EC90E0DB
:1023B0009093B1038093B00382EC90E09093B303C9
:1023C0008093B20386EC90E09093B5038093B403BE
:1023D0001092B7031092B8031092B9031092BA0387
:1023E00008951F920F920FB60F9211240BB60F9201
:1023F0002F938F939F93EF93FF93E0914B04F09172
:102400004C048081E0915104F091520482FD12C08D
:102410009081809154048F5F8F73209155048217AF
:1024200051F0E0915404F0E0E55CFB4F958F809310
:10243000540401C08081FF91EF919F918F912F9162
:102440000F900BBE0F900FBE0F901F9018951F920C
:102450000F920FB60F9211240BB60F922F933F934A
:102460004F935F936F937F938F939F93AF93BF939C
:10247000EF93FF938BE394E00E943A10FF91EF916A
:10248000BF91AF919F918F917F916F915F914F918C
:102490003F912F910F900BBE0F900FBE0F901F908A
:1024A00018958BE394E00E94D00F21E0892B09F46A
:1024B00020E0822F089510923E0410923D0488EE91
:1024C00093E0A0E0B0E080933F0490934004A09399
:1024D0004104B093420486E493E090933C048093DB
:1024E0003B0485E391E0909348048093470484E3A0
:1024F00091E090934A048093490480E391E09093A3
:102500004C0480934B0481E391E090934E048093BC
:102510004D0482E391E09093500480934F0486E34E
:1025200091E09093520480935104109254041092BD
:1025300055041092560410925704089508950E946D
:102540005D0E0E949E120E942D02CDEFDFE00E94E0
:1025500038022097E1F30E94FD0FF9CFCF92DF926E
:10256000EF92FF920F931F93CF93DF936C017A0149
:10257000EB01E60EF71E00E010E0CE15DF0561F07E
:102580006991D601ED91FC910190F081E02DC60199
:102590001995080F191FF1CFC801DF91CF911F9135
:1025A0000F91FF90EF90DF90CF9008956115710526
:1025B00081F0DB010D900020E9F7AD014150510998
:1025C000461B570BDC01ED91FC910280F381E02D5D
:1025D000199480E090E00895DC01ED91FC91DB011D
:1025E00014964D915C9115976D917C910280F381C9
:1025F000E02D19940C94D612DC01ED91FC91019020
:10260000F081E02D19940F931F93CF93DF93EC018A
:102610006DE00E94FC128C016AE0CE010E94FC1267
:10262000800F911FDF91CF911F910F9108950F930C
:102630001F93CF93DF93EC010E94EC128C01CE012B
:102640000E940313800F911FDF91CF911F910F9173
:1026500008950F931F93CF93DF93EC010E94D6123E
:102660008C01CE010E940313800F911FDF91CF9147
:102670001F910F9108958F929F92AF92BF92CF9228
:10268000DF92EF92FF920F931F93CF93DF93CDB71B
:10269000DEB7A1970FB6F894DEBF0FBECDBF7C01A9
:1026A000C42EE52FCB01D22E19A221E02D1510F05A
:1026B0002AE0D22E8E010F5D1F4F8D2C912CA12C64
:1026C000B12C6C2D7E2FA50194010E94F2178C2D48
:1026D000D29E80191124015011098A3014F4805DB2
:1026E00001C0895CF8018083211531054105510540
:1026F00021F0C22EE32FCA01E4CFB801C7010E9426
:10270000D612A1960FB6F894DEBF0FBECDBFDF91F3
:10271000CF911F910F91FF90EF90DF90CF90BF90DE
:10272000AF909F908F900895CF92DF92EF92FF929B
:102730000F931F93CF93DF93EC016A017B01211567
:10274000310579F4E881F9810190F081E02D642F61
:10275000DF91CF911F910F91FF90EF90DF90CF907D
:1027600019942A303105E9F477FF1AC06DE20E940E
:10277000FC128C0144275527BA014C195D096E09DA
:102780007F092AE0CE010E943B13800F911FDF9149
:10279000CF911F910F91FF90EF90DF90CF90089510
:1027A0002AE0B701A601CE01DF91CF911F910F91D1
:1027B000FF90EF90DF90CF900C943B130F931F93FB
:1027C000CF93DF93EC019A01AB01662757FD60952B
:1027D000762F0E9494138C01CE010E940313800F68
:1027E000911FDF91CF911F910F910895FC0180817E
:1027F00091810C94E918CF93DF93EC018881998142
:10280000009711F00E94E918198218821D821C821B
:102810001B821A82DF91CF9108950F931F93CF935C
:10282000DF93EC018B016F5F7F4F888199810E945C
:102830007819009731F0998388831B830A8381E09C
:1028400001C080E0DF91CF911F910F910895CF9348
:10285000DF93EC0188819981892B29F08A819B8102
:102860008617970760F4CE010E940D14882341F06B
:102870008C819D81892B19F4E881F981108281E096
:10288000DF91CF910895EF92FF920F931F93CF9313
:10289000DF93EC017B018A01BA010E9427148111A8
:1028A00004C0CE010E94FB1307C01D830C83B70137
:1028B000888199810E94911ACE01DF91CF911F9159
:1028C0000F91FF90EF900895FC0111821082138206
:1028D0001282158214826115710559F0FB01019075
:1028E0000020E9F7AF0141505109461B570B0C94EA
:1028F00043140895CF93DF93EC01FB0186179707EC
:1029000061F0608171816115710529F04481558103
:102910000E94431402C00E94FB13CE01DF91CF91AD
:102920000895FC0111821082138212821582148292
:102930000C947A14CF93DF93EC016115710561F06B
:10294000FB0101900020E9F7AF0141505109461BFE
:10295000570B0E94431402C00E94FB13CE01DF916B
:10296000CF910895CF93DF931F921F92CDB7DEB71B
:10297000FC011182108213821282158214826983F3
:102980001A82BE016F5F7F4F0E949A140F900F90C2
:10299000DF91CF9108950F931F93CF93DF93CDB71E
:1029A000DEB762970FB6F894DEBF0FBECDBF8C01C5
:1029B000CB01F801118210821382128215821482D7
:1029C00050E0BE016F5F7F4F0E94981ABE016F5F9B
:1029D0007F4FC8010E949A1462960FB6F894DEBF2A
:1029E0000FBECDBFDF91CF911F910F910895EF9250
:1029F000FF920F931F93CF93DF93EC017B010C8128
:102A00001D816115710511F480E016C04115510555
:102A100091F0040F151FB8010E9427148823A1F319
:102A2000288139818C819D81B701820F931F0E947B
:102A3000911A1D830C8381E0DF91CF911F910F913B
:102A4000FF90EF900895CF93DF931F921F92CDB721
:102A5000DEB769831A8241E050E0BE016F5F7F4FAD
:102A60000E94F7140F900F90DF91CF910895CF93AC
:102A7000DF93EC01FB0144815581608171810E94EB
:102A8000F714811103C0CE010E94FB13CE01DF9128
:102A9000CF910895CF93DF93EC016115710569F033
:102AA000FB0101900020E9F7AF0141505109461B9D
:102AB000570B0E94F714811103C0CE010E94FB1333
:102AC000CE01DF91CF910895FC0184819581681733
:102AD000790720F480819181009729F41092D8041D
:102AE00088ED94E00895860F971F0895BF92CF92C6
:102AF000DF92EF92FF920F931F93CF93DF936C01BE
:102B00007B01EA0189012417350720F48D2FE901A3
:102B1000042F182F6EEC72E0C6010E946414D701D6
:102B200014968D919C911597C817D907C8F48017F2
:102B3000910708F48C01D701ED91FC911197E00FFA
:102B4000F11FB08010826D917C916C0F7D1FC601CA
:102B50000E949A14D701ED91FC91E00FF11FB08211
:102B6000C601DF91CF911F910F91FF90EF90DF9001
:102B7000CF90BF900895FC0180819181009711F062
:102B80000C94611A60E070E0CB01089508955058EC
:102B9000BB27AA270ED071C162D130F067D120F0D7
:102BA00031F49F3F11F41EF457C10EF4E095E7FB9A
:102BB0004DC1E92F73D180F3BA17620773078407F9
:102BC000950718F071F49EF58BC10EF4E0950B2E6D
:102BD000BA2FA02D0B01B90190010C01CA01A0016F
:102BE0001124FF27591B99F0593F50F4503E68F1CA
:102BF0001A16F040A22F232F342F4427585FF3CF0B
:102C0000469537952795A795F0405395C9F77EF4DB
:102C10001F16BA0B620B730B840BBAF09150A1F024
:102C2000FF0FBB1F661F771F881FC2F70EC0BA0FAA
:102C3000621F731F841F48F4879577956795B79532
:102C4000F7959E3F08F0B3CF9395880F08F099272A
:102C5000EE0F9795879508950CD00FC107D140F0DE
:102C6000FED030F021F45F3F19F0F0C0511139C1AE
:102C7000F3C014D198F39923C9F35523B1F3951BED
:102C8000550BBB27AA2762177307840738F09F5F8D
:102C90005F4F220F331F441FAA1FA9F333D00E2EFC
:102CA0003AF0E0E830D091505040E695001CCAF769
:102CB00029D0FE2F27D0660F771F881FBB1F26172E
:102CC00037074807AB07B0E809F0BB0B802DBF0101
:102CD000FF2793585F4F2AF09E3F510568F0B6C01A
:102CE00000C15F3FECF3983EDCF3869577956795DE
:102CF000B795F7959F5FC9F7880F911D96958795B2
:102D000097F90895E1E0660F771F881FBB1F6217D0
:102D100073078407BA0720F0621B730B840BBA0B8E
:102D2000EE1F88F7E095089504D06894B111D9C0DA
:102D30000895BCD088F09F5790F0B92F9927B751CC
:102D4000A0F0D1F0660F771F881F991F1AF0BA956F
:102D5000C9F712C0B13081F0C3D0B1E00895C0C04E
:102D6000672F782F8827B85F39F0B93FCCF3869565
:102D700077956795B395D9F73EF4909580957095C2
:102D800061957F4F8F4F9F4F0895E89409C097FB3F
:102D90003EF490958095709561957F4F8F4F9F4F32
:102DA0009923A9F0F92F96E9BB279395F695879576
:102DB00077956795B795F111F8CFFAF4BB0F11F439
:102DC00060FF1BC06F5F7F4F8F4F9F4F16C08823E0
:102DD00011F096E911C0772321F09EE8872F762F16
:102DE00005C0662371F096E8862F70E060E02AF057
:102DF0009A95660F771F881FDAF7880F9695879543
:102E000097F90895990F0008550FAA0BE0E8FEEF17
:102E100016161706E807F907C0F012161306E4079E
:102E2000F50798F0621B730B840B950B39F40A2697
:102E300061F0232B242B252B21F408950A2609F475
:102E4000A140A6958FEF811D811D089597F99F6779
:102E500080E870E060E008959FEF80EC0895002422
:102E60000A941616170618060906089500240A94EF
:102E700012161306140605060895092E0394000C75
:102E800011F4882352F0BB0F40F4BF2B11F460FF04
:102E900004C06F5F7F4F8F4F9F4F089557FD90582D
:102EA000440F551F59F05F3F71F04795880F97FB0E
:102EB000991F61F09F3F79F08795089512161306C8
:102EC0001406551FF2CF4695F1DF08C016161706F7
:102ED0001806991FF1CF869571056105089408952C
:102EE000E894BB2766277727CB0197F908958ADFF7
:102EF00008F48FEF08950BD0C0CFB1DF28F0B6DF14
:102F000018F0952309F0A2CFA7CF1124EACFC6DF8E
:102F1000A0F3959FD1F3950F50E0551F629FF001EC
:102F2000729FBB27F00DB11D639FAA27F00DB11D45
:102F3000AA1F649F6627B00DA11D661F829F2227CE
:102F4000B00DA11D621F739FB00DA11D621F839F55
:102F5000A00D611D221F749F3327A00D611D231F2B
:102F6000849F600D211D822F762F6A2F11249F5779
:102F700050408AF0E1F088234AF0EE0FFF1FBB1F9C
:102F8000661F771F881F91505040A9F79E3F51053B
:102F900070F05CCFA6CF5F3FECF3983EDCF38695F4
:102FA00077956795B795F795E7959F5FC1F7FE2BE6
:102FB000880F911D9695879597F9089597FB072E91
:102FC00016F4009407D077FD09D00E943D1807FC45
:102FD00005D03EF4909581959F4F08957095619529
:102FE0007F4F0895A1E21A2EAA1BBB1BFD010DC045
:102FF000AA1FBB1FEE1FFF1FA217B307E407F507A9
:1030000020F0A21BB30BE40BF50B661F771F881F84
:10301000991F1A9469F760957095809590959B011A
:10302000AC01BD01CF010895052E97FB1EF400945D
:103030000E942B1857FD07D00E94F21707FC03D0FF
:103040004EF40C942B1850954095309521953F4F98
:103050004F4F5F4F089590958095709561957F4F84
:103060008F4F9F4F0895EE0FFF1F0590F491E02DB5
:1030700019940790F691E02D1994AA1BBB1B51E1FE
:1030800007C0AA1FBB1FA617B70710F0A61BB70BD8
:10309000881F991F5A95A9F780959095BC01CD017D
:1030A0000895CF93DF938230910510F482E090E091
:1030B000E091DB04F091DC0420E030E0A0E0B0E03F
:1030C000309739F14081518148175907B8F04817B6
:1030D000590771F482819381109729F013969C937C
:1030E0008E9312972CC09093DC048093DB0427C04E
:1030F0002115310531F04217530718F0A901DB0102
:1031000001C0EF019A01BD01DF010280F381E02DD2
:10311000D7CF21153105F9F0281B390B24303105A3
:1031200080F48A819B816115710521F0FB019383F5
:10313000828304C09093DC048093DB04FE0132960A
:1031400044C0FE01E20FF31F819391932250310995
:10315000398328833AC02091D9043091DA04232B93
:1031600041F420910202309103023093DA0420935B
:10317000D90420910002309101022115310541F45A
:103180002DB73EB74091040250910502241B350B28
:10319000E091D904F091DA04E217F307A0F42E1BB2
:1031A0003F0B2817390778F0AC014E5F5F4F2417AB
:1031B000350748F04E0F5F1F5093DA044093D9044F
:1031C0008193919302C0E0E0F0E0CF01DF91CF91D5
:1031D0000895CF93DF93009709F487C0FC013297DD
:1031E00013821282C091DB04D091DC04209781F419
:1031F00020813181280F391F8091D9049091DA0400
:103200008217930779F5F093DA04E093D9046DC03F
:10321000DE0120E030E0AE17BF0750F412964D916A
:103220005C9113979D014115510509F1DA01F3CF26
:10323000B383A28340815181840F951F8A179B0716
:1032400071F48D919C911197840F951F0296918333
:10325000808312968D919C9113979383828321157D
:10326000310529F4F093DC04E093DB043EC0D9017E
:103270001396FC93EE9312974D915D91A40FB51F99
:10328000EA17FB0779F480819181840F951F0296DC
:10329000D90111969C938E938281938113969C936E
:1032A0008E931297E0E0F0E08A819B81009719F0FD
:1032B000FE01EC01F9CFCE01029628813981820FFF
:1032C000931F2091D9043091DA042817390769F443
:1032D000309729F41092DC041092DB0402C01382B0
:1032E0001282D093DA04C093D904DF91CF9108956C
:1032F0006F927F928F929F92AF92BF92CF92DF9206
:10330000EF92FF920F931F93CF93DF93EC01CB01CA
:10331000209781F4DF91CF911F910F91FF90EF9053
:10332000DF90CF90BF90AF909F908F907F906F90E5
:103330000C945118FE01E60FF71F9E01225031092F
:10334000E217F30708F4ACC0D9010D911C91119755
:1033500006171707B8F00530110508F49FC0A8013B
:10336000445051094617570708F498C002501109F4
:10337000061B170B019311936D937C93CF010E9451
:10338000E9188CC05B01A01AB10A4E01800E911E93
:10339000A091DB04B091DC04612C712C60E070E042
:1033A000109709F449C0A815B905C9F5ED90FC902E
:1033B0001197670142E0C40ED11CCA14DB0478F1F6
:1033C00047018A189B08640142E0C40ED11C129682
:1033D000BC9012971396AC91B5E0CB16D10440F097
:1033E000B282A38391828082D9018D939C9309C07C
:1033F0000E5F1F4F0E0D1F1DF90111830083EB2D72
:10340000FA2F6115710531F0DB011396FC93EE93F1
:10341000129744C0F093DC04E093DB043FC06D914D
:103420007C9111976616770608F43B01BD01129650
:103430000D90BC91A02DB4CF6091D9047091DA04A5
:1034400068157905E9F468167906D0F44091000210
:10345000509101024115510541F44DB75EB760919D
:10346000040270910502461B570BE417F507C0F4E0
:10347000F093DA04E093D904F901918380830EC0BC
:103480000E9451187C01009759F0A801BE010E94CA
:10349000881ACE010E94E918C70104C0CE0102C0FB
:1034A00080E090E0DF91CF911F910F91FF90EF901E
:1034B000DF90CF90BF90AF909F908F907F906F9054
:1034C00008951F93FC0199278827BC01E894119166
:1034D0001032E9F3193010F01E30C8F31B3251F0EE
:1034E0001D3249F4689406C00E94AE1A610F711D26
:1034F000811D911D119110531A30B0F33EF4909537
:103500008095709561957F4F8F4F9F4F1F910895C4
:10351000FB01DC0102C001900D9241505040D8F7F0
:103520000895FB01DC0101900D920020E1F7089560
:103530004532510520F4423010F00C94A31AFB01DF
:103540001082CB010895BB274A3031F4992322F42D
:10355000BDE2909581959F4F0C94C41A592F482F26
:10356000372F262F660F771F881F991F660F771F2B
:10357000881F991F620F731F841F951F660F771F87
:10358000881F991F0895BB27FB015527AA27880F7D
:10359000991FAA1FA41710F0A41B83955051B9F7C7
:1035A000A05DAA3308F0A95DA193009779F7B11146
:1035B000B1931192CB010C94DD1ADC01FC01672F51
:1035C00071917723E1F7329704C07C916D937083FA
:1035D0006291AE17BF07C8F3089512E0C4EDD2E0C0
:1035E00000E006C022970109FE010BBF0E943918B6
:0E35F000C63DD10780E00807A9F7F894FFCF89
:1035FE000000DD0480000124415000244446303098
:10360E00002444463000244446004465706C6F79B3
:10361E00696E6720546574686572004472697669D4
:10362E006E670053706F6F6C696E672052656D61C7
:10363E00696E646572002444445000456E74657270
:10364E006564204175746F2052617070656C204303
:10365E006F6D6D616E640024523050004765747456
:10366E00696E672044657074682066726F6D2043C2
:10367E0052002452440A00526563656976656420DF
:10368E00496E697469616C20446570746800456E9A
:10369E00746572696E672052617070656C204C6F34
:1036AE006F7000526573656E64696E6720636F6D2F
:1036BE006D616E6420746F2043522E2E2E0A0046CA
:1036CE0061696C656420746F20636F6D6D756E69D2
:1036DE006361746520776974682043520024523008
:1036EE004600244454470A005465746865722044A9
:1036FE0065706C6F79656400244454530A0043521C
:10370E002053746F7070656400435220496E2052CE
:10371E006576657273650024445452410A00244450
:10372E0054500A00244454460A002452300A0024FD
:10373E005300000000007D10AE12D00FE90FDB0F1A
:02374E005B100E
:00000001FF
