:100000000C946B010C9483080C94B4080C94E508D0
:100010000C9416090C9447090C9478090C94A909BE
:100020000C94DA090C949C010C949C010C949C0196
:100030000C949C010C949C010C949C010C949C01CC
:100040000C949C010C940F040C949C010C949C0146
:100050000C949C010C949C010C949C010C940B0A34
:100060000C949C010C946E0D0C94A40D0C949C01AA
:100070000C949C010C949C010C949C010C949C018C
:100080000C949C010C949C010C949C010C94E10335
:100090000C949C010C949C010C949C010C949C016C
:1000A0000C949C010C949C010C949C010C949C015C
:1000B0000C949C010C949C010C949C010C949C014C
:1000C0000C949C010C949C010C949C010C949C013C
:1000D0000C949C010C949C010C941B0E0C94510EDE
:1000E0000C949C015D0827082F083B084808690804
:1000F0007608270B2A0B190B1D0B230B610B2E0BFC
:10010000320B380B3C0B400B460B4A0B4E0B610B72
:10011000540B580B5C0B0C941D0B0C94D80E0C94C8
:10012000610B0C94400B0C943C0B0C942F080C941A
:10013000CE0D0C9429020C944E0B0C9425040C94B7
:10014000380B0C94270B0C945D080C94D80D0C9470
:10015000230B0C9476080C9419040C942A0B0C9421
:10016000FA0B0C94A70C0C94850C0C94540B0C9467
:100170005C0B0C94320B0C94190B0C94050C0C9426
:1001800069080C9448080C94580B0C94270C0C9498
:100190007B0E0C94850E0C94460B0C94130C0C9453
:1001A00027080C944A0B0C942E0B0C943B0800006F
:1001B0000A0B02090C0D0E080703040100000000E1
:1001C000000000000000000000000000000000002F
:1001D00000000000000000000000121110000000EC
:1001E000000000000000000000000000000000000F
:1001F00000000000010210202008081020401020FC
:1002000040800201020108040201010204081020DA
:1002100040808040201008040201800402018040D8
:100220002010080402010804020101020408102041
:1002300040800102040810204080050505050705DF
:1002400008080808020202020A0A08080404040452
:10025000010101010101010103030303030303037E
:10026000040707070C0C0C0C0C0C0C0C020202020D
:1002700006060606060606060B0B0B0B0B0B0B0BF6
:10028000000020002300260029002C002F0032004F
:100290000001000003010601090100002200250001
:1002A00028002B002E00310034000201000005015F
:1002B00008010B0100002100240027002A002D0066
:1002C0003000330001010000040107010A01190494
:1002D000D80D850E250411241FBECFEFD1E2DEBF5D
:1002E000CDBF00E00CBF12E0A0E0B2E0E4EAFDE226
:1002F00000E00BBF02C007900D92A237B107D9F7FB
:1003000023E0A2E7B2E001C01D92AD3FB207E1F7E2
:1003100012E0C4EDD2E000E006C022970109FE0120
:100320000BBF0E941414CE3CD10780E00807A9F748
:100330000E94C90E0C94C0160C940000EF92FF921C
:100340000F931F93CF93DF931F92CDB7DEB77C013E
:10035000FC01718360835383428326873787048738
:100360001587148215821682178260E0802F2983F8
:100370000E94620B61E0802F0E949B0B60E029814C
:10038000822F0E94620BF701108A0F90DF91CF91AC
:100390001F910F91FF90EF900895FC018089448197
:1003A000558166817781882329F04150510961097F
:1003B000710904C04F5F5F4F6F4F7F4F4483558378
:1003C000668377830895CF92DF92EF92FF92CF9367
:1003D000DF93EC016C817D818E819F810E94B6123A
:1003E0009B01AC010E94B7112BED3FE049E450E4C2
:1003F0000E946A136B017C016A817B81882777FDEB
:100400008095982F0E94B6129B01AC01C701B601DE
:100410000E941B122DEC3CEC44E751E40E941B129D
:1004200023E333E343E950E40E946A130E948312FA
:10043000CB01DF91CF91FF90EF90DF90CF900895A7
:10044000FC0164817581868197810895FC01608B30
:10045000089582E792E00C94DE0382E792E00E9426
:100460003C0242E050E069E272E082E00C94120843
:1004700082E792E00C94E9060F931F93CF93DF93EA
:10048000EC0161E08DE00E94620B10929000E1E9C6
:10049000F0E01082109295001092940080818460A8
:1004A0008083E1E7F0E080818160808327E030E0B5
:1004B00048E050E061E070E086E992E00E942F079A
:1004C00005E110E02EE130E04CE251E062E070E046
:1004D000CE010E960E949E0119A218A21BA21AA27A
:1004E00026E040E052EC61E070E08EEB92E00E948A
:1004F0000C0D26E040E052EC61E070E08BE593E00B
:100500000E940C0D1E8268E372E0CE010E94BB10B7
:100510001D8668E372E0CE0107960E94BB1080E35F
:100520008F8FDF91CF911F910F910895CF92DF921E
:10053000EF92FF920F931F93CF93DF93CDB7DEB768
:100540002C970FB6F894DEBF0FBECDBF7C016B01B8
:10055000FC0182A193A1C80ED91E8701025F1F4F23
:1005600060E0C8010E94260260E070E086E992E047
:100570000E94A00760E47FE186E992E00E948B0779
:1005800086E992E00E94A607F70182A193A18C154B
:100590009D0584F464E670E080E090E00E94840AA7
:1005A000C8010E942002C8010E94E301F70193A341
:1005B00082A3EACFC8010E942002AB01BC012AE05D
:1005C000CE0107960E94D31066E072E0CE0101963C
:1005D0000E948E10BE01695F7F4FCE0101960E947E
:1005E0004011BC018EEB92E00E94410FCE010196BA
:1005F0000E942010CE0107960E94201086E992E00A
:100600000E94B3072C960FB6F894DEBF0FBECDBF85
:10061000DF91CF911F910F91FF90EF90DF90CF90DE
:100620000895EF92FF920F931F93CF93DF93EC0106
:100630000AA11BA1061B170B61E070E086E992E09E
:100640000E94A0077E018EE0E80EF11C61E0C70168
:100650000E94260268EE73E086E992E00E948B0712
:1006600086E992E00E94A6078AA19BA108171907B4
:1006700034F4C7010E94E3019BA38AA3F5CF86E966
:1006800092E0DF91CF911F910F91FF90EF900C942A
:10069000B3070F931F93CF93DF938B0164EF71E048
:1006A00080E090E00E94840AC0E0D0E0C017D1074B
:1006B00004F560E08DE00E949B0B6AEF70E080E043
:1006C00090E00E94840A61E08DE00E949B0B6AEF3B
:1006D00070E080E090E00E94840A60E08DE00E947B
:1006E0009B0B6AEF70E080E090E00E94840A219604
:1006F000DDCFDF91CF911F910F910895CF92DF92BF
:10070000EF92FF920F931F93CF93DF93CDB7DEB796
:100710002C970FB6F894DEBF0FBECDBF8C0168E3F7
:1007200072E0CE0107960E948E1063E070E0C8016F
:100730000E94490327E030E044E050E0B801CE01D8
:1007400001960E946511BE016F5F7F4FCE01079633
:100750000E94A410CE0101960E942010CE0107969F
:100760000E94AA116B017C0163E070E0C8010E9445
:100770005311FC018081B6018B3221F4C8010E9423
:10078000960203C0C8010E9411036FE072E08EEB75
:1007900092E00E94530FCE0107960E9420102C96E3
:1007A0000FB6F894DEBF0FBECDBFDF91CF911F9182
:1007B0000F91FF90EF90DF90CF9008950E960C94DC
:1007C000CD011F920F920FB60F9211240BB60F920C
:1007D0002F933F934F935F936F937F938F939F9349
:1007E000AF93BF93EF93FF938DE00E94D10B61E035
:1007F00068278DE00E949B0BFF91EF91BF91AF9115
:100800009F918F917F916F915F914F913F912F9128
:100810000F900BBE0F900FBE0F901F9018951F9258
:100820000F920FB60F9211240F900FBE0F901F90D2
:10083000189568E372E082E792E00E948E1068E308
:1008400072E089E792E00C948E1089E792E00E94B2
:10085000201082E792E00C942010FF920F931F93D8
:10086000CF93DF93CDB7DEB72D970FB6F894DEBFE9
:100870000FBECDBF8C0168E372E0CE0107960E94E7
:100880008E1062E070E0C8010E945311FC0180816B
:100890008C3409F466C0823509F463C0823409F4EB
:1008A00060C026E030E043E050E0B801CE010196A0
:1008B0000E946511BE016F5F7F4FCE0107960E94B7
:1008C000A410CE0101960E942010CE0107960E942E
:1008D000AA11695F7F4FC8010E949602B8018BE59B
:1008E00093E00E94160F8BE593E00E94FA0B892B90
:1008F000D1F369E170E080E090E00E94840AFF2477
:10090000F394095F1F4F8BE593E00E94FA0B1816D2
:100910001906CCF78BE593E00E94130C282F682F63
:10092000843239F0FF2029F08EEB92E00E94260FEE
:10093000EACFC8012D870E942C112D852A3079F429
:10094000B8018EEB92E00E94160F8EEB92E00E94AF
:10095000850C68E372E0C8010E94BB1002C0F12C54
:10096000D2CFCE0107960E9420102D960FB6F89494
:10097000DEBF0FBECDBFDF91CF911F910F91FF90D2
:100980000895CF93DF93EC0164E070E00E94490387
:10099000BE018BE593E00E94160F8BE593E00E9469
:1009A000850C8BE593E00E94FA0B18161906CCF71C
:1009B0008BE593E00E94130CC82F682F8EEB92E01A
:1009C0000E94260FCA3069F78EEB92E0DF91CF913B
:1009D0000C94850C4F925F926F927F929F92AF9290
:1009E000BF92CF92DF92EF92FF920F931F93CF931C
:1009F000DF93CDB7DEB768970FB6F894DEBF0FBEB2
:100A0000CDBF8C0168E372E0CE0143960E948E1048
:100A100068E372E0CE010D960E948E1063E172E0F1
:100A2000CE0107960E948E1027E030E044E050E0AF
:100A3000B801CE0101960E946511BE016F5F7F4F24
:100A4000CE0143960E94A410CE0101960E94201070
:100A5000CE0143960E94AA116B017C015B0163E009
:100A600070E0C8010E945311FC0180818D3239F47D
:100A7000AA24BB24AC18BD0861E070E002C060E0AD
:100A800070E086E992E00E94A007F801E0A0F1A0E2
:100A9000EA0CFB1CF4E1EF1AF10860E971E086E969
:100AA00092E00E94BF0786E992E00E94A60768E1F3
:100AB00072E08BE593E00E94240F8BE593E00E94A7
:100AC000FA0B892BD1F3C80107966C01AA24A394D1
:100AD0008BE593E00E94FA0B181619067CF48BE55F
:100AE00093E00E94130CB82E682FC6010E942C11AF
:100AF0009AE0B912EDCFF801A586EACF26E030E002
:100B000043E050E0B601CE0101960E946511BE019E
:100B10006F5F7F4FCE010D960E94A410CE0101960B
:100B20000E942010CE010D960E94AA11F80171A317
:100B300060A34AE050E08EEB92E00E9408109924F6
:100B40009394F80180A191A18E159F050CF0CCC063
:100B5000809180008F7B8093800068E172E08BE55C
:100B600093E00E94240F8091800080648093800035
:100B70000E94550A2B013C01A12CB12C8BE593E07E
:100B80000E94FA0B892B89F50E94550A6419750990
:100B900086099709613D7740810591057CF36DE1F8
:100BA00072E08EEB92E00E94240F2FEFA21AB20A9D
:100BB000F89468E172E08BE593E00E94240F78944A
:100BC0000E94550A2B013C0184E0A816B104B1F63D
:100BD00069E372E08EEB92E00E94530F67E572E0EA
:100BE000CE0107960E94BB107FC069E170E080E0F3
:100BF00090E00E94840A8BE593E00E94FA0B8BE55B
:100C000093E00E94FA0B181619067CF48BE593E02A
:100C10000E94130CB82E682FC6010E942C119AE076
:100C2000B912EDCFF8019586EACF789426E030E04E
:100C300043E050E0B601CE0101960E946511BE016D
:100C40006F5F7F4FCE010D960E94A410CE010196DA
:100C50000E94201068E372E0C6010E94BB10CE0122
:100C60000D960E94AA11F80171A360A34AE050E01A
:100C70008EEB92E00E940810F80180A191A18E15E0
:100C80009F053CF060E971E086E992E00E94BF07B1
:100C90002BC0B701681B790B882777FD8095982FAB
:100CA0000E94B6122B013C0120E030E040EA51E402
:100CB0000E94661318161CF460E47FE110C020E067
:100CC00030E04EEB53E4C301B2010E946A1320E00E
:100CD00030E048EC53E40E94B7110E94831286E989
:100CE00092E00E948B072DCF86E992E00E94B30725
:100CF000BE01695F7F4F8EEB92E00E94410F8EEB49
:100D000092E00E94850CCE0107960E942010CE0131
:100D10000D960E942010CE0143960E9420106896E6
:100D20000FB6F894DEBF0FBECDBFDF91CF911F91FC
:100D30000F91FF90EF90DF90CF90BF90AF909F907A
:100D40007F906F905F904F90089562E070E00E94F6
:100D500049036CE572E08EEB92E00E94240F8EEB6B
:100D600092E00C94850CCF93DF93EC0161E070E08E
:100D70000E945311FC0180818434F1F034F48134F9
:100D800001F5CE010E947E0304C0893481F08235D2
:100D9000C1F462E070E0CE010E945311FC01808139
:100DA0008033A1F4CE01DF91CF910C94EA04CE01FF
:100DB000DF91CF910C94C104CE01DF91CF910C94BF
:100DC0002D04CE01DF91CF910C94A506DF91CF9138
:100DD00008951F93CF93DF93EC018EEB92E00E9476
:100DE000FA0B11E08EEB92E00E94FA0B181619062E
:100DF00074F48EEB92E00E94130C8F8F682FCE015B
:100E00000E942C118F8D8A3069F71E83EBCF6AEF19
:100E100070E080E090E00E94840A8E818823D9F0FF
:100E200060E070E0CE010E945311FC0180818432A9
:100E300091F48091710080937100CE010E94B306FD
:100E40008091710081608093710068E372E0CE014F
:100E50000E94BB101E82DF91CF911F910895EF92E7
:100E6000FF920F931F93CF93DF93EC01042F122F68
:100E70007983688349875A872B873C87882777FD42
:100E80008095982F0E94B6122BED3FE049EC50E47C
:100E90000E941B120E9483127B836A8380E8E82EE3
:100EA000F12CF7011082E1E8F0E010821092850049
:100EB0001092840080E991E09093890080938800EB
:100EC00080818860808380818260808361E08BE0A4
:100ED0000E94620B61E0802F0E94620B61E0812F13
:100EE0000E94620BF7018081808360E0812F0E9465
:100EF0009B0B60E08BE00E949B0B81E090E09D8368
:100F00008C8318861E861D86DF91CF911F910F91CD
:100F1000FF90EF900895882777FD8095982F0E9485
:100F2000B6129B01AC0160E074E284E799E40E9490
:100F30001B120E94831270938900609388000895A9
:100F4000FC016483758381850C949B0B21E0FC017B
:100F50002087E0E8F0E020812064208360E0FC014D
:100F600083850C949B0BFC011086E0E8F0E0208167
:100F70002F7B208360E0FC0183850C949B0BCF9238
:100F8000DF92EF92FF920F931F93CF93DF93EC01C9
:100F90008B016115710511F40E94B307B801882710
:100FA00077FD8095982F0E94B6122DEC3CEC44E71B
:100FB00051E40E946A136B017C010E9483127F83BB
:100FC0006E836A817B81882777FD8095982F0E94A8
:100FD000B6129B01AC01C701B6010E946A130E94C0
:100FE000831228EE33E040E050E00E94EF1369E006
:100FF0007DE380E090E00E94EF13CA01B90122E096
:1010000030E040E050E00E94EF13309389002093DD
:101010008800DF91CF911F910F91FF90EF90DF90AB
:10102000CF900895883008F06DC0E82FF0E0EE0F03
:10103000FF1FEB55FD4F7183608390E0FC013197FA
:10104000E730F10590F5EE58FF4F0C940E148091A7
:1010500069008C7F842B80936900E89A08958091C1
:101060006900440F551F440F551F837F842B8093C5
:101070006900E99A08958091690074E0440F551F52
:101080007A95E1F78F7C842B80936900EA9A089522
:101090008091690066E0440F551F6A95E1F78F73F0
:1010A000842B80936900EB9A089580916A008C7F6D
:1010B000842B80936A00EC9A089580916A00440F13
:1010C000551F440F551F837F842B80936A00ED9A30
:1010D000089580916A0024E0440F551F2A95E1F796
:1010E0008F7C842B80936A00EE9A089580916A0029
:1010F00096E0440F551F9A95E1F78F73842B8093E8
:101100006A00EF9A08951F920F920FB60F92112462
:101110000BB60F922F933F934F935F936F937F93F1
:101120008F939F93AF93BF93EF93FF938091A90207
:101130009091AA02892B29F0E091A902F091AA02CC
:101140001995FF91EF91BF91AF919F918F917F91F1
:101150006F915F914F913F912F910F900BBE0F9028
:101160000FBE0F901F9018951F920F920FB60F92FF
:1011700011240BB60F922F933F934F935F936F936E
:101180007F938F939F93AF93BF93EF93FF93809140
:10119000AB029091AC02892B29F0E091AB02F09167
:1011A000AC021995FF91EF91BF91AF919F918F91F3
:1011B0007F916F915F914F913F912F910F900BBE57
:1011C0000F900FBE0F901F9018951F920F920FB6A1
:1011D0000F9211240BB60F922F933F934F935F936F
:1011E0006F937F938F939F93AF93BF93EF93FF93EF
:1011F0008091AD029091AE02892B29F0E091AD0271
:10120000F091AE021995FF91EF91BF91AF919F912F
:101210008F917F916F915F914F913F912F910F909F
:101220000BBE0F900FBE0F901F9018951F920F923C
:101230000FB60F9211240BB60F922F933F934F933B
:101240005F936F937F938F939F93AF93BF93EF932E
:10125000FF938091AF029091B002892B29F0E09129
:10126000AF02F091B0021995FF91EF91BF91AF914C
:101270009F918F917F916F915F914F913F912F91AE
:101280000F900BBE0F900FBE0F901F9018951F92DE
:101290000F920FB60F9211240BB60F922F933F931C
:1012A0004F935F936F937F938F939F93AF93BF936E
:1012B000EF93FF938091A5029091A602892B29F0CC
:1012C000E091A502F091A6021995FF91EF91BF91CF
:1012D000AF919F918F917F916F915F914F913F91CE
:1012E0002F910F900BBE0F900FBE0F901F9018956F
:1012F0001F920F920FB60F9211240BB60F922F93DD
:101300003F934F935F936F937F938F939F93AF938D
:10131000BF93EF93FF938091A7029091A802892B2E
:1013200029F0E091A702F091A8021995FF91EF91A1
:10133000BF91AF919F918F917F916F915F914F91ED
:101340003F912F910F900BBE0F900FBE0F901F90EB
:1013500018951F920F920FB60F9211240BB60F9291
:101360002F933F934F935F936F937F938F939F93AD
:10137000AF93BF93EF93FF938091B1029091B2022C
:10138000892B29F0E091B102F091B2021995FF91F9
:10139000EF91BF91AF919F918F917F916F915F91ED
:1013A0004F913F912F910F900BBE0F900FBE0F905A
:1013B0001F9018951F920F920FB60F9211240BB623
:1013C0000F922F933F934F935F936F937F938F93DE
:1013D0009F93AF93BF93EF93FF938091B30290914C
:1013E000B402892B29F0E091B302F091B40219956F
:1013F000FF91EF91BF91AF919F918F917F916F91ED
:101400005F914F913F912F910F900BBE0F900FBEA8
:101410000F901F9018951F920F920FB60F921124E4
:101420002F933F938F939F93AF93BF938091B60277
:101430009091B702A091B802B091B9023091B50273
:1014400023E0230F2D3720F40196A11DB11D05C007
:1014500026E8230F0296A11DB11D2093B5028093AB
:10146000B6029093B702A093B802B093B9028091EC
:10147000BA029091BB02A091BC02B091BD0201964C
:10148000A11DB11D8093BA029093BB02A093BC0230
:10149000B093BD02BF91AF919F918F913F912F91DA
:1014A0000F900FBE0F901F9018952FB7F894609172
:1014B000B6027091B7028091B8029091B9022FBF25
:1014C00008953FB7F8948091BA029091BB02A09121
:1014D000BC02B091BD0226B5A89B05C02F3F19F0F4
:1014E0000196A11DB11D3FBF6627782F892F9A2F26
:1014F000620F711D811D911D42E0660F771F881FCD
:10150000991F4A95D1F70895CF92DF92EF92FF92FB
:10151000CF93DF936B017C010E94610AEB01C11440
:10152000D104E104F10489F00E94B5110E94610A1E
:101530006C1B7D0B683E734090F381E0C81AD108A4
:10154000E108F108C851DC4FEACFDF91CF91FF905D
:10155000EF90DF90CF900895789484B5826084BD39
:1015600084B5816084BD85B5826085BD85B58160A7
:1015700085BDEEE6F0E0808181608083E1E8F0E007
:101580001082808182608083808181608083E0E836
:10159000F0E0808181608083E1EBF0E08081846015
:1015A0008083E0EBF0E0808181608083E1E9F0E01E
:1015B000808182608083808181608083E0E9F0E0C7
:1015C000808181608083E1EAF0E0808182608083B5
:1015D000808181608083E0EAF0E0808181608083A7
:1015E000E1E2F1E08081826080838081816080839C
:1015F000E0E2F1E0808181608083EAE7F0E08081D1
:101600008460808380818260808380818160808328
:101610008081806880831092C100089590E0FC0171
:101620003197E231F10508F04CC0E758FF4F0C94B8
:101630000E14809180008F7703C0809180008F7D91
:1016400080938000089580918000877FF9CF84B5D2
:101650008F7702C084B58F7D84BD08958091B000DE
:101660008F7703C08091B0008F7D8093B000089584
:10167000809190008F7707C0809190008F7D03C08C
:1016800080919000877F8093900008958091A000C2
:101690008F7707C08091A0008F7D03C08091A0004C
:1016A000877F8093A0000895809120018F7707C0E5
:1016B000809120018F7D03C080912001877F8093DE
:1016C00020010895CF93DF9390E0FC01EC50FE4F92
:1016D0002491FC01E65CFD4F8491882349F190E060
:1016E000880F991FFC01EC54FD4FA591B4918656CB
:1016F0009D4FFC01C591D4919FB7611108C0F8942A
:101700008C91209582238C93888182230AC0623039
:1017100051F4F8948C91322F309583238C938881E7
:10172000822B888304C0F8948C91822B8C939FBF6A
:10173000DF91CF9108950F931F93CF93DF931F9263
:10174000CDB7DEB7282F30E0F901E255FE4F849186
:10175000F901EC50FE4F1491F901E65CFD4F049144
:101760000023C9F0882321F069830E940E0B698150
:10177000E02FF0E0EE0FFF1FE656FD4FA591B4916C
:101780009FB7F8948C91611103C01095812301C01B
:10179000812B8C939FBF0F90DF91CF911F910F9161
:1017A0000895CF93DF93282F30E0F901E255FE4FE3
:1017B0008491F901EC50FE4FD491F901E65CFD4FA4
:1017C000C491CC2391F081110E940E0BEC2FF0E01C
:1017D000EE0FFF1FE058FD4FA591B4912C912D23E2
:1017E00081E090E021F480E002C080E090E0DF91B1
:1017F000CF910895FC01818D228D90E0805C9F4FF8
:10180000821B91098F7399270895FC01918D828D18
:10181000981731F0828DE80FF11D858D90E00895C5
:101820008FEF9FEF0895FC01918D828D981761F0E5
:10183000828DDF01A80FB11D5D968C91928D9F5F07
:101840009F73928F90E008958FEF9FEF08958EEC35
:101850009DE0892B41F080E090E0892B21F00E94EF
:10186000CE0D811125C080E090E0892B41F080E011
:1018700090E0892B21F00E94000081111CC080E0C3
:1018800090E0892B41F080E090E0892B21F00E94CC
:101890000000811113C08BE79EE0892BA1F080E04E
:1018A00090E0892B81F00E947B0E81110AC008957F
:1018B0000E940000D8CF0E940000E1CF0E940000EB
:1018C000EACF0C9400000895FC01848DDF01A80F7D
:1018D000B11DA35ABF4F2C91848D90E001968F7358
:1018E0009927848FA689B7892C93A089B1898C9177
:1018F00080648C93938D848D981306C00288F3893D
:10190000E02D80818F7D80830895CF93DF93EC015C
:10191000888D8823C9F0EA89FB89808185FD05C00F
:10192000A889B9898C9186FD0FC00FB607FCF5CF49
:10193000808185FFF2CFA889B9898C9185FFEDCF91
:10194000CE010E94640CE7CFDF91CF910895CF9232
:10195000DF92FF920F931F93CF93DF931F92CDB728
:10196000DEB76C01DC015B969C915B975C968C9179
:101970005C97981307C05096ED91FC915197808128
:1019800085FD32C0F601038D10E00F5F1F4F0F730E
:101990001127F02EF601848DF81211C00FB607FC46
:1019A000F9CFD6015096ED91FC915197808185FF3A
:1019B000F1CFC60169830E94640C6981EBCF838DEE
:1019C000E80FF11DE35AFF4F6083D6015B960C933D
:1019D0005B975296ED91FC91539780818062808352
:1019E00081E058968C930DC0D6015696ED91FC91EE
:1019F000579760835096ED91FC9151978081806458
:101A0000808381E090E00F90DF91CF911F910F9143
:101A1000FF90DF90CF900895BF92CF92DF92EF9228
:101A2000FF92CF93DF93EC016A017B01B22EE8892C
:101A3000F98982E08083411581EE580761057105BF
:101A4000A1F060E079E08DE390E0A70196010E94AB
:101A5000CD132150310941095109569547953795C4
:101A60002795211580E1380798F0E889F9891082D7
:101A700060E874E88EE190E0A70196010E94CD1322
:101A800021503109410951095695479537952795B8
:101A9000EC85FD853083EE85FF852083188EEC89EB
:101AA000FD89B082EA89FB89808180618083EA892F
:101AB000FB89808188608083EA89FB8980818068D6
:101AC0008083EA89FB8980818F7D8083DF91CF913C
:101AD000FF90EF90DF90CF90BF9008951F920F92EC
:101AE0000FB60F9211240BB60F922F938F939F93E3
:101AF000EF93FF93E091CE02F091CF028081E091CD
:101B0000D402F091D50282FD12C090818091D7025B
:101B10008F5F8F732091D802821751F0E091D70226
:101B2000F0E0E254FD4F958F8093D70201C0808191
:101B3000FF91EF919F918F912F910F900BBE0F907E
:101B40000FBE0F901F9018951F920F920FB60F9215
:101B500011240BB60F922F933F934F935F936F9384
:101B60007F938F939F93AF93BF93EF93FF938EEBEE
:101B700092E00E94640CFF91EF91BF91AF919F9111
:101B80008F917F916F915F914F913F912F910F9026
:101B90000BBE0F900FBE0F901F9018958EEB92E02A
:101BA0000E94FA0B21E0892B09F420E0822F08958E
:101BB0001092C1021092C00288EE93E0A0E0B0E063
:101BC0008093C2029093C302A093C402B093C50253
:101BD00085E692E09093BF028093BE0285EC90E090
:101BE0009093CB028093CA0284EC90E09093CD0254
:101BF0008093CC0280EC90E09093CF028093CE0251
:101C000081EC90E09093D1028093D00282EC90E03E
:101C10009093D3028093D20286EC90E09093D50209
:101C20008093D4021092D7021092D8021092D90257
:101C30001092DA0208951F920F920FB60F9211249C
:101C40000BB60F922F938F939F93EF93FF93E09197
:101C50006B03F0916C038081E0917103F09172034A
:101C600082FD12C09081809174038F5F8F732091E9
:101C70007503821751F0E0917403F0E0E55AFC4FD0
:101C8000958F8093740301C08081FF91EF919F91A4
:101C90008F912F910F900BBE0F900FBE0F901F9042
:101CA00018951F920F920FB60F9211240BB60F9238
:101CB0002F933F934F935F936F937F938F939F9354
:101CC000AF93BF93EF93FF938BE593E00E94640C77
:101CD000FF91EF91BF91AF919F918F917F916F9104
:101CE0005F914F913F912F910F900BBE0F900FBEC0
:101CF0000F901F9018958BE593E00E94FA0B21E05E
:101D0000892B09F420E0822F089510925E0310922F
:101D10005D0388EE93E0A0E0B0E080935F039093D2
:101D20006003A0936103B093620385E692E0909311
:101D30005C0380935B0385E391E090936803809359
:101D4000670384E391E090936A038093690380E3DF
:101D500091E090936C0380936B0381E391E0909307
:101D60006E0380936D0382E391E090937003809300
:101D70006F0386E391E09093720380937103109256
:101D800074031092750310927603109277030895EE
:101D900008950E94AC0A0E94C80E0E942D02C7E25C
:101DA000DCE00E9438022097E1F30E94270CF9CF73
:101DB000CF92DF92EF92FF920F931F93CF93DF9317
:101DC0006C017A01EB01E60EF71E00E010E0CE1583
:101DD000DF0561F06991D601ED91FC910190F081F0
:101DE000E02DC6011995080F191FF1CFC801DF9129
:101DF000CF911F910F91FF90EF90DF90CF900895BA
:101E00006115710581F0DB010D900020E9F7AD014E
:101E100041505109461B570BDC01ED91FC910280AA
:101E2000F381E02D199480E090E00895DC01ED91BC
:101E3000FC91DB0114964D915C9115976D917C910D
:101E40000280F381E02D19940C94000FDC01ED91D8
:101E5000FC910190F081E02D19940F931F93CF9383
:101E6000DF93EC016DE00E94260F8C016AE0CE0149
:101E70000E94260F800F911FDF91CF911F910F912C
:101E800008950F931F93CF93DF93EC010E94160FD9
:101E90008C01CE010E942D0F800F911FDF91CF91F9
:101EA0001F910F9108950F931F93CF93DF93EC0130
:101EB0000E94000F8C01CE010E942D0F800F911FF8
:101EC000DF91CF911F910F9108958F929F92AF92C2
:101ED000BF92CF92DF92EF92FF920F931F93CF9317
:101EE000DF93CDB7DEB7A1970FB6F894DEBF0FBE74
:101EF000CDBF7C01C42EE52FCB01D22E19A221E04B
:101F00002D1510F02AE0D22E8E010F5D1F4F8D2C63
:101F1000912CA12CB12C6C2D7E2FA50194010E9437
:101F2000CD138C2DD29E80191124015011098A30B5
:101F300014F4805D01C0895CF801808321153105AE
:101F40004105510521F0C22EE32FCA01E4CFB801AB
:101F5000C7010E94000FA1960FB6F894DEBF0FBE16
:101F6000CDBFDF91CF911F910F91FF90EF90DF9048
:101F7000CF90BF90AF909F908F900895CF92DF92B7
:101F8000EF92FF920F931F93CF93DF93EC016A01BF
:101F90007B012115310579F4E881F9810190F08107
:101FA000E02D642FDF91CF911F910F91FF90EF9063
:101FB000DF90CF9019942A303105E9F477FF1AC0E9
:101FC0006DE20E94260F8C0144275527BA014C1957
:101FD0005D096E097F092AE0CE010E94650F800F1E
:101FE000911FDF91CF911F910F91FF90EF90DF90A4
:101FF000CF9008952AE0B701A601CE01DF91CF91DD
:102000001F910F91FF90EF90DF90CF900C94650F90
:102010000F931F93CF93DF93EC019A01AB016627D7
:1020200057FD6095762F0E94BE0F8C01CE010E9455
:102030002D0F800F911FDF91CF911F910F91089568
:10204000FC01808191810C94B014CF93DF93EC015B
:1020500088819981009711F00E94B014198218822A
:102060001D821C821B821A82DF91CF9108950F93EB
:102070001F93CF93DF93EC018B016F5F7F4F8881BC
:1020800099810E943F15009731F0998388831B83C3
:102090000A8381E001C080E0DF91CF911F910F9111
:1020A0000895CF93DF93EC0188819981892B29F0E2
:1020B0008A819B818617970760F4CE010E943710B2
:1020C000882341F08C819D81892B19F4E881F98165
:1020D000108281E0DF91CF910895EF92FF920F93EC
:1020E0001F93CF93DF93EC017B018A01BA010E9419
:1020F0005110811104C0CE010E94251007C01D831C
:102100000C83B701888199810E945816CE01DF9116
:10211000CF911F910F91FF90EF900895FC011182D4
:10212000108213821282158214826115710559F092
:10213000FB0101900020E9F7AF0141505109461B16
:10214000570B0C946D100895CF93DF93EC01FB01B6
:102150008617970761F0608171816115710529F01B
:10216000448155810E946D1002C00E942510CE014D
:10217000DF91CF910895CF93DF93EC016115710545
:1021800061F0FB0101900020E9F7AF0141505109D6
:10219000461B570B0E946D1002C00E942510CE01F5
:1021A000DF91CF9108950F931F93CF93DF93CDB716
:1021B000DEB7A2970FB6F894DEBF0FBECDBF8C017D
:1021C000CB01BA01F80111821082138212821582AA
:1021D000148230E0AE014F5F5F4F0E945F16BE0178
:1021E0006F5F7F4FC8010E94BB10A2960FB6F89494
:1021F000DEBF0FBECDBFDF91CF911F910F9108952C
:10220000EF92FF920F931F93CF93DF93EC017B012B
:102210000C811D816115710511F480E016C0411516
:10222000510591F0040F151FB8010E945110882329
:10223000A1F3288139818C819D81B701820F931F81
:102240000E9458161D830C8381E0DF91CF911F916E
:102250000F91FF90EF900895CF93DF931F921F92FD
:10226000CDB7DEB769831A8241E050E0BE016F5FEF
:102270007F4F0E9400110F900F90DF91CF91089532
:10228000CF93DF93EC01FB01448155816081718123
:102290000E940011811103C0CE010E942510CE01C1
:1022A000DF91CF910895FC018481958168177907AA
:1022B00020F480819181009729F41092F80388EF2F
:1022C00093E00895860F971F0895BF92CF92DF92F3
:1022D000EF92FF920F931F93CF93DF936C017B01DB
:1022E000EA0189012417350720F48D2FE901042F15
:1022F000182F68E372E0C6010E948E10D701149671
:102300008D919C911597C817D907C8F4801791072C
:1023100008F48C01D701ED91FC911197E00FF11FAA
:10232000B08010826D917C916C0F7D1FC6010E9460
:10233000BB10D701ED91FC91E00FF11FB082C601F7
:10234000DF91CF911F910F91FF90EF90DF90CF9091
:10235000BF900895FC0180819181009711F00C9449
:10236000281660E070E0CB01089508955058BB270F
:10237000AA270ED071C162D130F067D120F031F4BC
:102380009F3F11F41EF457C10EF4E095E7FB4DC1D9
:10239000E92F73D180F3BA17620773078407950793
:1023A00018F071F49EF58BC10EF4E0950B2EBA2F48
:1023B000A02D0B01B90190010C01CA01A00111244B
:1023C000FF27591B99F0593F50F4503E68F11A16F7
:1023D000F040A22F232F342F4427585FF3CF469588
:1023E00037952795A795F0405395C9F77EF41F16AA
:1023F000BA0B620B730B840BBAF09150A1F0FF0F74
:10240000BB1F661F771F881FC2F70EC0BA0F621F5F
:10241000731F841F48F4879577956795B795F7954F
:102420009E3F08F0B3CF9395880F08F09927EE0FE1
:102430009795879508950CD00FC107D140F0FED035
:1024400030F021F45F3F19F0F0C0511139C1F3C0F1
:1024500014D198F39923C9F35523B1F3951B550B68
:10246000BB27AA2762177307840738F09F5F5F4F67
:10247000220F331F441FAA1FA9F333D00E2E3AF0A8
:10248000E0E830D091505040E695001CCAF729D0C2
:10249000FE2F27D0660F771F881FBB1F2617370711
:1024A0004807AB07B0E809F0BB0B802DBF01FF2741
:1024B00093585F4F2AF09E3F510568F0B6C000C1A7
:1024C0005F3FECF3983EDCF3869577956795B7957B
:1024D000F7959F5FC9F7880F911D9695879597F996
:1024E0000895E1E0660F771F881FBB1F621773070F
:1024F0008407BA0720F0621B730B840BBA0BEE1F24
:1025000088F7E095089504D06894B111D9C0089572
:10251000BCD088F09F5790F0B92F9927B751A0F001
:10252000D1F0660F771F881F991F1AF0BA95C9F767
:1025300012C0B13081F0C3D0B1E00895C0C0672FA0
:10254000782F8827B85F39F0B93FCCF38695779517
:102550006795B395D9F73EF4909580957095619500
:102560007F4F8F4F9F4F0895E89409C097FB3EF42B
:1025700090958095709561957F4F8F4F9F4F9923D0
:10258000A9F0F92F96E9BB279395F695879577954E
:102590006795B795F111F8CFFAF4BB0F11F460FF0E
:1025A0001BC06F5F7F4F8F4F9F4F16C0882311F066
:1025B00096E911C0772321F09EE8872F762F05C07A
:1025C000662371F096E8862F70E060E02AF09A9515
:1025D000660F771F881FDAF7880F9695879597F90A
:1025E0000895990F0008550FAA0BE0E8FEEF1616A4
:1025F0001706E807F907C0F012161306E407F507F7
:1026000098F0621B730B840B950B39F40A2661F06A
:10261000232B242B252B21F408950A2609F4A1400D
:10262000A6958FEF811D811D089597F99F6780E81A
:1026300070E060E008959FEF80EC089500240A9414
:102640001616170618060906089500240A9412168D
:102650001306140605060895092E0394000C11F4C0
:10266000882352F0BB0F40F4BF2B11F460FF04C06D
:102670006F5F7F4F8F4F9F4F089557FD9058440FC6
:10268000551F59F05F3F71F04795880F97FB991FD1
:1026900061F09F3F79F0879508951216130614068E
:1026A000551FF2CF4695F1DF08C01616170618061B
:1026B000991FF1CF86957105610508940895E894F6
:1026C000BB2766277727CB0197F908958ADF08F49F
:1026D0008FEF08950BD0C0CFB1DF28F0B6DF18F030
:1026E000952309F0A2CFA7CF1124EACFC6DFA0F32C
:1026F000959FD1F3950F50E0551F629FF001729F97
:10270000BB27F00DB11D639FAA27F00DB11DAA1FB5
:10271000649F6627B00DA11D661F829F2227B00D02
:10272000A11D621F739FB00DA11D621F839FA00D8D
:10273000611D221F749F3327A00D611D231F849FDD
:10274000600D211D822F762F6A2F11249F57504034
:102750008AF0E1F088234AF0EE0FFF1FBB1F661FCF
:10276000771F881F91505040A9F79E3F510570F088
:102770005CCFA6CF5F3FECF3983EDCF38695779570
:102780006795B795F795E7959F5FC1F7FE2B880F83
:10279000911D9695879597F90895A1E21A2EAA1B87
:1027A000BB1BFD010DC0AA1FBB1FEE1FFF1FA21701
:1027B000B307E407F50720F0A21BB30BE40BF50BFE
:1027C000661F771F881F991F1A9469F76095709587
:1027D000809590959B01AC01BD01CF010895052E18
:1027E00097FB1EF400940E94061457FD07D00E9428
:1027F000CD1307FC03D04EF40C940614509540956D
:10280000309521953F4F4F4F5F4F0895909580959C
:10281000709561957F4F8F4F9F4F0895EE0FFF1F6B
:102820000590F491E02D19940790F691E02D1994FC
:10283000CF93DF938230910510F482E090E0E09135
:10284000FB03F091FC0320E030E0A0E0B0E0309723
:1028500039F14081518148175907B8F04817590795
:1028600071F482819381109729F013969C938E9333
:1028700012972CC09093FC038093FB0327C0211573
:10288000310531F04217530718F0A901DB0101C0EF
:10289000EF019A01BD01DF010280F381E02DD7CF66
:1028A00021153105F9F0281B390B2430310580F44E
:1028B0008A819B816115710521F0FB0193838283DD
:1028C00004C09093FC038093FB03FE01329644C046
:1028D000FE01E20FF31F8193919322503109398356
:1028E00028833AC02091F9033091FA03232B41F455
:1028F00020910202309103023093FA032093F903EE
:1029000020910002309101022115310541F42DB7CB
:102910003EB74091040250910502241B350BE09113
:10292000F903F091FA03E217F307A0F42E1B3F0B13
:102930002817390778F0AC014E5F5F4F2417350731
:1029400048F04E0F5F1F5093FA034093F9038193B1
:10295000919302C0E0E0F0E0CF01DF91CF910895C4
:10296000CF93DF93009709F487C0FC01329713825D
:102970001282C091FB03D091FC03209781F4208147
:102980003181280F391F8091F9039091FA03821742
:10299000930779F5F093FA03E093F9036DC0DE0134
:1029A00020E030E0AE17BF0750F412964D915C91D5
:1029B00013979D014115510509F1DA01F3CFB38356
:1029C000A28340815181840F951F8A179B0771F460
:1029D0008D919C911197840F951F0296918380830E
:1029E00012968D919C9113979383828321153105C3
:1029F00029F4F093FC03E093FB033EC0D901139646
:102A0000FC93EE9312974D915D91A40FB51FEA17B9
:102A1000FB0779F480819181840F951F0296D9017B
:102A200011969C938E938281938113969C938E939F
:102A30001297E0E0F0E08A819B81009719F0FE0197
:102A4000EC01F9CFCE01029628813981820F931FC4
:102A50002091F9033091FA032817390769F4309768
:102A600029F41092FC031092FB0302C0138212821D
:102A7000D093FA03C093F903DF91CF9108956F9239
:102A80007F928F929F92AF92BF92CF92DF92EF92FE
:102A9000FF920F931F93CF93DF93EC01CB0120970D
:102AA00081F4DF91CF911F910F91FF90EF90DF9014
:102AB000CF90BF90AF909F908F907F906F900C942D
:102AC0001814FE01E60FF71F9E0122503109E2178C
:102AD000F30708F4ACC0D9010D911C9111970617AA
:102AE0001707B8F00530110508F49FC0A80144503D
:102AF00051094617570708F498C002501109061BE0
:102B0000170B019311936D937C93CF010E94B01426
:102B10008CC05B01A01AB10A4E01800E911EA091DB
:102B2000FB03B091FC03612C712C60E070E0109706
:102B300009F449C0A815B905C9F5ED90FC901197A5
:102B4000670142E0C40ED11CCA14DB0478F14701CE
:102B50008A189B08640142E0C40ED11C1296BC90F6
:102B600012971396AC91B5E0CB16D10440F0B28227
:102B7000A38391828082D9018D939C9309C00E5FBB
:102B80001F4F0E0D1F1DF90111830083EB2DFA2F2E
:102B90006115710531F0DB011396FC93EE931297EA
:102BA00044C0F093FC03E093FB033FC06D917C9124
:102BB00011976616770608F43B01BD0112960D9039
:102BC000BC91A02DB4CF6091F9037091FA03681500
:102BD0007905E9F468167906D0F440910002509125
:102BE00001024115510541F44DB75EB760910402F1
:102BF00070910502461B570BE417F507C0F4F093DC
:102C0000FA03E093F903F901918380830EC00E94D7
:102C100018147C01009759F0A801BE010E944F16BC
:102C2000CE010E94B014C70104C0CE0102C080E0F2
:102C300090E0DF91CF911F910F91FF90EF90DF9087
:102C4000CF90BF90AF909F908F907F906F9008959E
:102C50001F93FC0199278827BC01E8941191103239
:102C6000E9F3193010F01E30C8F31B3251F01D3259
:102C700049F4689406C00E947916610F711D811D88
:102C8000911D119110531A30B0F33EF49095809538
:102C9000709561957F4F8F4F9F4F1F910895FB0156
:102CA000DC0102C001900D9241505040D8F70895C8
:102CB000FB01DC0101900D920020E1F7089525321F
:102CC000310520F4223010F00C946A16FA011082BB
:102CD000CA010895BB272A3051F4992342F4BDE27A
:102CE00090958095709561957F4F8F4F9F4F0C9475
:102CF0008F16592F482F372F262F660F771F881FC3
:102D0000991F660F771F881F991F620F731F841FFB
:102D1000951F660F771F881F991F0895BB27FA011B
:102D2000A62F6217710581059105330B30FB66F004
:102D3000AA27660F771F881F991FAA1FA21710F0D6
:102D4000A21B63953850A9F7A05DAA3308F0A95DCE
:102D5000A19336F7B111B1931082CA010C94B01649
:102D6000DC01FC01672F71917723E1F7329704C0F2
:102D70007C916D9370836291AE17BF07C8F308957D
:102D800012E0C4EDD2E000E006C022970109FE0186
:102D90000BBF0E941414C63DD10780E00807A9F7B5
:042DA000F894FFCFD5
:102DA4000000FD03800050756C7365733A200024A5
:102DB40041500024523050002452300A00526573AE
:102DC400656E64696E6720636F6D6D616E642074F7
:102DD4006F2043522E2E2E0A004661696C656420D2
:102DE400746F20636F6D6D756E69636174652077B0
:102DF4006974682043520024523046002453500A18
:102E04000000000000A70CD80EFA0B130C050C856B
:022E14000C00B0
:00000001FF
