:100000000C946B010C94AE090C94DF090C94100A4B
:100010000C94410A0C94720A0C94A30A0C94D40A0E
:100020000C94050B0C949C010C949C010C949C0169
:100030000C949C010C949C010C949C010C949C01CC
:100040000C949C010C94DA030C949C010C949C017C
:100050000C949C010C949C010C949C010C94360B08
:100060000C949C010C94990E0C94CF0E0C949C0152
:100070000C949C010C949C010C949C010C949C018C
:100080000C949C010C949C010C949C010C94AC036A
:100090000C949C010C949C010C949C010C949C016C
:1000A0000C949C010C949C010C949C010C949C015C
:1000B0000C949C010C949C010C949C010C949C014C
:1000C0000C949C010C949C010C949C010C949C013C
:1000D0000C949C010C949C010C94460F0C947C0F86
:1000E0000C949C01880952095A09660973099409FC
:1000F000A109520C550C440C480C4E0C8C0C590C9C
:100100005D0C630C670C6B0C710C750C790C8C0C12
:100110007F0C830C870C0C94030F0C94300D0C9403
:1001200029020C94F0030C94630C0C94590C0C945D
:10013000F90E0C94750C0C94B00F0C947F0C0C946D
:100140006B0C0C94E4030C948C0C0C94830C0C94AA
:1001500088090C94520C0C945A090C94A1090C9423
:1001600052090C9466090C94480C0C94A60F0C943C
:10017000520D0C943E0D0C94870C0C9473090C9446
:10018000710C0C94B00D0C94670C0C94550C0C94E1
:10019000440C0C9403100C944E0C0C9494090C9485
:1001A000250D0C94790C0C945D0C0C94D20D000070
:1001B0000A0B02090C0D0E080703040100000000E1
:1001C000000000000000000000000000000000002F
:1001D00000000000000000000000121110000000EC
:1001E000000000000000000000000000000000000F
:1001F00000000000010210202008081020401020FC
:1002000040800201020108040201010204081020DA
:1002100040808040201008040201800402018040D8
:100220002010080402010804020101020408102041
:1002300040800102040810204080050505050705DF
:1002400008080808020202020A0A08080404040452
:10025000010101010101010103030303030303037E
:10026000040707070C0C0C0C0C0C0C0C020202020D
:1002700006060606060606060B0B0B0B0B0B0B0BF6
:10028000000020002300260029002C002F0032004F
:100290000001000003010601090100002200250001
:1002A00028002B002E00310034000201000005015F
:1002B00008010B0100002100240027002A002D0066
:1002C0003000330001010000040107010A01E403CA
:1002D000030FB00FF00311241FBECFEFD1E2DEBF3A
:1002E000CDBF00E00CBF12E0A0E0B2E0E4E1F0E33B
:1002F00000E00BBF02C007900D92A83CB107D9F7F0
:1003000024E0A8ECB2E001C01D92A335B207E1F7EA
:1003100012E0C4EDD2E000E006C022970109FE0120
:100320000BBF0E945815CE3CD10780E00807A9F703
:100330000E94F40F0C94F8170C940000EF92FF92B7
:100340000F931F93CF93DF931F92CDB7DEB77C013E
:10035000FC01718360835383428326873787048738
:100360001587148215821682178260E0802F2983F8
:100370000E948D0C61E0802F0E94C60C60E02981F4
:10038000822F0E948D0CF701108A0F90DF91CF9180
:100390001F910F91FF90EF900895FC018089448197
:1003A000558166817781882329F04150510961097F
:1003B000710904C04F5F5F4F6F4F7F4F4483558378
:1003C000668377830895CF92DF92EF92FF92CF9367
:1003D000DF93EC016C817D818E819F810E94FA13F5
:1003E0009B01AC010E94FB122BED3FE049E450E47D
:1003F0000E94AE146B017C016A817B81882777FDA6
:100400008095982F0E94FA139B01AC01C701B60199
:100410000E945F1320E030E04AE952E40E945F133B
:1004200023E333E343E950E40E94AE140E94C71370
:10043000CB01DF91CF91FF90EF90DF90CF900895A7
:10044000FC0164817581868197810895FC01608B30
:10045000089588EC92E00C94A90388EC92E00E9445
:100460003C0242E050E069E272E082E00C943D0917
:1004700088EC92E00C9414080F931F93CF93DF93B2
:10048000EC0161E08DE00E948D0C10929000E1E99A
:10049000F0E01082109295001092940080818460A8
:1004A0008083E1E7F0E080818160808329E030E0B3
:1004B0004AE050E061E070E08CEE92E00E945A0861
:1004C00005E110E02EE130E04CE251E062E070E046
:1004D000CE010E960E949E0119A218A21BA21AA27A
:1004E00026E040E052EC61E070E084E193E00E949D
:1004F000370E26E040E052EC61E070E081EB93E0E3
:100500000E94370E1E826EE872E0CE010E94E61154
:100510001D866EE872E0CE0107960E94E61180E328
:100520008F8FDF91CF911F910F910895EF92FF92DE
:100530000F931F93CF93DF938C017B01FC0182A16A
:1005400093A1E80EF91EE8012E9660E0CE010E940C
:10055000260260E070E08CEE92E00E94CB0860E43E
:100560007FE18CEE92E00E94B6088CEE92E00E9451
:10057000D108F80182A193A18E159F0584F464E649
:1005800070E080E090E00E94AF0BCE010E9420025C
:10059000CE010E94E301F80193A382A3EACFCE012A
:1005A0000E9420028CEE92E0DF91CF911F910F917B
:1005B000FF90EF900C94DE08EF92FF920F931F9341
:1005C000CF93DF93EC010AA11BA1061B170B61E07F
:1005D00070E08CEE92E00E94CB087E018EE0E80E87
:1005E000F11C61E0C7010E94260260E47FE18CEE0D
:1005F00092E00E94B6088CEE92E00E94D1088AA197
:100600009BA10817190734F4C7010E94E3019BA3BB
:100610008AA3F5CF8CEE92E0DF91CF911F910F91DD
:10062000FF90EF900C94DE080F931F93CF93DF930E
:100630008B0164EF71E080E090E00E94AF0BC0E0BE
:10064000D0E0C017D10704F560E08DE00E94C60C31
:100650006AEF70E080E090E00E94AF0B61E08DE017
:100660000E94C60C6AEF70E080E090E00E94AF0B41
:1006700060E08DE00E94C60C6AEF70E080E090E0E0
:100680000E94AF0B2196DDCFDF91CF911F910F918B
:100690000895CF92DF92EF92FF920F931F93CF9323
:1006A000DF93CDB7DEB72C970FB6F894DEBF0FBE41
:1006B000CDBF8C016EE872E0CE0107960E94B911A1
:1006C00063E070E0C8010E94140327E030E044E0DA
:1006D00050E0B801CE0101960E94A912BE016F5FE1
:1006E0007F4FCE0107960E94CF11CE0101960E9446
:1006F0004B11CE0107960E94EE126B017C0163E064
:1007000070E0C8010E949712FC018081B6018B3213
:1007100021F4C8010E94960203C0C8010E94DC02B5
:1007200066E072E084E193E00E947E10CE010796BD
:100730000E944B112C960FB6F894DEBF0FBECDBFB2
:10074000DF91CF911F910F91FF90EF90DF90CF90AD
:1007500008950E960C94CD011F920F920FB60F9232
:1007600011240BB60F922F933F934F935F936F9388
:100770007F938F939F93AF93BF93EF93FF938DE0FE
:100780000E94FC0C61E068278DE00E94C60CFF917E
:10079000EF91BF91AF919F918F917F916F915F91F9
:1007A0004F913F912F910F900BBE0F900FBE0F9066
:1007B0001F9018951F920F920FB60F9211240F9051
:1007C0000FBE0F901F9018956EE872E088EC92E0D3
:1007D0000E94B9116EE872E08FEC92E00C94B911AE
:1007E0008FEC92E00E944B1188EC92E00C944B113C
:1007F0000F931F93CF93DF93CDB7DEB762970FB6FA
:10080000F894DEBF0FBECDBF8A014AE0CE010D963F
:100810000E94FE116EE872E0CE0107960E94B911A7
:1008200089899A898330910519F46AE072E007C0DA
:10083000029719F460E172E002C065E172E0CE0156
:1008400001960E94B911BE01635F7F4FCE010196F0
:100850000E946A12B8010E946A126DE872E00E945A
:100860007D12BC01CE0107960E94CF11CE010196E8
:100870000E944B11BE01695F7F4F81EB93E00E94A4
:10088000411081EB93E00E94250D892BD1F369E1A2
:1008900070E080E090E00E94AF0B10E081EB93E00D
:1008A0000E94250D1816190644F481EB93E00E946E
:1008B0003E0D843299F711E0F1CF112311F3CE01EF
:1008C00007960E944B11CE010D960E944B11629625
:1008D0000FB6F894DEBF0FBECDBFDF91CF911F9151
:1008E0000F910895EF92FF920F931F93CF93DF9391
:1008F00000D000D0CDB7DEB78C017C018EE0E80ED1
:10090000F11CC7010E94E3018634910524F569E1D9
:1009100072E084E193E00E947E1065E070E0C8011F
:100920000E9496026AE272E084E193E00E947E10E7
:100930006BEA72E0CE0101960E94B911AE014F5FE1
:100940005F4F65E070E0C8010E94F803CE01019698
:100950000E944B11D6CF62E372E084E193E00E94E3
:100960007E1060E270E0C8010E94960265E472E0C9
:1009700084E193E00E947E1026960FB6F894DEBFC5
:100980000FBECDBFDF91CF911F910F91FF90EF90E0
:100990000895CF93DF93EC016AE472E081EB93E07A
:1009A0000E944F1081EB93E00E94250D892BD1F31B
:1009B0006AE070E080E090E00E94AF0B81EB93E092
:1009C0000E94250D181619062CF481EB93E00E9465
:1009D0003E0DF4CF6EE170E0CE010E94960260E51C
:1009E00072E081EB93E00E944F1081EB93E00E9454
:1009F000250D892BD1F36AE070E080E090E00E9441
:100A0000AF0B81EB93E00E94250D181619062CF40C
:100A100081EB93E00E943E0DF4CF66E572E081EB3E
:100A200093E00E944F1081EB93E00E94250D892BEB
:100A3000D1F36AE070E080E090E00E94AF0BC0E08C
:100A400081EB93E00E94250D1816190644F481EB02
:100A500093E00E943E0D843299F7C1E0F1CFCC23A0
:100A600019F06DE572E002C063E672E084E193E0A4
:100A7000DF91CF910C944F10FF920F931F93CF9360
:100A8000DF93CDB7DEB72D970FB6F894DEBF0FBE5C
:100A9000CDBF8C016EE872E0CE0107960E94B911BD
:100AA00062E070E0C8010E949712FC0180818C34E2
:100AB00009F466C0823509F463C0823409F460C069
:100AC00026E030E043E050E0B801CE0101960E94FC
:100AD000A912BE016F5F7F4FCE0107960E94CF1112
:100AE000CE0101960E944B11CE0107960E94EE1294
:100AF000695F7F4FC8010E949602B80181EB93E0C5
:100B00000E94411081EB93E00E94250D892BD1F3C7
:100B100069E170E080E090E00E94AF0BFF24F39465
:100B2000095F1F4F81EB93E00E94250D18161906EF
:100B3000CCF781EB93E00E943E0D282F682F843282
:100B400039F0FF2029F084E193E00E945110EACFB0
:100B5000C8012D870E9456122D852A3079F4B801DC
:100B600084E193E00E94411084E193E00E94B00D83
:100B70006EE872E0C8010E94E61102C0F12CD2CFEB
:100B8000CE0107960E944B112D960FB6F894DEBF4A
:100B90000FBECDBFDF91CF911F910F91FF900895B0
:100BA000CF93DF93EC0164E070E00E941403BE0178
:100BB00081EB93E00E94411081EB93E00E94B00D25
:100BC00081EB93E00E94250D18161906CCF781EBF6
:100BD00093E00E943E0DC82F682F84E193E00E94AD
:100BE0005110CA3069F784E193E0DF91CF910C9402
:100BF000B00D4F925F926F927F929F92AF92BF9291
:100C0000CF92DF92EF92FF920F931F93CF93DF93D8
:100C1000CDB7DEB768970FB6F894DEBF0FBECDBF75
:100C20008C016EE872E0CE0143960E94B9116EE825
:100C300072E0CE010D960E94B91169E672E0CE0114
:100C400007960E94B91127E030E044E050E0B80177
:100C5000CE0101960E94A912BE016F5F7F4FCE01A7
:100C600043960E94CF11CE0101960E944B11CE01F6
:100C700043960E94EE126B017C015B0163E070E021
:100C8000C8010E949712FC0180818D3239F4AA2498
:100C9000BB24AC18BD0861E070E002C060E070E009
:100CA0008CEE92E00E94CB08F801E0A0F1A0EA0CE3
:100CB000FB1CF4E1EF1AF10860E971E08CEE92E0C0
:100CC0000E94EA088CEE92E00E94D1086EE672E083
:100CD00081EB93E00E944F1081EB93E00E94250D81
:100CE000892BD1F3C80107966C01AA24A39481EB48
:100CF00093E00E94250D181619067CF481EB93E011
:100D00000E943E0DB82E682FC6010E9456129AE02E
:100D1000B912EDCFF801A586EACF26E030E043E036
:100D200050E0B601CE0101960E94A912BE016F5F8C
:100D30007F4FCE010D960E94CF11CE0101960E94E9
:100D40004B11CE010D960E94EE12F80171A360A323
:100D50004AE050E084E193E00E9433119924939497
:100D6000F80180A191A18E159F050CF0CCC0809157
:100D700080008F7B809380006EE672E081EB93E0D1
:100D80000E944F10809180008064809380000E94B8
:100D9000800B2B013C01A12CB12C81EB93E00E9434
:100DA000250D892B89F50E94800B64197509860928
:100DB0009709613D7740810591057CF363E772E017
:100DC00084E193E00E944F102FEFA21AB20AF89428
:100DD0006EE672E081EB93E00E944F1078940E94DF
:100DE000800B2B013C0184E0A816B104B1F66FE83A
:100DF00072E084E193E00E947E106DEA72E0CE0121
:100E000007960E94E6117FC069E170E080E090E003
:100E10000E94AF0B81EB93E00E94250D81EB93E0E4
:100E20000E94250D181619067CF481EB93E00E94B0
:100E30003E0DB82E682FC6010E9456129AE0B912D4
:100E4000EDCFF8019586EACF789426E030E043E0D4
:100E500050E0B601CE0101960E94A912BE016F5F5B
:100E60007F4FCE010D960E94CF11CE0101960E94B8
:100E70004B116EE872E0C6010E94E611CE010D969C
:100E80000E94EE12F80171A360A34AE050E084E1F1
:100E900093E00E943311F80180A191A18E159F0566
:100EA0003CF060E971E08CEE92E00E94EA082BC011
:100EB000B701681B790B882777FD8095982F0E94D2
:100EC000FA132B013C0120E030E040EA51E40E949B
:100ED000AA1418161CF460E47FE110C020E030E092
:100EE0004EEB53E4C301B2010E94AE1420E030E0A7
:100EF00048EC53E40E94FB120E94C7138CEE92E070
:100F00000E94B6082DCF8CEE92E00E94DE08BE0152
:100F1000695F7F4F84E193E00E946C1084E193E06D
:100F20000E94B00DCE0107960E944B11CE010D9686
:100F30000E944B11CE0143960E944B1168960FB64A
:100F4000F894DEBF0FBECDBFDF91CF911F910F91FF
:100F5000FF90EF90DF90CF90BF90AF909F907F90E9
:100F60006F905F904F90089562E070E00E941403CC
:100F700062EB72E084E193E00E944F1084E193E021
:100F80000C94B00DCF93DF93EC0161E070E00E9410
:100F90009712FC0180818434F1F034F48134E1F55E
:100FA000CE010E94490304C0893481F08235A1F545
:100FB00062E070E0CE010E949712FC0180818033D4
:100FC00081F5CE01DF91CF910C94F905CE01DF912F
:100FD000CF910C94D00562E070E0CE010E94971290
:100FE000FC018081843429F4CE01DF91CF910C94EF
:100FF000720462E070E0CE010E949712FC018081D1
:10100000843529F4CE01DF91CF910C94C904CE012F
:10101000DF91CF910C943C05CE01DF91CF910C94E0
:10102000B407DF91CF9108951F93CF93DF93EC0125
:1010300084E193E00E94250D11E084E193E00E9499
:10104000250D1816190674F484E193E00E943E0DF4
:101050008F8F682FCE010E9456128F8D8A3069F7CC
:101060001E83EBCF6AEF70E080E090E00E94AF0B50
:101070008E818823D9F060E070E0CE010E94971243
:10108000FC018081843291F4809171008093710021
:10109000CE010E94C207809171008160809371002F
:1010A0006EE872E0CE010E94E6111E82DF91CF91C0
:1010B0001F910895EF92FF920F931F93CF93DF93A9
:1010C000EC01042F122F7983688349875A872B8775
:1010D0003C87882777FD8095982F0E94FA132BED87
:1010E0003FE049EC50E40E945F130E94C7137B83EA
:1010F0006A8380E8E82EF12CF7011082E1E8F0E045
:101100001082109285001092840080E991E0909303
:1011100089008093880080818860808380818260DC
:10112000808361E08BE00E948D0C61E0802F0E9443
:101130008D0C61E0812F0E948D0CF70180818083EE
:1011400060E0812F0E94C60C60E08BE00E94C60C1C
:1011500081E090E09D838C8318861E861D86DF913A
:10116000CF911F910F91FF90EF900895882777FD01
:101170008095982F0E94FA139B01AC0160E074E205
:1011800084E799E40E945F130E94C713709389005B
:10119000609388000895FC016483758381850C94B5
:1011A000C60C21E0FC012087E0E8F0E0208120640B
:1011B000208360E0FC0183850C94C60CFC01108642
:1011C000E0E8F0E020812F7B208360E0FC01838554
:1011D0000C94C60CCF92DF92EF92FF920F931F9365
:1011E000CF93DF93EC018B016115710511F40E941F
:1011F000DE08B801882777FD8095982F0E94FA13A2
:1012000020E030E04AE952E40E94AE146B017C0118
:101210000E94C7137F836E836A817B81882777FD55
:101220008095982F0E94FA139B01AC01C701B6016B
:101230000E94AE140E94C71328EE33E040E050E055
:101240000E94331569E07DE380E090E00E94331551
:10125000CA01B90122E030E040E050E00E943315BD
:101260003093890020938800DF91CF911F910F91D7
:10127000FF90EF90DF90CF900895883008F06DC018
:10128000E82FF0E0EE0FFF1FE550FD4F7183608304
:1012900090E0FC013197E730F10590F5EE58FF4FF3
:1012A0000C945215809169008C7F842B8093690087
:1012B000E89A089580916900440F551F440F551F07
:1012C000837F842B80936900E99A08958091690057
:1012D00074E0440F551F7A95E1F78F7C842B80933F
:1012E0006900EA9A08958091690066E0440F551FED
:1012F0006A95E1F78F73842B80936900EB9A0895C8
:1013000080916A008C7F842B80936A00EC9A089508
:1013100080916A00440F551F440F551F837F842B13
:1013200080936A00ED9A089580916A0024E0440F4A
:10133000551F2A95E1F78F7C842B80936A00EE9AE3
:10134000089580916A0096E0440F551F9A95E1F741
:101350008F73842B80936A00EF9A08951F920F92E7
:101360000FB60F9211240BB60F922F933F934F930A
:101370005F936F937F938F939F93AF93BF93EF93FD
:10138000FF938091FF0290910003892B29F0E09157
:10139000FF02F09100031995FF91EF91BF91AF917A
:1013A0009F918F917F916F915F914F913F912F917D
:1013B0000F900BBE0F900FBE0F901F9018951F92AD
:1013C0000F920FB60F9211240BB60F922F933F93EB
:1013D0004F935F936F937F938F939F93AF93BF933D
:1013E000EF93FF938091010390910203892B29F0E1
:1013F000E0910103F09102031995FF91EF91BF91E4
:10140000AF919F918F917F916F915F914F913F919C
:101410002F910F900BBE0F900FBE0F901F9018953D
:101420001F920F920FB60F9211240BB60F922F93AB
:101430003F934F935F936F937F938F939F93AF935C
:10144000BF93EF93FF938091030390910403892B43
:1014500029F0E0910303F09104031995FF91EF91B6
:10146000BF91AF919F918F917F916F915F914F91BC
:101470003F912F910F900BBE0F900FBE0F901F90BA
:1014800018951F920F920FB60F9211240BB60F9260
:101490002F933F934F935F936F937F938F939F937C
:1014A000AF93BF93EF93FF93809105039091060351
:1014B000892B29F0E0910503F09106031995FF911E
:1014C000EF91BF91AF919F918F917F916F915F91BC
:1014D0004F913F912F910F900BBE0F900FBE0F9029
:1014E0001F9018951F920F920FB60F9211240BB6F2
:1014F0000F922F933F934F935F936F937F938F93AD
:101500009F93AF93BF93EF93FF938091FB029091D2
:10151000FC02892B29F0E091FB02F091FC02199565
:10152000FF91EF91BF91AF919F918F917F916F91BB
:101530005F914F913F912F910F900BBE0F900FBE77
:101540000F901F9018951F920F920FB60F921124B3
:101550000BB60F922F933F934F935F936F937F93AD
:101560008F939F93AF93BF93EF93FF938091FD026F
:101570009091FE02892B29F0E091FD02F091FE028C
:101580001995FF91EF91BF91AF919F918F917F91AD
:101590006F915F914F913F912F910F900BBE0F90E4
:1015A0000FBE0F901F9018951F920F920FB60F92BB
:1015B00011240BB60F922F933F934F935F936F932A
:1015C0007F938F939F93AF93BF93EF93FF938091FC
:1015D000070390910803892B29F0E0910703F0910C
:1015E00008031995FF91EF91BF91AF919F918F9152
:1015F0007F916F915F914F913F912F910F900BBE13
:101600000F900FBE0F901F9018951F920F920FB65C
:101610000F9211240BB60F922F933F934F935F932A
:101620006F937F938F939F93AF93BF93EF93FF93AA
:101630008091090390910A03892B29F0E091090315
:10164000F0910A031995FF91EF91BF91AF919F918E
:101650008F917F916F915F914F913F912F910F905B
:101660000BBE0F900FBE0F901F9018951F920F92F8
:101670000FB60F9211242F933F938F939F93AF93A5
:10168000BF9380910C0390910D03A0910E03B09134
:101690000F0330910B0323E0230F2D3720F4019625
:1016A000A11DB11D05C026E8230F0296A11DB11D85
:1016B00020930B0380930C0390930D03A0930E03D0
:1016C000B0930F038091100390911103A091120326
:1016D000B09113030196A11DB11D80931003909347
:1016E0001103A0931203B0931303BF91AF919F9185
:1016F0008F913F912F910F900FBE0F901F901895D3
:101700002FB7F89460910C0370910D0380910E0334
:1017100090910F032FBF08953FB7F8948091100365
:1017200090911103A0911203B091130326B5A89BC9
:1017300005C02F3F19F00196A11DB11D3FBF6627BF
:10174000782F892F9A2F620F711D811D911D42E004
:10175000660F771F881F991F4A95D1F70895CF927A
:10176000DF92EF92FF92CF93DF936B017C010E9497
:101770008C0BEB01C114D104E104F10489F00E9447
:10178000F9120E948C0B6C1B7D0B683E734090F32A
:1017900081E0C81AD108E108F108C851DC4FEACF4E
:1017A000DF91CF91FF90EF90DF90CF9008957894E4
:1017B00084B5826084BD84B5816084BD85B5826056
:1017C00085BD85B5816085BDEEE6F0E080818160F4
:1017D0008083E1E8F0E010828081826080838081F4
:1017E00081608083E0E8F0E0808181608083E1EBCC
:1017F000F0E0808184608083E0EBF0E080818160B4
:101800008083E1E9F0E08081826080838081816073
:101810008083E0E9F0E0808181608083E1EAF0E0AC
:10182000808182608083808181608083E0EAF0E053
:10183000808181608083E1E2F1E080818260808349
:10184000808181608083E0E2F1E08081816080833B
:10185000EAE7F0E080818460808380818260808319
:101860008081816080838081806880831092C10044
:10187000089590E0FC013197E231F10508F04CC089
:10188000E758FF4F0C945215809180008F7703C06A
:10189000809180008F7D80938000089580918000EA
:1018A000877FF9CF84B58F7702C084B58F7D84BDE3
:1018B00008958091B0008F7703C08091B0008F7D34
:1018C0008093B0000895809190008F7707C0809139
:1018D00090008F7D03C080919000877F809390005F
:1018E00008958091A0008F7707C08091A0008F7D20
:1018F00003C08091A000877F8093A000089580910D
:1019000020018F7707C0809120018F7D03C08091D7
:101910002001877F809320010895CF93DF9390E08B
:10192000FC01EC50FE4F2491FC01E65CFD4F8491DC
:10193000882349F190E0880F991FFC01EC54FD4F7A
:10194000A591B49186569D4FFC01C591D4919FB746
:10195000611108C0F8948C91209582238C93888122
:1019600082230AC0623051F4F8948C91322F309562
:1019700083238C938881822B888304C0F8948C9174
:10198000822B8C939FBFDF91CF9108950F931F936C
:10199000CF93DF931F92CDB7DEB7282F30E0F90148
:1019A000E255FE4F8491F901EC50FE4F1491F9017C
:1019B000E65CFD4F04910023C9F0882321F0698380
:1019C0000E94390C6981E02FF0E0EE0FFF1FE65610
:1019D000FD4FA591B4919FB7F8948C91611103C00C
:1019E0001095812301C0812B8C939FBF0F90DF91B5
:1019F000CF911F910F910895CF93DF93282F30E05F
:101A0000F901E255FE4F8491F901EC50FE4FD4915B
:101A1000F901E65CFD4FC491CC2391F081110E9445
:101A2000390CEC2FF0E0EE0FFF1FE058FD4FA591B1
:101A3000B4912C912D2381E090E021F480E002C04C
:101A400080E090E0DF91CF910895FC01818D228D9F
:101A500090E0805C9F4F821B91098F7399270895B6
:101A6000FC01918D828D981731F0828DE80FF11D68
:101A7000858D90E008958FEF9FEF0895FC01918D83
:101A8000828D981761F0828DDF01A80FB11D5D96E0
:101A90008C91928D9F5F9F73928F90E008958FEF4E
:101AA0009FEF089589EF9EE0892B41F080E090E060
:101AB000892B21F00E94F90E811125C080E090E071
:101AC000892B41F080E090E0892B21F00E940000FA
:101AD00081111CC080E090E0892B41F080E090E013
:101AE000892B21F00E940000811113C086EA9FE03B
:101AF000892BA1F080E090E0892B81F00E94A60F55
:101B000081110AC008950E940000D8CF0E940000F1
:101B1000E1CF0E940000EACF0C9400000895FC0180
:101B2000848DDF01A80FB11DA35ABF4F2C91848D66
:101B300090E001968F739927848FA689B7892C939B
:101B4000A089B1898C9180648C93938D848D981336
:101B500006C00288F389E02D80818F7D80830895FF
:101B6000CF93DF93EC01888D8823C9F0EA89FB8944
:101B7000808185FD05C0A889B9898C9186FD0FC03B
:101B80000FB607FCF5CF808185FFF2CFA889B98910
:101B90008C9185FFEDCFCE010E948F0DE7CFDF91B5
:101BA000CF910895CF92DF92FF920F931F93CF931F
:101BB000DF931F92CDB7DEB76C01DC015B969C9181
:101BC0005B975C968C915C97981307C05096ED914B
:101BD000FC915197808185FD32C0F601038D10E0A4
:101BE0000F5F1F4F0F731127F02EF601848DF8122F
:101BF00011C00FB607FCF9CFD6015096ED91FC91BC
:101C00005197808185FFF1CFC60169830E948F0DB6
:101C10006981EBCF838DE80FF11DE35AFF4F60839D
:101C2000D6015B960C935B975296ED91FC9153977E
:101C300080818062808381E058968C930DC0D601AC
:101C40005696ED91FC91579760835096ED91FC91DB
:101C5000519780818064808381E090E00F90DF91D4
:101C6000CF911F910F91FF90DF90CF900895BF9279
:101C7000CF92DF92EF92FF92CF93DF93EC016A0154
:101C80007B01B22EE889F98982E08083411581EEDB
:101C9000580761057105A1F060E079E08DE390E0FF
:101CA000A70196010E9411152150310941095109DE
:101CB0005695479537952795211580E1380798F077
:101CC000E889F989108260E874E88EE190E0A70164
:101CD00096010E941115215031094109510956956B
:101CE000479537952795EC85FD853083EE85FF85F3
:101CF0002083188EEC89FD89B082EA89FB89808176
:101D000080618083EA89FB89808188608083EA8999
:101D1000FB89808180688083EA89FB8980818F7D4F
:101D20008083DF91CF91FF90EF90DF90CF90BF90B5
:101D300008951F920F920FB60F9211240BB60F92B7
:101D40002F938F939F93EF93FF93E0912403F09150
:101D500025038081E0912A03F0912B0382FD12C0BC
:101D6000908180912D038F5F8F7320912E038217B6
:101D700051F0E0912D03F0E0EC5EFC4F958F8093E5
:101D80002D0301C08081FF91EF919F918F912F9141
:101D90000F900BBE0F900FBE0F901F9018951F92C3
:101DA0000F920FB60F9211240BB60F922F933F9301
:101DB0004F935F936F937F938F939F93AF93BF9353
:101DC000EF93FF9384E193E00E948F0DFF91EF91D9
:101DD000BF91AF919F918F917F916F915F914F9143
:101DE0003F912F910F900BBE0F900FBE0F901F9041
:101DF000189584E193E00E94250D21E0892B09F4D8
:101E000020E0822F0895109217031092160388EE97
:101E100093E0A0E0B0E08093180390931903A0939F
:101E20001A03B0931B038BEB92E0909315038093FE
:101E3000140385EC90E0909321038093200384ECBD
:101E400090E0909323038093220380EC90E09093A2
:101E500025038093240381EC90E0909327038093E3
:101E6000260382EC90E0909329038093280386EC6C
:101E700090E090932B0380932A0310922D031092ED
:101E80002E0310922F031092300308951F920F9289
:101E90000FB60F9211240BB60F922F938F939F932F
:101EA000EF93FF93E091C103F091C2038081E09131
:101EB000C703F091C80382FD12C090818091CA03CC
:101EC0008F5F8F732091CB03821751F0E091CA038B
:101ED000F0E0EF54FC4F958F8093CA0301C08081DE
:101EE000FF91EF919F918F912F910F900BBE0F90CB
:101EF0000FBE0F901F9018951F920F920FB60F9262
:101F000011240BB60F922F933F934F935F936F93D0
:101F10007F938F939F93AF93BF93EF93FF9381EB47
:101F200093E00E948F0DFF91EF91BF91AF919F9130
:101F30008F917F916F915F914F913F912F910F9072
:101F40000BBE0F900FBE0F901F90189581EB93E082
:101F50000E94250D21E0892B09F420E0822F0895AD
:101F60001092B4031092B30388EE93E0A0E0B0E0C7
:101F70008093B5039093B603A093B703B093B803CF
:101F80008BEB92E09093B2038093B10385E391E0F1
:101F90009093BE038093BD0384E391E09093C003CC
:101FA0008093BF0380E391E09093C2038093C103C9
:101FB00081E391E09093C4038093C30382E391E0B3
:101FC0009093C6038093C50386E391E09093C80382
:101FD0008093C7031092CA031092CB031092CC03D4
:101FE0001092CD03089508950E94D70B0E94F30F1D
:101FF0000E942D02C2E5DDE00E9438022097E1F345
:102000000E94520DF9CFCF92DF92EF92FF920F9381
:102010001F93CF93DF936C017A01EB01E60EF71E5D
:1020200000E010E0CE15DF0561F06991D601ED9179
:10203000FC910190F081E02DC6011995080F191F40
:10204000F1CFC801DF91CF911F910F91FF90EF90D9
:10205000DF90CF9008956115710581F0DB010D903F
:102060000020E9F7AD0141505109461B570BDC0137
:10207000ED91FC910280F381E02D199480E090E0D5
:102080000895DC01ED91FC91DB0114964D915C917A
:1020900015976D917C910280F381E02D19940C9439
:1020A0002B10DC01ED91FC910190F081E02D199451
:1020B0000F931F93CF93DF93EC016DE00E945110BB
:1020C0008C016AE0CE010E945110800F911FDF91B8
:1020D000CF911F910F9108950F931F93CF93DF938B
:1020E000EC010E9441108C01CE010E945810800F1B
:1020F000911FDF91CF911F910F9108950F931F931F
:10210000CF93DF93EC010E942B108C01CE010E9433
:102110005810800F911FDF91CF911F910F9108955B
:102120008F929F92AF92BF92CF92DF92EF92FF92E7
:102130000F931F93CF93DF93CDB7DEB7A1970FB661
:10214000F894DEBF0FBECDBF7C01C42EE52FCB01BE
:10215000D22E19A221E02D1510F02AE0D22E8E01E8
:102160000F5D1F4F8D2C912CA12CB12C6C2D7E2F2F
:10217000A50194010E9411158C2DD29E8019112465
:10218000015011098A3014F4805D01C0895CF801A6
:102190008083211531054105510521F0C22EE32F21
:1021A000CA01E4CFB801C7010E942B10A1960FB657
:1021B000F894DEBF0FBECDBFDF91CF911F910F917D
:1021C000FF90EF90DF90CF90BF90AF909F908F9057
:1021D0000895CF92DF92EF92FF920F931F93CF93C8
:1021E000DF93EC016A017B012115310579F4E88167
:1021F000F9810190F081E02D642FDF91CF911F9143
:102200000F91FF90EF90DF90CF9019942A30310515
:10221000E9F477FF1AC06DE20E9451108C01442747
:102220005527BA014C195D096E097F092AE0CE01D4
:102230000E949010800F911FDF91CF911F910F91FD
:10224000FF90EF90DF90CF9008952AE0B701A601AC
:10225000CE01DF91CF911F910F91FF90EF90DF9012
:10226000CF900C9490100F931F93CF93DF93EC01BA
:102270009A01AB01662757FD6095762F0E94E91001
:102280008C01CE010E945810800F911FDF91CF91D9
:102290001F910F910895FC01808191810C94F41598
:1022A000CF93DF93EC0188819981009711F00E9410
:1022B000F415198218821D821C821B821A82DF91FA
:1022C000CF9108950F931F93CF93DF93EC018B0170
:1022D0006F5F7F4F888199810E948316009731F04C
:1022E000998388831B830A8381E001C080E0DF91AA
:1022F000CF911F910F910895CF93DF93EC018881C7
:102300009981892B29F08A819B818617970760F430
:10231000CE010E946211882341F08C819D81892B1E
:1023200019F4E881F981108281E0DF91CF9108955D
:10233000EF92FF920F931F93CF93DF93EC017B01FA
:102340008A01BA010E947C11811104C0CE010E9451
:10235000501107C01D830C83B701888199810E94A9
:102360009C17CE01DF91CF911F910F91FF90EF90BD
:102370000895FC0111821082138212821582148248
:102380006115710559F0FB0101900020E9F7AF01DB
:1023900041505109461B570B0C9498110895CF9347
:1023A000DF93EC01FB018617970761F06081718173
:1023B0006115710529F0448155810E94981102C070
:1023C0000E945011CE01DF91CF910895CF93DF93FA
:1023D000EC016115710561F0FB0101900020E9F746
:1023E000AF0141505109461B570B0E94981102C082
:1023F0000E945011CE01DF91CF9108950F931F934A
:10240000CF93DF93CDB7DEB762970FB6F894DEBFF8
:102410000FBECDBF8C01CB01F80111821082138257
:1024200012821582148250E0BE016F5F7F4F0E94BE
:10243000A317BE016F5F7F4FC8010E94E61162962D
:102440000FB6F894DEBF0FBECDBFDF91CF911F91C5
:102450000F910895EF92FF920F931F93CF93DF9305
:10246000EC017B010C811D816115710511F480E087
:1024700016C04115510591F0040F151FB8010E94B7
:102480007C118823A1F3288139818C819D81B7013A
:10249000820F931F0E949C171D830C8381E0DF91A4
:1024A000CF911F910F91FF90EF900895CF93DF93FD
:1024B0001F921F92CDB7DEB769831A8241E050E0C8
:1024C000BE016F5F7F4F0E942A120F900F90DF9125
:1024D000CF910895CF93DF93EC01FB0144815581A7
:1024E000608171810E942A12811103C0CE010E9475
:1024F0005011CE01DF91CF910895CF93DF93EC017E
:102500006115710569F0FB0101900020E9F7AF0149
:1025100041505109461B570B0E942A12811103C0DA
:10252000CE010E945011CE01DF91CF910895FC01A0
:10253000848195816817790720F4808191810097C3
:1025400029F410924E048EE494E00895860F971FAC
:102550000895BF92CF92DF92EF92FF920F931F9355
:10256000CF93DF936C017B01EA01890124173507C2
:1025700020F48D2FE901042F182F6EE872E0C601B8
:102580000E94B911D70114968D919C911597C81787
:10259000D907C8F48017910708F48C01D701ED9191
:1025A000FC911197E00FF11FB08010826D917C912A
:1025B0006C0F7D1FC6010E94E611D701ED91FC91C1
:1025C000E00FF11FB082C601DF91CF911F910F91F3
:1025D000FF90EF90DF90CF90BF900895FC01808135
:1025E0009181009711F00C946C1760E070E0CB01C2
:1025F000089508955058BB27AA270ED071C162D103
:1026000030F067D120F031F49F3F11F41EF457C130
:102610000EF4E095E7FB4DC1E92F73D180F3BA17B3
:10262000620773078407950718F071F49EF58BC154
:102630000EF4E0950B2EBA2FA02D0B01B9019001DD
:102640000C01CA01A0011124FF27591B99F0593F21
:1026500050F4503E68F11A16F040A22F232F342F69
:102660004427585FF3CF469537952795A795F040B7
:102670005395C9F77EF41F16BA0B620B730B840BCC
:10268000BAF09150A1F0FF0FBB1F661F771F881F84
:10269000C2F70EC0BA0F621F731F841F48F48795DC
:1026A00077956795B795F7959E3F08F0B3CF9395CB
:1026B000880F08F09927EE0F9795879508950CD00D
:1026C0000FC107D140F0FED030F021F45F3F19F088
:1026D000F0C0511139C1F3C014D198F39923C9F353
:1026E0005523B1F3951B550BBB27AA276217730718
:1026F000840738F09F5F5F4F220F331F441FAA1FCC
:10270000A9F333D00E2E3AF0E0E830D0915050408B
:10271000E695001CCAF729D0FE2F27D0660F771F39
:10272000881FBB1F261737074807AB07B0E809F01B
:10273000BB0B802DBF01FF2793585F4F2AF09E3FB0
:10274000510568F0B6C000C15F3FECF3983EDCF382
:10275000869577956795B795F7959F5FC9F7880F29
:10276000911D9695879597F90895E1E0660F771F7B
:10277000881FBB1F621773078407BA0720F0621B0C
:10278000730B840BBA0BEE1F88F7E095089504D005
:102790006894B111D9C00895BCD088F09F5790F0CB
:1027A000B92F9927B751A0F0D1F0660F771F881F76
:1027B000991F1AF0BA95C9F712C0B13081F0C3D091
:1027C000B1E00895C0C0672F782F8827B85F39F02F
:1027D000B93FCCF3869577956795B395D9F73EF4D5
:1027E00090958095709561957F4F8F4F9F4F08957D
:1027F000E89409C097FB3EF490958095709561959B
:102800007F4F8F4F9F4F9923A9F0F92F96E9BB2750
:102810009395F695879577956795B795F111F8CFCC
:10282000FAF4BB0F11F460FF1BC06F5F7F4F8F4F37
:102830009F4F16C0882311F096E911C0772321F02D
:102840009EE8872F762F05C0662371F096E8862FC5
:1028500070E060E02AF09A95660F771F881FDAF71C
:10286000880F9695879597F90895990F0008550F49
:10287000AA0BE0E8FEEF16161706E807F907C0F006
:1028800012161306E407F50798F0621B730B840B0E
:10289000950B39F40A2661F0232B242B252B21F4E8
:1028A00008950A2609F4A140A6958FEF811D811D88
:1028B000089597F99F6780E870E060E008959FEFC2
:1028C00080EC089500240A941616170618060906C7
:1028D000089500240A941216130614060506089596
:1028E000092E0394000C11F4882352F0BB0F40F41E
:1028F000BF2B11F460FF04C06F5F7F4F8F4F9F4F5E
:10290000089557FD9058440F551F59F05F3F71F0DF
:102910004795880F97FB991F61F09F3F79F0879546
:102920000895121613061406551FF2CF4695F1DFCF
:1029300008C0161617061806991FF1CF869571055F
:10294000610508940895E894BB2766277727CB0193
:1029500097F908958ADF08F48FEF08950BD0C0CF60
:10296000B1DF28F0B6DF18F0952309F0A2CFA7CF8A
:102970001124EACFC6DFA0F3959FD1F3950F50E065
:10298000551F629FF001729FBB27F00DB11D639F21
:10299000AA27F00DB11DAA1F649F6627B00DA11DC7
:1029A000661F829F2227B00DA11D621F739FB00D6D
:1029B000A11D621F839FA00D611D221F749F3327DD
:1029C000A00D611D231F849F600D211D822F762F76
:1029D0006A2F11249F5750408AF0E1F088234AF073
:1029E000EE0FFF1FBB1F661F771F881F91505040BF
:1029F000A9F79E3F510570F05CCFA6CF5F3FECF387
:102A0000983EDCF3869577956795B795F795E795AA
:102A10009F5FC1F7FE2B880F911D9695879597F9BB
:102A20000895A1E21A2EAA1BBB1BFD010DC0AA1F0F
:102A3000BB1FEE1FFF1FA217B307E407F50720F027
:102A4000A21BB30BE40BF50B661F771F881F991FA2
:102A50001A9469F760957095809590959B01AC01EB
:102A6000BD01CF010895052E97FB1EF400940E942E
:102A70004A1557FD07D00E94111507FC03D04EF4EC
:102A80000C944A1550954095309521953F4F4F4FE6
:102A90005F4F089590958095709561957F4F8F4F0A
:102AA0009F4F0895EE0FFF1F0590F491E02D1994AC
:102AB0000790F691E02D1994CF93DF938230910522
:102AC00010F482E090E0E0915104F091520420E093
:102AD00030E0A0E0B0E0309739F1408151814817F3
:102AE0005907B8F04817590771F4828193811097FC
:102AF00029F013969C938E9312972CC090935204B6
:102B00008093510427C02115310531F04217530736
:102B100018F0A901DB0101C0EF019A01BD01DF013D
:102B20000280F381E02DD7CF21153105F9F0281B64
:102B3000390B2430310580F48A819B816115710540
:102B400021F0FB019383828304C09093520480930D
:102B50005104FE01329644C0FE01E20FF31F81933F
:102B6000919322503109398328833AC020914F0430
:102B700030915004232B41F4209102023091030242
:102B80003093500420934F042091000230910102B1
:102B90002115310541F42DB73EB740910402509103
:102BA0000502241B350BE0914F04F0915004E2170D
:102BB000F307A0F42E1B3F0B2817390778F0AC0160
:102BC0004E5F5F4F2417350748F04E0F5F1F50933D
:102BD000500440934F048193919302C0E0E0F0E0F1
:102BE000CF01DF91CF910895CF93DF93009709F440
:102BF00087C0FC01329713821282C0915104D09198
:102C00005204209781F420813181280F391F80914F
:102C10004F04909150048217930779F5F093500474
:102C2000E0934F046DC0DE0120E030E0AE17BF0737
:102C300050F412964D915C9113979D0141155105E9
:102C400009F1DA01F3CFB383A28340815181840F6C
:102C5000951F8A179B0771F48D919C911197840F92
:102C6000951F02969183808312968D919C91139764
:102C7000938382832115310529F4F0935204E09364
:102C800051043EC0D9011396FC93EE9312974D91D7
:102C90005D91A40FB51FEA17FB0779F4808191813C
:102CA000840F951F0296D90111969C938E93828171
:102CB000938113969C938E931297E0E0F0E08A81C3
:102CC0009B81009719F0FE01EC01F9CFCE0102962D
:102CD00028813981820F931F20914F043091500435
:102CE0002817390769F4309729F41092520410928A
:102CF000510402C013821282D0935004C0934F0437
:102D0000DF91CF9108956F927F928F929F92AF92B1
:102D1000BF92CF92DF92EF92FF920F931F93CF93C8
:102D2000DF93EC01CB01209781F4DF91CF911F91CC
:102D30000F91FF90EF90DF90CF90BF90AF909F905A
:102D40008F907F906F900C945C15FE01E60FF71F3B
:102D50009E0122503109E217F30708F4ACC0D901F3
:102D60000D911C91119706171707B8F00530110542
:102D700008F49FC0A801445051094617570708F4AA
:102D800098C002501109061B170B019311936D9304
:102D90007C93CF010E94F4158CC05B01A01AB10A8C
:102DA0004E01800E911EA0915104B0915204612CED
:102DB000712C60E070E0109709F449C0A815B905BE
:102DC000C9F5ED90FC901197670142E0C40ED11C4B
:102DD000CA14DB0478F147018A189B08640142E0B9
:102DE000C40ED11C1296BC9012971396AC91B5E00C
:102DF000CB16D10440F0B282A38391828082D901A4
:102E00008D939C9309C00E5F1F4F0E0D1F1DF9017E
:102E100011830083EB2DFA2F6115710531F0DB0171
:102E20001396FC93EE93129744C0F0935204E093F0
:102E300051043FC06D917C9111976616770608F496
:102E40003B01BD0112960D90BC91A02DB4CF6091B5
:102E50004F047091500468157905E9F468167906F5
:102E6000D0F440910002509101024115510541F406
:102E70004DB75EB76091040270910502461B570B77
:102E8000E417F507C0F4F0935004E0934F04F90100
:102E9000918380830EC00E945C157C01009759F0DD
:102EA000A801BE010E949317CE010E94F415C7012C
:102EB00004C0CE0102C080E090E0DF91CF911F916D
:102EC0000F91FF90EF90DF90CF90BF90AF909F90C9
:102ED0008F907F906F9008951F93FC01992788270A
:102EE000BC01E89411911032E9F3193010F01E3052
:102EF000C8F31B3251F01D3249F4689406C00E9499
:102F0000B917610F711D811D911D119110531A3058
:102F1000B0F33EF490958095709561957F4F8F4FFB
:102F20009F4F1F910895FB01DC0102C001900D929B
:102F300041505040D8F70895FB01DC0101900D92FB
:102F40000020E1F708954532510520F4423010F099
:102F50000C94AE17FB011082CB010895BB274A30B9
:102F600031F4992322F4BDE2909581959F4F0C9402
:102F7000CF17592F482F372F262F660F771F881FFF
:102F8000991F660F771F881F991F620F731F841F79
:102F9000951F660F771F881F991F0895BB27FB0198
:102FA0005527AA27880F991FAA1FA41710F0A41B42
:102FB00083955051B9F7A05DAA3308F0A95DA1939C
:102FC000009779F7B111B1931192CB010C94E817E6
:102FD000DC01FC01672F71917723E1F7329704C080
:102FE0007C916D9370836291AE17BF07C8F308950B
:102FF00012E0C4EDD2E000E006C022970109FE0114
:103000000BBF0E945815C63DD10780E00807A9F7FD
:04301000F894FFCF62
:103014000000530480002441500024444630300012
:103024002444463000244446004465706C6F79693A
:103034006E67205465746865720044726976696EBF
:10304400670053706F6F6C696E672052656D6169BC
:103054006E646572002444445000244454470A00BA
:10306400244454530A0024445452410A002444542E
:10307400500A00244454460A00245230500024527A
:10308400300A00526573656E64696E6720636F6D04
:103094006D616E6420746F2043522E2E2E0A0046FA
:1030A40061696C656420746F20636F6D6D756E6902
:1030B4006361746520776974682043520024523038
:1030C40046002453500A0000000000D20D031025CE
:0830D4000D3E0D300DB00D00A2
:00000001FF
