:100000000C946B010C94300C0C94610C0C94920CBD
:100010000C94C30C0C94F40C0C94250D0C94560DFC
:100020000C94870D0C949C010C949C010C949C01E5
:100030000C949C010C949C010C949C010C949C01CC
:100040000C949C010C94EB030C949C010C949C016B
:100050000C949C010C949C010C949C010C94B80D84
:100060000C949C010C9440110C9476110C949C01FE
:100070000C949C010C949C010C949C010C949C018C
:100080000C949C010C949C010C949C010C94BD0359
:100090000C949C010C949C010C949C010C949C016C
:1000A0000C949C010C949C010C949C010C949C015C
:1000B0000C949C010C949C010C949C010C949C014C
:1000C0000C949C010C949C010C949C010C949C013C
:1000D0000C949C010C949C010C94ED110C94231233
:1000E0000C949C010A0CD40BDC0BE80BF50B160CE2
:1000F000230CF90EFC0EEB0EEF0EF50E330F000F76
:10010000040F0A0F0E0F120F180F1C0F200F330FC2
:10011000260F2A0F2E0F0C940A0C0C940E0F0C9421
:1001200029020C941C0F0C94230C0C94F90E0C94C3
:10013000AA110C94000F0C94E80B0C94040F0C946F
:10014000F50B0C94330F0C94260F0C94A0110C9407
:1001500079100C94AA120C9457100C94DC0B0C948C
:10016000D70F0C94D40B0C94CC0F0C94160C0C944D
:10017000FC0E0C9422040C942A0F0C9457120C942D
:10018000E50F0C94F90F0C94F50E0C94200F0C94C1
:10019000180F0C94EB0E0C94120F0C94EF0E0C94A1
:1001A00016040C942E0F0C944D120C940A0F0000A0
:1001B0000A0B02090C0D0E080703040100000000E1
:1001C000000000000000000000000000000000002F
:1001D00000000000000000000000121110000000EC
:1001E000000000000000000000000000000000000F
:1001F00000000000010210202008081020401020FC
:1002000040800201020108040201010204081020DA
:1002100040808040201008040201800402018040D8
:100220002010080402010804020101020408102041
:1002300040800102040810204080050505050705DF
:1002400008080808020202020A0A08080404040452
:10025000010101010101010103030303030303037E
:10026000040707070C0C0C0C0C0C0C0C020202020D
:1002700006060606060606060B0B0B0B0B0B0B0BF6
:10028000000020002300260029002C002F0032004F
:100290000001000003010601090100002200250001
:1002A00028002B002E00310034000201000005015F
:1002B00008010B0100002100240027002A002D0066
:1002C0003000330001010000040107010A01160497
:1002D000AA115712220411241FBECFEFD1E2DEBFB4
:1002E000CDBF00E00CBF13E0A0E0B2E0E6EFF5E325
:1002F00000E00BBF02C007900D92A035B107D9F7FF
:1003000024E0A0E5B3E001C01D92AB3DB207E1F7E8
:1003100012E0C4EDD2E000E006C022970109FE0120
:100320000BBF0E943518CE3CD10780E00807A9F723
:100330000E949B120C94E91A0C940000EF92FF9219
:100340000F931F93CF93DF931F92CDB7DEB77C013E
:10035000FC01718360835383428326873787048738
:100360001587148215821682178260E0802F2983F8
:100370000E94340F61E0802F0E946D0F60E02981A0
:10038000822F0E94340FF701108A0F90DF91CF91D6
:100390001F910F91FF90EF900895FC018089448197
:1003A000558166817781882329F04150510961097F
:1003B000710904C04F5F5F4F6F4F7F4F4483558378
:1003C000668377830895CF92DF92EF92FF92CF9367
:1003D000DF93EC016C817D818E819F810E94C31629
:1003E0009B01AC010E94C4152BED3FE049E450E4B1
:1003F0000E9477176B017C016A817B81882777FDDA
:100400008095982F0E94C3169B01AC01C701B601CD
:100410000E94281620E030E04AE952E40E942816A3
:1004200023E333E343E950E40E9477170E949016D8
:10043000CB01DF91CF91FF90EF90DF90CF900895A7
:10044000FC0164817581868197810895FC01608B30
:10045000089580E593E00C94BA0380E593E00E9450
:100460003C0242E050E069E272E082E00C94BF0B93
:1004700080E593E00C94960A0F931F93CF93DF933C
:10048000EC0161E08DE00E94340F10929000E1E9F0
:10049000F0E01082109295001092940080818460A8
:1004A0008083E1E7F0E080818160808329E030E0B3
:1004B0004AE050E061E070E084E793E00E94DC0AEB
:1004C00005E110E02EE130E04CE251E062E070E046
:1004D000CE010E960E949E0119A218A21BA21AA27A
:1004E00026E040E052EC61E070E08CE993E00E948D
:1004F000DE1026E040E052EC61E070E089E394E039
:100500000E94DE101E826EEC72E0CE010E949614F4
:100510001D866EEC72E0CE0107960E94961480E371
:100520008F8FDF91CF911F910F910895EF92FF92DE
:100530000F931F93CF93DF938C017B01FC0182A16A
:1005400093A1E80EF91EE8012E9660E0CE010E940C
:10055000260260E070E084E793E00E944D0B68E5BE
:100560007BE184E793E00E94380B84E793E00E94EC
:10057000530BF80182A193A18E159F0584F464E6C4
:1005800070E080E090E00E94310ECE010E942002D7
:10059000CE010E94E301F80193A382A3EACFCE012A
:1005A0000E94200284E793E0DF91CF911F910F9189
:1005B000FF90EF900C94600BEF92FF920F931F93BC
:1005C000CF93DF93EC010AA11BA1061B170B61E07F
:1005D00070E084E793E00E944D0B7E018EE0E80E10
:1005E000F11C61E0C7010E94260268E57BE184E717
:1005F00093E00E94380B84E793E00E94530B8AA19A
:100600009BA108171907BCF4C7010E94E3019BA333
:100610008AA364E670E080E090E00E94310E8AA137
:100620009BA18E3691055CF760ED77E084E793E05F
:100630000E94380BE4CF84E793E0DF91CF911F91C4
:100640000F91FF90EF900C94600B0F931F93CF933B
:10065000DF938B0164EF71E080E090E00E94310E47
:10066000C0E0D0E0C017D10704F560E08DE00E9443
:100670006D0F6AEF70E080E090E00E94310E61E063
:100680008DE00E946D0F6AEF70E080E090E00E94C4
:10069000310E60E08DE00E946D0F6AEF70E080E047
:1006A00090E00E94310E2196DDCFDF91CF911F9116
:1006B0000F910895CF92DF92EF92FF920F931F93C5
:1006C000CF93DF93CDB7DEB72C970FB6F894DEBF8C
:1006D0000FBECDBF8C016EEC72E0CE0107960E947A
:1006E000601463E070E0C8010E94250327E030E059
:1006F00044E050E0B801CE0101960E947215BE019F
:100700006F5F7F4FCE0107960E947614CE0101964F
:100710000E94F213CE0107960E94B7156B017C016F
:1007200063E070E0C8010E946015FC018081B601A1
:100730008B3221F4C8010E94960203C0C8010E94B6
:10074000DC0267E072E08CE993E00E942513CE01A1
:1007500007960E94F2132C960FB6F894DEBF0FBED8
:10076000CDBFDF91CF911F910F91FF90EF90DF9060
:10077000CF9008950E960C94CD011F920F920FB654
:100780000F9211240BB60F922F933F934F935F93C9
:100790006F937F938F939F93AF93BF93EF93FF9349
:1007A0008DE00E94A30F61E068278DE00E946D0F2D
:1007B000FF91EF91BF91AF919F918F917F916F9139
:1007C0005F914F913F912F910F900BBE0F900FBEF5
:1007D0000F901F9018951F920F920FB60F92112431
:1007E0000F900FBE0F901F90189586E30E94BB0ECE
:1007F0006FEF70E00E94DA17CB0125E0289FB0016F
:10080000299F700D1124882777FD8095982F0E94CD
:10081000C31620E030ED44E856E40E94771720E04C
:1008200030E44CE955E40E94281608956EEC72E01D
:1008300080E593E00E9460146EEC72E087E593E03F
:100840000C94601487E593E00E94F21380E593E036
:100850000C94F2130F931F93CF93DF93CDB7DEB7B2
:1008600062970FB6F894DEBF0FBECDBF8A014AE093
:10087000CE010D960E94C7146EEC72E0CE01079671
:100880000E94601489899A898330910519F46BE07C
:1008900072E007C0029719F461E172E002C066E1FC
:1008A00072E0CE0101960E946014BE01635F7F4F2B
:1008B000CE0101960E943315B8010E9433156DECEC
:1008C00072E00E944615BC01CE0107960E94761484
:1008D000CE0101960E94F213BE01695F7F4F89E34A
:1008E00094E00E94E81289E394E00E94CC0F892BE7
:1008F000D1F369E170E080E090E00E94310E10E0F9
:1009000089E394E00E94CC0F1816190644F489E399
:1009100094E00E94E50F843299F711E0F1CF1123A2
:1009200011F3CE0107960E94F213CE010D960E949C
:10093000F21362960FB6F894DEBF0FBECDBFDF9103
:10094000CF911F910F910895EF92FF920F931F93F4
:10095000CF93DF9300D000D0CDB7DEB78C017C0100
:100960008EE0E80EF11CC7010E94E301813491057D
:1009700024F56AE172E08CE993E00E94251366E0B9
:1009800070E0C8010E9496026BE272E08CE993E08D
:100990000E9425136BEE72E0CE0101960E94601456
:1009A000AE014F5F5F4F65E070E0C8010E942A040E
:1009B000CE0101960E94F213D6CF63E372E08CE978
:1009C00093E00E9425136EE170E0C8010E94960238
:1009D00066E472E08CE993E00E94251326960FB638
:1009E000F894DEBF0FBECDBFDF91CF911F910F9165
:1009F000FF90EF9008954F925F926F927F928F9247
:100A00009F92AF92BF92DF92EF92FF920F931F934C
:100A1000CF93DF93CDB7DEB768970FB6F894DEBFFC
:100A20000FBECDBF8C016BE472E08CE993E00E94B5
:100A300025136EEC72E0CE0143960E9460146EECBA
:100A400072E0CE010D960E94601467E672E0CE015E
:100A500007960E94601460E070E084E793E00E94D3
:100A60004D0B68E57BE184E793E00E94380B84E757
:100A700093E00E94530B6CE672E08CE993E00E94D5
:100A8000251362E872E089E394E00E94F61289E39C
:100A900094E00E94CC0F892BD1F365E070E080E0F8
:100AA00090E00E94310EC80107967C0189E394E032
:100AB0000E94CC0F18161906D4F489E394E00E9422
:100AC000E50FD82E682FCE0101960E94AE14BE010C
:100AD0006F5F7F4F8CE993E00E941313CE01019664
:100AE0000E94F2136D2DC7010E941F15DFCF67E82A
:100AF00072E08CE993E00E94251326E030E043E0A9
:100B000050E0B701CE0101960E947215BE016F5FE1
:100B10007F4FCE010D960E947614CE0101960E9461
:100B2000F213CE010D960E94B715F80171A360A3D0
:100B3000B7018CE993E00E94E8126EEC72E0C70105
:100B40000E9496146EE972E08CE993E00E942513EE
:100B5000DD24D394F80180A191A146970CF4C7C07D
:100B6000809180008F7B8093800062E872E089E34F
:100B700094E00E94F612809180008064809380004F
:100B80000E94020E2B013C01A12CB12C89E394E0C0
:100B90000E94CC0F892B89F50E94020E64197509F9
:100BA0008609970969387341810591057CF363EBE8
:100BB00072E08CE993E00E94F6122FEFA21AB20ABB
:100BC000F89462E872E089E394E00E94F612789467
:100BD0000E94020E2B013C0184E0A816B104B1F67C
:100BE0006FEC72E08CE993E00E9425136DEE72E0E9
:100BF000CE0107960E9496147AC069E170E080E009
:100C000090E00E94310E89E394E00E94CC0F181608
:100C100019067CF489E394E00E94E50FB82E682F52
:100C2000C7010E941F159AE0B912EDCFF801D586D1
:100C3000EACF789426E030E043E050E0B701CE01FF
:100C400001960E947215BE016F5F7F4FCE010D9617
:100C50000E947614CE0101960E94F2136EEC72E0AF
:100C6000C7010E949614CE010D960E94B715F80197
:100C700071A360A34AE050E08CE993E00E94DA138C
:100C8000F80160A171A1653171053CF460E971E082
:100C900084E793E00E946C0B2AC065517109882794
:100CA00077FD8095982F0E94C3164B015C0120E0D0
:100CB00030E040EA51E40E94731718161CF468E50E
:100CC0007BE110C020E030E045EA53E4C501B40107
:100CD0000E94771720E030E048EC53E40E94C415EE
:100CE0000E94901684E793E00E94380B33CF84E78C
:100CF00093E00E94600B67E070E0C8010E949602DA
:100D0000BE01695F7F4F8CE993E00E941313CE010F
:100D100007960E94F213CE010D960E94F213CE01A7
:100D200043960E94F21368960FB6F894DEBF0FBE8A
:100D3000CDBFDF91CF911F910F91FF90EF90DF908A
:100D4000BF90AF909F908F907F906F905F904F90EB
:100D500008950F931F93CF93DF9300D000D0CDB7AA
:100D6000DEB78C0162EF72E089E394E00E94F61234
:100D70006BE272E08CE993E00E94251389E394E032
:100D80000E94CC0F892BD1F36AE070E080E090E004
:100D90000E94310E89E394E00E94CC0F18161906C8
:100DA000ACF489E394E00E94E50F682FCE01019630
:100DB0000E94AE14BE016F5F7F4F8CE993E00E94EA
:100DC0001313CE0101960E94F213E4CF6AE172E0A0
:100DD0008CE993E00E94251368E270E0C8010E944C
:100DE000960268EF72E08CE993E00E94251369E0B7
:100DF00073E08CE993E00E94F61268E073E089E307
:100E000094E00E94F6126EE073E08CE993E00E9499
:100E1000251389E394E00E94CC0F892BD1F36AE07B
:100E200070E080E090E00E94310E89E394E00E943F
:100E3000CC0F18161906ACF489E394E00E94E50F74
:100E4000682FCE0101960E94AE14BE016F5F7F4FE6
:100E50008CE993E00E941313CE0101960E94F213D5
:100E6000E4CF69E173E08CE993E00E94251367E227
:100E700073E089E394E00E94F61289E394E00E9413
:100E8000CC0F892BD1F36AE070E080E090E00E9403
:100E9000310E10E089E394E00E94CC0F1816190679
:100EA00044F489E394E00E94E50F843299F711E05D
:100EB000F1CF112319F06EE273E002C064E373E036
:100EC0008CE993E00E94F61226960FB6F894DEBFE6
:100ED0000FBECDBFDF91CF911F910F910895FF926B
:100EE0000F931F93CF93DF93CDB7DEB72D970FB638
:100EF000F894DEBF0FBECDBF8C016EEC72E0CE0168
:100F000007960E94601462E070E0C8010E946015BC
:100F1000FC0180818C3409F466C0823509F463C019
:100F2000823409F460C026E030E043E050E0B801CC
:100F3000CE0101960E947215BE016F5F7F4FCE01F8
:100F400007960E947614CE0101960E94F213CE01FC
:100F500007960E94B715695F7F4FC8010E949602ED
:100F6000B80189E394E00E94E81289E394E00E94CA
:100F7000CC0F892BD1F369E170E080E090E00E9412
:100F8000310EFF24F394095F1F4F89E394E00E9420
:100F9000CC0F18161906CCF789E394E00E94E50FF0
:100FA000282F682F843239F0FF2029F08CE993E054
:100FB0000E94F812EACFC8012D870E941F152D85C7
:100FC0002A3079F4B8018CE993E00E94E8128CE9A8
:100FD00093E00E9457106EEC72E0C8010E949614D4
:100FE00002C0F12CD2CFCE0107960E94F2132D96AB
:100FF0000FB6F894DEBF0FBECDBFDF91CF911F912A
:101000000F91FF900895CF93DF93EC0164E070E0BF
:101010000E942503BE0189E394E00E94E81289E35F
:1010200094E00E94571089E394E00E94CC0F1816B8
:101030001906CCF789E394E00E94E50FC82F682FCA
:101040008CE993E00E94F812CA3069F78CE993E0CA
:10105000DF91CF910C9457104F925F926F927F92D5
:101060009F92AF92BF92CF92DF92EF92FF920F9337
:101070001F93CF93DF93CDB7DEB768970FB6F89481
:10108000DEBF0FBECDBF8C016EEC72E0CE01439689
:101090000E9460146EEC72E0CE010D960E94601406
:1010A00067E672E0CE0107960E94601427E030E008
:1010B00044E050E0B801CE0101960E947215BE01D5
:1010C0006F5F7F4FCE0143960E947614CE0101964A
:1010D0000E94F213CE0143960E94B7156B017C016A
:1010E0005B0163E070E0C8010E946015FC01808133
:1010F0008D3239F4AA24BB24AC18BD0861E070E03D
:1011000002C060E070E084E793E00E944D0BF801BC
:10111000E0A0F1A0EA0CFB1CF4E1EF1AF10860E991
:1011200071E084E793E00E946C0B84E793E00E94F7
:10113000530B6AE373E089E394E00E94F61289E3BB
:1011400094E00E94CC0F892BD1F3C80107966C0163
:10115000AA24A39489E394E00E94CC0F18161906E0
:101160007CF489E394E00E94E50FB82E682FC60155
:101170000E941F159AE0B912EDCFF801A586EACFBB
:1011800026E030E043E050E0B601CE0101960E9437
:101190007215BE016F5F7F4FCE010D960E947614CF
:1011A000CE0101960E94F213CE010D960E94B71552
:1011B000F80171A360A34AE050E08CE993E00E943B
:1011C000DA1399249394F80180A191A18E159F05BB
:1011D0000CF0CCC0809180008F7B809380006AE30C
:1011E00073E089E394E00E94F612809180008064AD
:1011F000809380000E94020E2B013C01A12CB12C97
:1012000089E394E00E94CC0F892B89F50E94020E9D
:101210006419750986099709613D77408105910533
:101220007CF363EB72E08CE993E00E94F6122FEFFF
:10123000A21AB20AF8946AE373E089E394E00E9488
:10124000F61278940E94020E2B013C0184E0A8164D
:10125000B104B1F66FEC72E08CE993E00E942513C3
:101260006DEE72E0CE0107960E9496147FC069E190
:1012700070E080E090E00E94310E89E394E00E94EB
:10128000CC0F89E394E00E94CC0F181619067CF469
:1012900089E394E00E94E50FB82E682FC6010E94F2
:1012A0001F159AE0B912EDCFF8019586EACF789430
:1012B00026E030E043E050E0B601CE0101960E9406
:1012C0007215BE016F5F7F4FCE010D960E9476149E
:1012D000CE0101960E94F2136EEC72E0C6010E94EC
:1012E0009614CE010D960E94B715F80171A360A364
:1012F0004AE050E08CE993E00E94DA13F80180A103
:1013000091A18E159F053CF060E971E084E793E0C0
:101310000E946C0B2BC0B701681B790B882777FDE7
:101320008095982F0E94C3162B013C0120E030E0ED
:1013300040EA51E40E94731718161CF468E57BE13B
:1013400010C020E030E045EA53E4C301B2010E943E
:10135000771720E030E048EC53E40E94C4150E9467
:10136000901684E793E00E94380B2DCF84E793E03A
:101370000E94600BBE01695F7F4F8CE993E00E9481
:1013800013138CE993E00E945710CE0107960E9438
:10139000F213CE010D960E94F213CE0143960E94E5
:1013A000F21368960FB6F894DEBF0FBECDBFDF9183
:1013B000CF911F910F91FF90EF90DF90CF90BF9052
:1013C000AF909F907F906F905F904F9008950F9394
:1013D0001F93CF93DF93CDB7DEB762970FB6F89424
:1013E000DEBF0FBECDBF8C010E94F503C8010E9673
:1013F0000E94E3014AE0BC01CE0107960E94C71497
:10140000BE01695F7F4FCE0101960E948D146DEC85
:1014100072E0CE0101960E944615BC01CE010D96E8
:101420000E948D14CE0101960E94F213CE01079600
:101430000E94F213BE01635F7F4F8CE993E00E942C
:10144000E8128CE993E00E945710CE010D960E949D
:10145000F21362960FB6F894DEBF0FBECDBFDF91D8
:10146000CF911F910F910895CF93DF93EC0161E02D
:1014700070E00E946015FC018081843471F13CF4BD
:10148000813409F04BC0CE010E945A0305C0893453
:10149000F9F0823509F042C062E070E0CE010E94AE
:1014A0006015FC018081803329F4CE01DF91CF915A
:1014B0000C942C0862E070E0CE010E946015FC01E3
:1014C0008081843481F5CE01DF91CF910C94FB04AF
:1014D000CE01DF91CF910C94030862E070E0CE0161
:1014E0000E946015FC018081843429F4CE01DF91D3
:1014F000CF910C94A40462E070E0CE010E946015CC
:10150000FC018081843529F4CE01DF91CF910C94C8
:10151000A906CE01DF91CF910C946F07CE01DF9128
:10152000CF910C94E709DF91CF9108951F93CF934A
:10153000DF93EC018CE993E00E94CC0F11E08CE981
:1015400093E00E94CC0F1816190674F48CE993E00E
:101550000E94E50F8F8F682FCE010E941F158F8D7F
:101560008A3069F71E83EBCF6AEF70E080E090E08D
:101570000E94310E8E818823D9F060E070E0CE01A8
:101580000E946015FC018081843291F48091710089
:1015900080937100CE010E94340A809171008160B5
:1015A000809371006EEC72E0CE010E9496141E8250
:1015B000DF91CF911F910895EF92FF920F931F93A8
:1015C000CF93DF93EC01042F122F7983688349872F
:1015D0005A872B873C87882777FD8095982F0E9414
:1015E000C3162BED3FE049EC50E40E9428160E9400
:1015F00090167B836A8380E8E82EF12CF701108235
:10160000E1E8F0E01082109285001092840080E9F9
:1016100091E0909389008093880080818860808326
:1016200080818260808361E08BE00E94340F61E002
:10163000802F0E94340F61E0812F0E94340FF70148
:101640008081808360E0812F0E946D0F60E08BE0DD
:101650000E946D0F81E090E09D838C8318861E862A
:101660001D86DF91CF911F910F91FF90EF9008950C
:10167000882777FD8095982F0E94C3169B01AC01A7
:1016800060E074E284E799E40E9428160E949016B4
:1016900070938900609388000895FC0164837583CA
:1016A00081850C946D0F21E0FC012087E0E8F0E0DB
:1016B00020812064208360E0FC0183850C946D0F01
:1016C000FC011086E0E8F0E020812F7B208360E0C1
:1016D000FC0183850C946D0FCF92DF92EF92FF9205
:1016E0000F931F93CF93DF93EC018B01611571056D
:1016F00011F40E94600BB801882777FD8095982F20
:101700000E94C31620E030E04AE952E40E947717B5
:101710006B017C010E9490167F836E836A817B81BE
:10172000882777FD8095982F0E94C3169B01AC01F6
:10173000C701B6010E9477170E94901628EE33E089
:1017400040E050E00E94101869E07DE380E090E006
:101750000E941018CA01B90122E030E040E050E0D8
:101760000E9410183093890020938800DF91CF9158
:101770001F910F91FF90EF90DF90CF9008958830E8
:1017800008F06DC0E82FF0E0EE0FFF1FED57FC4FA3
:101790007183608390E0FC013197E730F10590F5AB
:1017A000EE58FF4F0C942F18809169008C7F842B8A
:1017B00080936900E89A089580916900440F551F4D
:1017C000440F551F837F842B80936900E99A089505
:1017D0008091690074E0440F551F7A95E1F78F7C82
:1017E000842B80936900EA9A08958091690066E0ED
:1017F000440F551F6A95E1F78F73842B809369001E
:10180000EB9A089580916A008C7F842B80936A0004
:10181000EC9A089580916A00440F551F440F551F9C
:10182000837F842B80936A00ED9A089580916A00EB
:1018300024E0440F551F2A95E1F78F7C842B809379
:101840006A00EE9A089580916A0096E0440F551F51
:101850009A95E1F78F73842B80936A00EF9A08952D
:101860001F920F920FB60F9211240BB60F922F9367
:101870003F934F935F936F937F938F939F93AF9318
:10188000BF93EF93FF938091870390918803892BF7
:1018900029F0E0918703F09188031995FF91EF916A
:1018A000BF91AF919F918F917F916F915F914F9178
:1018B0003F912F910F900BBE0F900FBE0F901F9076
:1018C00018951F920F920FB60F9211240BB60F921C
:1018D0002F933F934F935F936F937F938F939F9338
:1018E000AF93BF93EF93FF938091890390918A0305
:1018F000892B29F0E0918903F0918A031995FF91D2
:10190000EF91BF91AF919F918F917F916F915F9177
:101910004F913F912F910F900BBE0F900FBE0F90E4
:101920001F9018951F920F920FB60F9211240BB6AD
:101930000F922F933F934F935F936F937F938F9368
:101940009F93AF93BF93EF93FF9380918B039091FD
:101950008C03892B29F0E0918B03F0918C0319956E
:10196000FF91EF91BF91AF919F918F917F916F9177
:101970005F914F913F912F910F900BBE0F900FBE33
:101980000F901F9018951F920F920FB60F9211246F
:101990000BB60F922F933F934F935F936F937F9369
:1019A0008F939F93AF93BF93EF93FF9380918D039A
:1019B00090918E03892B29F0E0918D03F0918E0395
:1019C0001995FF91EF91BF91AF919F918F917F9169
:1019D0006F915F914F913F912F910F900BBE0F90A0
:1019E0000FBE0F901F9018951F920F920FB60F9277
:1019F00011240BB60F922F933F934F935F936F93E6
:101A00007F938F939F93AF93BF93EF93FF938091B7
:101A1000830390918403892B29F0E0918303F09153
:101A200084031995FF91EF91BF91AF919F918F9191
:101A30007F916F915F914F913F912F910F900BBECE
:101A40000F900FBE0F901F9018951F920F920FB618
:101A50000F9211240BB60F922F933F934F935F93E6
:101A60006F937F938F939F93AF93BF93EF93FF9366
:101A70008091850390918603892B29F0E09185035D
:101A8000F09186031995FF91EF91BF91AF919F91CE
:101A90008F917F916F915F914F913F912F910F9017
:101AA0000BBE0F900FBE0F901F9018951F920F92B4
:101AB0000FB60F9211240BB60F922F933F934F93B3
:101AC0005F936F937F938F939F93AF93BF93EF93A6
:101AD000FF9380918F0390919003892B29F0E091DF
:101AE0008F03F09190031995FF91EF91BF91AF9102
:101AF0009F918F917F916F915F914F913F912F9126
:101B00000F900BBE0F900FBE0F901F9018951F9255
:101B10000F920FB60F9211240BB60F922F933F9393
:101B20004F935F936F937F938F939F93AF93BF93E5
:101B3000EF93FF938091910390919203892B29F069
:101B4000E0919103F09192031995FF91EF91BF916C
:101B5000AF919F918F917F916F915F914F913F9145
:101B60002F910F900BBE0F900FBE0F901F901895E6
:101B70001F920F920FB60F9211242F933F938F93C2
:101B80009F93AF93BF938091940390919503A091FD
:101B90009603B09197033091930323E0230F2D37E1
:101BA00020F40196A11DB11D05C026E8230F029661
:101BB000A11DB11D209393038093940390939503EB
:101BC000A0939603B0939703809198039091990303
:101BD000A0919A03B0919B030196A11DB11D809322
:101BE000980390939903A0939A03B0939B03BF919A
:101BF000AF919F918F913F912F910F900FBE0F90BA
:101C00001F9018952FB7F8946091940370919503E5
:101C100080919603909197032FBF08953FB7F89452
:101C20008091980390919903A0919A03B0919B039E
:101C300026B5A89B05C02F3F19F00196A11DB11D27
:101C40003FBF6627782F892F9A2F620F711D811D44
:101C5000911D42E0660F771F881F991F4A95D1F7A3
:101C60000895CF92DF92EF92FF92CF93DF936B01B3
:101C70007C010E940E0EEB01C114D104E104F104B9
:101C800089F00E94C2150E940E0E6C1B7D0B683EEF
:101C9000734090F381E0C81AD108E108F108C851F7
:101CA000DC4FEACFDF91CF91FF90EF90DF90CF90A4
:101CB0000895789484B5826084BD84B5816084BDC4
:101CC00085B5826085BD85B5816085BDEEE6F0E0B5
:101CD000808181608083E1E8F0E010828081826011
:101CE0008083808181608083E0E8F0E08081816092
:101CF0008083E1EBF0E0808184608083E0EBF0E0C2
:101D0000808181608083E1E9F0E08081826080836E
:101D1000808181608083E0E9F0E080818160808360
:101D2000E1EAF0E08081826080838081816080834D
:101D3000E0EAF0E0808181608083E1E2F1E080818F
:101D400082608083808181608083E0E2F1E0808135
:101D500081608083EAE7F0E0808184608083808115
:101D600082608083808181608083808180688083BD
:101D70001092C1000895863308F0865320917B00AD
:101D8000982F9870277F922B90937B0087702091DB
:101D9000060290E4299F90011124822B80937C00FD
:101DA00080917A00806480937A0080917A0086FD29
:101DB000FCCF809178002091790090E0922B0895DB
:101DC00090E0FC013197E231F10508F04CC0E75892
:101DD000FF4F0C942F18809180008F7703C0809163
:101DE00080008F7D80938000089580918000877FA0
:101DF000F9CF84B58F7702C084B58F7D84BD0895F7
:101E00008091B0008F7703C08091B0008F7D809368
:101E1000B0000895809190008F7707C08091900066
:101E20008F7D03C080919000877F809390000895FC
:101E30008091A0008F7707C08091A0008F7D03C0A4
:101E40008091A000877F8093A00008958091200159
:101E50008F7707C0809120018F7D03C08091200182
:101E6000877F809320010895CF93DF9390E0FC015A
:101E7000EC50FE4F2491FC01E65CFD4F84918823D9
:101E800049F190E0880F991FFC01EC54FD4FA5919A
:101E9000B49186569D4FFC01C591D4919FB76111B5
:101EA00008C0F8948C91209582238C93888182239A
:101EB0000AC0623051F4F8948C91322F309583230C
:101EC0008C938881822B888304C0F8948C91822B18
:101ED0008C939FBFDF91CF9108950F931F93CF9362
:101EE000DF931F92CDB7DEB7282F30E0F901E2551E
:101EF000FE4F8491F901EC50FE4F1491F901E65C1C
:101F0000FD4F04910023C9F0882321F069830E94CA
:101F1000E00E6981E02FF0E0EE0FFF1FE656FD4F67
:101F2000A591B4919FB7F8948C91611103C010955D
:101F3000812301C0812B8C939FBF0F90DF91CF91A4
:101F40001F910F910895CF93DF93282F30E0F9016F
:101F5000E255FE4F8491F901EC50FE4FD491F90106
:101F6000E65CFD4FC491CC2391F081110E94E00EFC
:101F7000EC2FF0E0EE0FFF1FE058FD4FA591B4915C
:101F80002C912D2381E090E021F480E002C080E0DC
:101F900090E0DF91CF910895FC01818D228D90E03A
:101FA000805C9F4F821B91098F7399270895FC01D4
:101FB000918D828D981731F0828DE80FF11D858DFE
:101FC00090E008958FEF9FEF0895FC01918D828D31
:101FD000981761F0828DDF01A80FB11D5D968C917D
:101FE000928D9F5F9F73928F90E008958FEF9FEF88
:101FF000089580EA91E1892B41F080E090E0892BFF
:1020000021F00E94A011811125C080E090E0892B71
:1020100041F080E090E0892B21F00E9400008111C6
:102020001CC080E090E0892B41F080E090E0892B9B
:1020300021F00E940000811113C08DE492E1892BF0
:10204000A1F080E090E0892B81F00E944D12811177
:102050000AC008950E940000D8CF0E940000E1CF7E
:102060000E940000EACF0C9400000895FC01848DCA
:10207000DF01A80FB11DA35ABF4F2C91848D90E0B2
:1020800001968F739927848FA689B7892C93A0898D
:10209000B1898C9180648C93938D848D981306C044
:1020A0000288F389E02D80818F7D80830895CF930E
:1020B000DF93EC01888D8823C9F0EA89FB89808150
:1020C00085FD05C0A889B9898C9186FD0FC00FB622
:1020D00007FCF5CF808185FFF2CFA889B9898C9163
:1020E00085FFEDCFCE010E943610E7CFDF91CF9173
:1020F0000895CF92DF92FF920F931F93CF93DF93B8
:102100001F92CDB7DEB76C01DC015B969C915B97AB
:102110005C968C915C97981307C05096ED91FC915A
:102120005197808185FD32C0F601038D10E00F5F6D
:102130001F4F0F731127F02EF601848DF81211C076
:102140000FB607FCF9CFD6015096ED91FC9151974F
:10215000808185FFF1CFC60169830E9436106981B5
:10216000EBCF838DE80FF11DE35AFF4F6083D6015B
:102170005B960C935B975296ED91FC9153978081FF
:102180008062808381E058968C930DC0D60156966C
:10219000ED91FC91579760835096ED91FC9151978A
:1021A00080818064808381E090E00F90DF91CF9107
:1021B0001F910F91FF90DF90CF900895BF92CF9223
:1021C000DF92EF92FF92CF93DF93EC016A017B01E4
:1021D000B22EE889F98982E08083411581EE5807A3
:1021E00061057105A1F060E079E08DE390E0A70161
:1021F00096010E94EE172150310941095109569567
:10220000479537952795211580E1380798F0E8899B
:10221000F989108260E874E88EE190E0A7019601E8
:102220000E94EE17215031094109510956954795F1
:1022300037952795EC85FD853083EE85FF852083D6
:10224000188EEC89FD89B082EA89FB8980818061E2
:102250008083EA89FB89808188608083EA89FB89A1
:10226000808180688083EA89FB8980818F7D80837B
:10227000DF91CF91FF90EF90DF90CF90BF900895C6
:102280001F920F920FB60F9211240BB60F922F933D
:102290008F939F93EF93FF93E091AC03F091AD0385
:1022A0008081E091B203F091B30382FD12C090816E
:1022B0008091B5038F5F8F732091B603821751F021
:1022C000E091B503F0E0E456FC4F958F8093B503A1
:1022D00001C08081FF91EF919F918F912F910F907D
:1022E0000BBE0F900FBE0F901F9018951F920F926C
:1022F0000FB60F9211240BB60F922F933F934F936B
:102300005F936F937F938F939F93AF93BF93EF935D
:10231000FF938CE993E00E943610FF91EF91BF91FB
:10232000AF919F918F917F916F915F914F913F916D
:102330002F910F900BBE0F900FBE0F901F9018950E
:102340008CE993E00E94CC0F21E0892B09F420E076
:10235000822F089510929F0310929E0388EE93E0BF
:10236000A0E0B0E08093A0039093A103A093A20308
:10237000B093A30383E493E090939D0380939C0325
:1023800085EC90E09093A9038093A80384EC90E0FF
:102390009093AB038093AA0380EC90E09093AD03FD
:1023A0008093AC0381EC90E09093AF038093AE03F5
:1023B00082EC90E09093B1038093B00386EC90E0C0
:1023C0009093B3038093B2031092B5031092B603B7
:1023D0001092B7031092B80308951F920F920FB690
:1023E0000F9211240BB60F922F938F939F93EF931D
:1023F000FF93E0914904F0914A048081E0914F04F9
:10240000F091500482FD12C09081809152048F5F40
:102410008F7320915304821751F0E0915204F0E041
:10242000E75CFB4F958F8093520401C08081FF9140
:10243000EF919F918F912F910F900BBE0F900FBE38
:102440000F901F9018951F920F920FB60F921124A4
:102450000BB60F922F933F934F935F936F937F939E
:102460008F939F93AF93BF93EF93FF9389E394E090
:102470000E943610FF91EF91BF91AF919F918F9184
:102480007F916F915F914F913F912F910F900BBE74
:102490000F900FBE0F901F90189589E394E00E9453
:1024A000CC0F21E0892B09F420E0822F08951092AF
:1024B0003C0410923B0488EE93E0A0E0B0E08093EF
:1024C0003D0490933E04A0933F04B093400483E402
:1024D00093E090933A048093390485E391E09093DC
:1024E00046048093450484E391E0909348048093EC
:1024F000470480E391E090934A048093490481E388
:1025000091E090934C0480934B0482E391E090938C
:102510004E0480934D0486E391E0909350048093A1
:102520004F041092520410925304109254041092CB
:102530005504089508950E94590E0E949A120E940F
:102540002D02C9EFDFE00E9438022097E1F30E94DC
:10255000F90FF9CFCF92DF92EF92FF920F931F9373
:10256000CF93DF936C017A01EB01E60EF71E00E0DA
:1025700010E0CE15DF0561F06991D601ED91FC9177
:102580000190F081E02DC6011995080F191FF1CFB8
:10259000C801DF91CF911F910F91FF90EF90DF90D5
:1025A000CF9008956115710581F0DB010D90002039
:1025B000E9F7AD0141505109461B570BDC01ED9184
:1025C000FC910280F381E02D199480E090E0089561
:1025D000DC01ED91FC91DB0114964D915C91159716
:1025E0006D917C910280F381E02D19940C94D212AC
:1025F000DC01ED91FC910190F081E02D19940F9395
:102600001F93CF93DF93EC016DE00E94F8128C01D1
:102610006AE0CE010E94F812800F911FDF91CF91E6
:102620001F910F9108950F931F93CF93DF93EC01A8
:102630000E94E8128C01CE010E94FF12800F911FB0
:10264000DF91CF911F910F9108950F931F93CF9317
:10265000DF93EC010E94D2128C01CE010E94FF1286
:10266000800F911FDF91CF911F910F9108958F924D
:102670009F92AF92BF92CF92DF92EF92FF920F9311
:102680001F93CF93DF93CDB7DEB7A1970FB6F89422
:10269000DEBF0FBECDBF7C01C42EE52FCB01D22EF5
:1026A00019A221E02D1510F02AE0D22E8E010F5D27
:1026B0001F4F8D2C912CA12CB12C6C2D7E2FA501A0
:1026C00094010E94EE178C2DD29E80191124015086
:1026D00011098A3014F4805D01C0895CF80180839F
:1026E000211531054105510521F0C22EE32FCA0104
:1026F000E4CFB801C7010E94D212A1960FB6F89498
:10270000DEBF0FBECDBFDF91CF911F910F91FF9024
:10271000EF90DF90CF90BF90AF909F908F900895F3
:10272000CF92DF92EF92FF920F931F93CF93DF939D
:10273000EC016A017B012115310579F4E881F98109
:102740000190F081E02D642FDF91CF911F910F91C7
:10275000FF90EF90DF90CF9019942A303105E9F483
:1027600077FF1AC06DE20E94F8128C0144275527AA
:10277000BA014C195D096E097F092AE0CE010E9459
:102780003713800F911FDF91CF911F910F91FF9011
:10279000EF90DF90CF9008952AE0B701A601CE0117
:1027A000DF91CF911F910F91FF90EF90DF90CF902D
:1027B0000C9437130F931F93CF93DF93EC019A017F
:1027C000AB01662757FD6095762F0E9490138C0110
:1027D000CE010E94FF12800F911FDF91CF911F91B8
:1027E0000F910895FC01808191810C94E518CF939D
:1027F000DF93EC0188819981009711F00E94E51820
:10280000198218821D821C821B821A82DF91CF914D
:1028100008950F931F93CF93DF93EC018B016F5FAC
:102820007F4F888199810E947419009731F09983B4
:1028300088831B830A8381E001C080E0DF91CF9110
:102840001F910F910895CF93DF93EC0188819981B7
:10285000892B29F08A819B818617970760F4CE0126
:102860000E940914882341F08C819D81892B19F4E1
:10287000E881F981108281E0DF91CF910895EF9294
:10288000FF920F931F93CF93DF93EC017B018A019B
:10289000BA010E942314811104C0CE010E94F713D3
:1028A00007C01D830C83B701888199810E948D1A0E
:1028B000CE01DF91CF911F910F91FF90EF9008957E
:1028C000FC0111821082138212821582148261151A
:1028D000710559F0FB0101900020E9F7AF0141506B
:1028E0005109461B570B0C943F140895CF93DF9367
:1028F000EC01FB018617970761F06081718161151A
:10290000710529F0448155810E943F1402C00E9444
:10291000F713CE01DF91CF910895FC01118210824F
:1029200013821282158214820C947614CF93DF9353
:10293000EC016115710561F0FB0101900020E9F7E0
:10294000AF0141505109461B570B0E943F1402C072
:102950000E94F713CE01DF91CF910895CF93DF93BB
:102960001F921F92CDB7DEB7FC0111821082138235
:1029700012821582148269831A82BE016F5F7F4FB3
:102980000E9496140F900F90DF91CF9108950F93AE
:102990001F93CF93DF93CDB7DEB762970FB6F8944E
:1029A000DEBF0FBECDBF8C01CB01F80111821082BA
:1029B000138212821582148250E0BE016F5F7F4F36
:1029C0000E94941ABE016F5F7F4FC8010E94961447
:1029D00062960FB6F894DEBF0FBECDBFDF91CF91E8
:1029E0001F910F910895EF92FF920F931F93CF9332
:1029F000DF93EC017B010C811D816115710511F4E0
:102A000080E016C04115510591F0040F151FB80163
:102A10000E9423148823A1F3288139818C819D8110
:102A2000B701820F931F0E948D1A1D830C8381E0D2
:102A3000DF91CF911F910F91FF90EF900895CF9369
:102A4000DF931F921F92CDB7DEB769831A8241E0F0
:102A500050E0BE016F5F7F4F0E94F3140F900F9004
:102A6000DF91CF910895CF93DF93EC01FB01448177
:102A70005581608171810E94F314811103C0CE01E0
:102A80000E94F713CE01DF91CF910895CF93DF938A
:102A9000EC016115710569F0FB0101900020E9F777
:102AA000AF0141505109461B570B0E94F31481118D
:102AB00003C0CE010E94F713CE01DF91CF9108959C
:102AC000FC01848195816817790720F480819181C8
:102AD000009729F41092D60486ED94E00895860FAD
:102AE000971F0895BF92CF92DF92EF92FF920F93BC
:102AF0001F93CF93DF936C017B01EA0189012417B7
:102B0000350720F48D2FE901042F182F6EEC72E0A9
:102B1000C6010E946014D70114968D919C9115975F
:102B2000C817D907C8F48017910708F48C01D7019A
:102B3000ED91FC911197E00FF11FB08010826D9123
:102B40007C916C0F7D1FC6010E949614D701ED91F8
:102B5000FC91E00FF11FB082C601DF91CF911F9170
:102B60000F91FF90EF90DF90CF90BF900895FC0100
:102B700080819181009711F00C945D1A60E070E003
:102B8000CB01089508955058BB27AA270ED071C1D4
:102B900062D130F067D120F031F49F3F11F41EF480
:102BA00057C10EF4E095E7FB4DC1E92F73D180F3D7
:102BB000BA17620773078407950718F071F49EF53A
:102BC0008BC10EF4E0950B2EBA2FA02D0B01B9018D
:102BD00090010C01CA01A0011124FF27591B99F093
:102BE000593F50F4503E68F11A16F040A22F232F9F
:102BF000342F4427585FF3CF469537952795A795EF
:102C0000F0405395C9F77EF41F16BA0B620B730B95
:102C1000840BBAF09150A1F0FF0FBB1F661F771F06
:102C2000881FC2F70EC0BA0F621F731F841F48F4BB
:102C3000879577956795B795F7959E3F08F0B3CF41
:102C40009395880F08F09927EE0F9795879508952B
:102C50000CD00FC107D140F0FED030F021F45F3F1F
:102C600019F0F0C0511139C1F3C014D198F3992370
:102C7000C9F35523B1F3951B550BBB27AA27621740
:102C80007307840738F09F5F5F4F220F331F441F85
:102C9000AA1FA9F333D00E2E3AF0E0E830D09150BD
:102CA0005040E695001CCAF729D0FE2F27D0660FAA
:102CB000771F881FBB1F261737074807AB07B0E8E9
:102CC00009F0BB0B802DBF01FF2793585F4F2AF0FF
:102CD0009E3F510568F0B6C000C15F3FECF3983EDF
:102CE000DCF3869577956795B795F7959F5FC9F75C
:102CF000880F911D9695879597F90895E1E0660FE5
:102D0000771F881FBB1F621773078407BA0720F05D
:102D1000621B730B840BBA0BEE1F88F7E0950895C6
:102D200004D06894B111D9C00895BCD088F09F57E1
:102D300090F0B92F9927B751A0F0D1F0660F771F07
:102D4000881F991F1AF0BA95C9F712C0B13081F0E7
:102D5000C3D0B1E00895C0C0672F782F8827B85F2F
:102D600039F0B93FCCF3869577956795B395D9F748
:102D70003EF490958095709561957F4F8F4F9F4F52
:102D80000895E89409C097FB3EF49095809570955E
:102D900061957F4F8F4F9F4F9923A9F0F92F96E9A7
:102DA000BB279395F695879577956795B795F1111C
:102DB000F8CFFAF4BB0F11F460FF1BC06F5F7F4FB9
:102DC0008F4F9F4F16C0882311F096E911C07723CB
:102DD00021F09EE8872F762F05C0662371F096E8D4
:102DE000862F70E060E02AF09A95660F771F881FA3
:102DF000DAF7880F9695879597F90895990F000847
:102E0000550FAA0BE0E8FEEF16161706E807F907BC
:102E1000C0F012161306E407F50798F0621B730B57
:102E2000840B950B39F40A2661F0232B242B252BD8
:102E300021F408950A2609F4A140A6958FEF811D7B
:102E4000811D089597F99F6780E870E060E008951C
:102E50009FEF80EC089500240A94161617061806B2
:102E60000906089500240A9412161306140605068E
:102E70000895092E0394000C11F4882352F0BB0F1F
:102E800040F4BF2B11F460FF04C06F5F7F4F8F4F82
:102E90009F4F089557FD9058440F551F59F05F3FBD
:102EA00071F04795880F97FB991F61F09F3F79F06C
:102EB00087950895121613061406551FF2CF4695EE
:102EC000F1DF08C0161617061806991FF1CF869570
:102ED0007105610508940895E894BB276627772754
:102EE000CB0197F908958ADF08F48FEF08950BD08E
:102EF000C0CFB1DF28F0B6DF18F0952309F0A2CFDC
:102F0000A7CF1124EACFC6DFA0F3959FD1F3950F89
:102F100050E0551F629FF001729FBB27F00DB11D5D
:102F2000639FAA27F00DB11DAA1F649F6627B00DED
:102F3000A11D661F829F2227B00DA11D621F739FD6
:102F4000B00DA11D621F839FA00D611D221F749FE4
:102F50003327A00D611D231F849F600D211D822F2B
:102F6000762F6A2F11249F5750408AF0E1F0882372
:102F70004AF0EE0FFF1FBB1F661F771F881F91507F
:102F80005040A9F79E3F510570F05CCFA6CF5F3F40
:102F9000ECF3983EDCF3869577956795B795F795B2
:102FA000E7959F5FC1F7FE2B880F911D969587953A
:102FB00097F9089597FB072E16F4009407D077FD34
:102FC00009D00E94391807FC05D03EF490958195F0
:102FD0009F4F0895709561957F4F0895A1E21A2E35
:102FE000AA1BBB1BFD010DC0AA1FBB1FEE1FFF1FAD
:102FF000A217B307E407F50720F0A21BB30BE40BFD
:10300000F50B661F771F881F991F1A9469F7609543
:103010007095809590959B01AC01BD01CF010895FD
:10302000052E97FB1EF400940E94271857FD07D029
:103030000E94EE1707FC03D04EF40C94271850950D
:103040004095309521953F4F4F4F5F4F0895909594
:103050008095709561957F4F8F4F9F4F0895EE0F2C
:10306000FF1F0590F491E02D19940790F691E02D43
:103070001994AA1BBB1B51E107C0AA1FBB1FA617AF
:10308000B70710F0A61BB70B881F991F5A95A9F711
:1030900080959095BC01CD010895CF93DF93823048
:1030A000910510F482E090E0E091D904F091DA0407
:1030B00020E030E0A0E0B0E0309739F1408151816C
:1030C00048175907B8F04817590771F4828193815E
:1030D000109729F013969C938E9312972CC090937F
:1030E000DA048093D90427C02115310531F0421745
:1030F000530718F0A901DB0101C0EF019A01BD01DE
:10310000DF010280F381E02DD7CF21153105F9F0E1
:10311000281B390B2430310580F48A819B8161158D
:10312000710521F0FB019383828304C09093DA043C
:103130008093D904FE01329644C0FE01E20FF31FD2
:103140008193919322503109398328833AC0209189
:10315000D7043091D804232B41F4209102023091FE
:1031600003023093D8042093D704209100023091B9
:1031700001022115310541F42DB73EB740910402FB
:1031800050910502241B350BE091D704F091D8042F
:10319000E217F307A0F42E1B3F0B2817390778F02E
:1031A000AC014E5F5F4F2417350748F04E0F5F1F8D
:1031B0005093D8044093D7048193919302C0E0E0E8
:1031C000F0E0CF01DF91CF910895CF93DF93009787
:1031D00009F487C0FC01329713821282C091D9048E
:1031E000D091DA04209781F420813181280F391F92
:1031F0008091D7049091D8048217930779F5F093C2
:10320000D804E093D7046DC0DE0120E030E0AE17B3
:10321000BF0750F412964D915C9113979D01411593
:10322000510509F1DA01F3CFB383A28340815181C3
:10323000840F951F8A179B0771F48D919C911197AC
:10324000840F951F02969183808312968D919C9195
:103250001397938382832115310529F4F093DA04BF
:10326000E093D9043EC0D9011396FC93EE931297D4
:103270004D915D91A40FB51FEA17FB0779F480818A
:103280009181840F951F0296D90111969C938E937C
:103290008281938113969C938E931297E0E0F0E0E5
:1032A0008A819B81009719F0FE01EC01F9CFCE01D4
:1032B000029628813981820F931F2091D704309183
:1032C000D8042817390769F4309729F41092DA04E2
:1032D0001092D90402C013821282D093D804C093F2
:1032E000D704DF91CF9108956F927F928F929F9232
:1032F000AF92BF92CF92DF92EF92FF920F931F9304
:10330000CF93DF93EC01CB01209781F4DF91CF9134
:103310001F910F91FF90EF90DF90CF90BF90AF90F3
:103320009F908F907F906F900C944D18FE01E60F48
:10333000F71F9E0122503109E217F30708F4ACC0D1
:10334000D9010D911C91119706171707B8F0053098
:10335000110508F49FC0A8014450510946175707AA
:1033600008F498C002501109061B170B0193119322
:103370006D937C93CF010E94E5188CC05B01A01A6D
:10338000B10A4E01800E911EA091D904B091DA04C9
:10339000612C712C60E070E0109709F449C0A81509
:1033A000B905C9F5ED90FC901197670142E0C40E94
:1033B000D11CCA14DB0478F147018A189B08640108
:1033C00042E0C40ED11C1296BC9012971396AC9199
:1033D000B5E0CB16D10440F0B282A3839182808203
:1033E000D9018D939C9309C00E5F1F4F0E0D1F1DB9
:1033F000F90111830083EB2DFA2F6115710531F06E
:10340000DB011396FC93EE93129744C0F093DA0419
:10341000E093D9043FC06D917C91119766167706B1
:1034200008F43B01BD0112960D90BC91A02DB4CFC4
:103430006091D7047091D80468157905E9F468168D
:103440007906D0F4409100025091010241155105D6
:1034500041F44DB75EB76091040270910502461BBE
:10346000570BE417F507C0F4F093D804E093D704A2
:10347000F901918380830EC00E944D187C01009752
:1034800059F0A801BE010E94841ACE010E94E518DD
:10349000C70104C0CE0102C080E090E0DF91CF916F
:1034A0001F910F91FF90EF90DF90CF90BF90AF9062
:1034B0009F908F907F906F9008951F93FC019927A4
:1034C0008827BC01E89411911032E9F3193010F00B
:1034D0001E30C8F31B3251F01D3249F4689406C007
:1034E0000E94AA1A610F711D811D911D1191105327
:1034F0001A30B0F33EF490958095709561957F4FAA
:103500008F4F9F4F1F910895FB01DC0102C0019076
:103510000D9241505040D8F70895FB01DC01019015
:103520000D920020E1F708954532510520F4423014
:1035300010F00C949F1AFB011082CB010895BB2759
:103540004A3031F4992322F4BDE2909581959F4F42
:103550000C94C01A592F482F372F262F660F771F2C
:10356000881F991F660F771F881F991F620F731F8F
:10357000841F951F660F771F881F991F0895BB270B
:10358000FB015527AA27880F991FAA1FA41710F01F
:10359000A41B83955051B9F7A05DAA3308F0A95D2B
:1035A000A193009779F7B111B1931192CB010C94CB
:1035B000D91ADC01FC01672F71917723E1F732976B
:1035C00004C07C916D9370836291AE17BF07C8F3FE
:1035D000089512E0C4EDD2E000E006C02297010990
:1035E000FE010BBF0E943518C63DD10780E00807D9
:0635F000A9F7F894FFCFDB
:1035F6000000DB04800001244150002444463030A2
:10360600002444463000244446004465706C6F79BB
:10361600696E6720546574686572004472697669DC
:103626006E670053706F6F6C696E672052656D61CF
:10363600696E646572002444445000456E74657278
:103646006564204175746F2052617070656C20430B
:103656006F6D6D616E64002452305000476574745E
:10366600696E672044657074682066726F6D2043CA
:1036760052002452440A00526563656976656420E7
:10368600496E697469616C20446570746800456EA2
:10369600746572696E672052617070656C204C6F3C
:1036A6006F7000526573656E64696E6720636F6D37
:1036B6006D616E6420746F2043522E2E2E0A0046D2
:1036C60061696C656420746F20636F6D6D756E69DA
:1036D6006361746520776974682043520024523010
:1036E6004600244454470A005465746865722044B1
:1036F60065706C6F79656400244454530A00435224
:103706002053746F7070656400435220496E2052D6
:103716006576657273650024445452410A00244458
:1037260054500A00244454460A002452300A000029
:103736000000007910AA12CC0FE50FD70F57100022
:00000001FF
