:1000000004C100002FC100002DC100002BC1000061
:1000100029C1000027C1000025C1000023C1000044
:1000200021C100001FC100001DC100001BC1000054
:1000300019C1000017C1000015C1000013C1000064
:1000400011C1000026C100000DC100000BC100005D
:1000500009C1000007C1000005C1000066C300001F
:1000600001C100007AC50000C8C60000FBC0000046
:10007000F9C00000F7C00000F5C00000F3C00000A8
:10008000F1C00000EFC00000EDC0000036C100006C
:10009000A4C50000F1C60000E5C00000E3C00000F8
:1000A000E1C00000DFC00000DDC00000DBC00000D8
:1000B000D9C00000D7C00000D5C00000D3C00000E8
:1000C000D1C00000CFC00000CDC00000C6C50000F8
:1000D00012C70000C7C0000000C600004BC70000E8
:1000E000C1C0000000002100240027002A002D00CC
:1000F0003000330001010000040107010A01000083
:100100002200250028002B002E00310034000201BF
:100110000000050108010B0100002000230026005B
:1001200029002C002F00320000010000030106010D
:10013000090105050505070508080808020202026D
:100140000A0A080804040404010101010101010173
:100150000303030303030303040707070C0C0C0C3E
:100160000C0C0C0C02020202060606060606060627
:100170000B0B0B0B0B0B0B0B0102102020080810B4
:100180002040102040800201020108040201010207
:1001900004081020408080402010080402018004E0
:1001A000020180402010080402010804020101023B
:1001B0000408102040800102040810204080000044
:1001C000090A02080B0C0D070603040100000000D9
:1001D000000000000000000000000000000000001F
:1001E0000000000000000000000011100F000000DF
:1001F00000000000000000000000000000000000FF
:100200000000000078012A09730111241FBECFEFFE
:10021000D1E2DEBFCDBF00E00CBF12E0A0E0B2E053
:10022000E8E8FCE100E00BBF02C007900D92A232AB
:10023000B107D9F71BBE14E0A2E2B2E001C01D92E3
:10024000A43FB107E1F712E0C8E0D2E004C0229772
:10025000FE010E94340EC430D107C9F70E94610A22
:100260000C94380ECDCEFB01DC0102C001900D9242
:1002700041505040D8F70895FB01DC0101900D92E8
:100280000020E1F7089582E292E036C182E292E036
:100290007BC11F920F920FB60F9211240F900FBEC9
:1002A0000F901F9018958130910579F46F5F7F4F03
:1002B000C9F482E292E060E072E00E94890B89E278
:1002C00092E060E072E00C94890B892B59F46F5F27
:1002D0007F4F41F489E292E00E94B80B82E292E003
:1002E0000C94B80B089580E090E06FEF7FEFDBCFC8
:1002F00081E090E06FEF7FEFD6CF1F920F920FB6A5
:100300000F920BB60F9211242F933F934F935F934D
:100310006F937F938F939F93AF93BF93EF93FF93CD
:100320008DE0EBD361E068278DE0B5D3FF91EF91CD
:10033000BF91AF919F918F917F916F915F914F91FD
:100340003F912F910F900BBE0F900FBE0F901F90FB
:1003500018950F931F93CF93DF938B0164EF71E098
:1003600080E090E02AD2C0E0D0E019C08DE060E0EB
:1003700092D36AEF70E080E090E01FD28DE061E000
:100380008AD36AEF70E080E090E017D28DE060E001
:1003900082D36AEF70E080E090E00FD22196C01720
:1003A000D10724F3DF91CF911F910F9108950F93FF
:1003B0001F9362E070E0CDDF07E614E0C80161E062
:1003C00072E00E94CF0AC801F5D61F910F910895DF
:1003D0000F931F9365E070E0BCDF07E614E0C801EF
:1003E00066E072E00E94CF0AC801E4D61F910F9127
:1003F0000895FF920F931F93CF93DF93EC0163E077
:1004000070E0A7DF8DEC94E0BE010E94990A8DECAC
:1004100094E075D6892BD9F36AEF70E080E090E024
:10042000CCD18E01095F1F4FFF24F3940CC08DECDB
:1004300094E097D6682F8E87C8010E94460B8E8560
:100440008A3009F4FD868DEC94E059D61816190609
:1004500074F387E694E0B8010E94990A87E694E075
:10046000A9D6DF91CF911F910F91FF9008950F931F
:100470001F938C0164E070E06CDF8DEC94E0B801B8
:100480000E94990A8DEC94E095D68DEC94E037D6D5
:10049000892BD9F38DEC94E032D618161906D4F7CF
:1004A0008DEC94E05ED6182F87E694E0612F0E94D1
:1004B000AB0A1A3079F71F910F910895CF93DF930C
:1004C000EC0161E070E00E94D10AFC01E081E934B6
:1004D00041F0E23519F0E43451F406C0CE0189DF71
:1004E00008C0CE01C4DF05C0CE0172DF02C0CE015C
:1004F0005EDFDF91CF910895FF920F931F93CF930B
:10050000DF93EC01182F0D2FFF24F3940DC087E625
:1005100094E027D6682F8E87812F902F0E94460B5C
:100520008E858A3009F4FE8287E694E0E8D51816B5
:1005300019066CF36AEF70E080E090E03ED18E81A6
:100540008823E1F0812F902F60E070E00E94D10AB3
:10055000FC018081843291F480917100809371005C
:10056000CE01ACDF80917100816080937100812F9A
:10057000902F60E072E00E94A10B1E82DF91CF916C
:100580001F910F91FF900895EF92FF920F931F9389
:100590007C018DE061E0CCD110929000E1E9F0E0C7
:1005A0001082109295001092940080818460808364
:1005B000E1E7F0E080818160808301E312E0C8011F
:1005C00068EC70E048E050E027E030E071D0C8010E
:1005D00061E070E02DD0C8015DD087E061E05BD2C2
:1005E00088E061E058D287E694E040E052EC61E0B8
:1005F00070E0FFD48DEC94E040E052EC61E070E0FC
:10060000F8D4F701168200E012E0C701B8010E9499
:10061000A10BF7011586C7010796B8010E94A10B2F
:1006200080E3F70186871F910F91FF90EF90089567
:10063000FC0180EA90E0689F9001699F300D789FEF
:10064000300D11243583248380819181AC01249F56
:10065000C001259F900D349F900D11246CE370E034
:100660000E94CE0D9B01442737FD4095542F69E031
:100670007DE380E090E00E94030ECA01B90122E010
:1006800030E040E050E00E94030E30938900209358
:1006900088000895DC0181E016968C931697EFE6AA
:1006A000F0E080818260808319968C9161E0F3C1D3
:1006B000EF92FF920F931F938C01FC017183608373
:1006C000508747833287218780E8E82EF12CF70195
:1006D0001082E1E8F0E01082109285001092840010
:1006E00010928900109288008081886080838081C8
:1006F00081608083808184608083EFE6F0E0808188
:1007000080838BE061E014D1F70180818064808375
:1007100081E090E0F8019383828316821486138629
:100720001F910F91FF90EF9008951F920F920FB6B7
:100730000F9211242F933F938F939F93AF93BF9367
:100740008091420290914302A0914402B0914502EF
:10075000309146020196A11DB11D232F2D5F2D372B
:1007600020F02D570196A11DB11D209346028093C4
:10077000420290934302A0934402B09345028091B9
:100780003E0290913F02A0914002B0914102019639
:10079000A11DB11D80933E0290933F02A0934002A1
:1007A000B0934102BF91AF919F918F913F912F9153
:1007B0000F900FBE0F901F9018959B01AC017FB753
:1007C000F89480913E0290913F02A0914002B09136
:1007D000410266B5A89B05C06F3F19F00196A11DA7
:1007E000B11D7FBFBA2FA92F982F8827860F911D83
:1007F000A11DB11D62E0880F991FAA1FBB1F6A953A
:10080000D1F7BC012DC0FFB7F89480913E029091C2
:100810003F02A0914002B0914102E6B5A89B05C0FD
:10082000EF3F19F00196A11DB11DFFBFBA2FA92FEF
:10083000982F88278E0F911DA11DB11DE2E0880F12
:10084000991FAA1FBB1FEA95D1F7861B970B885EDD
:100850009340C8F2215030404040504068517C4F96
:10086000211531054105510571F60895789484B537
:10087000826084BD84B5816084BD85B5826085BD9C
:1008800085B5816085BDEEE6F0E080818160808382
:10089000E1E8F0E010828081826080838081816065
:1008A0008083E0E8F0E0808181608083E1EBF0E02C
:1008B000808184608083E0EBF0E0808181608083D0
:1008C000E1E9F0E0808182608083808181608083C3
:1008D000E0E9F0E0808181608083E1EAF0E08081FE
:1008E00082608083808181608083E0EAF0E08081A3
:1008F00081608083E1E2F1E0808182608083808199
:1009000081608083E0E2F1E0808181608083EAE7BA
:10091000F0E0808184608083808182608083808138
:10092000816080838081806880831092C1000895F7
:10093000CF93DF93482F50E0CA0188589E4FFC01A7
:1009400034914E5C5E4FFA018491882369F190E006
:10095000880F991FFC01EC51FF4FA591B491FC0148
:10096000E250FF4FC591D491662351F42FB7F8940C
:100970008C91932F909589238C93888189230BC028
:10098000623061F42FB7F8948C91932F909589235E
:100990008C938881832B88832FBF06C09FB7F894E0
:1009A0008C91832B8C939FBFDF91CF9108958930D9
:1009B00009F449C08A30A0F4843051F1853040F404
:1009C000823079F1833000F5813009F063C026C0B0
:1009D000873079F1883098F5863009F05BC025C002
:1009E0008D3009F442C08E3028F48B30B1F18C3058
:1009F000C0F52DC0803109F442C0813109F445C0F1
:100A00008F3009F047C037C0809180008F7703C0D6
:100A1000809180008F7D80938000089584B58F77CA
:100A200002C084B58F7D84BD08958091B0008F771A
:100A300003C08091B0008F7D8093B00008958091B5
:100A400090008F7707C0809190008F7D03C08091C8
:100A50009000877F8093900008958091A0008F7709
:100A600007C08091A0008F7D03C08091A000877F88
:100A70008093A0000895809120018F7703C080911A
:100A800020018F7D80932001089580912001877F30
:100A9000809320010895FF920F931F93F62E482F05
:100AA00050E0CA0182549E4FFC012491CA0188582B
:100AB0009E4FFC0114914E5C5E4FFA01049100239D
:100AC000C1F0222311F0822F72DFE02FF0E0EE0F51
:100AD000FF1FE250FF4FA591B4919FB7F894FF20FC
:100AE00021F48C911095812302C08C91812B8C93E1
:100AF0009FBF1F910F91FF9008950F931F93482F51
:100B000050E0CA0182549E4FFC012491CA018858CA
:100B10009E4FFC0104914E5C5E4FFA01149111232B
:100B200019F420E030E014C0222311F0822F3FDFBF
:100B3000812F90E0880F991F885E9E4FFC01A59140
:100B4000B4918C9120E030E0802311F021E030E07E
:100B5000C9011F910F91089508951F920F920FB62A
:100B60000F920BB60F9211242F933F934F938F93B5
:100B70009F93EF93FF938091C00082FD1DC0409131
:100B8000C60020918702309188022F5F3F4F2F735C
:100B900030708091890290918A022817390771F08C
:100BA000E0918702F0918802E95BFD4F408330932A
:100BB00088022093870202C08091C600FF91EF91C6
:100BC0009F918F914F913F912F910F900BBE0F905E
:100BD0000FBE0F901F90189508951F920F920FB699
:100BE0000F920BB60F9211242F933F934F938F9335
:100BF0009F93EF93FF938091C80082FD1DC04091A9
:100C0000CE0020910F03309110032F5F3F4F2F73C1
:100C1000307080911103909112032817390771F0F9
:100C2000E0910F03F0911003E153FD4F40833093A7
:100C3000100320930F0302C08091CE00FF91EF912B
:100C40009F918F914F913F912F910F900BBE0F90DD
:100C50000FBE0F901F90189508951F920F920FB618
:100C60000F920BB60F9211242F933F934F938F93B4
:100C70009F93EF93FF938091D00082FD1DC0409120
:100C8000D60020919703309198032F5F3F4F2F7329
:100C900030708091990390919A032817390771F069
:100CA000E0919703F0919803E95AFC4F4083309309
:100CB00098032093970302C08091D600FF91EF9193
:100CC0009F918F914F913F912F910F900BBE0F905D
:100CD0000FBE0F901F90189508951F920F920FB698
:100CE0000F920BB60F9211242F933F934F938F9334
:100CF0009F93EF93FF938091300182FD1DC040913F
:100D0000360120911F04309120042F5F3F4F2F7335
:100D1000307080912104909122042817390771F0D6
:100D2000E0911F04F0912004E152FC4F4083309386
:100D3000200420931F0402C080913601FF91EF919F
:100D40009F918F914F913F912F910F900BBE0F90DC
:100D50000FBE0F901F901895E0917304F0917404EA
:100D6000E05CFF4F8191919120813181805C9F4FA8
:100D7000821B930B60E470E011D7892B09F0ECDE45
:100D8000E0919504F0919604E05CFF4F8191919180
:100D900020813181805C9F4F821B930B60E470E067
:100DA000FDD6892B09F018DFE091B704F091B80463
:100DB000E05CFF4F8191919120813181805C9F4F58
:100DC000821B930B60E470E0E9D6892B09F044DFC5
:100DD000E091D904F091DA04E05CFF4F81919191A8
:100DE00020813181805C9F4F821B930B60E470E017
:100DF000D5D6892B09F070CF08951F920F920FB6A8
:100E00000F920BB60F9211242F933F938F939F93C2
:100E1000EF93FF932091CB023091CC028091CD02D1
:100E20009091CE022817390731F48091C1008F7D4F
:100E30008093C10014C0E091CD02F091CE02E5573D
:100E4000FD4F20818091CD029091CE0201968F734B
:100E500090709093CE028093CD022093C600FF91B4
:100E6000EF919F918F913F912F910F900BBE0F901B
:100E70000FBE0F901F9018951F920F920FB60F92F2
:100E80000BB60F9211242F933F938F939F93EF9361
:100E9000FF93209153033091540380915503909117
:100EA00056032817390731F48091C9008F7D80934C
:100EB000C90014C0E0915503F0915603ED5EFC4F5C
:100EC0002081809155039091560301968F73907005
:100ED00090935603809355032093CE00FF91EF919A
:100EE0009F918F913F912F910F900BBE0F900FBE4E
:100EF0000F901F9018951F920F920FB60F920BB67E
:100F00000F9211242F933F938F939F93EF93FF930F
:100F10002091DB033091DC038091DD039091DE03AF
:100F20002817390731F48091D1008F7D8093D1004B
:100F300014C0E091DD03F091DE03E556FC4F208103
:100F40008091DD039091DE0301968F7390709093F2
:100F5000DE038093DD032093D600FF91EF919F91F4
:100F60008F913F912F910F900BBE0F900FBE0F905E
:100F70001F9018951F920F920FB60F920BB60F92FB
:100F800011242F933F938F939F93EF93FF9320917F
:100F9000630430916404809165049091660428177D
:100FA000390731F4809131018F7D8093310114C074
:100FB000E0916504F0916604ED5DFB4F2081809126
:100FC00065049091660401968F7390709093660407
:100FD0008093650420933601FF91EF919F918F914B
:100FE0003F912F910F900BBE0F900FBE0F901F904F
:100FF0001895AF92BF92DF92EF92FF920F931F93DB
:10100000CF93DF93EC017A018B01DD24403081EE38
:10101000580780E0680780E0780711F0DD24D3945A
:1010200091E0A92EB12CEC89FD89DD2069F0C50184
:1010300008A002C0880F991F0A94E2F7808360E03D
:1010400079E08DE390E005C0108260E874E88EE1FD
:1010500090E0A8019701B5D5215030404040504064
:10106000569547953795279580E12030380720F031
:10107000DD2011F0DD24D7CFE889F9893083EA89B2
:10108000FB89208319A2EE89FF89408121E030E0AD
:10109000C9010C8C02C0880F991F0A94E2F7482BF3
:1010A0004083EE89FF894081C9010D8C02C0880F01
:1010B000991F0A94E2F7482B4083EE89FF8940810B
:1010C000C9010E8C02C0880F991F0A94E2F7482BC1
:1010D0004083EE89FF8980810F8C02C0220F331F6D
:1010E0000A94E2F7209528232083DF91CF911F9166
:1010F0000F91FF90EF90DF90BF90AF900895DC01CB
:101100001C96ED91FC911D97E05CFF4F81919191B0
:1011100020813181805C9F4F821B930B60E470E0E3
:101120003DC5DC011C96ED91FC911D97E05CFF4FE5
:1011300020813181E054F040DF01AE5BBF4F8D91E3
:101140009C9111972817390719F42FEF3FEF07C02B
:101150008D919C91E80FF91F8081282F30E0C90103
:101160000895DC011C96ED91FC911D97E05CFF4F0A
:1011700020813181E054F040DF01AE5BBF4F8D91A3
:101180009C9111972817390719F42FEF3FEF10C0E2
:101190008D919C911197E80FF91F20818D919C9161
:1011A000119701968F73907011969C938E9330E0F7
:1011B000C9010895DC0191968C919197882339F0AB
:1011C0005496ED91FC915597808186FFF9CF9196C9
:1011D0001C920895CF93DF93EC01EE85FF85E05CD0
:1011E000FF4F20813181E054F0402F5F3F4F2F733C
:1011F0003070DF01AE5BBF4F8D919C911197281726
:101200003907D1F3E05CFF4F80819181E054F040D9
:10121000E80FF91F6083EE85FF85E05CFF4F3183A7
:101220002083EE89FF89208181E090E00F8C02C04D
:10123000880F991F0A94E2F7282B208381E089A365
:10124000EC89FD8980818064808381E090E0DF917A
:10125000CF9108951F9310926A041092690428EEAA
:1012600033E040E050E020936B0430936C044093F3
:101270006D0450936E0465E172E0709368046093AE
:10128000670487E492E090937404809373048BE87E
:1012900092E0909376048093750485EC90E09093AF
:1012A00078048093770484EC90E090937A048093A0
:1012B000790480EC90E090937C0480937B0481EC33
:1012C00090E090937E0480937D0482EC90E0909374
:1012D000800480937F0486EC90E090938204809356
:1012E000810414E010938304B3E0B0938404A7E076
:1012F000A0938504F5E0F0938604E1E0E093870491
:1013000010928C0410928B0420938D0430938E04E1
:1013100040938F045093900470938A0460938904DF
:101320008FEC92E0909396048093950483E193E090
:1013300090939804809397048DEC90E090939A0496
:10134000809399048CEC90E090939C0480939B0490
:1013500088EC90E090939E0480939D0489EC90E04B
:101360009093A00480939F048AEC90E09093A20451
:101370008093A1048EEC90E09093A4048093A30446
:101380001093A504B093A604A093A704F093A80417
:10139000E093A9041092AE041092AD042093AF0420
:1013A0003093B0044093B1045093B2047093AC04F2
:1013B0006093AB0487E593E09093B8048093B704FF
:1013C0008BE993E09093BA048093B90485ED90E0A3
:1013D0009093BC048093BB0484ED90E09093BE0492
:1013E0008093BD0480ED90E09093C0048093BF048F
:1013F00081ED90E09093C2048093C10482ED90E06F
:101400009093C4048093C30486ED90E09093C60447
:101410008093C5041093C704B093C804A093C90473
:10142000F093CA04E093CB041092D0041092CF043E
:101430002093D1043093D2044093D3045093D40426
:101440007093CE046093CD048FED93E09093DA0413
:101450008093D90483E294E09093DC048093DB04CE
:1014600085E391E09093DE048093DD0484E391E0D2
:101470009093E0048093DF0480E391E09093E20492
:101480008093E10481E391E09093E4048093E3048A
:1014900082E391E09093E6048093E50486E391E093
:1014A0009093E8048093E7041093E904B093EA046E
:1014B000A093EB04F093EC04E093ED041F910895E6
:1014C0000895CF93DF93D2D9FBDF0E944601CCEA87
:1014D000D6E00E9443012097E1F33EDCFACFCF92A1
:1014E000DF92EF92FF920F931F93CF93DF937C01D4
:1014F0006B018A01C0E0D0E00FC0D6016D916D0193
:10150000D701ED91FC910190F081E02DC701199573
:10151000C80FD91F015010400115110571F7CE01F8
:10152000DF91CF911F910F91FF90EF90DF90CF90BF
:101530000895CF93DF93FB01EC01A881B98160810D
:101540007181448155811296ED91FC911397199503
:10155000DF91CF910895DC01ED91FC910190F08134
:10156000E02D19950895CF93DF93EC016115710576
:1015700019F420E030E00FC0DB010D900020E9F706
:101580001197A61BB70BE881F9810280F381E02D4A
:10159000AD0119959C01C901DF91CF910895E3CF69
:1015A0000895FC019B01848195816817790728F4CF
:1015B000608171816115710529F41092EF046FEE5D
:1015C00074E002C0620F731FCB0108950F931F9345
:1015D000CF93DF93EC018B016F5F7F4F88819981FF
:1015E00000D2009711F480E005C0998388831B83A3
:1015F0000A8381E0DF91CF911F910F910895CF93DE
:10160000DF93EC0188819981892B29F08A819B8164
:101610008617970758F4CE01D9DF882341F08C81D3
:101620009D81892B19F4E881F981108281E0DF9195
:10163000CF910895EF92FF920F931F93CF93DF9373
:10164000EC017B016C817D81E114F104B9F041155D
:10165000510591F08A01060F171FB801D0DF8823CA
:1016600069F0888199812C813D81820F931FB70198
:101670000E943C011D830C8381E001C080E0DF916A
:10168000CF911F910F91FF90EF900895DF93CF932B
:101690000F920F92CDB7DEB769831A82BE016F5FDA
:1016A0007F4F41E050E0C6DF0F900F90CF91DF9168
:1016B0000895CF93DF93EC0188819981009709F019
:1016C000F8D0198218821D821C821B821A82DF9137
:1016D000CF910895EF92FF920F931F93CF93DF93D3
:1016E000EC017B018A01BA018ADF882319F4CE015B
:1016F000E0DF07C01D830C8388819981B7010E94B8
:101700003C01CE01DF91CF911F910F91FF90EF909F
:101710000895CF93DF93EC01198218821B821A82FD
:101720001D821C826115710549F0DB010D900020BE
:10173000E9F71197A61BB70BAD01CCDFDF91CF9175
:1017400008950F931F93182F092F6115710551F0FC
:10175000DB010D900020E9F71197A61BB70BAD0137
:10176000B9DF01C0A6DF812F902F1F910F9108953F
:10177000FC01808191819DC00F931F93CF93DF93D4
:10178000BC018230910510F462E070E0E091F20457
:10179000F091F30440E050E0A0E0B0E024C080818C
:1017A000918186179707D0F08617970771F4828189
:1017B0009381109729F013969C938E9312972CC0C7
:1017C0009093F3048093F20427C04115510519F05A
:1017D0008417950718F48D01AC01EF01DF018281B8
:1017E00093819C01F9013097D1F641155105F9F02B
:1017F000CA01861B970B8430910580F48A819B81F6
:101800000115110521F0F8019383828304C09093A0
:10181000F3048093F204FE01329645C0FE01E80F06
:10182000F91F619371930297998388833CC08091DB
:10183000F0049091F104892B41F480910D02909174
:101840000E029093F1048093F00440910F025091A6
:1018500010024115510541F44DB75EB780910B025E
:1018600090910C02481B590B2091F0043091F10427
:1018700024173507B0F4CA01821B930B861797070C
:1018800080F0AB014E5F5F4F8417950750F0420F19
:10189000531F5093F1044093F004F9016193719345
:1018A00002C0E0E0F0E0CF01DF91CF911F910F91F6
:1018B0000895CF93DF939C01009709F48FC0EC014A
:1018C00022971B821A826091F2047091F3046115D1
:1018D000710581F488819981820F931F2091F00412
:1018E0003091F1042817390739F5D093F104C093EA
:1018F000F00474C0DB0140E050E0AC17BD0708F114
:10190000BB83AA83FE0121913191E20FF31FAE1731
:10191000BF0779F48D919C911197280F391F2E5F85
:101920003F4F3983288312968D919C9113979B8307
:101930008A834115510571F4D093F304C093F204E6
:101940004DC012968D919C911397AD01009711F0A7
:10195000DC01D3CFDA011396DC93CE931297FA0110
:1019600021913191E20FF31FCE17DF0769F48881CF
:101970009981280F391F2E5F3F4FFA013183208351
:101980008A819B8193838283E0E0F0E0DB01129601
:101990008D919C911397009719F0BC01FD01F6CF32
:1019A000AB014E5F5F4FDB018D919C91840F951FC2
:1019B0002091F0043091F1042817390779F4309719
:1019C00029F41092F3041092F20402C013821282DE
:1019D000425050405093F1044093F004DF91CF9176
:1019E00008956F927F928F929F92AF92BF92CF9203
:1019F000DF92EF92FF920F931F93CF93DF938C01AF
:101A0000009721F4CB01B8DE8C01B8C08EEFE82E30
:101A10008FEFF82EE00EF11E4801860E971E8E14F1
:101A20009F0408F4A9C0D7014D915C911197461706
:101A30005707B0F04530510508F4A0C0CA0104971B
:101A40008617970708F49AC042505040461B570B20
:101A5000F401419351936D937C93CF012ADF8EC0A3
:101A60005B01A41AB50A3801640E751EA091F20438
:101A7000B091F304E0E0F0E0CC24DD2447C0A615EB
:101A8000B705A9F5CD91DC911197CE0102968A1583
:101A90009B0568F1CE018A199B09029612962C913A
:101AA000129713963C91059758F0F40122833383E3
:101AB000CA19DB09D183C083D7016D937C9309C018
:101AC0004E5F5F4F4C0F5D1FF70151834083C9018B
:101AD000FC01C114D10431F0D6011396FC93EE93AE
:101AE00012974CC0F093F304E093F20447C08D9139
:101AF0009C911197E817F90708F4FC016D01129603
:101B00008C91129713969C919C01D901109709F022
:101B1000B6CF8091F0049091F10486159705E9F411
:101B2000E617F707D0F420910F023091100221152B
:101B3000310541F42DB73EB780910B0290910C0214
:101B4000281B390B82169306B8F49092F104809208
:101B5000F004F7017183608311C0CB010DDEEC014D
:101B6000009751F0D7014D915C91B8010E9433016B
:101B7000C8019FDE8E0102C000E010E0C801DF91C5
:101B8000CF911F910F91FF90EF90DF90CF90BF907A
:101B9000AF909F908F907F906F90089597FB092E44
:101BA00007260AD077FD04D049D006D000201AF4C9
:101BB000709561957F4F0895F6F7909581959F4FA9
:101BC0000895A1E21A2EAA1BBB1BFD010DC0AA1F7E
:101BD000BB1FEE1FFF1FA217B307E407F50720F096
:101BE000A21BB30BE40BF50B661F771F881F991F11
:101BF0001A9469F760957095809590959B01AC015A
:101C0000BD01CF01089597FB092E05260ED057FD83
:101C100004D0D7DF0AD0001C38F450954095309599
:101C200021953F4F4F4F5F4F0895F6F79095809560
:101C3000709561957F4F8F4F9F4F0895AA1BBB1BD7
:101C400051E107C0AA1FBB1FA617B70710F0A61BBC
:101C5000B70B881F991F5A95A9F780959095BC01DD
:101C6000CD010895EE0FFF1F0590F491E02D19941A
:101C700012E0C8E0D2E003C0FE01F6DF2296CA30CF
:081C8000D107D1F7F894FFCF62
:101C8800002453500A002444500A008000F4040041
:101C98000000000000EA086F0A7F08B1089108DA1E
:021CA800080032
:00000001FF
