:100000000C946B010C94360C0C94670C0C94980CAB
:100010000C94C90C0C94FA0C0C942B0D0C945C0DE4
:100020000C948D0D0C949C010C949C010C949C01DF
:100030000C949C010C949C010C949C010C949C01CC
:100040000C949C010C94EB030C949C010C949C016B
:100050000C949C010C949C010C949C010C94BE0D7E
:100060000C949C010C9421110C9457110C949C013C
:100070000C949C010C949C010C949C010C949C018C
:100080000C949C010C949C010C949C010C94BD0359
:100090000C949C010C949C010C949C010C949C016C
:1000A0000C949C010C949C010C949C010C949C015C
:1000B0000C949C010C949C010C949C010C949C014C
:1000C0000C949C010C949C010C949C010C949C013C
:1000D0000C949C010C949C010C94CE110C94041271
:1000E0000C949C01100CDA0BE20BEE0BFB0B1C0CBE
:1000F000290CDA0EDD0ECC0ED00ED60E140FE10E4A
:10010000E50EEB0EEF0EF30EF90EFD0E010F140FC0
:10011000070F0B0F0F0F0C94100C0C94EF0E0C9498
:1001200029020C9401040C94FD0E0C94290C0C94DF
:10013000DA0E0C948B110C94E10E0C94EE0B0C94D3
:10014000E50E0C94FB0B0C94F5030C94140F0C941B
:10015000070F0C9481110C945A100C948B120C9470
:1001600038100C94E20B0C94B80F0C94DA0B0C942E
:10017000AD0F0C941C0C0C94DD0E0C940B0F0C9416
:1001800038120C94C60F0C94DA0F0C94D60E0C9403
:10019000010F0C94F90E0C94CC0E0C94F30E0C94ED
:1001A000D00E0C940F0F0C942E120C94EB0E00003A
:1001B0000A0B02090C0D0E080703040100000000E1
:1001C000000000000000000000000000000000002F
:1001D00000000000000000000000121110000000EC
:1001E000000000000000000000000000000000000F
:1001F00000000000010210202008081020401020FC
:1002000040800201020108040201010204081020DA
:1002100040808040201008040201800402018040D8
:100220002010080402010804020101020408102041
:1002300040800102040810204080050505050705DF
:1002400008080808020202020A0A08080404040452
:10025000010101010101010103030303030303037E
:10026000040707070C0C0C0C0C0C0C0C020202020D
:1002700006060606060606060B0B0B0B0B0B0B0BF6
:10028000000020002300260029002C002F0032004F
:100290000001000003010601090100002200250001
:1002A00028002B002E00310034000201000005015F
:1002B00008010B0100002100240027002A002D0066
:1002C0003000330001010000040107010A01F503B9
:1002D0008B113812010411241FBECFEFD1E2DEBF13
:1002E000CDBF00E00CBF13E0A0E0B2E0E6E5F5E32F
:1002F00000E00BBF02C007900D92AE35B107D9F7F1
:1003000024E0AEE5B3E001C01D92A93EB207E1F7DB
:1003100012E0C4EDD2E000E006C022970109FE0120
:100320000BBF0E94F917CE3CD10780E00807A9F760
:100330000E947C120C94991A0C940000EF92FF9288
:100340000F931F93CF93DF931F92CDB7DEB77C013E
:10035000FC01718360835383428326873787048738
:100360001587148215821682178260E0802F2983F8
:100370000E94150F61E0802F0E944E0F60E02981DE
:10038000822F0E94150FF701108A0F90DF91CF91F5
:100390001F910F91FF90EF900895FC018089448197
:1003A000558166817781882329F04150510961097F
:1003B000710904C04F5F5F4F6F4F7F4F4483558378
:1003C000668377830895CF92DF92EF92FF92CF9367
:1003D000DF93EC016C817D818E819F810E949B1651
:1003E0009B01AC010E949C152BED3FE049E450E4D9
:1003F0000E944F176B017C016A817B81882777FD02
:100400008095982F0E949B169B01AC01C701B601F5
:100410000E94001620E030E04AE952E40E940016F3
:1004200023E333E343E950E40E944F170E94681628
:10043000CB01DF91CF91FF90EF90DF90CF900895A7
:10044000FC0164817581868197810895FC01608B30
:1004500008958EE593E00C94BA038EE593E00E9434
:100460003C0242E050E069E272E082E00C94C50B8D
:100470008EE593E00C949C0A0F931F93CF93DF9328
:10048000EC0161E08DE00E94150F10929000E1E90F
:10049000F0E01082109295001092940080818460A8
:1004A0008083E1E7F0E080818160808329E030E0B3
:1004B0004AE050E061E070E082E893E00E94E20AE6
:1004C00005E110E02EE130E04CE251E062E070E046
:1004D000CE010E960E949E0119A218A21BA21AA27A
:1004E00026E040E052EC61E070E08AEA93E00E948E
:1004F000BF1026E040E052EC61E070E087E494E059
:100500000E94BF101E826DEC72E0CE010E946E143C
:100510001D866DEC72E0CE0107960E946E1480E39A
:100520008F8FDF91CF911F910F910895EF92FF92DE
:100530000F931F93CF93DF938C017B01FC0182A16A
:1005400093A1E80EF91EE8012E9660E0CE010E940C
:10055000260260E070E082E893E00E94530B68E5B9
:100560007BE182E893E00E943E0B82E893E00E94E8
:10057000590BF80182A193A18E159F0584F464E6BE
:1005800070E080E090E00E94370ECE010E942002D1
:10059000CE010E94E301F80193A382A3EACFCE012A
:1005A0000E94200282E893E0DF91CF911F910F918A
:1005B000FF90EF900C94660BEF92FF920F931F93B6
:1005C000CF93DF93EC010AA11BA1061B170B61E07F
:1005D00070E082E893E00E94530B7E018EE0E80E0B
:1005E000F11C61E0C7010E94260268E57BE182E818
:1005F00093E00E943E0B82E893E00E94590B8AA18F
:100600009BA108171907BCF4C7010E94E3019BA333
:100610008AA364E670E080E090E00E94370E8AA131
:100620009BA18E3691055CF760ED77E082E893E060
:100630000E943E0BE4CF82E893E0DF91CF911F91BF
:100640000F91FF90EF900C94660B0F931F93CF9335
:10065000DF938B0164EF71E080E090E00E94370E41
:10066000C0E0D0E0C017D10704F560E08DE00E9443
:100670004E0F6AEF70E080E090E00E94370E61E07C
:100680008DE00E944E0F6AEF70E080E090E00E94E3
:10069000370E60E08DE00E944E0F6AEF70E080E060
:1006A00090E00E94370E2196DDCFDF91CF911F9110
:1006B0000F910895CF92DF92EF92FF920F931F93C5
:1006C000CF93DF93CDB7DEB72C970FB6F894DEBF8C
:1006D0000FBECDBF8C016DEC72E0CE0107960E947B
:1006E000411463E070E0C8010E94250327E030E078
:1006F00044E050E0B801CE0101960E944A15BE01C7
:100700006F5F7F4FCE0107960E945714CE0101966E
:100710000E94D313CE0107960E948F156B017C01B6
:1007200063E070E0C8010E943815FC018081B601C9
:100730008B3221F4C8010E94960203C0C8010E94B6
:10074000DC0266E072E08AEA93E00E940613CE01C2
:1007500007960E94D3132C960FB6F894DEBF0FBEF7
:10076000CDBFDF91CF911F910F91FF90EF90DF9060
:10077000CF9008950E960C94CD011F920F920FB654
:100780000F9211240BB60F922F933F934F935F93C9
:100790006F937F938F939F93AF93BF93EF93FF9349
:1007A0008DE00E94840F61E068278DE00E944E0F6B
:1007B000FF91EF91BF91AF919F918F917F916F9139
:1007C0005F914F913F912F910F900BBE0F900FBEF5
:1007D0000F901F9018951F920F920FB60F92112431
:1007E0000F900FBE0F901F9018956DEC72E08EE584
:1007F00093E00E9441146DEC72E085E693E00C9466
:10080000411485E693E00E94D3138EE593E00C94A7
:10081000D3130F931F93CF93DF93CDB7DEB76297B8
:100820000FB6F894DEBF0FBECDBF8A014AE0CE01FD
:100830000D960E949F146DEC72E0CE0107960E9407
:10084000411489899A898330910519F46AE072E02C
:1008500007C0029719F460E172E002C065E172E03E
:10086000CE0101960E944114BE01635F7F4FCE010D
:1008700001960E940B15B8010E940B156CEC72E0FA
:100880000E941E15BC01CE0107960E945714CE018E
:1008900001960E94D313BE01695F7F4F87E494E005
:1008A0000E94C91287E494E00E94AD0F892BD1F316
:1008B00069E170E080E090E00E94370E10E087E48C
:1008C00094E00E94AD0F1816190644F487E494E0F2
:1008D0000E94C60F843299F711E0F1CF112311F372
:1008E000CE0107960E94D313CE010D960E94D3131A
:1008F00062960FB6F894DEBF0FBECDBFDF91CF91E9
:100900001F910F910895EF92FF920F931F93CF9332
:10091000DF9300D000D0CDB7DEB78C017C018EE034
:10092000E80EF11CC7010E94E3018134910524F512
:1009300069E172E08AEA93E00E94061366E070E0E3
:10094000C8010E9496026AE272E08AEA93E00E947D
:1009500006136AEE72E0CE0101960E944114AE01C8
:100960004F5F5F4F65E070E0C8010E940904CE014F
:1009700001960E94D313D6CF62E372E08AEA93E035
:100980000E9406136EE170E0C8010E94960265E4C1
:1009900072E08AEA93E00E94061326960FB6F89456
:1009A000DEBF0FBECDBFDF91CF911F910F91FF90A2
:1009B000EF9008954F925F926F927F928F929F92E5
:1009C000AF92BF92DF92EF92FF920F931F93CF935C
:1009D000DF93CDB7DEB768970FB6F894DEBF0FBED2
:1009E000CDBF8C016AE472E08AEA93E00E940613AC
:1009F0006DEC72E0CE0143960E9441146DEC72E002
:100A0000CE010D960E94411466E672E0CE01079673
:100A10000E94411460E070E082E893E00E94530B72
:100A200068E57BE182E893E00E943E0B82E893E078
:100A30000E94590B6BE672E08AEA93E00E9406136B
:100A400061E872E087E494E00E94D71287E494E0C2
:100A50000E94AD0F892BD1F365E070E080E090E05B
:100A60000E94370EC80107967C0187E494E00E943B
:100A7000AD0F18161906D4F487E494E00E94C60F4F
:100A8000D82E682FCE0101960E948614BE016F5F9A
:100A90007F4F8AEA93E00E94F412CE0101960E94F1
:100AA000D3136D2DC7010E94F714DFCF66E872E003
:100AB0008AEA93E00E94061326E030E043E050E02B
:100AC000B701CE0101960E944A15BE016F5F7F4FAC
:100AD000CE010D960E945714CE0101960E94D313A9
:100AE000CE010D960E948F15F80171A360A3B70186
:100AF0008AEA93E00E94C9126DEC72E0C7010E947D
:100B00006E146DE972E08AEA93E00E940613DD2418
:100B1000D394F80180A191A146970CF4C7C08091AD
:100B200080008F7B8093800061E872E087E494E02E
:100B30000E94D712809180008064809380000E9480
:100B4000080E2B013C01A12CB12C87E494E00E94FB
:100B5000AD0F892B89F50E94080E64197509860965
:100B6000970969387341810591057CF362EB72E066
:100B70008AEA93E00E94D7122FEFA21AB20AF894E1
:100B800061E872E087E494E00E94D71278940E94B2
:100B9000080E2B013C0184E0A816B104B1F66EECFE
:100BA00072E08AEA93E00E9406136CEE72E0CE01D6
:100BB00007960E946E147AC069E170E080E090E0D0
:100BC0000E94370E87E494E00E94AD0F18161906B4
:100BD0007CF487E494E00E94C60FB82E682FC7010A
:100BE0000E94F7149AE0B912EDCFF801D586EACF4A
:100BF000789426E030E043E050E0B701CE01019662
:100C00000E944A15BE016F5F7F4FCE010D960E9474
:100C10005714CE0101960E94D3136DEC72E0C70108
:100C20000E946E14CE010D960E948F15F80171A3DB
:100C300060A34AE050E08AEA93E00E94BB13F80107
:100C400060A171A1653171053CF460E971E082E851
:100C500093E00E94720B2AC065517109882777FDC5
:100C60008095982F0E949B164B015C0120E030E09C
:100C700040EA51E40E944B1718161CF468E57BE12A
:100C800010C020E030E045EA53E4C501B4010E9401
:100C90004F1720E030E048EC53E40E949C150E947E
:100CA000681682E893E00E943E0B33CF82E893E01F
:100CB0000E94660B67E070E0C8010E949602BE01C8
:100CC000695F7F4F8AEA93E00E94F412CE01079693
:100CD0000E94D313CE010D960E94D313CE014396EA
:100CE0000E94D31368960FB6F894DEBF0FBECDBF37
:100CF000DF91CF911F910F91FF90EF90DF90BF9008
:100D0000AF909F908F907F906F905F904F900895DD
:100D10000F931F93CF93DF9300D000D0CDB7DEB7F2
:100D20008C0161EF72E087E494E00E94D7126AE2DE
:100D300072E08AEA93E00E94061387E494E00E943E
:100D4000AD0F892BD1F36AE070E080E090E00E9463
:100D5000370E87E494E00E94AD0F18161906ACF424
:100D600087E494E00E94C60F682FCE0101960E948E
:100D70008614BE016F5F7F4F8AEA93E00E94F412EF
:100D8000CE0101960E94D313E4CF69E172E08AEAB2
:100D900093E00E94061368E270E0C8010E94960288
:100DA00067EF72E08AEA93E00E94061368E073E05E
:100DB0008AEA93E00E94D71267E073E087E494E048
:100DC0000E94D7126DE073E08AEA93E00E94061356
:100DD00087E494E00E94AD0F892BD1F36AE070E0C4
:100DE00080E090E00E94370E87E494E00E94AD0F0F
:100DF00018161906ACF487E494E00E94C60F682F19
:100E0000CE0101960E948614BE016F5F7F4F8AEA71
:100E100093E00E94F412CE0101960E94D313E4CF16
:100E200068E173E08AEA93E00E94061366E273E0E9
:100E300087E494E00E94D71287E494E00E94AD0F0B
:100E4000892BD1F36AE070E080E090E00E94370ED9
:100E500010E087E494E00E94AD0F1816190644F4E0
:100E600087E494E00E94C60F843299F711E0F1CF35
:100E7000112319F06DE273E002C063E373E08AEAC4
:100E800093E00E94D71226960FB6F894DEBF0FBEED
:100E9000CDBFDF91CF911F910F910895EF92FF92F7
:100EA0000F931F93CF93DF93CDB7DEB72D970FB678
:100EB000F894DEBF0FBECDBF8C016DEC72E0CE01A9
:100EC00007960E94411462E070E0C8010E94381544
:100ED000FC0120817801F7E0EF0EF11C6DEC72E06F
:100EE000C7012D870E946E142D852C3449F12235BF
:100EF00009F44EC0223409F4A5C026E030E043E0F6
:100F000050E0B801CE0101960E944A15BE016F5F04
:100F10007F4FCE0107960E945714CE0101960E9482
:100F2000D313CE0107960E948F15695F7F4FC801CA
:100F30000E949602B80187E494E00E94C91249C059
:100F4000B80187E494E00E94C91287E494E00E940B
:100F5000AD0F892BD1F365E070E080E090E00E9456
:100F6000370E87E494E00E94AD0F181619064CF472
:100F700087E494E00E94C60F682FC7010E94F7140F
:100F8000F0CF69E373E08AEA93E00E94D7125AC077
:100F9000B80187E494E00E94C91287E494E00E94BB
:100FA000AD0F892BD1F365E070E080E090E00E9406
:100FB000370E87E494E00E94AD0F181619060CF75F
:100FC00087E494E00E94C60F682FC7010E94F714BF
:100FD000F0CF87E494E00E94AD0F892BD1F369E153
:100FE00070E080E090E00E94370E01E087E494E03A
:100FF0000E94AD0F18161906CCF787E494E00E9402
:10100000C60F182F682F843239F0002329F08AEA9E
:1010100093E00E94D912EACFC7010E94F7141A3058
:1010200079F4B7018AEA93E00E94C9128AEA93E050
:101030000E9438106DEC72E0C7010E946E1402C06D
:1010400000E0D4CFCE0107960E94D3132D960FB6A1
:10105000F894DEBF0FBECDBFDF91CF911F910F91EE
:10106000FF90EF900895CF93DF93EC0164E070E080
:101070000E942503BE0187E494E00E94C91287E420
:1010800094E00E94381087E494E00E94AD0F181697
:101090001906CCF787E494E00E94C60FC82F682F8A
:1010A0008AEA93E00E94D912CA3069F78AEA93E08B
:1010B000DF91CF910C9438104F925F926F927F9294
:1010C0009F92AF92BF92CF92DF92EF92FF920F93D7
:1010D0001F93CF93DF93CDB7DEB768970FB6F89421
:1010E000DEBF0FBECDBF8C016DEC72E0CE0143962A
:1010F0000E9441146DEC72E0CE010D960E944114E5
:1011000066E672E0CE0107960E94411427E030E0C7
:1011100044E050E0B801CE0101960E944A15BE019C
:101120006F5F7F4FCE0143960E945714CE01019608
:101130000E94D313CE0143960E948F156B017C0150
:101140005B0163E070E0C8010E943815FC018081FA
:101150008D3239F4AA24BB24AC18BD0861E070E0DC
:1011600002C060E070E082E893E00E94530BF80157
:10117000E0A0F1A0EA0CFB1CF4E1EF1AF10860E931
:1011800071E082E893E00E94720B82E893E00E9493
:10119000590B6EE373E087E494E00E94D71287E472
:1011A00094E00E94AD0F892BD1F3C80107966C0122
:1011B000AA24A39487E494E00E94AD0F18161906A0
:1011C0007CF487E494E00E94C60FB82E682FC60115
:1011D0000E94F7149AE0B912EDCFF801A586EACF84
:1011E00026E030E043E050E0B601CE0101960E94D7
:1011F0004A15BE016F5F7F4FCE010D960E945714B6
:10120000CE0101960E94D313CE010D960E948F1538
:10121000F80171A360A34AE050E08AEA93E00E94DB
:10122000BB1399249394F80180A191A18E159F0579
:101230000CF0CCC0809180008F7B809380006EE3A7
:1012400073E087E494E00E94D7128091800080646C
:10125000809380000E94080E2B013C01A12CB12C30
:1012600087E494E00E94AD0F892B89F50E94080E57
:101270006419750986099709613D774081059105D3
:101280007CF362EB72E08AEA93E00E94D7122FEFC0
:10129000A21AB20AF8946EE373E087E494E00E9425
:1012A000D71278940E94080E2B013C0184E0A81606
:1012B000B104B1F66EEC72E08AEA93E00E94061384
:1012C0006CEE72E0CE0107960E946E147FC069E159
:1012D00070E080E090E00E94370E87E494E00E9486
:1012E000AD0F87E494E00E94AD0F181619067CF448
:1012F00087E494E00E94C60FB82E682FC6010E94B2
:10130000F7149AE0B912EDCFF8019586EACF7894F8
:1013100026E030E043E050E0B601CE0101960E94A5
:101320004A15BE016F5F7F4FCE010D960E94571484
:10133000CE0101960E94D3136DEC72E0C6010E94AB
:101340006E14CE010D960E948F15F80171A360A353
:101350004AE050E08AEA93E00E94BB13F80180A1C2
:1013600091A18E159F053CF060E971E082E893E061
:101370000E94720B2BC0B701681B790B882777FD81
:101380008095982F0E949B162B013C0120E030E0B5
:1013900040EA51E40E944B1718161CF468E57BE103
:1013A00010C020E030E045EA53E4C301B2010E94DE
:1013B0004F1720E030E048EC53E40E949C150E9457
:1013C000681682E893E00E943E0B2DCF82E893E0FE
:1013D0000E94660BBE01695F7F4F8AEA93E00E941C
:1013E000F4128AEA93E00E943810CE0107960E9418
:1013F000D313CE010D960E94D313CE0143960E94C3
:10140000D31368960FB6F894DEBF0FBECDBFDF9141
:10141000CF911F910F91FF90EF90DF90CF90BF90F1
:10142000AF909F907F906F905F904F900895CF9373
:10143000DF93EC010E960E94E301BC01CE010E94F5
:10144000DC0263E473E08AEA93E00E94D7128AEA3E
:1014500093E0DF91CF910C94381069E473E08AEA4D
:1014600093E00E94D7128AEA93E00C943810CF934D
:10147000DF93EC0161E070E00E943815FC0180818F
:101480008434A1F144F4813409F051C0CE01DF91DC
:10149000CF910C945A03893421F1823509F047C069
:1014A00062E070E0CE010E943815FC01808180333B
:1014B00029F4CE01DF91CF910C945C0862E070E0DA
:1014C000CE010E943815FC018081843429F4CE01BC
:1014D000DF91CF910C94DA04CE01DF91CF910C947F
:1014E000170ACE01DF91CF910C94330862E070E0CF
:1014F000CE010E943815FC018081843429F4CE018C
:10150000DF91CF910C94830462E070E0CE010E94E1
:101510003815FC018081843529F4CE01DF91CF910B
:101520000C948806CE01DF91CF910C944E07CE012A
:10153000DF91CF910C942D0A1F93CF93DF93EC0191
:101540008AEA93E00E94AD0F11E08AEA93E00E94DC
:10155000AD0F1816190674F48AEA93E00E94C60FBC
:101560008F8F682FCE010E94F7148F8D8A3069F714
:101570001E83EBCF6AEF70E080E090E00E94370EB0
:101580008E818823D9F060E070E0CE010E9438158A
:10159000FC018081843291F480917100809371000C
:1015A000CE010E94370A80917100816080937100A2
:1015B0006DEC72E0CE010E946E141E82DF91CF911D
:1015C0001F910895EF92FF920F931F93CF93DF9394
:1015D000EC01042F122F7983688349875A872B8760
:1015E0003C87882777FD8095982F0E949B162BEDCE
:1015F0003FE049EC50E40E9400160E9468167B838D
:101600006A8380E8E82EF12CF7011082E1E8F0E02F
:101610001082109285001092840080E991E09093EE
:1016200089008093880080818860808380818260C7
:10163000808361E08BE00E94150F61E0802F0E94A3
:10164000150F61E0812F0E94150FF70180818083C3
:1016500060E0812F0E944E0F60E08BE00E944E0FF1
:1016600081E090E09D838C8318861E861D86DF9125
:10167000CF911F910F91FF90EF900895882777FDEC
:101680008095982F0E949B169B01AC0160E074E24C
:1016900084E799E40E9400160E94681670938900FE
:1016A000609388000895FC016483758381850C94A0
:1016B0004E0F21E0FC012087E0E8F0E0208120646B
:1016C000208360E0FC0183850C944E0FFC011086A2
:1016D000E0E8F0E020812F7B208360E0FC0183853F
:1016E0000C944E0FCF92DF92EF92FF920F931F93C5
:1016F000CF93DF93EC018B016115710511F40E940A
:10170000660BB801882777FD8095982F0E949B165D
:1017100020E030E04AE952E40E944F176B017C015F
:101720000E9468167F836E836A817B81882777FD9C
:101730008095982F0E949B169B01AC01C701B601B2
:101740000E944F170E94681628EE33E040E050E0F8
:101750000E94D41769E07DE380E090E00E94D417F6
:10176000CA01B90122E030E040E050E00E94D41705
:101770003093890020938800DF91CF911F910F91C2
:10178000FF90EF90DF90CF900895883008F06DC003
:10179000E82FF0E0EE0FFF1FEF56FC4F71836083E0
:1017A00090E0FC013197E730F10590F5EE58FF4FDE
:1017B0000C94F317809169008C7F842B80936900CF
:1017C000E89A089580916900440F551F440F551FF2
:1017D000837F842B80936900E99A08958091690042
:1017E00074E0440F551F7A95E1F78F7C842B80932A
:1017F0006900EA9A08958091690066E0440F551FD8
:101800006A95E1F78F73842B80936900EB9A0895B2
:1018100080916A008C7F842B80936A00EC9A0895F3
:1018200080916A00440F551F440F551F837F842BFE
:1018300080936A00ED9A089580916A0024E0440F35
:10184000551F2A95E1F78F7C842B80936A00EE9ACE
:10185000089580916A0096E0440F551F9A95E1F72C
:101860008F73842B80936A00EF9A08951F920F92D2
:101870000FB60F9211240BB60F922F933F934F93F5
:101880005F936F937F938F939F93AF93BF93EF93E8
:10189000FF938091950390919603892B29F0E09115
:1018A0009503F09196031995FF91EF91BF91AF9138
:1018B0009F918F917F916F915F914F913F912F9168
:1018C0000F900BBE0F900FBE0F901F9018951F9298
:1018D0000F920FB60F9211240BB60F922F933F93D6
:1018E0004F935F936F937F938F939F93AF93BF9328
:1018F000EF93FF938091970390919803892B29F0A0
:10190000E0919703F09198031995FF91EF91BF91A2
:10191000AF919F918F917F916F915F914F913F9187
:101920002F910F900BBE0F900FBE0F901F90189528
:101930001F920F920FB60F9211240BB60F922F9396
:101940003F934F935F936F937F938F939F93AF9347
:10195000BF93EF93FF938091990390919A03892B02
:1019600029F0E0919903F0919A031995FF91EF9175
:10197000BF91AF919F918F917F916F915F914F91A7
:101980003F912F910F900BBE0F900FBE0F901F90A5
:1019900018951F920F920FB60F9211240BB60F924B
:1019A0002F933F934F935F936F937F938F939F9367
:1019B000AF93BF93EF93FF9380919B0390919C0310
:1019C000892B29F0E0919B03F0919C031995FF91DD
:1019D000EF91BF91AF919F918F917F916F915F91A7
:1019E0004F913F912F910F900BBE0F900FBE0F9014
:1019F0001F9018951F920F920FB60F9211240BB6DD
:101A00000F922F933F934F935F936F937F938F9397
:101A10009F93AF93BF93EF93FF9380919103909126
:101A20009203892B29F0E0919103F091920319958B
:101A3000FF91EF91BF91AF919F918F917F916F91A6
:101A40005F914F913F912F910F900BBE0F900FBE62
:101A50000F901F9018951F920F920FB60F9211249E
:101A60000BB60F922F933F934F935F936F937F9398
:101A70008F939F93AF93BF93EF93FF9380919303C3
:101A800090919403892B29F0E0919303F0919403B2
:101A90001995FF91EF91BF91AF919F918F917F9198
:101AA0006F915F914F913F912F910F900BBE0F90CF
:101AB0000FBE0F901F9018951F920F920FB60F92A6
:101AC00011240BB60F922F933F934F935F936F9315
:101AD0007F938F939F93AF93BF93EF93FF938091E7
:101AE0009D0390919E03892B29F0E0919D03F09135
:101AF0009E031995FF91EF91BF91AF919F918F91A7
:101B00007F916F915F914F913F912F910F900BBEFD
:101B10000F900FBE0F901F9018951F920F920FB647
:101B20000F9211240BB60F922F933F934F935F9315
:101B30006F937F938F939F93AF93BF93EF93FF9395
:101B400080919F039091A003892B29F0E0919F033E
:101B5000F091A0031995FF91EF91BF91AF919F91E3
:101B60008F917F916F915F914F913F912F910F9046
:101B70000BBE0F900FBE0F901F9018951F920F92E3
:101B80000FB60F9211242F933F938F939F93AF9390
:101B9000BF938091A2039091A303A091A403B0915D
:101BA000A5033091A10323E0230F2D3720F40196E4
:101BB000A11DB11D05C026E8230F0296A11DB11D70
:101BC0002093A1038093A2039093A303A093A40363
:101BD000B093A5038091A6039091A703A091A803B9
:101BE000B091A9030196A11DB11D8093A603909306
:101BF000A703A093A803B093A903BF91AF919F91AE
:101C00008F913F912F910F900FBE0F901F901895BD
:101C10002FB7F8946091A2037091A3038091A4035D
:101C20009091A5032FBF08953FB7F8948091A60324
:101C30009091A703A091A803B091A90326B5A89BF2
:101C400005C02F3F19F00196A11DB11D3FBF6627AA
:101C5000782F892F9A2F620F711D811D911D42E0EF
:101C6000660F771F881F991F4A95D1F70895CF9265
:101C7000DF92EF92FF92CF93DF936B017C010E9482
:101C8000140EEB01C114D104E104F10489F00E94A7
:101C90009A150E94140E6C1B7D0B683E734090F3E6
:101CA00081E0C81AD108E108F108C851DC4FEACF39
:101CB000DF91CF91FF90EF90DF90CF9008957894CF
:101CC00084B5826084BD84B5816084BD85B5826041
:101CD00085BD85B5816085BDEEE6F0E080818160DF
:101CE0008083E1E8F0E010828081826080838081DF
:101CF00081608083E0E8F0E0808181608083E1EBB7
:101D0000F0E0808184608083E0EBF0E0808181609E
:101D10008083E1E9F0E0808182608083808181605E
:101D20008083E0E9F0E0808181608083E1EAF0E097
:101D3000808182608083808181608083E0EAF0E03E
:101D4000808181608083E1E2F1E080818260808334
:101D5000808181608083E0E2F1E080818160808326
:101D6000EAE7F0E080818460808380818260808304
:101D70008081816080838081806880831092C1002F
:101D8000089590E0FC013197E231F10508F04CC074
:101D9000E758FF4F0C94F317809180008F7703C0B2
:101DA000809180008F7D80938000089580918000D5
:101DB000877FF9CF84B58F7702C084B58F7D84BDCE
:101DC00008958091B0008F7703C08091B0008F7D1F
:101DD0008093B0000895809190008F7707C0809124
:101DE00090008F7D03C080919000877F809390004A
:101DF00008958091A0008F7707C08091A0008F7D0B
:101E000003C08091A000877F8093A00008958091F7
:101E100020018F7707C0809120018F7D03C08091C2
:101E20002001877F809320010895CF93DF9390E076
:101E3000FC01EC50FE4F2491FC01E65CFD4F8491C7
:101E4000882349F190E0880F991FFC01EC54FD4F65
:101E5000A591B49186569D4FFC01C591D4919FB731
:101E6000611108C0F8948C91209582238C9388810D
:101E700082230AC0623051F4F8948C91322F30954D
:101E800083238C938881822B888304C0F8948C915F
:101E9000822B8C939FBFDF91CF9108950F931F9357
:101EA000CF93DF931F92CDB7DEB7282F30E0F90133
:101EB000E255FE4F8491F901EC50FE4F1491F90167
:101EC000E65CFD4F04910023C9F0882321F069836B
:101ED0000E94C10E6981E02FF0E0EE0FFF1FE65671
:101EE000FD4FA591B4919FB7F8948C91611103C0F7
:101EF0001095812301C0812B8C939FBF0F90DF91A0
:101F0000CF911F910F910895CF93DF93282F30E049
:101F1000F901E255FE4F8491F901EC50FE4FD49146
:101F2000F901E65CFD4FC491CC2391F081110E9430
:101F3000C10EEC2FF0E0EE0FFF1FE058FD4FA59112
:101F4000B4912C912D2381E090E021F480E002C037
:101F500080E090E0DF91CF910895FC01818D228D8A
:101F600090E0805C9F4F821B91098F7399270895A1
:101F7000FC01918D828D981731F0828DE80FF11D53
:101F8000858D90E008958FEF9FEF0895FC01918D6E
:101F9000828D981761F0828DDF01A80FB11D5D96CB
:101FA0008C91928D9F5F9F73928F90E008958FEF39
:101FB0009FEF089581E891E1892B41F080E090E066
:101FC000892B21F00E948111811125C080E090E0D1
:101FD000892B41F080E090E0892B21F00E940000E5
:101FE00081111CC080E090E0892B41F080E090E0FE
:101FF000892B21F00E940000811113C08EE292E132
:10200000892BA1F080E090E0892B81F00E942E12B4
:1020100081110AC008950E940000D8CF0E940000DC
:10202000E1CF0E940000EACF0C9400000895FC016B
:10203000848DDF01A80FB11DA35ABF4F2C91848D51
:1020400090E001968F739927848FA689B7892C9386
:10205000A089B1898C9180648C93938D848D981321
:1020600006C00288F389E02D80818F7D80830895EA
:10207000CF93DF93EC01888D8823C9F0EA89FB892F
:10208000808185FD05C0A889B9898C9186FD0FC026
:102090000FB607FCF5CF808185FFF2CFA889B989FB
:1020A0008C9185FFEDCFCE010E941710E7CFDF9115
:1020B000CF910895CF92DF92FF920F931F93CF930A
:1020C000DF931F92CDB7DEB76C01DC015B969C916C
:1020D0005B975C968C915C97981307C05096ED9136
:1020E000FC915197808185FD32C0F601038D10E08F
:1020F0000F5F1F4F0F731127F02EF601848DF8121A
:1021000011C00FB607FCF9CFD6015096ED91FC91A6
:102110005197808185FFF1CFC60169830E94171016
:102120006981EBCF838DE80FF11DE35AFF4F608388
:10213000D6015B960C935B975296ED91FC91539769
:1021400080818062808381E058968C930DC0D60197
:102150005696ED91FC91579760835096ED91FC91C6
:10216000519780818064808381E090E00F90DF91BF
:10217000CF911F910F91FF90DF90CF900895BF9264
:10218000CF92DF92EF92FF92CF93DF93EC016A013F
:102190007B01B22EE889F98982E08083411581EEC6
:1021A000580761057105A1F060E079E08DE390E0EA
:1021B000A70196010E94B217215031094109510926
:1021C0005695479537952795211580E1380798F062
:1021D000E889F989108260E874E88EE190E0A7014F
:1021E00096010E94B21721503109410951095695B3
:1021F000479537952795EC85FD853083EE85FF85DE
:102200002083188EEC89FD89B082EA89FB89808160
:1022100080618083EA89FB89808188608083EA8984
:10222000FB89808180688083EA89FB8980818F7D3A
:102230008083DF91CF91FF90EF90DF90CF90BF90A0
:1022400008951F920F920FB60F9211240BB60F92A2
:102250002F938F939F93EF93FF93E091BA03F091A5
:10226000BB038081E091C003F091C10382FD12C0E5
:1022700090818091C3038F5F8F732091C403821775
:1022800051F0E091C303F0E0E655FC4F958F809349
:10229000C30301C08081FF91EF919F918F912F9196
:1022A0000F900BBE0F900FBE0F901F9018951F92AE
:1022B0000F920FB60F9211240BB60F922F933F93EC
:1022C0004F935F936F937F938F939F93AF93BF933E
:1022D000EF93FF938AEA93E00E941710FF91EF912A
:1022E000BF91AF919F918F917F916F915F914F912E
:1022F0003F912F910F900BBE0F900FBE0F901F902C
:1023000018958AEA93E00E94AD0F21E0892B09F429
:1023100020E0822F08951092AD031092AC0388EE56
:1023200093E0A0E0B0E08093AE039093AF03A0935E
:10233000B003B093B10382E593E09093AB03809335
:10234000AA0385EC90E09093B7038093B60384ECE6
:1023500090E09093B9038093B80380EC90E0909361
:10236000BB038093BA0381EC90E09093BD0380930C
:10237000BC0382EC90E09093BF038093BE0386EC95
:1023800090E09093C1038093C0031092C303109216
:10239000C4031092C5031092C60308951F920F92B2
:1023A0000FB60F9211240BB60F922F938F939F931A
:1023B000EF93FF93E0915704F09158048081E091EE
:1023C0005D04F0915E0482FD12C0908180916004F2
:1023D0008F5F8F7320916104821751F0E091600448
:1023E000F0E0E95BFB4F958F8093600401C0808132
:1023F000FF91EF919F918F912F910F900BBE0F90B6
:102400000FBE0F901F9018951F920F920FB60F924C
:1024100011240BB60F922F933F934F935F936F93BB
:102420007F938F939F93AF93BF93EF93FF9387E433
:1024300094E00E941710FF91EF91BF91AF919F918F
:102440008F917F916F915F914F913F912F910F905D
:102450000BBE0F900FBE0F901F90189587E494E06D
:102460000E94AD0F21E0892B09F420E0822F08950E
:1024700010924A041092490488EE93E0A0E0B0E084
:1024800080934B0490934C04A0934D04B0934E045E
:1024900082E593E0909348048093470485E391E0BC
:1024A000909354048093530484E391E090935604F2
:1024B0008093550480E391E09093580480935704EF
:1024C00081E391E090935A048093590482E391E070
:1024D00090935C0480935B0486E391E090935E04A8
:1024E00080935D0410926004109261041092620463
:1024F00010926304089508950E945F0E0E947B125B
:102500000E942D02CAEDDFE00E9438022097E1F31D
:102510000E94DA0FF9CFCF92DF92EF92FF920F93E2
:102520001F93CF93DF936C017A01EB01E60EF71E48
:1025300000E010E0CE15DF0561F06991D601ED9164
:10254000FC910190F081E02DC6011995080F191F2B
:10255000F1CFC801DF91CF911F910F91FF90EF90C4
:10256000DF90CF9008956115710581F0DB010D902A
:102570000020E9F7AD0141505109461B570BDC0122
:10258000ED91FC910280F381E02D199480E090E0C0
:102590000895DC01ED91FC91DB0114964D915C9165
:1025A00015976D917C910280F381E02D19940C9424
:1025B000B312DC01ED91FC910190F081E02D1994B2
:1025C0000F931F93CF93DF93EC016DE00E94D9121C
:1025D0008C016AE0CE010E94D912800F911FDF9119
:1025E000CF911F910F9108950F931F93CF93DF9376
:1025F000EC010E94C9128C01CE010E94E012800FF2
:10260000911FDF91CF911F910F9108950F931F9309
:10261000CF93DF93EC010E94B3128C01CE010E9494
:10262000E012800F911FDF91CF911F910F910895BC
:102630008F929F92AF92BF92CF92DF92EF92FF92D2
:102640000F931F93CF93DF93CDB7DEB7A1970FB64C
:10265000F894DEBF0FBECDBF7C01C42EE52FCB01A9
:10266000D22E19A221E02D1510F02AE0D22E8E01D3
:102670000F5D1F4F8D2C912CA12CB12C6C2D7E2F1A
:10268000A50194010E94B2178C2DD29E80191124AD
:10269000015011098A3014F4805D01C0895CF80191
:1026A0008083211531054105510521F0C22EE32F0C
:1026B000CA01E4CFB801C7010E94B312A1960FB6B8
:1026C000F894DEBF0FBECDBFDF91CF911F910F9168
:1026D000FF90EF90DF90CF90BF90AF909F908F9042
:1026E0000895CF92DF92EF92FF920F931F93CF93B3
:1026F000DF93EC016A017B012115310579F4E88152
:10270000F9810190F081E02D642FDF91CF911F912D
:102710000F91FF90EF90DF90CF9019942A30310500
:10272000E9F477FF1AC06DE20E94D9128C014427A8
:102730005527BA014C195D096E097F092AE0CE01BF
:102740000E941813800F911FDF91CF911F910F915D
:10275000FF90EF90DF90CF9008952AE0B701A60197
:10276000CE01DF91CF911F910F91FF90EF90DF90FD
:10277000CF900C9418130F931F93CF93DF93EC011A
:102780009A01AB01662757FD6095762F0E94711361
:102790008C01CE010E94E012800F911FDF91CF913A
:1027A0001F910F910895FC01808191810C949518DF
:1027B000CF93DF93EC0188819981009711F00E94FB
:1027C0009518198218821D821C821B821A82DF9141
:1027D000CF9108950F931F93CF93DF93EC018B015B
:1027E0006F5F7F4F888199810E942419009731F093
:1027F000998388831B830A8381E001C080E0DF9195
:10280000CF911F910F910895CF93DF93EC018881B1
:102810009981892B29F08A819B818617970760F41B
:10282000CE010E94EA13882341F08C819D81892B7F
:1028300019F4E881F981108281E0DF91CF91089548
:10284000EF92FF920F931F93CF93DF93EC017B01E5
:102850008A01BA010E940414811104C0CE010E94B1
:10286000D81307C01D830C83B701888199810E940A
:102870003D1ACE01DF91CF911F910F91FF90EF9004
:102880000895FC0111821082138212821582148233
:102890006115710559F0FB0101900020E9F7AF01C6
:1028A00041505109461B570B0C9420140895CF93A7
:1028B000DF93EC01FB018617970761F0608171815E
:1028C0006115710529F0448155810E94201402C0D0
:1028D0000E94D813CE01DF91CF910895CF93DF935B
:1028E000EC016115710561F0FB0101900020E9F731
:1028F000AF0141505109461B570B0E94201402C0E2
:102900000E94D813CE01DF91CF910895CF93DF932A
:102910001F921F92CDB7DEB7FC0111821082138285
:1029200012821582148269831A82BE016F5F7F4F03
:102930000E946E140F900F90DF91CF9108950F9326
:102940001F93CF93DF93CDB7DEB762970FB6F8949E
:10295000DEBF0FBECDBF8C01CB01F801118210820A
:10296000138212821582148250E0BE016F5F7F4F86
:102970000E94441ABE016F5F7F4FC8010E946E140F
:1029800062960FB6F894DEBF0FBECDBFDF91CF9138
:102990001F910F910895EF92FF920F931F93CF9382
:1029A000DF93EC017B010C811D816115710511F430
:1029B00080E016C04115510591F0040F151FB801B4
:1029C0000E9404148823A1F3288139818C819D8180
:1029D000B701820F931F0E943D1A1D830C8381E073
:1029E000DF91CF911F910F91FF90EF900895CF93BA
:1029F000DF931F921F92CDB7DEB769831A8241E041
:102A000050E0BE016F5F7F4F0E94CB140F900F907C
:102A1000DF91CF910895CF93DF93EC01FB014481C7
:102A20005581608171810E94CB14811103C0CE0158
:102A30000E94D813CE01DF91CF910895CF93DF93F9
:102A4000EC016115710569F0FB0101900020E9F7C7
:102A5000AF0141505109461B570B0E94CB14811105
:102A600003C0CE010E94D813CE01DF91CF9108950B
:102A7000FC01848195816817790720F48081918118
:102A8000009729F41092E40484EE94E00895860FF0
:102A9000971F0895BF92CF92DF92EF92FF920F930C
:102AA0001F93CF93DF936C017B01EA018901241707
:102AB000350720F48D2FE901042F182F6DEC72E0FB
:102AC000C6010E944114D70114968D919C911597CF
:102AD000C817D907C8F48017910708F48C01D701EB
:102AE000ED91FC911197E00FF11FB08010826D9174
:102AF0007C916C0F7D1FC6010E946E14D701ED9171
:102B0000FC91E00FF11FB082C601DF91CF911F91C0
:102B10000F91FF90EF90DF90CF90BF900895FC0150
:102B200080819181009711F00C940D1A60E070E0A3
:102B3000CB01089508955058BB27AA270ED071C124
:102B400062D130F067D120F031F49F3F11F41EF4D0
:102B500057C10EF4E095E7FB4DC1E92F73D180F327
:102B6000BA17620773078407950718F071F49EF58A
:102B70008BC10EF4E0950B2EBA2FA02D0B01B901DD
:102B800090010C01CA01A0011124FF27591B99F0E3
:102B9000593F50F4503E68F11A16F040A22F232FEF
:102BA000342F4427585FF3CF469537952795A7953F
:102BB000F0405395C9F77EF41F16BA0B620B730BE6
:102BC000840BBAF09150A1F0FF0FBB1F661F771F57
:102BD000881FC2F70EC0BA0F621F731F841F48F40C
:102BE000879577956795B795F7959E3F08F0B3CF92
:102BF0009395880F08F09927EE0F9795879508957C
:102C00000CD00FC107D140F0FED030F021F45F3F6F
:102C100019F0F0C0511139C1F3C014D198F39923C0
:102C2000C9F35523B1F3951B550BBB27AA27621790
:102C30007307840738F09F5F5F4F220F331F441FD5
:102C4000AA1FA9F333D00E2E3AF0E0E830D091500D
:102C50005040E695001CCAF729D0FE2F27D0660FFA
:102C6000771F881FBB1F261737074807AB07B0E839
:102C700009F0BB0B802DBF01FF2793585F4F2AF04F
:102C80009E3F510568F0B6C000C15F3FECF3983E2F
:102C9000DCF3869577956795B795F7959F5FC9F7AC
:102CA000880F911D9695879597F90895E1E0660F35
:102CB000771F881FBB1F621773078407BA0720F0AE
:102CC000621B730B840BBA0BEE1F88F7E095089517
:102CD00004D06894B111D9C00895BCD088F09F5732
:102CE00090F0B92F9927B751A0F0D1F0660F771F58
:102CF000881F991F1AF0BA95C9F712C0B13081F038
:102D0000C3D0B1E00895C0C0672F782F8827B85F7F
:102D100039F0B93FCCF3869577956795B395D9F798
:102D20003EF490958095709561957F4F8F4F9F4FA2
:102D30000895E89409C097FB3EF4909580957095AE
:102D400061957F4F8F4F9F4F9923A9F0F92F96E9F7
:102D5000BB279395F695879577956795B795F1116C
:102D6000F8CFFAF4BB0F11F460FF1BC06F5F7F4F09
:102D70008F4F9F4F16C0882311F096E911C077231B
:102D800021F09EE8872F762F05C0662371F096E824
:102D9000862F70E060E02AF09A95660F771F881FF3
:102DA000DAF7880F9695879597F90895990F000897
:102DB000550FAA0BE0E8FEEF16161706E807F9070D
:102DC000C0F012161306E407F50798F0621B730BA8
:102DD000840B950B39F40A2661F0232B242B252B29
:102DE00021F408950A2609F4A140A6958FEF811DCC
:102DF000811D089597F99F6780E870E060E008956D
:102E00009FEF80EC089500240A9416161706180602
:102E10000906089500240A941216130614060506DE
:102E20000895092E0394000C11F4882352F0BB0F6F
:102E300040F4BF2B11F460FF04C06F5F7F4F8F4FD2
:102E40009F4F089557FD9058440F551F59F05F3F0D
:102E500071F04795880F97FB991F61F09F3F79F0BC
:102E600087950895121613061406551FF2CF46953E
:102E7000F1DF08C0161617061806991FF1CF8695C0
:102E80007105610508940895E894BB2766277727A4
:102E9000CB0197F908958ADF08F48FEF08950BD0DE
:102EA000C0CFB1DF28F0B6DF18F0952309F0A2CF2C
:102EB000A7CF1124EACFC6DFA0F3959FD1F3950FDA
:102EC00050E0551F629FF001729FBB27F00DB11DAE
:102ED000639FAA27F00DB11DAA1F649F6627B00D3E
:102EE000A11D661F829F2227B00DA11D621F739F27
:102EF000B00DA11D621F839FA00D611D221F749F35
:102F00003327A00D611D231F849F600D211D822F7B
:102F1000762F6A2F11249F5750408AF0E1F08823C2
:102F20004AF0EE0FFF1FBB1F661F771F881F9150CF
:102F30005040A9F79E3F510570F05CCFA6CF5F3F90
:102F4000ECF3983EDCF3869577956795B795F79502
:102F5000E7959F5FC1F7FE2B880F911D969587958A
:102F600097F90895A1E21A2EAA1BBB1BFD010DC003
:102F7000AA1FBB1FEE1FFF1FA217B307E407F50729
:102F800020F0A21BB30BE40BF50B661F771F881F05
:102F9000991F1A9469F760957095809590959B019B
:102FA000AC01BD01CF010895052E97FB1EF40094DE
:102FB0000E94EB1757FD07D00E94B21707FC03D001
:102FC0004EF40C94EB1750954095309521953F4F5A
:102FD0004F4F5F4F089590958095709561957F4F05
:102FE0008F4F9F4F0895EE0FFF1F0590F491E02D36
:102FF00019940790F691E02D1994CF93DF938230C6
:10300000910510F482E090E0E091E704F091E8048B
:1030100020E030E0A0E0B0E0309739F1408151810C
:1030200048175907B8F04817590771F482819381FE
:10303000109729F013969C938E9312972CC090931F
:10304000E8048093E70427C02115310531F04217C9
:10305000530718F0A901DB0101C0EF019A01BD017E
:10306000DF010280F381E02DD7CF21153105F9F082
:10307000281B390B2430310580F48A819B8161152E
:10308000710521F0FB019383828304C09093E804CF
:103090008093E704FE01329644C0FE01E20FF31F65
:1030A0008193919322503109398328833AC020912A
:1030B000E5043091E604232B41F420910202309183
:1030C00003023093E6042093E5042091000230913E
:1030D00001022115310541F42DB73EB7409104029C
:1030E00050910502241B350BE091E504F091E604B4
:1030F000E217F307A0F42E1B3F0B2817390778F0CF
:10310000AC014E5F5F4F2417350748F04E0F5F1F2D
:103110005093E6044093E5048193919302C0E0E06C
:10312000F0E0CF01DF91CF910895CF93DF93009727
:1031300009F487C0FC01329713821282C091E70420
:10314000D091E804209781F420813181280F391F24
:103150008091E5049091E6048217930779F5F09346
:10316000E604E093E5046DC0DE0120E030E0AE1738
:10317000BF0750F412964D915C9113979D01411534
:10318000510509F1DA01F3CFB383A2834081518164
:10319000840F951F8A179B0771F48D919C9111974D
:1031A000840F951F02969183808312968D919C9136
:1031B0001397938382832115310529F4F093E80452
:1031C000E093E7043EC0D9011396FC93EE93129767
:1031D0004D915D91A40FB51FEA17FB0779F480812B
:1031E0009181840F951F0296D90111969C938E931D
:1031F0008281938113969C938E931297E0E0F0E086
:103200008A819B81009719F0FE01EC01F9CFCE0174
:10321000029628813981820F931F2091E504309115
:10322000E6042817390769F4309729F41092E80466
:103230001092E70402C013821282D093E604C09376
:10324000E504DF91CF9108956F927F928F929F92C4
:10325000AF92BF92CF92DF92EF92FF920F931F93A4
:10326000CF93DF93EC01CB01209781F4DF91CF91D5
:103270001F910F91FF90EF90DF90CF90BF90AF9094
:103280009F908F907F906F900C94FD17FE01E60F3A
:10329000F71F9E0122503109E217F30708F4ACC072
:1032A000D9010D911C91119706171707B8F0053039
:1032B000110508F49FC0A80144505109461757074B
:1032C00008F498C002501109061B170B01931193C3
:1032D0006D937C93CF010E9495188CC05B01A01A5E
:1032E000B10A4E01800E911EA091E704B091E8044E
:1032F000612C712C60E070E0109709F449C0A815AA
:10330000B905C9F5ED90FC901197670142E0C40E34
:10331000D11CCA14DB0478F147018A189B086401A8
:1033200042E0C40ED11C1296BC9012971396AC9139
:10333000B5E0CB16D10440F0B282A38391828082A3
:10334000D9018D939C9309C00E5F1F4F0E0D1F1D59
:10335000F90111830083EB2DFA2F6115710531F00E
:10336000DB011396FC93EE93129744C0F093E804AC
:10337000E093E7043FC06D917C9111976616770644
:1033800008F43B01BD0112960D90BC91A02DB4CF65
:103390006091E5047091E60468157905E9F4681612
:1033A0007906D0F440910002509101024115510577
:1033B00041F44DB75EB76091040270910502461B5F
:1033C000570BE417F507C0F4F093E604E093E50427
:1033D000F901918380830EC00E94FD177C01009744
:1033E00059F0A801BE010E94341ACE010E9495181E
:1033F000C70104C0CE0102C080E090E0DF91CF9110
:103400001F910F91FF90EF90DF90CF90BF90AF9002
:103410009F908F907F906F9008951F93FC01992744
:103420008827BC01E89411911032E9F3193010F0AB
:103430001E30C8F31B3251F01D3249F4689406C0A7
:103440000E945A1A610F711D811D911D1191105317
:103450001A30B0F33EF490958095709561957F4F4A
:103460008F4F9F4F1F910895FB01DC0102C0019017
:103470000D9241505040D8F70895FB01DC010190B6
:103480000D920020E1F708954532510520F44230B5
:1034900010F00C944F1AFB011082CB010895BB274A
:1034A0004A3031F4992322F4BDE2909581959F4FE3
:1034B0000C94701A592F482F372F262F660F771F1D
:1034C000881F991F660F771F881F991F620F731F30
:1034D000841F951F660F771F881F991F0895BB27AC
:1034E000FB015527AA27880F991FAA1FA41710F0C0
:1034F000A41B83955051B9F7A05DAA3308F0A95DCC
:10350000A193009779F7B111B1931192CB010C946B
:10351000891ADC01FC01672F71917723E1F732975B
:1035200004C07C916D9370836291AE17BF07C8F39E
:10353000089512E0C4EDD2E000E006C02297010930
:10354000FE010BBF0E94F917C63DD10780E00807B6
:06355000A9F7F894FFCF7B
:103556000000E90480002441500024444630300035
:103566002444463000244446004465706C6F7969F3
:103576006E67205465746865720044726976696E78
:10358600670053706F6F6C696E672052656D616975
:103596006E646572002444445000456E746572651D
:1035A60064204175746F2052617070656C20436FA2
:1035B6006D6D616E64002452305000476574746905
:1035C6006E672044657074682066726F6D20435282
:1035D600002452440A005265636569766564204991
:1035E6006E697469616C20446570746800456E7418
:1035F6006572696E672052617070656C204C6F6FE2
:103606007000526573656E64696E6720636F6D6DD9
:10361600616E6420746F2043522E2E2E0A0046617E
:10362600696C656420746F20636F6D6D756E696378
:1036360061746520776974682043520024523046CD
:1036460000244454470A0054657468657220446532
:10365600706C6F79656400244454530A0043522009
:1036660053746F7070656400435220496E20526532
:1036760076657273650024445452410A002444540A
:10368600500A00244454460A002444500A00245296
:10369600300A00245255500A002453500A000000F4
:0E36A60000005A108B12AD0FC60FB80F38106F
:00000001FF
