:100000000C946B010C9415090C9446090C94770917
:100010000C94A8090C94D9090C940A0A0C943B0A74
:100020000C946C0A0C949C010C949C010C949C0103
:100030000C949C010C949C010C949C010C949C01CC
:100040000C949C010C940F040C949C010C949C0146
:100050000C949C010C949C010C949C010C949D0AA2
:100060000C949C010C94000E0C94360E0C949C0184
:100070000C949C010C949C010C949C010C949C018C
:100080000C949C010C949C010C949C010C94E10335
:100090000C949C010C949C010C949C010C949C016C
:1000A0000C949C010C949C010C949C010C949C015C
:1000B0000C949C010C949C010C949C010C949C014C
:1000C0000C949C010C949C010C949C010C949C013C
:1000D0000C949C010C949C010C94AD0E0C94E30EBA
:1000E0000C949C01EF08B908C108CD08DA08FB0898
:1000F0000809B90BBC0BAB0BAF0BB50BF30BC00B6B
:10010000C40BCA0BCE0BD20BD80BDC0BE00BF30BE2
:10011000E60BEA0BEE0B0C94DC0B0C94E60B0C9448
:10012000E00B0C94A50C0C9429020C9425040C945F
:100130006A0E0C94C00B0C94C1080C94C40B0C9464
:10014000BC0B0C94B9080C94EA0B0C94AF0B0C94F8
:1001500019040C94600E0C94B50B0C94EF080C94DD
:10016000CD080C94D20B0C946A0F0C940D0F0C94C8
:10017000B90B0C94170F0C94AB0B0C94B90C0C949A
:10018000DA080C94FB080C94CA0B0C94F30B0C9437
:10019000170D0C94390D0C94CE0B0C94970C0C94F9
:1001A0008C0C0C94D80B0C9408090C94EE0B0000EA
:1001B0000A0B02090C0D0E080703040100000000E1
:1001C000000000000000000000000000000000002F
:1001D00000000000000000000000121110000000EC
:1001E000000000000000000000000000000000000F
:1001F00000000000010210202008081020401020FC
:1002000040800201020108040201010204081020DA
:1002100040808040201008040201800402018040D8
:100220002010080402010804020101020408102041
:1002300040800102040810204080050505050705DF
:1002400008080808020202020A0A08080404040452
:10025000010101010101010103030303030303037E
:10026000040707070C0C0C0C0C0C0C0C020202020D
:1002700006060606060606060B0B0B0B0B0B0B0BF6
:10028000000020002300260029002C002F0032004F
:100290000001000003010601090100002200250001
:1002A00028002B002E00310034000201000005015F
:1002B00008010B0100002100240027002A002D0066
:1002C0003000330001010000040107010A01190494
:1002D0006A0E170F250411241FBECFEFD1E2DEBF37
:1002E000CDBF00E00CBF12E0A0E0B2E0E6ECFFE220
:1002F00000E00BBF02C007900D92AA37B107D9F7F3
:1003000024E0AAE7B2E001C01D92A530B207E1F7F0
:1003100012E0C4EDD2E000E006C022970109FE0120
:100320000BBF0E94F514CE3CD10780E00807A9F767
:100330000E945B0F0C94D1170C940000EF92FF9277
:100340000F931F93CF93DF931F92CDB7DEB77C013E
:10035000FC01718360835383428326873787048738
:100360001587148215821682178260E0802F2983F8
:100370000E94F40B61E0802F0E942D0C60E0298127
:10038000822F0E94F40BF701108A0F90DF91CF911A
:100390001F910F91FF90EF900895FC018089448197
:1003A000558166817781882329F04150510961097F
:1003B000710904C04F5F5F4F6F4F7F4F4483558378
:1003C000668377830895CF92DF92EF92FF92CF9367
:1003D000DF93EC016C817D818E819F810E94971358
:1003E0009B01AC010E9498122BED3FE049E450E4E0
:1003F0000E944B146B017C016A817B81882777FD09
:100400008095982F0E9497139B01AC01C701B601FC
:100410000E94FC122DEC3CEC44E751E40E94FC12DB
:1004200023E333E343E950E40E944B140E94641336
:10043000CB01DF91CF91FF90EF90DF90CF900895A7
:10044000FC0164817581868197810895FC01608B30
:1004500008958AE792E00C94DE038AE792E00E9416
:100460003C0242E050E069E272E082E00C94A408B1
:100470008AE792E00C947B070F931F93CF93DF934F
:10048000EC0161E08DE00E94F40B10929000E1E934
:10049000F0E01082109295001092940080818460A8
:1004A0008083E1E7F0E080818160808327E030E0B5
:1004B00048E050E061E070E08EE992E00E94C10700
:1004C00005E110E02EE130E04CE251E062E070E046
:1004D000CE010E960E949E0119A218A21BA21AA27A
:1004E00026E040E052EC61E070E086EC92E00E9491
:1004F0009E0D26E040E052EC61E070E083E693E080
:100500000E949E0D1E8261E472E0CE010E9456118F
:100510001D8661E472E0CE0107960E94561180E3C9
:100520008F8FDF91CF911F910F910895CF92DF921E
:10053000EF92FF920F931F93CF93DF93CDB7DEB768
:100540002C970FB6F894DEBF0FBECDBF7C016B01B8
:10055000FC0182A193A1C80ED91E8701025F1F4F23
:1005600060E0C8010E94260260E070E08EE992E03F
:100570000E94320860E47FE18EE992E00E941D084B
:100580008EE992E00E943808F70182A193A18C15B0
:100590009D0584F464E670E080E090E00E94160B14
:1005A000C8010E942002C8010E94E301F70193A341
:1005B00082A3EACFC8010E942002AB01BC012AE05D
:1005C000CE0107960E949A1166E072E0CE01019674
:1005D0000E942011BE01695F7F4FCE0101960E94EB
:1005E0000712BC0186EC92E00E94D30FCE01019667
:1005F0000E94B210CE0107960E94B2108EE992E0DE
:100600000E9445082C960FB6F894DEBF0FBECDBFF2
:10061000DF91CF911F910F91FF90EF90DF90CF90DE
:100620000895EF92FF920F931F93CF93DF93EC0106
:100630000AA11BA1061B170B61E070E08EE992E096
:100640000E9432087E018EE0E80EF11C61E0C701D5
:100650000E94260268EE73E08EE992E00E941D0877
:100660008EE992E00E9438088AA19BA10817190719
:1006700034F4C7010E94E3019BA38AA3F5CF8EE95E
:1006800092E0DF91CF911F910F91FF90EF900C942A
:1006900045080F931F93CF93DF938B0164EF71E0B5
:1006A00080E090E00E94160BC0E0D0E0C017D107B8
:1006B00004F560E08DE00E942D0C6AEF70E080E0B0
:1006C00090E00E94160B61E08DE00E942D0C6AEF15
:1006D00070E080E090E00E94160B60E08DE00E94E8
:1006E0002D0C6AEF70E080E090E00E94160B2196DE
:1006F000DDCFDF91CF911F910F910895CF92DF92BF
:10070000EF92FF920F931F93CF93DF93CDB7DEB796
:100710002C970FB6F894DEBF0FBECDBF8C0161E4FD
:1007200072E0CE0107960E94201163E070E0C801DC
:100730000E94490327E030E044E050E0B801CE01D8
:1007400001960E944612BE016F5F7F4FCE01079651
:100750000E943611CE0101960E94B210CE0107967A
:100760000E948B126B017C0163E070E0C8010E9463
:100770003412FC018081B6018B3221F4C8010E9441
:10078000960203C0C8010E9411036FE072E086EC7C
:1007900092E00E94E50FCE0107960E94B2102C96BF
:1007A0000FB6F894DEBF0FBECDBFDF91CF911F9182
:1007B0000F91FF90EF90DF90CF9008950E960C94DC
:1007C000CD011F920F920FB60F9211240BB60F920C
:1007D0002F933F934F935F936F937F938F939F9349
:1007E000AF93BF93EF93FF938DE00E94630C61E0A2
:1007F00068278DE00E942D0CFF91EF91BF91AF9182
:100800009F918F917F916F915F914F913F912F9128
:100810000F900BBE0F900FBE0F901F9018951F9258
:100820000F920FB60F9211240F900FBE0F901F90D2
:10083000189561E472E08AE792E00E94201161E479
:1008400072E081E892E00C94201181E892E00E942D
:10085000B2108AE792E00C94B2101F93CF93DF930B
:10086000CDB7DEB762970FB6F894DEBF0FBECDBF2F
:100870004AE0CE0107960E946E1163E172E0CE015C
:1008800001960E942011BE01695F7F4FCE01019643
:100890000E94071260E472E00E941A12BC01CE01AD
:1008A0000D960E944D11CE0101960E94B210CE010C
:1008B00007960E94B210BE01635F7F4F83E693E00C
:1008C0000E94A80F83E693E00E948C0C892BD1F341
:1008D00069E170E080E090E00E94160B10E086EC89
:1008E00092E00E948C0C1816190644F483E693E0FB
:1008F0000E94A50C843299F711E0F1CF112311F376
:10090000CE010D960E94B21062960FB6F894DEBF2B
:100910000FBECDBFDF91CF911F9108950F931F930D
:10092000CF93DF93EC018C01025F1F4FC8010E943F
:10093000E3018435910534F465E070E0CE010E9456
:100940002D04F4CF66E370E0CE010E94960267E1C9
:1009500072E086EC92E0DF91CF911F910F910C94A1
:10096000E50FFF920F931F93CF93DF93CDB7DEB7C1
:100970002D970FB6F894DEBF0FBECDBF8C0161E49A
:1009800072E0CE0107960E94201162E070E0C8017B
:100990000E943412FC0180818C3409F466C08235D7
:1009A00009F463C0823409F460C026E030E043E01B
:1009B00050E0B801CE0101960E944612BE016F5F61
:1009C0007F4FCE0107960E943611CE0101960E94FC
:1009D000B210CE0107960E948B12695F7F4FC8014B
:1009E0000E949602B80183E693E00E94A80F83E676
:1009F00093E00E948C0C892BD1F369E170E080E0D8
:100A000090E00E94160BFF24F394095F1F4F83E6CA
:100A100093E00E948C0C18161906CCF783E693E03D
:100A20000E94A50C282F682F843239F0FF2029F06E
:100A300086EC92E00E94B80FEACFC8012D870E9491
:100A4000F3112D852A3079F4B80186EC92E00E94EA
:100A5000A80F86EC92E00E94170D61E472E0C801D5
:100A60000E94561102C0F12CD2CFCE0107960E94EF
:100A7000B2102D960FB6F894DEBF0FBECDBFDF913A
:100A8000CF911F910F91FF900895CF93DF93EC01C9
:100A900064E070E00E944903BE0183E693E00E9497
:100AA000A80F83E693E00E94170D83E693E00E946F
:100AB0008C0C18161906CCF783E693E00E94A50C5F
:100AC000C82F682F86EC92E00E94B80FCA3069F7F1
:100AD00086EC92E0DF91CF910C94170D4F925F92CC
:100AE0006F927F929F92AF92BF92CF92DF92EF92DE
:100AF000FF920F931F93CF93DF93CDB7DEB7689725
:100B00000FB6F894DEBF0FBECDBF8C0161E472E07A
:100B1000CE0143960E94201161E472E0CE010D9651
:100B20000E9420116CE172E0CE0107960E94201114
:100B300027E030E044E050E0B801CE0101960E9489
:100B40004612BE016F5F7F4FCE0143960E94361161
:100B5000CE0101960E94B210CE0143960E948B12E4
:100B60006B017C015B0163E070E0C8010E943412FC
:100B7000FC0180818D3239F4AA24BB24AC18BD0855
:100B800061E070E002C060E070E08EE992E00E94F7
:100B90003208F801E0A0F1A0EA0CFB1CF4E1EF1A26
:100BA000F10860E971E08EE992E00E9451088EE957
:100BB00092E00E94380861E272E083E693E00E94CE
:100BC000B60F83E693E00E948C0C892BD1F3C80109
:100BD00007966C01AA24A39483E693E00E948C0CF0
:100BE000181619067CF483E693E00E94A50CB82E33
:100BF000682FC6010E94F3119AE0B912EDCFF801F7
:100C0000A586EACF26E030E043E050E0B601CE0111
:100C100001960E944612BE016F5F7F4FCE010D9676
:100C20000E943611CE0101960E94B210CE010D969F
:100C30000E948B12F80171A360A34AE050E086EC99
:100C400092E00E949A1099249394F80180A191A1B6
:100C50008E159F050CF0CCC0809180008F7B809317
:100C6000800061E272E083E693E00E94B60F80911B
:100C700080008064809380000E94E70A2B013C0181
:100C8000A12CB12C83E693E00E948C0C892B89F572
:100C90000E94E70A6419750986099709613D774042
:100CA000810591057CF366E272E086EC92E00E9499
:100CB000B60F2FEFA21AB20AF89461E272E083E64F
:100CC00093E00E94B60F78940E94E70A2B013C0142
:100CD00084E0A816B104B1F662E472E086EC92E01A
:100CE0000E94E50F60E672E0CE0107960E94561161
:100CF0007FC069E170E080E090E00E94160B83E61F
:100D000093E00E948C0C83E693E00E948C0C1816F2
:100D100019067CF483E693E00E94A50CB82E682F98
:100D2000C6010E94F3119AE0B912EDCFF801958641
:100D3000EACF789426E030E043E050E0B601CE01FF
:100D400001960E944612BE016F5F7F4FCE010D9645
:100D50000E943611CE0101960E94B21061E472E049
:100D6000C6010E945611CE010D960E948B12F80109
:100D700071A360A34AE050E086EC92E00E949A10D2
:100D8000F80180A191A18E159F053CF060E971E00A
:100D90008EE992E00E9451082BC0B701681B790BC5
:100DA000882777FD8095982F0E9497132B013C018F
:100DB00020E030E040EA51E40E94471418161CF489
:100DC00060E47FE110C020E030E04EEB53E4C3016B
:100DD000B2010E944B1420E030E048EC53E40E9442
:100DE00098120E9464138EE992E00E941D082DCF94
:100DF0008EE992E00E944508BE01695F7F4F86EC54
:100E000092E00E94D30F86EC92E00E94170DCE0173
:100E100007960E94B210CE010D960E94B210CE012C
:100E200043960E94B21068960FB6F894DEBF0FBECC
:100E3000CDBFDF91CF911F910F91FF90EF90DF9089
:100E4000CF90BF90AF909F907F906F905F904F90AA
:100E5000089562E070E00E94490365E672E086EC66
:100E600092E00E94B60F86EC92E00C94170DCF939F
:100E7000DF93EC0161E070E00E943412FC0180819C
:100E80008434F1F034F4813471F5CE010E947E0394
:100E900004C0893481F0823531F562E070E0CE0122
:100EA0000E943412FC018081803311F5CE01DF9164
:100EB000CF910C946E05CE01DF91CF910C94450536
:100EC00063E070E0CE010E943412FC018081843422
:100ED00029F4CE01DF91CF910C948E04CE01DF91E5
:100EE000CF910C94B104CE01DF91CF910C942907DE
:100EF000DF91CF9108951F93CF93DF93EC0186ECA0
:100F000092E00E948C0C11E086EC92E00E948C0C26
:100F10001816190674F486EC92E00E94A50C8F8FC7
:100F2000682FCE010E94F3118F8D8A3069F71E83DE
:100F3000EBCF6AEF70E080E090E00E94160B8E81AC
:100F40008823D9F060E070E0CE010E943412FC01E9
:100F50008081843291F48091710080937100CE0180
:100F60000E9437078091710081608093710061E475
:100F700072E0CE010E9456111E82DF91CF911F9127
:100F80000895EF92FF920F931F93CF93DF93EC019D
:100F9000042F122F7983688349875A872B873C87D0
:100FA000882777FD8095982F0E9497132BED3FE0BF
:100FB00049EC50E40E94FC120E9464137B836A8314
:100FC00080E8E82EF12CF7011082E1E8F0E01082D1
:100FD000109285001092840080E991E0909389003E
:100FE0008093880080818860808380818260808394
:100FF00061E08BE00E94F40B61E0802F0E94F40B13
:1010000061E0812F0E94F40BF7018081808360E012
:10101000812F0E942D0C60E08BE00E942D0C81E05E
:1010200090E09D838C8318861E861D86DF91CF916C
:101030001F910F91FF90EF900895882777FD80957D
:10104000982F0E9497139B01AC0160E074E284E743
:1010500099E40E94FC120E946413709389006093CB
:1010600088000895FC016483758381850C942D0CA0
:1010700021E0FC012087E0E8F0E02081206420836B
:1010800060E0FC0183850C942D0CFC011086E0E8E7
:10109000F0E020812F7B208360E0FC0183850C94AD
:1010A0002D0CCF92DF92EF92FF920F931F93CF936D
:1010B000DF93EC018B016115710511F40E94450865
:1010C000B801882777FD8095982F0E9497132DEC03
:1010D0003CEC44E751E40E944B146B017C010E94FC
:1010E00064137F836E836A817B81882777FD809577
:1010F000982F0E9497139B01AC01C701B6010E9473
:101100004B140E94641328EE33E040E050E00E944C
:10111000D01469E07DE380E090E00E94D014CA0121
:10112000B90122E030E040E050E00E94D01430935A
:10113000890020938800DF91CF911F910F91FF903C
:10114000EF90DF90CF900895883008F06DC0E82FC1
:10115000F0E0EE0FFF1FE355FD4F7183608390E0D9
:10116000FC013197E730F10590F5EE58FF4F0C94F4
:10117000EF14809169008C7F842B80936900E89A3A
:10118000089580916900440F551F440F551F837FB8
:10119000842B80936900E99A08958091690074E036
:1011A000440F551F7A95E1F78F7C842B809369005B
:1011B000EA9A08958091690066E0440F551F6A9588
:1011C000E1F78F73842B80936900EB9A08958091E7
:1011D0006A008C7F842B80936A00EC9A089580913A
:1011E0006A00440F551F440F551F837F842B809343
:1011F0006A00ED9A089580916A0024E0440F551F1B
:101200002A95E1F78F7C842B80936A00EE9A0895EB
:1012100080916A0096E0440F551F9A95E1F78F730D
:10122000842B80936A00EF9A08951F920F920FB655
:101230000F9211240BB60F922F933F934F935F930E
:101240006F937F938F939F93AF93BF93EF93FF938E
:101250008091B1029091B202892B29F0E091B10204
:10126000F091B2021995FF91EF91BF91AF919F91CB
:101270008F917F916F915F914F913F912F910F903F
:101280000BBE0F900FBE0F901F9018951F920F92DC
:101290000FB60F9211240BB60F922F933F934F93DB
:1012A0005F936F937F938F939F93AF93BF93EF93CE
:1012B000FF938091B3029091B402892B29F0E091C1
:1012C000B302F091B4021995FF91EF91BF91AF91E4
:1012D0009F918F917F916F915F914F913F912F914E
:1012E0000F900BBE0F900FBE0F901F9018951F927E
:1012F0000F920FB60F9211240BB60F922F933F93BC
:101300004F935F936F937F938F939F93AF93BF930D
:10131000EF93FF938091B5029091B602892B29F04B
:10132000E091B502F091B6021995FF91EF91BF914E
:10133000AF919F918F917F916F915F914F913F916D
:101340002F910F900BBE0F900FBE0F901F9018950E
:101350001F920F920FB60F9211240BB60F922F937C
:101360003F934F935F936F937F938F939F93AF932D
:10137000BF93EF93FF938091B7029091B802892BAE
:1013800029F0E091B702F091B8021995FF91EF9121
:10139000BF91AF919F918F917F916F915F914F918D
:1013A0003F912F910F900BBE0F900FBE0F901F908B
:1013B00018951F920F920FB60F9211240BB60F9231
:1013C0002F933F934F935F936F937F938F939F934D
:1013D000AF93BF93EF93FF938091AD029091AE02D4
:1013E000892B29F0E091AD02F091AE021995FF91A1
:1013F000EF91BF91AF919F918F917F916F915F918D
:101400004F913F912F910F900BBE0F900FBE0F90F9
:101410001F9018951F920F920FB60F9211240BB6C2
:101420000F922F933F934F935F936F937F938F937D
:101430009F93AF93BF93EF93FF938091AF029091EF
:10144000B002892B29F0E091AF02F091B00219951A
:10145000FF91EF91BF91AF919F918F917F916F918C
:101460005F914F913F912F910F900BBE0F900FBE48
:101470000F901F9018951F920F920FB60F92112484
:101480000BB60F922F933F934F935F936F937F937E
:101490008F939F93AF93BF93EF93FF938091B90284
:1014A0009091BA02892B29F0E091B902F091BA0229
:1014B0001995FF91EF91BF91AF919F918F917F917E
:1014C0006F915F914F913F912F910F900BBE0F90B5
:1014D0000FBE0F901F9018951F920F920FB60F928C
:1014E00011240BB60F922F933F934F935F936F93FB
:1014F0007F938F939F93AF93BF93EF93FF938091CD
:10150000BB029091BC02892B29F0E091BB02F091C3
:10151000BC021995FF91EF91BF91AF919F918F916F
:101520007F916F915F914F913F912F910F900BBEE3
:101530000F900FBE0F901F9018951F920F920FB62D
:101540000F9211242F933F938F939F93AF93BF9349
:101550008091BE029091BF02A091C002B091C102E1
:101560003091BD0223E0230F2D3720F40196A11DF9
:10157000B11D05C026E8230F0296A11DB11D2093C1
:10158000BD028093BE029093BF02A093C002B093AD
:10159000C1028091C2029091C302A091C402B09195
:1015A000C5020196A11DB11D8093C2029093C30292
:1015B000A093C402B093C502BF91AF919F918F9148
:1015C0003F912F910F900FBE0F901F9018952FB73E
:1015D000F8946091BE027091BF028091C002909118
:1015E000C1022FBF08953FB7F8948091C202909135
:1015F000C302A091C402B091C50226B5A89B05C044
:101600002F3F19F00196A11DB11D3FBF6627782F0E
:10161000892F9A2F620F711D811D911D42E0660F67
:10162000771F881F991F4A95D1F70895CF92DF92AF
:10163000EF92FF92CF93DF936B017C010E94F30A3C
:10164000EB01C114D104E104F10489F00E94961267
:101650000E94F30A6C1B7D0B683E734090F381E09F
:10166000C81AD108E108F108C851DC4FEACFDF9170
:10167000CF91FF90EF90DF90CF900895789484B54C
:10168000826084BD84B5816084BD85B5826085BD7E
:1016900085B5816085BDEEE6F0E080818160808364
:1016A000E1E8F0E010828081826080838081816047
:1016B0008083E0E8F0E0808181608083E1EBF0E00E
:1016C000808184608083E0EBF0E0808181608083B2
:1016D000E1E9F0E0808182608083808181608083A5
:1016E000E0E9F0E0808181608083E1EAF0E08081E0
:1016F00082608083808181608083E0EAF0E0808185
:1017000081608083E1E2F1E080818260808380817A
:1017100081608083E0E2F1E0808181608083EAE79C
:10172000F0E080818460808380818260808380811A
:10173000816080838081806880831092C1000895D9
:1017400090E0FC013197E231F10508F04CC0E75818
:10175000FF4F0C94EF14809180008F7703C080912D
:1017600080008F7D80938000089580918000877F26
:10177000F9CF84B58F7702C084B58F7D84BD08957D
:101780008091B0008F7703C08091B0008F7D8093EF
:10179000B0000895809190008F7707C080919000ED
:1017A0008F7D03C080919000877F80939000089583
:1017B0008091A0008F7707C08091A0008F7D03C02B
:1017C0008091A000877F8093A000089580912001E0
:1017D0008F7707C0809120018F7D03C08091200109
:1017E000877F809320010895CF93DF9390E0FC01E1
:1017F000EC50FE4F2491FC01E65CFD4F8491882360
:1018000049F190E0880F991FFC01EC54FD4FA59120
:10181000B49186569D4FFC01C591D4919FB761113B
:1018200008C0F8948C91209582238C938881822320
:101830000AC0623051F4F8948C91322F3095832392
:101840008C938881822B888304C0F8948C91822B9E
:101850008C939FBFDF91CF9108950F931F93CF93E8
:10186000DF931F92CDB7DEB7282F30E0F901E255A4
:10187000FE4F8491F901EC50FE4F1491F901E65CA2
:10188000FD4F04910023C9F0882321F069830E9451
:10189000A00B6981E02FF0E0EE0FFF1FE656FD4F31
:1018A000A591B4919FB7F8948C91611103C01095E4
:1018B000812301C0812B8C939FBF0F90DF91CF912B
:1018C0001F910F910895CF93DF93282F30E0F901F6
:1018D000E255FE4F8491F901EC50FE4FD491F9018D
:1018E000E65CFD4FC491CC2391F081110E94A00BC6
:1018F000EC2FF0E0EE0FFF1FE058FD4FA591B491E3
:101900002C912D2381E090E021F480E002C080E062
:1019100090E0DF91CF910895FC01818D228D90E0C0
:10192000805C9F4F821B91098F7399270895FC015A
:10193000918D828D981731F0828DE80FF11D858D84
:1019400090E008958FEF9FEF0895FC01918D828DB7
:10195000981761F0828DDF01A80FB11D5D968C9103
:10196000928D9F5F9F73928F90E008958FEF9FEF0E
:10197000089580E69EE0892B41F080E090E0892B7D
:1019800021F00E94600E811125C080E090E0892B3B
:1019900041F080E090E0892B21F00E94000081114D
:1019A0001CC080E090E0892B41F080E090E0892B22
:1019B00021F00E940000811113C08DE09FE0892B6F
:1019C000A1F080E090E0892B81F00E940D0F811141
:1019D0000AC008950E940000D8CF0E940000E1CF05
:1019E0000E940000EACF0C9400000895FC01848D51
:1019F000DF01A80FB11DA35ABF4F2C91848D90E039
:101A000001968F739927848FA689B7892C93A08913
:101A1000B1898C9180648C93938D848D981306C0CA
:101A20000288F389E02D80818F7D80830895CF9394
:101A3000DF93EC01888D8823C9F0EA89FB898081D6
:101A400085FD05C0A889B9898C9186FD0FC00FB6A8
:101A500007FCF5CF808185FFF2CFA889B9898C91E9
:101A600085FFEDCFCE010E94F60CE7CFDF91CF913D
:101A70000895CF92DF92FF920F931F93CF93DF933E
:101A80001F92CDB7DEB76C01DC015B969C915B9732
:101A90005C968C915C97981307C05096ED91FC91E1
:101AA0005197808185FD32C0F601038D10E00F5FF4
:101AB0001F4F0F731127F02EF601848DF81211C0FD
:101AC0000FB607FCF9CFD6015096ED91FC915197D6
:101AD000808185FFF1CFC60169830E94F60C698180
:101AE000EBCF838DE80FF11DE35AFF4F6083D601E2
:101AF0005B960C935B975296ED91FC915397808186
:101B00008062808381E058968C930DC0D6015696F2
:101B1000ED91FC91579760835096ED91FC91519710
:101B200080818064808381E090E00F90DF91CF918D
:101B30001F910F91FF90DF90CF900895BF92CF92A9
:101B4000DF92EF92FF92CF93DF93EC016A017B016A
:101B5000B22EE889F98982E08083411581EE580729
:101B600061057105A1F060E079E08DE390E0A701E7
:101B700096010E94AE142150310941095109569530
:101B8000479537952795211580E1380798F0E88922
:101B9000F989108260E874E88EE190E0A70196016F
:101BA0000E94AE14215031094109510956954795BB
:101BB00037952795EC85FD853083EE85FF8520835D
:101BC000188EEC89FD89B082EA89FB898081806169
:101BD0008083EA89FB89808188608083EA89FB8928
:101BE000808180688083EA89FB8980818F7D808302
:101BF000DF91CF91FF90EF90DF90CF90BF9008954D
:101C00001F920F920FB60F9211240BB60F922F93C3
:101C10008F939F93EF93FF93E091D602F091D702B9
:101C20008081E091DC02F091DD0282FD12C09081A2
:101C30008091DF028F5F8F732091E002821751F055
:101C4000E091DF02F0E0EA53FD4F958F8093DF02D1
:101C500001C08081FF91EF919F918F912F910F9003
:101C60000BBE0F900FBE0F901F9018951F920F92F2
:101C70000FB60F9211240BB60F922F933F934F93F1
:101C80005F936F937F938F939F93AF93BF93EF93E4
:101C9000FF9386EC92E00E94F60CFF91EF91BF91CA
:101CA000AF919F918F917F916F915F914F913F91F4
:101CB0002F910F900BBE0F900FBE0F901F90189595
:101CC00086EC92E00E948C0C21E0892B09F420E044
:101CD000822F08951092C9021092C80288EE93E0F4
:101CE000A0E0B0E08093CA029093CB02A093CC0214
:101CF000B093CD028EE692E09093C7028093C60225
:101D000085EC90E09093D3028093D20284EC90E033
:101D10009093D5028093D40280EC90E09093D70208
:101D20008093D60281EC90E09093D9028093D80200
:101D300082EC90E09093DB028093DA0286EC90E0F4
:101D40009093DD028093DC021092DF021092E00299
:101D50001092E1021092E20208951F920F920FB6C4
:101D60000F9211240BB60F922F938F939F93EF93A3
:101D7000FF93E0917303F09174038081E091790304
:101D8000F0917A0382FD12C0908180917C038F5F75
:101D90008F7320917D03821751F0E0917C03F0E076
:101DA000ED59FC4F958F80937C0301C08081FF919A
:101DB000EF919F918F912F910F900BBE0F900FBEBF
:101DC0000F901F9018951F920F920FB60F9211242B
:101DD0000BB60F922F933F934F935F936F937F9325
:101DE0008F939F93AF93BF93EF93FF9383E693E01B
:101DF0000E94F60CFF91EF91BF91AF919F918F914F
:101E00007F916F915F914F913F912F910F900BBEFA
:101E10000F900FBE0F901F90189583E693E00E94DD
:101E20008C0C21E0892B09F420E0822F0895109278
:101E300066031092650388EE93E0A0E0B0E0809323
:101E4000670390936803A0936903B0936A038EE6D7
:101E500092E0909364038093630385E391E0909311
:101E6000700380936F0384E391E0909372038093F7
:101E7000710380E391E0909374038093730381E393
:101E800091E0909376038093750382E391E09093C1
:101E900078038093770386E391E090937A038093AD
:101EA000790310927C0310927D0310927E031092AE
:101EB0007F03089508950E943E0B0E945A0F0E94CE
:101EC0002D02C9EBDCE00E9438022097E1F30E946A
:101ED000B90CF9CFCF92DF92EF92FF920F931F933D
:101EE000CF93DF936C017A01EB01E60EF71E00E061
:101EF00010E0CE15DF0561F06991D601ED91FC91FE
:101F00000190F081E02DC6011995080F191FF1CF3E
:101F1000C801DF91CF911F910F91FF90EF90DF905B
:101F2000CF9008956115710581F0DB010D900020BF
:101F3000E9F7AD0141505109461B570BDC01ED910A
:101F4000FC910280F381E02D199480E090E00895E7
:101F5000DC01ED91FC91DB0114964D915C9115979C
:101F60006D917C910280F381E02D19940C94920F75
:101F7000DC01ED91FC910190F081E02D19940F931B
:101F80001F93CF93DF93EC016DE00E94B80F8C019B
:101F90006AE0CE010E94B80F800F911FDF91CF91B0
:101FA0001F910F9108950F931F93CF93DF93EC012F
:101FB0000E94A80F8C01CE010E94BF0F800F911FBD
:101FC000DF91CF911F910F9108950F931F93CF939E
:101FD000DF93EC010E94920F8C01CE010E94BF0F93
:101FE000800F911FDF91CF911F910F9108958F92D4
:101FF0009F92AF92BF92CF92DF92EF92FF920F9398
:102000001F93CF93DF93CDB7DEB7A1970FB6F894A8
:10201000DEBF0FBECDBF7C01C42EE52FCB01D22E7B
:1020200019A221E02D1510F02AE0D22E8E010F5DAD
:102030001F4F8D2C912CA12CB12C6C2D7E2FA50126
:1020400094010E94AE148C2DD29E8019112401504F
:1020500011098A3014F4805D01C0895CF801808325
:10206000211531054105510521F0C22EE32FCA018A
:10207000E4CFB801C7010E94920FA1960FB6F89461
:10208000DEBF0FBECDBFDF91CF911F910F91FF90AB
:10209000EF90DF90CF90BF90AF909F908F9008957A
:1020A000CF92DF92EF92FF920F931F93CF93DF9324
:1020B000EC016A017B012115310579F4E881F98190
:1020C0000190F081E02D642FDF91CF911F910F914E
:1020D000FF90EF90DF90CF9019942A303105E9F40A
:1020E00077FF1AC06DE20E94B80F8C014427552774
:1020F000BA014C195D096E097F092AE0CE010E94E0
:10210000F70F800F911FDF91CF911F910F91FF90DB
:10211000EF90DF90CF9008952AE0B701A601CE019D
:10212000DF91CF911F910F91FF90EF90DF90CF90B3
:102130000C94F70F0F931F93CF93DF93EC019A0149
:10214000AB01662757FD6095762F0E9450108C01D9
:10215000CE010E94BF0F800F911FDF91CF911F9181
:102160000F910895FC01808191810C949115CF937A
:10217000DF93EC0188819981009711F00E949115FD
:10218000198218821D821C821B821A82DF91CF91D4
:1021900008950F931F93CF93DF93EC018B016F5F33
:1021A0007F4F888199810E942016009731F0998392
:1021B00088831B830A8381E001C080E0DF91CF9197
:1021C0001F910F910895CF93DF93EC01888199813E
:1021D000892B29F08A819B818617970760F4CE01AD
:1021E0000E94C910882341F08C819D81892B19F4AC
:1021F000E881F981108281E0DF91CF910895EF921B
:10220000FF920F931F93CF93DF93EC017B018A0121
:10221000BA010E94E310811104C0CE010E94B710E0
:1022200007C01D830C83B701888199810E943917EB
:10223000CE01DF91CF911F910F91FF90EF90089504
:10224000FC011182108213821282158214826115A0
:10225000710559F0FB0101900020E9F7AF014150F1
:102260005109461B570B0C94FF100895CF93DF9331
:10227000EC01FB018617970761F0608171816115A0
:10228000710529F0448155810E94FF1002C00E940F
:10229000B710CE01DF91CF910895FC011182108219
:1022A00013821282158214820C943611CF93DF931D
:1022B000EC016115710561F0FB0101900020E9F767
:1022C000AF0141505109461B570B0E94FF1002C03D
:1022D0000E94B710CE01DF91CF9108950F931F9305
:1022E000CF93DF93CDB7DEB762970FB6F894DEBF1A
:1022F0000FBECDBF8C01CB01F80111821082138279
:1023000012821582148250E0BE016F5F7F4F0E94DF
:102310004017BE016F5F7F4FC8010E945611629641
:102320000FB6F894DEBF0FBECDBFDF91CF911F91E6
:102330000F9108950F931F93CF93DF93CDB7DEB71F
:10234000A2970FB6F894DEBF0FBECDBF8C01CB01B4
:10235000BA01F8011182108213821282158214824E
:1023600030E0AE014F5F5F4F0E945617BE016F5FB6
:102370007F4FC8010E945611A2960FB6F894DEBF97
:102380000FBECDBFDF91CF911F910F910895EF92B6
:10239000FF920F931F93CF93DF93EC017B010C818E
:1023A0001D816115710511F480E016C041155105BC
:1023B00091F0040F151FB8010E94E3108823A1F3C8
:1023C000288139818C819D81B701820F931F0E94E2
:1023D00039171D830C8381E0DF91CF911F910F91FD
:1023E000FF90EF900895CF93DF931F921F92CDB788
:1023F000DEB769831A8241E050E0BE016F5F7F4F14
:102400000E94C7110F900F90DF91CF910895CF9345
:10241000DF93EC01FB0144815581608171810E9451
:10242000C711811103C0CE010E94B710CE01DF9108
:10243000CF910895CF93DF93EC016115710569F099
:10244000FB0101900020E9F7AF0141505109461B03
:10245000570B0E94C711811103C0CE010E94B71013
:10246000CE01DF91CF910895FC0184819581681799
:10247000790720F480819181009729F4109200045B
:1024800080E094E00895860F971F0895BF92CF9241
:10249000DF92EF92FF920F931F93CF93DF936C0124
:1024A0007B01EA0189012417350720F48D2FE9010A
:1024B000042F182F61E472E0C6010E942011D70199
:1024C00014968D919C911597C817D907C8F4801759
:1024D000910708F48C01D701ED91FC911197E00F61
:1024E000F11FB08010826D917C916C0F7D1FC60131
:1024F0000E945611D701ED91FC91E00FF11FB082BF
:10250000C601DF91CF911F910F91FF90EF90DF9067
:10251000CF90BF900895FC0180819181009711F0C8
:102520000C94091760E070E0CB01089508955058AD
:10253000BB27AA270ED071C162D130F067D120F03D
:1025400031F49F3F11F41EF457C10EF4E095E7FB00
:102550004DC1E92F73D180F3BA176207730784075F
:10256000950718F071F49EF58BC10EF4E0950B2ED3
:10257000BA2FA02D0B01B90190010C01CA01A001D5
:102580001124FF27591B99F0593F50F4503E68F130
:102590001A16F040A22F232F342F4427585FF3CF71
:1025A000469537952795A795F0405395C9F77EF442
:1025B0001F16BA0B620B730B840BBAF09150A1F08B
:1025C000FF0FBB1F661F771F881FC2F70EC0BA0F11
:1025D000621F731F841F48F4879577956795B79599
:1025E000F7959E3F08F0B3CF9395880F08F0992791
:1025F000EE0F9795879508950CD00FC107D140F045
:10260000FED030F021F45F3F19F0F0C0511139C114
:10261000F3C014D198F39923C9F35523B1F3951B53
:10262000550BBB27AA2762177307840738F09F5FF3
:102630005F4F220F331F441FAA1FA9F333D00E2E62
:102640003AF0E0E830D091505040E695001CCAF7CF
:1026500029D0FE2F27D0660F771F881FBB1F261794
:1026600037074807AB07B0E809F0BB0B802DBF0167
:10267000FF2793585F4F2AF09E3F510568F0B6C080
:1026800000C15F3FECF3983EDCF386957795679544
:10269000B795F7959F5FC9F7880F911D9695879518
:1026A00097F90895E1E0660F771F881FBB1F621737
:1026B00073078407BA0720F0621B730B840BBA0BF5
:1026C000EE1F88F7E095089504D06894B111D9C041
:1026D0000895BCD088F09F5790F0B92F9927B75133
:1026E000A0F0D1F0660F771F881F991F1AF0BA95D6
:1026F000C9F712C0B13081F0C3D0B1E00895C0C0B5
:10270000672F782F8827B85F39F0B93FCCF38695CB
:1027100077956795B395D9F73EF490958095709528
:1027200061957F4F8F4F9F4F0895E89409C097FBA5
:102730003EF490958095709561957F4F8F4F9F4F98
:102740009923A9F0F92F96E9BB279395F6958795DC
:1027500077956795B795F111F8CFFAF4BB0F11F49F
:1027600060FF1BC06F5F7F4F8F4F9F4F16C0882346
:1027700011F096E911C0772321F09EE8872F762F7C
:1027800005C0662371F096E8862F70E060E02AF0BD
:102790009A95660F771F881FDAF7880F96958795A9
:1027A00097F90895990F0008550FAA0BE0E8FEEF7E
:1027B00016161706E807F907C0F012161306E40705
:1027C000F50798F0621B730B840B950B39F40A26FE
:1027D00061F0232B242B252B21F408950A2609F4DC
:1027E000A140A6958FEF811D811D089597F99F67E0
:1027F00080E870E060E008959FEF80EC0895002489
:102800000A941616170618060906089500240A9455
:1028100012161306140605060895092E0394000CDB
:1028200011F4882352F0BB0F40F4BF2B11F460FF6A
:1028300004C06F5F7F4F8F4F9F4F089557FD905893
:10284000440F551F59F05F3F71F04795880F97FB74
:10285000991F61F09F3F79F087950895121613062E
:102860001406551FF2CF4695F1DF08C0161617065D
:102870001806991FF1CF8695710561050894089592
:10288000E894BB2766277727CB0197F908958ADF5D
:1028900008F48FEF08950BD0C0CFB1DF28F0B6DF7A
:1028A00018F0952309F0A2CFA7CF1124EACFC6DFF5
:1028B000A0F3959FD1F3950F50E0551F629FF00153
:1028C000729FBB27F00DB11D639FAA27F00DB11DAC
:1028D000AA1F649F6627B00DA11D661F829F222735
:1028E000B00DA11D621F739FB00DA11D621F839FBC
:1028F000A00D611D221F749F3327A00D611D231F92
:10290000849F600D211D822F762F6A2F11249F57DF
:1029100050408AF0E1F088234AF0EE0FFF1FBB1F02
:10292000661F771F881F91505040A9F79E3F5105A1
:1029300070F05CCFA6CF5F3FECF3983EDCF386955A
:1029400077956795B795F795E7959F5FC1F7FE2B4C
:10295000880F911D9695879597F90895A1E21A2EF3
:10296000AA1BBB1BFD010DC0AA1FBB1FEE1FFF1F33
:10297000A217B307E407F50720F0A21BB30BE40B83
:10298000F50B661F771F881F991F1A9469F76095CA
:102990007095809590959B01AC01BD01CF01089584
:1029A000052E97FB1EF400940E94E71457FD07D0F4
:1029B0000E94AE1407FC03D04EF40C94E71450951B
:1029C0004095309521953F4F4F4F5F4F089590951B
:1029D0008095709561957F4F8F4F9F4F0895EE0FB3
:1029E000FF1F0590F491E02D19940790F691E02DCA
:1029F0001994CF93DF938230910510F482E090E038
:102A0000E0910304F091040420E030E0A0E0B0E0A5
:102A1000309739F14081518148175907B8F048176C
:102A2000590771F482819381109729F013969C9332
:102A30008E9312972CC0909304048093030427C0B4
:102A40002115310531F04217530718F0A901DB01B8
:102A500001C0EF019A01BD01DF010280F381E02D89
:102A6000D7CF21153105F9F0281B390B243031055A
:102A700080F48A819B816115710521F0FB019383AC
:102A8000828304C09093040480930304FE01329671
:102A900044C0FE01E20FF31F81939193225031094C
:102AA000398328833AC02091010430910204232BFA
:102AB00041F42091020230910302309302042093EA
:102AC000010420910002309101022115310541F4E9
:102AD0002DB73EB74091040250910502241B350BDF
:102AE000E0910104F0910204E217F307A0F42E1B19
:102AF0003F0B2817390778F0AC014E5F5F4F241762
:102B0000350748F04E0F5F1F5093020440930104B5
:102B10008193919302C0E0E0F0E0CF01DF91CF918B
:102B20000895CF93DF93009709F487C0FC01329793
:102B300013821282C0910304D0910404209781F47F
:102B400020813181280F391F809101049091020466
:102B50008217930779F5F0930204E09301046DC0A6
:102B6000DE0120E030E0AE17BF0750F412964D9121
:102B70005C9113979D014115510509F1DA01F3CFDD
:102B8000B383A28340815181840F951F8A179B07CD
:102B900071F48D919C911197840F951F02969183EA
:102BA000808312968D919C91139793838283211534
:102BB000310529F4F0930404E09303043EC0D901E5
:102BC0001396FC93EE9312974D915D91A40FB51F50
:102BD000EA17FB0779F480819181840F951F029693
:102BE000D90111969C938E938281938113969C9325
:102BF0008E931297E0E0F0E08A819B81009719F0B4
:102C0000FE01EC01F9CFCE01029628813981820FB5
:102C1000931F20910104309102042817390769F4A9
:102C2000309729F4109204041092030402C0138216
:102C30001282D0930204C0930104DF91CF910895D2
:102C40006F927F928F929F92AF92BF92CF92DF92BC
:102C5000EF92FF920F931F93CF93DF93EC01CB0181
:102C6000209781F4DF91CF911F910F91FF90EF900A
:102C7000DF90CF90BF90AF909F908F907F906F909C
:102C80000C94F914FE01E60FF71F9E012250310942
:102C9000E217F30708F4ACC0D9010D911C9111970C
:102CA00006171707B8F00530110508F49FC0A801F2
:102CB000445051094617570708F498C002501109AB
:102CC000061B170B019311936D937C93CF010E9408
:102CD00091158CC05B01A01AB10A4E01800E911EA5
:102CE000A0910304B0910404612C712C60E070E0A9
:102CF000109709F449C0A815B905C9F5ED90FC90E5
:102D00001197670142E0C40ED11CCA14DB0478F1AC
:102D100047018A189B08640142E0C40ED11C129638
:102D2000BC9012971396AC91B5E0CB16D10440F04D
:102D3000B282A38391828082D9018D939C9309C032
:102D40000E5F1F4F0E0D1F1DF90111830083EB2D28
:102D5000FA2F6115710531F0DB011396FC93EE93A8
:102D6000129744C0F0930404E09303043FC06D91B4
:102D70007C9111976616770608F43B01BD01129607
:102D80000D90BC91A02DB4CF60910104709102040C
:102D900068157905E9F468167906D0F440910002C7
:102DA000509101024115510541F44DB75EB7609154
:102DB000040270910502461B570BE417F507C0F497
:102DC000F0930204E0930104F901918380830EC023
:102DD0000E94F9147C01009759F0A801BE010E94DD
:102DE0003017CE010E949115C70104C0CE0102C068
:102DF00080E090E0DF91CF911F910F91FF90EF90D5
:102E0000DF90CF90BF90AF909F908F907F906F900A
:102E100008951F93FC0199278827BC01E89411911C
:102E20001032E9F3193010F01E30C8F31B3251F0A4
:102E30001D3249F4689406C00E947017610F711D1D
:102E4000811D911D119110531A30B0F33EF49095ED
:102E50008095709561957F4F8F4F9F4F1F9108957B
:102E6000FB01DC0102C001900D9241505040D8F7A7
:102E70000895FB01DC0101900D920020E1F7089517
:102E80004532510520F4423010F00C944B17FB01F1
:102E90001082CB010895BB274A3031F4992322F4E4
:102EA000BDE2909581959F4F0C94A817253231056E
:102EB00020F4223010F00C946117FA011082CA013C
:102EC0000895BB272A3051F4992342F4BDE290952E
:102ED0008095709561957F4F8F4F9F4F0C9486170B
:102EE000592F482F372F262F660F771F881F991FBE
:102EF000660F771F881F991F620F731F841F951F0E
:102F0000660F771F881F991F0895BB27FA01A62F08
:102F10006217710581059105330B30FB66F0AA2716
:102F2000660F771F881F991FAA1FA21710F0A21BF8
:102F300063953850A9F7A05DAA3308F0A95DA19365
:102F400036F7B111B1931082CA010C94C117BB2797
:102F5000FB015527AA27880F991FAA1FA41710F055
:102F6000A41B83955051B9F7A05DAA3308F0A95D61
:102F7000A193009779F7B111B1931192CB010C9401
:102F8000C117DC01FC01672F71917723E1F73297BC
:102F900004C07C916D9370836291AE17BF07C8F334
:102FA000089512E0C4EDD2E000E006C022970109C6
:102FB000FE010BBF0E94F514C63DD10780E0080753
:062FC000A9F7F894FFCF11
:102FC60000000504800050756C7365733A20002478
:102FD60041500024444600244444460024523050C4
:102FE600002452300A00526573656E64696E67206C
:102FF600636F6D6D616E6420746F2043522E2E2EAA
:103006000A004661696C656420746F20636F6D6D9C
:10301600756E696361746520776974682043520030
:1030260024523046002453500A0000000000390D97
:0A3036006A0F8C0CA50C970C170D07
:00000001FF
