:100000000C946B010C94D5090C94060A0C94370AD5
:100010000C94680A0C94990A0C94CA0A0C94FB0A72
:100020000C942C0B0C949C010C949C010C949C0142
:100030000C949C010C949C010C949C010C949C01CC
:100040000C949C010C94DA030C949C010C949C017C
:100050000C949C010C949C010C949C010C945D0BE1
:100060000C949C010C94C00E0C94F60E0C949C0104
:100070000C949C010C949C010C949C010C949C018C
:100080000C949C010C949C010C949C010C94AC036A
:100090000C949C010C949C010C949C010C949C016C
:1000A0000C949C010C949C010C949C010C949C015C
:1000B0000C949C010C949C010C949C010C949C014C
:1000C0000C949C010C949C010C949C010C949C013C
:1000D0000C949C010C949C010C946D0F0C94A30F38
:1000E0000C949C01AF09790981098D099A09BB0912
:1000F000C809790C7C0C6B0C6F0C750CB30C800C64
:10010000840C8A0C8E0C920C980C9C0CA00CB30CDA
:10011000A60CAA0CAE0C0C942A0F0C94570D0C9440
:1001200029020C94F0030C948A0C0C94800C0C940F
:10013000200F0C949C0C0C94D70F0C94A60C0C94D0
:10014000920C0C94E4030C94B30C0C94AA0C0C9435
:10015000AF090C94790C0C9481090C94C8090C9487
:1001600079090C948D090C946F0C0C94CD0F0C94A0
:10017000790D0C94650D0C94AE0C0C949A090C94AA
:10018000980C0C94D70D0C948E0C0C947C0C0C9445
:100190006B0C0C942A100C94750C0C94BB090C94E9
:1001A0004C0D0C94A00C0C94840C0C94F90D0000D4
:1001B0000A0B02090C0D0E080703040100000000E1
:1001C000000000000000000000000000000000002F
:1001D00000000000000000000000121110000000EC
:1001E000000000000000000000000000000000000F
:1001F00000000000010210202008081020401020FC
:1002000040800201020108040201010204081020DA
:1002100040808040201008040201800402018040D8
:100220002010080402010804020101020408102041
:1002300040800102040810204080050505050705DF
:1002400008080808020202020A0A08080404040452
:10025000010101010101010103030303030303037E
:10026000040707070C0C0C0C0C0C0C0C020202020D
:1002700006060606060606060B0B0B0B0B0B0B0BF6
:10028000000020002300260029002C002F0032004F
:100290000001000003010601090100002200250001
:1002A00028002B002E00310034000201000005015F
:1002B00008010B0100002100240027002A002D0066
:1002C0003000330001010000040107010A01E403CA
:1002D0002A0FD70FF00311241FBECFEFD1E2DEBFEC
:1002E000CDBF00E00CBF12E0A0E0B2E0E4ECF0E330
:1002F00000E00BBF02C007900D92A63CB107D9F7F2
:1003000024E0A6ECB2E001C01D92A135B207E1F7EE
:1003100012E0C4EDD2E000E006C022970109FE0120
:100320000BBF0E94A715CE3CD10780E00807A9F7B4
:100330000E941B100C9450180C940000EF92FF9236
:100340000F931F93CF93DF931F92CDB7DEB77C013E
:10035000FC01718360835383428326873787048738
:100360001587148215821682178260E0802F2983F8
:100370000E94B40C61E0802F0E94ED0C60E02981A6
:10038000822F0E94B40CF701108A0F90DF91CF9159
:100390001F910F91FF90EF900895FC018089448197
:1003A000558166817781882329F04150510961097F
:1003B000710904C04F5F5F4F6F4F7F4F4483558378
:1003C000668377830895CF92DF92EF92FF92CF9367
:1003D000DF93EC016C817D818E819F810E944914A5
:1003E0009B01AC010E944A132BED3FE049E450E42D
:1003F0000E94FD146B017C016A817B81882777FD57
:100400008095982F0E9449149B01AC01C701B60149
:100410000E94AE1320E030E04AE952E40E94AE139D
:1004200023E333E343E950E40E94FD140E941614D1
:10043000CB01DF91CF91FF90EF90DF90CF900895A7
:10044000FC0164817581868197810895FC01608B30
:10045000089586EC92E00C94A90386EC92E00E9449
:100460003C0242E050E069E272E082E00C946409F0
:1004700086EC92E00C943B080F931F93CF93DF938D
:10048000EC0161E08DE00E94B40C10929000E1E973
:10049000F0E01082109295001092940080818460A8
:1004A0008083E1E7F0E080818160808329E030E0B3
:1004B0004AE050E061E070E08AEE92E00E9481083C
:1004C00005E110E02EE130E04CE251E062E070E046
:1004D000CE010E960E949E0119A218A21BA21AA27A
:1004E00026E040E052EC61E070E082E193E00E949F
:1004F0005E0E26E040E052EC61E070E08FEA93E0AF
:100500000E945E0E1E826DE872E0CE010E941612FD
:100510001D866DE872E0CE0107960E94161280E3F8
:100520008F8FDF91CF911F910F910895EF92FF92DE
:100530000F931F93CF93DF938C017B01FC0182A16A
:1005400093A1E80EF91EE8012E9660E0CE010E940C
:10055000260260E070E08AEE92E00E94F20860E419
:100560007FE18AEE92E00E94DD088AEE92E00E942E
:10057000F808F80182A193A18E159F0584F464E622
:1005800070E080E090E00E94D60BCE010E94200235
:10059000CE010E94E301F80193A382A3EACFCE012A
:1005A0000E9420028AEE92E0DF91CF911F910F917D
:1005B000FF90EF900C940509EF92FF920F931F9319
:1005C000CF93DF93EC010AA11BA1061B170B61E07F
:1005D00070E08AEE92E00E94F2087E018EE0E80E62
:1005E000F11C61E0C7010E94260260E47FE18AEE0F
:1005F00092E00E94DD088AEE92E00E94F8088AA14B
:100600009BA10817190734F4C7010E94E3019BA3BB
:100610008AA3F5CF8AEE92E0DF91CF911F910F91DF
:10062000FF90EF900C9405090F931F93CF93DF93E6
:100630008B0164EF71E080E090E00E94D60BC0E097
:10064000D0E0C017D10704F560E08DE00E94ED0C0A
:100650006AEF70E080E090E00E94D60B61E08DE0F0
:100660000E94ED0C6AEF70E080E090E00E94D60BF3
:1006700060E08DE00E94ED0C6AEF70E080E090E0B9
:100680000E94D60B2196DDCFDF91CF911F910F9164
:100690000895CF92DF92EF92FF920F931F93CF9323
:1006A000DF93CDB7DEB72C970FB6F894DEBF0FBE41
:1006B000CDBF8C016DE872E0CE0107960E94E0117B
:1006C00063E070E0C8010E94140327E030E044E0DA
:1006D00050E0B801CE0101960E94F812BE016F5F92
:1006E0007F4FCE0107960E94F611CE0101960E941F
:1006F0007211CE0107960E943D136B017C0163E0ED
:1007000070E0C8010E94E612FC018081B6018B32C4
:1007100021F4C8010E94960203C0C8010E94DC02B5
:1007200066E072E082E193E00E94A510CE01079698
:100730000E9472112C960FB6F894DEBF0FBECDBF8B
:10074000DF91CF911F910F91FF90EF90DF90CF90AD
:1007500008950E960C94CD011F920F920FB60F9232
:1007600011240BB60F922F933F934F935F936F9388
:100770007F938F939F93AF93BF93EF93FF938DE0FE
:100780000E94230D61E068278DE00E94ED0CFF912F
:10079000EF91BF91AF919F918F917F916F915F91F9
:1007A0004F913F912F910F900BBE0F900FBE0F9066
:1007B0001F9018951F920F920FB60F9211240F9051
:1007C0000FBE0F901F9018956DE872E086EC92E0D6
:1007D0000E94E0116DE872E08DEC92E00C94E01163
:1007E0008DEC92E00E94721186EC92E00C947211F2
:1007F0000F931F93CF93DF93CDB7DEB762970FB6FA
:10080000F894DEBF0FBECDBF8A014AE0CE01079645
:100810000E942E126AE072E0CE0101960E94E01161
:10082000BE01695F7F4FCE0101960E949A12B80106
:100830000E949A126CE872E00E94AD12BC01CE01D7
:100840000D960E940D12CE0101960E947211CE01EA
:1008500007960E947211BE01635F7F4F8FEA93E09B
:100860000E9468108FEA93E00E944C0D892BD1F30F
:1008700069E170E080E090E00E94D60B10E08FEA22
:1008800093E00E944C0D1816190644F48FEA93E089
:100890000E94650D843299F711E0F1CF112311F315
:1008A000CE010D960E94721162960FB6F894DEBFCB
:1008B0000FBECDBFDF91CF911F910F910895EF92A1
:1008C000FF920F931F93CF93DF9300D000D0CDB74B
:1008D000DEB78C017C018EE0E80EF11CC7010E949E
:1008E000E3018634910524F56EE072E082E193E045
:1008F0000E94A51065E070E0C8010E9496026FE1B9
:1009000072E082E193E00E94A5106AEA72E0CE01F3
:1009100001960E94E011AE014F5F5F4F65E070E00D
:10092000C8010E94F803CE0101960E947211D6CF31
:1009300067E272E082E193E00E94A51060E270E05D
:10094000C8010E9496026AE372E082E193E00E948D
:10095000A51026960FB6F894DEBF0FBECDBFDF916F
:10096000CF911F910F91FF90EF900895CF92DF925A
:10097000EF92FF920F931F93CF93DF93CDB7DEB724
:100980002C970FB6F894DEBF0FBECDBF8C017C0153
:100990008EE0E80EF11CC7010E94E3016C016DE8D6
:1009A00072E0CE0107960E94E011C7010E94E301A8
:1009B0008C199D09CC9724F56EE072E082E193E0FA
:1009C0000E94A51063E070E0C8010E9496026FE1EA
:1009D00072E082E193E00E94A5106FEA72E0CE011E
:1009E00001960E94E011AE014F5F5F4F65E070E03D
:1009F000C8010E94F803CE0101960E947211D5CF62
:100A00006FE472E082E193E00E94A51064E170E07F
:100A1000C8010E9496026FEA72E0CE0101960E9420
:100A2000E011AE014F5F5F4F64E170E0C8010E94CA
:100A3000F803CE0101960E94721161E672E08FEA1E
:100A400093E00E94A510F12C82E193E00E944C0DEE
:100A50001816190614F4FF2021F169E472E0CE01A2
:100A600007960E94C712882319F06FE372E002C054
:100A700064E472E082E193E00E94A510CE01079643
:100A80000E9472112C960FB6F894DEBF0FBECDBF38
:100A9000DF91CF911F910F91FF90EF90DF90CF905A
:100AA000089582E193E00E94650DF801878F682F19
:100AB000CE0107960E948612FF24F394F801878DD9
:100AC0008A3009F6C1CFFF920F931F93CF93DF9324
:100AD000CDB7DEB72D970FB6F894DEBF0FBECDBFF2
:100AE0008C016DE872E0CE0107960E94E01162E091
:100AF00070E0C8010E94E612FC0180818C3409F488
:100B000066C0823509F463C0823409F460C026E00F
:100B100030E043E050E0B801CE0101960E94F812A7
:100B2000BE016F5F7F4FCE0107960E94F611CE0186
:100B300001960E947211CE0107960E943D13695FD3
:100B40007F4FC8010E949602B8018FEA93E00E948D
:100B500068108FEA93E00E944C0D892BD1F369E174
:100B600070E080E090E00E94D60BFF24F394095FD0
:100B70001F4F8FEA93E00E944C0D18161906CCF710
:100B80008FEA93E00E94650D282F682F843239F098
:100B9000FF2029F082E193E00E947810EACFC8019B
:100BA0002D870E9486122D852A3079F4B80182E1C2
:100BB00093E00E94681082E193E00E94D70D6DE8F7
:100BC00072E0C8010E94161202C0F12CD2CFCE01F1
:100BD00007960E9472112D960FB6F894DEBF0FBED5
:100BE000CDBFDF91CF911F910F91FF900895CF93CB
:100BF000DF93EC0164E070E00E941403BE018FEA11
:100C000093E00E9468108FEA93E00E94D70D8FEA6C
:100C100093E00E944C0D18161906CCF78FEA93E06A
:100C20000E94650DC82F682F82E193E00E94781022
:100C3000CA3069F782E193E0DF91CF910C94D70D30
:100C40004F925F926F927F929F92AF92BF92CF929C
:100C5000DF92EF92FF920F931F93CF93DF93CDB765
:100C6000DEB768970FB6F894DEBF0FBECDBF8C011C
:100C70006DE872E0CE0143960E94E0116DE872E0EB
:100C8000CE010D960E94E01168E672E0CE01079653
:100C90000E94E01127E030E044E050E0B801CE01CE
:100CA00001960E94F812BE016F5F7F4FCE014396FE
:100CB0000E94F611CE0101960E947211CE01439658
:100CC0000E943D136B017C015B0163E070E0C80191
:100CD0000E94E612FC0180818D3239F4AA24BB24E3
:100CE000AC18BD0861E070E002C060E070E08AEE20
:100CF00092E00E94F208F801E0A0F1A0EA0CFB1CCF
:100D0000F4E1EF1AF10860E971E08AEE92E00E94E6
:100D100011098AEE92E00E94F8086DE672E08FEA0F
:100D200093E00E9476108FEA93E00E944C0D892B8D
:100D3000D1F3C80107966C01AA24A3948FEA93E02B
:100D40000E944C0D181619067CF48FEA93E00E945D
:100D5000650DB82E682FC6010E9486129AE0B9125E
:100D6000EDCFF801A586EACF26E030E043E050E081
:100D7000B601CE0101960E94F812BE016F5F7F4F4F
:100D8000CE010D960E94F611CE0101960E947211BD
:100D9000CE010D960E943D13F80171A360A34AE0B5
:100DA00050E082E193E00E945A1199249394F80153
:100DB00080A191A18E159F050CF0CCC08091800080
:100DC0008F7B809380006DE672E08FEA93E00E9453
:100DD0007610809180008064809380000E94A70B31
:100DE0002B013C01A12CB12C8FEA93E00E944C0D09
:100DF000892B89F50E94A70B641975098609970943
:100E0000613D7740810591057CF362E772E082E104
:100E100093E00E9476102FEFA21AB20AF8946DE6C2
:100E200072E08FEA93E00E94761078940E94A70BFC
:100E30002B013C0184E0A816B104B1F66EE872E023
:100E400082E193E00E94A5106CEA72E0CE01079661
:100E50000E9416127FC069E170E080E090E00E947D
:100E6000D60B8FEA93E00E944C0D8FEA93E00E942C
:100E70004C0D181619067CF48FEA93E00E94650D5C
:100E8000B82E682FC6010E9486129AE0B912EDCFE3
:100E9000F8019586EACF789426E030E043E050E010
:100EA000B601CE0101960E94F812BE016F5F7F4F1E
:100EB000CE010D960E94F611CE0101960E9472118C
:100EC0006DE872E0C6010E941612CE010D960E94D6
:100ED0003D13F80171A360A34AE050E082E193E082
:100EE0000E945A11F80180A191A18E159F053CF036
:100EF00060E971E08AEE92E00E9411092BC0B7010F
:100F0000681B790B882777FD8095982F0E944914DC
:100F10002B013C0120E030E040EA51E40E94F9144A
:100F200018161CF460E47FE110C020E030E04EEBC6
:100F300053E4C301B2010E94FD1420E030E048EC0C
:100F400053E40E944A130E9416148AEE92E00E9413
:100F5000DD082DCF8AEE92E00E940509BE01695F8F
:100F60007F4F82E193E00E94931082E193E00E9420
:100F7000D70DCE0107960E947211CE010D960E94E8
:100F80007211CE0143960E94721168960FB6F894C2
:100F9000DEBF0FBECDBFDF91CF911F910F91FF90AC
:100FA000EF90DF90CF90BF90AF909F907F906F9029
:100FB0005F904F90089562E070E00E94140361EB2F
:100FC00072E082E193E00E94761082E193E00C945B
:100FD000D70DCF93DF93EC0161E070E00E94E61241
:100FE000FC0180818434F1F034F48134E1F5CE01E8
:100FF0000E94490304C0893481F08235A1F562E082
:1010000070E0CE010E94E612FC018081803381F500
:10101000CE01DF91CF910C942006CE01DF91CF91CC
:101020000C94F70562E070E0CE010E94E612FC012C
:101030008081843429F4CE01DF91CF910C945F0438
:1010400062E070E0CE010E94E612FC0180818435EE
:1010500029F4CE01DF91CF910C94B604CE01DF913B
:10106000CF910C946305CE01DF91CF910C94DB07F7
:10107000DF91CF9108951F93CF93DF93EC0182E12D
:1010800093E00E944C0D11E082E193E00E944C0D30
:101090001816190674F482E193E00E94650D8F8F93
:1010A000682FCE010E9486128F8D8A3069F71E83C9
:1010B000EBCF6AEF70E080E090E00E94D60B8E816B
:1010C0008823D9F060E070E0CE010E94E612FC01B6
:1010D0008081843291F48091710080937100CE01FF
:1010E0000E94E907809171008160809371006DE832
:1010F00072E0CE010E9416121E82DF91CF911F91E5
:101100000895EF92FF920F931F93CF93DF93EC011B
:10111000042F122F7983688349875A872B873C874E
:10112000882777FD8095982F0E9449142BED3FE08A
:1011300049EC50E40E94AE130E9416147B836A832C
:1011400080E8E82EF12CF7011082E1E8F0E010824F
:10115000109285001092840080E991E090938900BC
:101160008093880080818860808380818260808312
:1011700061E08BE00E94B40C61E0802F0E94B40C0F
:1011800061E0812F0E94B40CF7018081808360E0D0
:10119000812F0E94ED0C60E08BE00E94ED0C81E05D
:1011A00090E09D838C8318861E861D86DF91CF91EB
:1011B0001F910F91FF90EF900895882777FD8095FC
:1011C000982F0E9449149B01AC0160E074E284E70F
:1011D00099E40E94AE130E941614709389006093E4
:1011E00088000895FC016483758381850C94ED0C5F
:1011F00021E0FC012087E0E8F0E0208120642083EA
:1012000060E0FC0183850C94ED0CFC011086E0E8A5
:10121000F0E020812F7B208360E0FC0183850C942B
:10122000ED0CCF92DF92EF92FF920F931F93CF932B
:10123000DF93EC018B016115710511F40E94050922
:10124000B801882777FD8095982F0E94491420E0E7
:1012500030E04AE952E40E94FD146B017C010E94D7
:1012600016147F836E836A817B81882777FD809542
:10127000982F0E9449149B01AC01C701B6010E943E
:10128000FD140E94161428EE33E040E050E00E9466
:10129000821569E07DE380E090E00E948215CA013A
:1012A000B90122E030E040E050E00E948215309326
:1012B000890020938800DF91CF911F910F91FF90BB
:1012C000EF90DF90CF900895883008F06DC0E82F40
:1012D000F0E0EE0FFF1FE750FD4F7183608390E059
:1012E000FC013197E730F10590F5EE58FF4F0C9473
:1012F000A115809169008C7F842B80936900E89A06
:10130000089580916900440F551F440F551F837F36
:10131000842B80936900E99A08958091690074E0B4
:10132000440F551F7A95E1F78F7C842B80936900D9
:10133000EA9A08958091690066E0440F551F6A9506
:10134000E1F78F73842B80936900EB9A0895809165
:101350006A008C7F842B80936A00EC9A08958091B8
:101360006A00440F551F440F551F837F842B8093C1
:101370006A00ED9A089580916A0024E0440F551F99
:101380002A95E1F78F7C842B80936A00EE9A08956A
:1013900080916A0096E0440F551F9A95E1F78F738C
:1013A000842B80936A00EF9A08951F920F920FB6D4
:1013B0000F9211240BB60F922F933F934F935F938D
:1013C0006F937F938F939F93AF93BF93EF93FF930D
:1013D0008091FD029091FE02892B29F0E091FD029F
:1013E000F091FE021995FF91EF91BF91AF919F91FE
:1013F0008F917F916F915F914F913F912F910F90BE
:101400000BBE0F900FBE0F901F9018951F920F925A
:101410000FB60F9211240BB60F922F933F934F9359
:101420005F936F937F938F939F93AF93BF93EF934C
:10143000FF938091FF0290910003892B29F0E091A6
:10144000FF02F09100031995FF91EF91BF91AF91C9
:101450009F918F917F916F915F914F913F912F91CC
:101460000F900BBE0F900FBE0F901F9018951F92FC
:101470000F920FB60F9211240BB60F922F933F933A
:101480004F935F936F937F938F939F93AF93BF938C
:10149000EF93FF938091010390910203892B29F030
:1014A000E0910103F09102031995FF91EF91BF9133
:1014B000AF919F918F917F916F915F914F913F91EC
:1014C0002F910F900BBE0F900FBE0F901F9018958D
:1014D0001F920F920FB60F9211240BB60F922F93FB
:1014E0003F934F935F936F937F938F939F93AF93AC
:1014F000BF93EF93FF938091030390910403892B93
:1015000029F0E0910303F09104031995FF91EF9105
:10151000BF91AF919F918F917F916F915F914F910B
:101520003F912F910F900BBE0F900FBE0F901F9009
:1015300018951F920F920FB60F9211240BB60F92AF
:101540002F933F934F935F936F937F938F939F93CB
:10155000AF93BF93EF93FF938091F9029091FA02BA
:10156000892B29F0E091F902F091FA021995FF9187
:10157000EF91BF91AF919F918F917F916F915F910B
:101580004F913F912F910F900BBE0F900FBE0F9078
:101590001F9018951F920F920FB60F9211240BB641
:1015A0000F922F933F934F935F936F937F938F93FC
:1015B0009F93AF93BF93EF93FF938091FB02909122
:1015C000FC02892B29F0E091FB02F091FC021995B5
:1015D000FF91EF91BF91AF919F918F917F916F910B
:1015E0005F914F913F912F910F900BBE0F900FBEC7
:1015F0000F901F9018951F920F920FB60F92112403
:101600000BB60F922F933F934F935F936F937F93FC
:101610008F939F93AF93BF93EF93FF9380910503B5
:1016200090910603892B29F0E0910503F0910603C0
:101630001995FF91EF91BF91AF919F918F917F91FC
:101640006F915F914F913F912F910F900BBE0F9033
:101650000FBE0F901F9018951F920F920FB60F920A
:1016600011240BB60F922F933F934F935F936F9379
:101670007F938F939F93AF93BF93EF93FF9380914B
:10168000070390910803892B29F0E0910703F0915B
:1016900008031995FF91EF91BF91AF919F918F91A1
:1016A0007F916F915F914F913F912F910F900BBE62
:1016B0000F900FBE0F901F9018951F920F920FB6AC
:1016C0000F9211242F933F938F939F93AF93BF93C8
:1016D00080910A0390910B03A0910C03B0910D032C
:1016E0003091090323E0230F2D3720F40196A11D2B
:1016F000B11D05C026E8230F0296A11DB11D209340
:10170000090380930A0390930B03A0930C03B093F7
:101710000D0380910E0390910F03A0911003B091DF
:1017200011030196A11DB11D80930E0390930F0329
:10173000A0931003B0931103BF91AF919F918F912C
:101740003F912F910F900FBE0F901F9018952FB7BC
:10175000F89460910A0370910B0380910C039091AF
:101760000D032FBF08953FB7F89480910E03909119
:101770000F03A0911003B091110326B5A89B05C0DB
:101780002F3F19F00196A11DB11D3FBF6627782F8D
:10179000892F9A2F620F711D811D911D42E0660FE6
:1017A000771F881F991F4A95D1F70895CF92DF922E
:1017B000EF92FF92CF93DF936B017C010E94B30BFA
:1017C000EB01C114D104E104F10489F00E94481333
:1017D0000E94B30B6C1B7D0B683E734090F381E05D
:1017E000C81AD108E108F108C851DC4FEACFDF91EF
:1017F000CF91FF90EF90DF90CF900895789484B5CB
:10180000826084BD84B5816084BD85B5826085BDFC
:1018100085B5816085BDEEE6F0E0808181608083E2
:10182000E1E8F0E0108280818260808380818160C5
:101830008083E0E8F0E0808181608083E1EBF0E08C
:10184000808184608083E0EBF0E080818160808330
:10185000E1E9F0E080818260808380818160808323
:10186000E0E9F0E0808181608083E1EAF0E080815E
:1018700082608083808181608083E0EAF0E0808103
:1018800081608083E1E2F1E08081826080838081F9
:1018900081608083E0E2F1E0808181608083EAE71B
:1018A000F0E0808184608083808182608083808199
:1018B000816080838081806880831092C100089558
:1018C00090E0FC013197E231F10508F04CC0E75897
:1018D000FF4F0C94A115809180008F7703C08091F9
:1018E00080008F7D80938000089580918000877FA5
:1018F000F9CF84B58F7702C084B58F7D84BD0895FC
:101900008091B0008F7703C08091B0008F7D80936D
:10191000B0000895809190008F7707C0809190006B
:101920008F7D03C080919000877F80939000089501
:101930008091A0008F7707C08091A0008F7D03C0A9
:101940008091A000877F8093A0000895809120015E
:101950008F7707C0809120018F7D03C08091200187
:10196000877F809320010895CF93DF9390E0FC015F
:10197000EC50FE4F2491FC01E65CFD4F84918823DE
:1019800049F190E0880F991FFC01EC54FD4FA5919F
:10199000B49186569D4FFC01C591D4919FB76111BA
:1019A00008C0F8948C91209582238C93888182239F
:1019B0000AC0623051F4F8948C91322F3095832311
:1019C0008C938881822B888304C0F8948C91822B1D
:1019D0008C939FBFDF91CF9108950F931F93CF9367
:1019E000DF931F92CDB7DEB7282F30E0F901E25523
:1019F000FE4F8491F901EC50FE4F1491F901E65C21
:101A0000FD4F04910023C9F0882321F069830E94CF
:101A1000600C6981E02FF0E0EE0FFF1FE656FD4FEE
:101A2000A591B4919FB7F8948C91611103C0109562
:101A3000812301C0812B8C939FBF0F90DF91CF91A9
:101A40001F910F910895CF93DF93282F30E0F90174
:101A5000E255FE4F8491F901EC50FE4FD491F9010B
:101A6000E65CFD4FC491CC2391F081110E94600C83
:101A7000EC2FF0E0EE0FFF1FE058FD4FA591B49161
:101A80002C912D2381E090E021F480E002C080E0E1
:101A900090E0DF91CF910895FC01818D228D90E03F
:101AA000805C9F4F821B91098F7399270895FC01D9
:101AB000918D828D981731F0828DE80FF11D858D03
:101AC00090E008958FEF9FEF0895FC01918D828D36
:101AD000981761F0828DDF01A80FB11D5D968C9182
:101AE000928D9F5F9F73928F90E008958FEF9FEF8D
:101AF000089580E29FE0892B41F080E090E0892BFF
:101B000021F00E94200F811125C080E090E0892BF8
:101B100041F080E090E0892B21F00E9400008111CB
:101B20001CC080E090E0892B41F080E090E0892BA0
:101B300021F00E940000811113C08DEC9FE0892BE1
:101B4000A1F080E090E0892B81F00E94CD0F8111FF
:101B50000AC008950E940000D8CF0E940000E1CF83
:101B60000E940000EACF0C9400000895FC01848DCF
:101B7000DF01A80FB11DA35ABF4F2C91848D90E0B7
:101B800001968F739927848FA689B7892C93A08992
:101B9000B1898C9180648C93938D848D981306C049
:101BA0000288F389E02D80818F7D80830895CF9313
:101BB000DF93EC01888D8823C9F0EA89FB89808155
:101BC00085FD05C0A889B9898C9186FD0FC00FB627
:101BD00007FCF5CF808185FFF2CFA889B9898C9168
:101BE00085FFEDCFCE010E94B60DE7CFDF91CF91FB
:101BF0000895CF92DF92FF920F931F93CF93DF93BD
:101C00001F92CDB7DEB76C01DC015B969C915B97B0
:101C10005C968C915C97981307C05096ED91FC915F
:101C20005197808185FD32C0F601038D10E00F5F72
:101C30001F4F0F731127F02EF601848DF81211C07B
:101C40000FB607FCF9CFD6015096ED91FC91519754
:101C5000808185FFF1CFC60169830E94B60D69813D
:101C6000EBCF838DE80FF11DE35AFF4F6083D60160
:101C70005B960C935B975296ED91FC915397808104
:101C80008062808381E058968C930DC0D601569671
:101C9000ED91FC91579760835096ED91FC9151978F
:101CA00080818064808381E090E00F90DF91CF910C
:101CB0001F910F91FF90DF90CF900895BF92CF9228
:101CC000DF92EF92FF92CF93DF93EC016A017B01E9
:101CD000B22EE889F98982E08083411581EE5807A8
:101CE00061057105A1F060E079E08DE390E0A70166
:101CF00096010E94601521503109410951095695FC
:101D0000479537952795211580E1380798F0E889A0
:101D1000F989108260E874E88EE190E0A7019601ED
:101D20000E94601521503109410951095695479586
:101D300037952795EC85FD853083EE85FF852083DB
:101D4000188EEC89FD89B082EA89FB8980818061E7
:101D50008083EA89FB89808188608083EA89FB89A6
:101D6000808180688083EA89FB8980818F7D808380
:101D7000DF91CF91FF90EF90DF90CF90BF900895CB
:101D80001F920F920FB60F9211240BB60F922F9342
:101D90008F939F93EF93FF93E0912203F09123039E
:101DA0008081E0912803F091290382FD12C0908187
:101DB00080912B038F5F8F7320912C03821751F03A
:101DC000E0912B03F0E0EE5EFC4F958F80932B03A8
:101DD00001C08081FF91EF919F918F912F910F9082
:101DE0000BBE0F900FBE0F901F9018951F920F9271
:101DF0000FB60F9211240BB60F922F933F934F9370
:101E00005F936F937F938F939F93AF93BF93EF9362
:101E1000FF9382E193E00E94B60DFF91EF91BF9195
:101E2000AF919F918F917F916F915F914F913F9172
:101E30002F910F900BBE0F900FBE0F901F90189513
:101E400082E193E00E944C0D21E0892B09F420E00F
:101E5000822F0895109215031092140388EE93E0D8
:101E6000A0E0B0E08093160390931703A0931803AB
:101E7000B09319038AEB92E09093130380931203BB
:101E800085EC90E090931F0380931E0384EC90E018
:101E9000909321038093200380EC90E090932303A0
:101EA0008093220381EC90E0909325038093240398
:101EB00082EC90E0909327038093260386EC90E0D9
:101EC000909329038093280310922B0310922C03E4
:101ED00010922D0310922E0308951F920F920FB6A9
:101EE0000F9211240BB60F922F938F939F93EF9322
:101EF000FF93E091BF03F091C0038081E091C5039F
:101F0000F091C60382FD12C090818091C8038F5F5B
:101F10008F732091C903821751F0E091C803F0E05C
:101F2000E155FC4F958F8093C80301C08081FF91DC
:101F3000EF919F918F912F910F900BBE0F900FBE3D
:101F40000F901F9018951F920F920FB60F921124A9
:101F50000BB60F922F933F934F935F936F937F93A3
:101F60008F939F93AF93BF93EF93FF938FEA93E089
:101F70000E94B60DFF91EF91BF91AF919F918F910C
:101F80007F916F915F914F913F912F910F900BBE79
:101F90000F900FBE0F901F9018958FEA93E00E944C
:101FA0004C0D21E0892B09F420E0822F0895109236
:101FB000B2031092B10388EE93E0A0E0B0E080930A
:101FC000B3039093B403A093B503B093B6038AEB25
:101FD00092E09093B0038093AF0385E391E09093F8
:101FE000BC038093BB0384E391E09093BE03809392
:101FF000BD0380E391E09093C0038093BF0381E32E
:1020000091E09093C2038093C10382E391E09093A7
:10201000C4038093C30386E391E09093C603809347
:10202000C5031092C8031092C9031092CA031092FC
:10203000CB03089508950E94FE0B0E941A100E947F
:102040002D02C9E7DDE00E9438022097E1F30E94EB
:10205000790DF9CFCF92DF92EF92FF920F931F93FA
:10206000CF93DF936C017A01EB01E60EF71E00E0DF
:1020700010E0CE15DF0561F06991D601ED91FC917C
:102080000190F081E02DC6011995080F191FF1CFBD
:10209000C801DF91CF911F910F91FF90EF90DF90DA
:1020A000CF9008956115710581F0DB010D9000203E
:1020B000E9F7AD0141505109461B570BDC01ED9189
:1020C000FC910280F381E02D199480E090E0089566
:1020D000DC01ED91FC91DB0114964D915C9115971B
:1020E0006D917C910280F381E02D19940C94521033
:1020F000DC01ED91FC910190F081E02D19940F939A
:102100001F93CF93DF93EC016DE00E9478108C0158
:102110006AE0CE010E947810800F911FDF91CF916D
:102120001F910F9108950F931F93CF93DF93EC01AD
:102130000E9468108C01CE010E947F10800F911FB9
:10214000DF91CF911F910F9108950F931F93CF931C
:10215000DF93EC010E9452108C01CE010E947F108F
:10216000800F911FDF91CF911F910F9108958F9252
:102170009F92AF92BF92CF92DF92EF92FF920F9316
:102180001F93CF93DF93CDB7DEB7A1970FB6F89427
:10219000DEBF0FBECDBF7C01C42EE52FCB01D22EFA
:1021A00019A221E02D1510F02AE0D22E8E010F5D2C
:1021B0001F4F8D2C912CA12CB12C6C2D7E2FA501A5
:1021C00094010E9460158C2DD29E8019112401501B
:1021D00011098A3014F4805D01C0895CF8018083A4
:1021E000211531054105510521F0C22EE32FCA0109
:1021F000E4CFB801C7010E945210A1960FB6F8941F
:10220000DEBF0FBECDBFDF91CF911F910F91FF9029
:10221000EF90DF90CF90BF90AF909F908F900895F8
:10222000CF92DF92EF92FF920F931F93CF93DF93A2
:10223000EC016A017B012115310579F4E881F9810E
:102240000190F081E02D642FDF91CF911F910F91CC
:10225000FF90EF90DF90CF9019942A303105E9F488
:1022600077FF1AC06DE20E9478108C014427552731
:10227000BA014C195D096E097F092AE0CE010E945E
:10228000B710800F911FDF91CF911F910F91FF9099
:10229000EF90DF90CF9008952AE0B701A601CE011C
:1022A000DF91CF911F910F91FF90EF90DF90CF9032
:1022B0000C94B7100F931F93CF93DF93EC019A0107
:1022C000AB01662757FD6095762F0E9410118C0197
:1022D000CE010E947F10800F911FDF91CF911F913F
:1022E0000F910895FC01808191810C944316CF9346
:1022F000DF93EC0188819981009711F00E944316C9
:10230000198218821D821C821B821A82DF91CF9152
:1023100008950F931F93CF93DF93EC018B016F5FB1
:102320007F4F888199810E94D216009731F099835E
:1023300088831B830A8381E001C080E0DF91CF9115
:102340001F910F910895CF93DF93EC0188819981BC
:10235000892B29F08A819B818617970760F4CE012B
:102360000E948911882341F08C819D81892B19F469
:10237000E881F981108281E0DF91CF910895EF9299
:10238000FF920F931F93CF93DF93EC017B018A01A0
:10239000BA010E94A311811104C0CE010E947711DD
:1023A00007C01D830C83B701888199810E94F417AF
:1023B000CE01DF91CF911F910F91FF90EF90089583
:1023C000FC0111821082138212821582148261151F
:1023D000710559F0FB0101900020E9F7AF01415070
:1023E0005109461B570B0C94BF110895CF93DF93EF
:1023F000EC01FB018617970761F06081718161151F
:10240000710529F0448155810E94BF1102C00E94CC
:102410007711CE01DF91CF910895FC0111821082D6
:1024200013821282158214820C94F611CF93DF93DB
:10243000EC016115710561F0FB0101900020E9F7E5
:10244000AF0141505109461B570B0E94BF1102C0FA
:102450000E947711CE01DF91CF9108950F931F93C2
:10246000CF93DF93CDB7DEB762970FB6F894DEBF98
:102470000FBECDBF8C01CB01F801118210821382F7
:1024800012821582148250E0BE016F5F7F4F0E945E
:10249000FB17BE016F5F7F4FC8010E941612629644
:1024A0000FB6F894DEBF0FBECDBFDF91CF911F9165
:1024B0000F910895EF92FF920F931F93CF93DF93A5
:1024C000EC017B010C811D816115710511F480E027
:1024D00016C04115510591F0040F151FB8010E9457
:1024E000A3118823A1F3288139818C819D81B701B3
:1024F000820F931F0E94F4171D830C8381E0DF91EC
:10250000CF911F910F91FF90EF900895CF93DF939C
:102510001F921F92CDB7DEB769831A8241E050E067
:10252000BE016F5F7F4F0E945A120F900F90DF9194
:10253000CF910895CF93DF93EC01FB014481558146
:10254000608171810E945A12811103C0CE010E94E4
:102550007711CE01DF91CF910895CF93DF93EC01F6
:102560006115710569F0FB0101900020E9F7AF01E9
:1025700041505109461B570B0E945A12811103C04A
:10258000CE010E947711CE01DF91CF910895FC0119
:1025900024813581232B31F421E061157105A1F0EF
:1025A000FB0108C0FC01808191816115710531F446
:1025B00021E0FC018081882339F005C00E94EB17DF
:1025C00021E0892B09F020E0822F0895FC0184810D
:1025D00095816817790720F480819181009729F40B
:1025E00010924C048CE494E00895860F971F089590
:1025F000BF92CF92DF92EF92FF920F931F93CF93F0
:10260000DF936C017B01EA0189012417350720F46F
:102610008D2FE901042F182F6DE872E0C6010E948A
:10262000E011D70114968D919C911597C817D90781
:10263000C8F48017910708F48C01D701ED91FC9143
:102640001197E00FF11FB08010826D917C916C0F9B
:102650007D1FC6010E941612D701ED91FC91E00F7B
:10266000F11FB082C601DF91CF911F910F91FF90B2
:10267000EF90DF90CF90BF900895FC018081918111
:10268000009711F00C94BB1760E070E0CB01089547
:1026900008955058BB27AA270ED071C162D130F0DF
:1026A00067D120F031F49F3F11F41EF457C10EF4AE
:1026B000E095E7FB4DC1E92F73D180F3BA176207AC
:1026C00073078407950718F071F49EF58BC10EF41B
:1026D000E0950B2EBA2FA02D0B01B90190010C0132
:1026E000CA01A0011124FF27591B99F0593F50F44A
:1026F000503E68F11A16F040A22F232F342F4427A2
:10270000585FF3CF469537952795A795F040539599
:10271000C9F77EF41F16BA0B620B730B840BBAF069
:102720009150A1F0FF0FBB1F661F771F881FC2F7D4
:102730000EC0BA0F621F731F841F48F487957795E8
:102740006795B795F7959E3F08F0B3CF9395880F9F
:1027500008F09927EE0F9795879508950CD00FC133
:1027600007D140F0FED030F021F45F3F19F0F0C007
:10277000511139C1F3C014D198F39923C9F35523EA
:10278000B1F3951B550BBB27AA2762177307840764
:1027900038F09F5F5F4F220F331F441FAA1FA9F31A
:1027A00033D00E2E3AF0E0E830D091505040E6950C
:1027B000001CCAF729D0FE2F27D0660F771F881F6D
:1027C000BB1F261737074807AB07B0E809F0BB0B5C
:1027D000802DBF01FF2793585F4F2AF09E3F510580
:1027E00068F0B6C000C15F3FECF3983EDCF386951D
:1027F00077956795B795F7959F5FC9F7880F911DF6
:102800009695879597F90895E1E0660F771F881FE1
:10281000BB1F621773078407BA0720F0621B730B94
:10282000840BBA0BEE1F88F7E095089504D06894E6
:10283000B111D9C00895BCD088F09F5790F0B92F3E
:102840009927B751A0F0D1F0660F771F881F991F05
:102850001AF0BA95C9F712C0B13081F0C3D0B1E017
:102860000895C0C0672F782F8827B85F39F0B93F27
:10287000CCF3869577956795B395D9F73EF4909507
:102880008095709561957F4F8F4F9F4F0895E89485
:1028900009C097FB3EF490958095709561957F4FA8
:1028A0008F4F9F4F9923A9F0F92F96E9BB27939556
:1028B000F695879577956795B795F111F8CFFAF466
:1028C000BB0F11F460FF1BC06F5F7F4F8F4F9F4F97
:1028D00016C0882311F096E911C0772321F09EE8F5
:1028E000872F762F05C0662371F096E8862F70E05B
:1028F00060E02AF09A95660F771F881FDAF7880F35
:102900009695879597F90895990F0008550FAA0B8A
:10291000E0E8FEEF16161706E807F907C0F01216F2
:102920001306E407F50798F0621B730B840B950BF5
:1029300039F40A2661F0232B242B252B21F408954A
:102940000A2609F4A140A6958FEF811D811D0895E7
:1029500097F99F6780E870E060E008959FEF80EC52
:10296000089500240A9416161706180609060895F5
:1029700000240A9412161306140605060895092E5B
:102980000394000C11F4882352F0BB0F40F4BF2BCA
:1029900011F460FF04C06F5F7F4F8F4F9F4F08950A
:1029A00057FD9058440F551F59F05F3F71F0479500
:1029B000880F97FB991F61F09F3F79F087950895E5
:1029C000121613061406551FF2CF4695F1DF08C004
:1029D000161617061806991FF1CF86957105610521
:1029E00008940895E894BB2766277727CB0197F9C9
:1029F00008958ADF08F48FEF08950BD0C0CFB1DFC0
:102A000028F0B6DF18F0952309F0A2CFA7CF112444
:102A1000EACFC6DFA0F3959FD1F3950F50E0551F85
:102A2000629FF001729FBB27F00DB11D639FAA2723
:102A3000F00DB11DAA1F649F6627B00DA11D661F72
:102A4000829F2227B00DA11D621F739FB00DA11D93
:102A5000621F839FA00D611D221F749F3327A00D4D
:102A6000611D231F849F600D211D822F762F6A2FE9
:102A700011249F5750408AF0E1F088234AF0EE0F6E
:102A8000FF1FBB1F661F771F881F91505040A9F77B
:102A90009E3F510570F05CCFA6CF5F3FECF3983EB0
:102AA000DCF3869577956795B795F795E7959F5FE2
:102AB000C1F7FE2B880F911D9695879597F908957C
:102AC000A1E21A2EAA1BBB1BFD010DC0AA1FBB1F32
:102AD000EE1FFF1FA217B307E407F50720F0A21BA4
:102AE000B30BE40BF50B661F771F881F991F1A9411
:102AF00069F760957095809590959B01AC01BD013B
:102B0000CF010895052E97FB1EF400940E9499159D
:102B100057FD07D00E94601507FC03D04EF40C94BB
:102B2000991550954095309521953F4F4F4F5F4FE8
:102B3000089590958095709561957F4F8F4F9F4F29
:102B40000895EE0FFF1F0590F491E02D1994079062
:102B5000F691E02D1994CF93DF938230910510F414
:102B600082E090E0E0914F04F091500420E030E0EA
:102B7000A0E0B0E0309739F1408151814817590702
:102B8000B8F04817590771F482819381109729F0A2
:102B900013969C938E9312972CC09093500480931D
:102BA0004F0427C02115310531F04217530718F0A3
:102BB000A901DB0101C0EF019A01BD01DF01028023
:102BC000F381E02DD7CF21153105F9F0281B390B02
:102BD0002430310580F48A819B816115710521F0D3
:102BE000FB019383828304C09093500480934F042D
:102BF000FE01329644C0FE01E20FF31F81939193D0
:102C000022503109398328833AC020914D043091F4
:102C10004E04232B41F420910202309103023093A1
:102C20004E0420934D0420910002309101022115A1
:102C3000310541F42DB73EB7409104025091050291
:102C4000241B350BE0914D04F0914E04E217F3077D
:102C5000A0F42E1B3F0B2817390778F0AC014E5F0C
:102C60005F4F2417350748F04E0F5F1F50934E04F7
:102C700040934D048193919302C0E0E0F0E0CF01D6
:102C8000DF91CF910895CF93DF93009709F487C028
:102C9000FC01329713821282C0914F04D0915004EC
:102CA000209781F420813181280F391F80914D04B4
:102CB00090914E048217930779F5F0934E04E093B8
:102CC0004D046DC0DE0120E030E0AE17BF0750F4C8
:102CD00012964D915C9113979D014115510509F193
:102CE000DA01F3CFB383A28340815181840F951F12
:102CF0008A179B0771F48D919C911197840F951FF2
:102D000002969183808312968D919C911397938361
:102D100082832115310529F4F0935004E0934F0488
:102D20003EC0D9011396FC93EE9312974D915D919D
:102D3000A40FB51FEA17FB0779F480819181840FF6
:102D4000951F0296D90111969C938E93828193814F
:102D500013969C938E931297E0E0F0E08A819B811A
:102D6000009719F0FE01EC01F9CFCE0102962881FF
:102D70003981820F931F20914D0430914E04281702
:102D8000390769F4309729F41092500410924F04D7
:102D900002C013821282D0934E04C0934D04DF917F
:102DA000CF9108956F927F928F929F92AF92BF9230
:102DB000CF92DF92EF92FF920F931F93CF93DF9307
:102DC000EC01CB01209781F4DF91CF911F910F91FE
:102DD000FF90EF90DF90CF90BF90AF909F908F903B
:102DE0007F906F900C94AB15FE01E60FF71F9E01CC
:102DF00022503109E217F30708F4ACC0D9010D9154
:102E00001C91119706171707B8F00530110508F443
:102E10009FC0A801445051094617570708F498C0AD
:102E200002501109061B170B019311936D937C93AC
:102E3000CF010E9443168CC05B01A01AB10A4E015B
:102E4000800E911EA0914F04B0915004612C712C02
:102E500060E070E0109709F449C0A815B905C9F5FC
:102E6000ED90FC901197670142E0C40ED11CCA148A
:102E7000DB0478F147018A189B08640142E0C40E24
:102E8000D11C1296BC9012971396AC91B5E0CB165C
:102E9000D10440F0B282A38391828082D9018D93C4
:102EA0009C9309C00E5F1F4F0E0D1F1DF90111836A
:102EB0000083EB2DFA2F6115710531F0DB011396BC
:102EC000FC93EE93129744C0F0935004E0934F04A8
:102ED0003FC06D917C9111976616770608F43B010F
:102EE000BD0112960D90BC91A02DB4CF60914D0400
:102EF00070914E0468157905E9F468167906D0F4E6
:102F000040910002509101024115510541F44DB725
:102F10005EB76091040270910502461B570BE417DF
:102F2000F507C0F4F0934E04E0934D04F90191834A
:102F300080830EC00E94AB157C01009759F0A80158
:102F4000BE010E94E217CE010E944316C70104C0D1
:102F5000CE0102C080E090E0DF91CF911F910F91F0
:102F6000FF90EF90DF90CF90BF90AF909F908F90A9
:102F70007F906F9008951F93FC0199278827BC01CB
:102F8000E89411911032E9F3193010F01E30C8F3B3
:102F90001B3251F01D3249F4689406C00E9411188A
:102FA000610F711D811D911D119110531A30B0F3E5
:102FB0003EF490958095709561957F4F8F4F9F4F10
:102FC0001F910895FB01DC0102C001900D92415058
:102FD0005040D8F70895FB01DC018D9101908019D4
:102FE0000110D9F3990B0895FB01DC0101900D92BA
:102FF0000020E1F708954532510520F4423010F0E9
:103000000C940618FB011082CB010895BB274A30AF
:1030100031F4992322F4BDE2909581959F4F0C9451
:103020002718592F482F372F262F660F771F881FF5
:10303000991F660F771F881F991F620F731F841FC8
:10304000951F660F771F881F991F0895BB27FB01E7
:103050005527AA27880F991FAA1FA41710F0A41B91
:1030600083955051B9F7A05DAA3308F0A95DA193EB
:10307000009779F7B111B1931192CB010C944018DC
:10308000DC01FC01672F71917723E1F7329704C0CF
:103090007C916D9370836291AE17BF07C8F308955A
:1030A00012E0C4EDD2E000E006C022970109FE0163
:1030B0000BBF0E94A715C63DD10780E00807A9F7FE
:0430C000F894FFCFB2
:1030C400000051048000244150002444460044651B
:1030D400706C6F79696E672054657468657200441A
:1030E400726976696E670053706F6F6C696E6720E2
:1030F40052656D61696E6465720024444450002415
:10310400445450002444544600244454500A004477
:10311400726976696E672052656D61696E64657265
:10312400002444465452410024523050002452306A
:103134000A00526573656E64696E6720636F6D6D16
:10314400616E6420746F2043522E2E2E0A00466155
:10315400696C656420746F20636F6D6D756E69634F
:1031640061746520776974682043520024523046A4
:10317400002453500A0000000000F90D2A104C0DE1
:06318400650D570DD70D8B
:00000001FF
