:100000000C946B010C944F070C9480070C94B1076F
:100010000C94E2070C9413080C9444080C94750893
:100020000C94A6080C949C010C949C010C949C01CB
:100030000C949C010C949C010C949C010C949C01CC
:100040000C949C010C94B4020C949C010C949C01A3
:100050000C949C010C949C010C949C010C94D7086A
:100060000C949C010C943A0C0C94700C0C949C0114
:100070000C949C010C949C010C949C010C949C018C
:100080000C949C010C949C010C949C010C94860291
:100090000C949C010C949C010C949C010C949C016C
:1000A0000C949C010C949C010C949C010C949C015C
:1000B0000C949C010C949C010C949C010C949C014C
:1000C0000C949C010C949C010C949C010C949C013C
:1000D0000C949C010C949C010C94E70C0C941D0D49
:1000E0000C949C012907F306FB0607071407350744
:1000F0004207F309F609E509E909EF092D0AFA09AA
:10010000FE09040A080A0C0A120A160A1A0A2D0A1B
:10011000200A240A280A0C94730B0C9414070C94DC
:10012000F6090C94280A0C94D10A0C94E5090C9455
:10013000C60A0C94F3060C94470D0C94CA020C9456
:1001400035070C941A0A0C949A0C0C94A40D0C9478
:10015000DF0A0C94F3090C940C0A0C94E9090C9432
:100160002D0A0C94240A0C94E1010C94EF090C94D0
:10017000120A0C94200A0C94040A0C94FB060C94AA
:10018000A40C0C9407070C94510D0C94BE020C9413
:10019000F30A0C94160A0C94080A0C9442070C9467
:1001A000510B0C94FA090C9429070C94FE090000D9
:1001B0000A0B02090C0D0E080703040100000000E1
:1001C000000000000000000000000000000000002F
:1001D00000000000000000000000121110000000EC
:1001E000000000000000000000000000000000000F
:1001F00000000000010210202008081020401020FC
:1002000040800201020108040201010204081020DA
:1002100040808040201008040201800402018040D8
:100220002010080402010804020101020408102041
:1002300040800102040810204080050505050705DF
:1002400008080808020202020A0A08080404040452
:10025000010101010101010103030303030303037E
:10026000040707070C0C0C0C0C0C0C0C020202020D
:1002700006060606060606060B0B0B0B0B0B0B0BF6
:10028000000020002300260029002C002F0032004F
:100290000001000003010601090100002200250001
:1002A00028002B002E00310034000201000005015F
:1002B00008010B0100002100240027002A002D0066
:1002C0003000330001010000040107010A01BE02F1
:1002D000A40C510DCA0211241FBECFEFD1E2DEBF24
:1002E000CDBF00E00CBF12E0A0E0B2E0E4E7FAE22C
:1002F00000E00BBF02C007900D92A436B107D9F7FA
:1003000023E0A4E6B2E001C01D92AE3EB207E1F7E1
:1003100012E0C4EDD2E000E006C022970109FE0120
:100320000BBF0E94B412CE3CD10780E00807A9F7AA
:100330000E94950D0C9428150C9400000F931F93A8
:10034000CF93DF931F92CDB7DEB7FC01718360833B
:100350005383428326873787048715871482158243
:100360001682178260E0802F29830E942E0A61E0A6
:10037000802F0E94670A60E02981822F0F90DF9111
:10038000CF911F910F910C942E0ACF93DF93EC0124
:100390008E850E949D0A4C815D816E817F810197CF
:1003A00029F4415051096109710904C04F5F5F4F41
:1003B0006F4F7F4F4C835D836E837F83DF91CF913F
:1003C000089584E692E00C94830284E692E00E9411
:1003D000F40142E050E061EE71E082E00C94DE0650
:1003E00084E692E00C94C8050F931F93CF93DF939C
:1003F000EC0161E08DE00E942E0A10929000E1E98C
:10040000F0E0108210929500109294008081846038
:100410008083E1E7F0E080818160808327E030E045
:1004200048E050E061E070E087E892E00E940E064C
:1004300005E110E02EE130E048EC50E062E070E0D1
:10044000CE010E960E949E0118A21F8E1AA219A21A
:1004500026E040E052EC61E070E08FEA92E00E941A
:10046000D80B26E040E052EC61E070E08CE493E0D1
:100470000E94D80B1E826BE272E0CE010E94870FB1
:100480001D866BE272E0CE0107960E94870F80E323
:100490008E8FDF91CF911F910F9108950F931F932E
:1004A000CF93DF938B0164EF71E080E090E00E94D6
:1004B0005009C0E0D0E0C017D10704F560E08DE03E
:1004C0000E94670A6AEF70E080E090E00E945009A5
:1004D00061E08DE00E94670A6AEF70E080E090E0E2
:1004E0000E94500960E08DE00E94670A6AEF70E0A8
:1004F00080E090E00E9450092196DDCFDF91CF91FE
:100500001F910F9108950E960C94C5011F920F92A2
:100510000FB60F9211240BB60F922F933F934F9368
:100520005F936F937F938F939F93AF93BF93EF935B
:10053000FF938DE00E949D0A61E068278DE00E9494
:10054000670AFF91EF91BF91AF919F918F917F913A
:100550006F915F914F913F912F910F900BBE0F9034
:100560000FBE0F901F9018951F920F920FB60F920B
:1005700011240F900FBE0F901F9018956BE272E040
:1005800084E692E00E945A0F6BE272E08BE692E002
:100590000C945A0F8BE692E00E94EC0E84E692E0F7
:1005A0000C94EC0E8F929F92AF92BF92CF92DF92FB
:1005B000EF92FF920F931F93CF93DF93CDB7DEB7E8
:1005C0002C970FB6F894DEBF0FBECDBF8C016BE247
:1005D00072E0CE0107960E945A0F65E070E0C801F4
:1005E0000E944E0262E070E0C8010E94DF0FFC0131
:1005F00080818C3409F494C0823509F491C082342E
:1006000009F48EC027E030E044E050E0B801CE01AC
:1006100001960E94F10FBE016F5F7F4FCE010796DA
:100620000E94700FCE0101960E94EC0ECE0107963B
:100630000E9436104B015C0187E892E00E94DA06C6
:100640006C01EE24D7FCE094FE2C85E0889DB0017F
:10065000899D700D1124882777FD8095982F0E9421
:1006600042112BED3FE049E450E40E94A7100E94A4
:100670000F11C60ED71EE81EF91E60E47FE187E861
:1006800092E00E949E0661E070E087E892E00E949E
:100690007F0687E892E00E94850687E892E00E9444
:1006A000DA06AA2797FDA095BA2F8C159D05AE05F1
:1006B000BF059CF3B8018CE493E00E94E20D8CE44A
:1006C00093E00E94C60A892BD1F369E170E080E0D3
:1006D00090E00E9450097801F7E0EF0EF11CCC2465
:1006E000C3948CE493E00E94C60A18161906C4F459
:1006F0008CE493E00E94DF0AD82E682FC7010E9485
:10070000CB0F8AE0D812EDCFF801C586B7018FEA8A
:1007100092E00E94E20D8FEA92E00E94510BE1CF3D
:10072000CE0107960E94EC0E2C960FB6F894DEBF11
:100730000FBECDBFDF91CF911F910F91FF90EF9032
:10074000DF90CF90BF90AF909F908F900895CF9300
:10075000DF93EC0164E070E00E944E02BE018CE485
:1007600093E00E94E20D8CE493E00E94510B8CE434
:1007700093E00E94C60A18161906CCF78CE493E0A1
:100780000E94DF0AC82F682F8FEA92E00E94F20DC4
:10079000CA3069F78FEA92E0DF91CF910C94510B48
:1007A0004F925F926F927F929F92AF92BF92CF9241
:1007B000DF92EF92FF920F931F93CF93DF93CDB70A
:1007C000DEB768970FB6F894DEBF0FBECDBF8C01C1
:1007D0006BE272E0CE0143960E945A0F6BE272E028
:1007E000CE010D960E945A0F66E072E0CE01079688
:1007F0000E945A0F27E030E044E050E0B801CE01FB
:1008000001960E94F10FBE016F5F7F4FCE014396AC
:100810000E94700FCE0101960E94EC0ECE0143960D
:100820000E9436106B017C015B0163E070E0C8013F
:100830000E94DF0FFC0180818D3239F4AA24BB2491
:10084000AC18BD0861E070E002C060E070E087E8CD
:1008500092E00E947F06F801E78CF0A0EA0CFB1CF6
:10086000F4E1EF1AF10860E971E087E892E00E9494
:100870009E0687E892E00E9485066BE072E08CE4B9
:1008800093E00E94F00D8CE493E00E94C60A892B4D
:10089000D1F3C80107966C01AA24A3948CE493E0D9
:1008A0000E94C60A181619067CF48CE493E00E9494
:1008B000DF0AB82E682FC6010E94CB0F9AE0B9124A
:1008C000EDCFF801A586EACF26E030E043E050E026
:1008D000B601CE0101960E94F10FBE016F5F7F4FFE
:1008E000CE010D960E94700FCE0101960E94EC0E73
:1008F000CE010D960E943610F80170A3678F4AE072
:1009000050E08FEA92E00E94D40E99249394F8016B
:10091000878D90A18E159F050CF0CCC08091800032
:100920008F7B809380006BE072E08CE493E00E9408
:10093000F00D809180008064809380000E942109E6
:100940002B013C01A12CB12C8CE493E00E94C60A3F
:10095000892B89F50E94210964197509860997096F
:10096000613D7740810591057CF360E172E08FEA9B
:1009700092E00E94F00D2FEFA21AB20AF8946BE0F9
:1009800072E08CE493E00E94F00D78940E942109BB
:100990002B013C0184E0A816B104B1F66CE272E0D0
:1009A0008FEA92E00E941F0E6AE472E0CE01079681
:1009B0000E94870F7FC069E170E080E090E00E94B4
:1009C00050098CE493E00E94C60A8CE493E00E94F4
:1009D000C60A181619067CF48CE493E00E94DF0A1C
:1009E000B82E682FC6010E94CB0F9AE0B912EDCF46
:1009F000F8019586EACF789426E030E043E050E0B5
:100A0000B601CE0101960E94F10FBE016F5F7F4FCC
:100A1000CE010D960E94700FCE0101960E94EC0E41
:100A20006BE272E0C6010E94870FCE010D960E9414
:100A30003610F80170A3678F4AE050E08FEA92E029
:100A40000E94D40EF801878D90A18E159F053CF071
:100A500060E971E087E892E00E949E062BC0B70132
:100A6000681B790B882777FD8095982F0E9442118B
:100A70002B013C0120E030E040EA51E40E94F211F9
:100A800018161CF460E47FE110C020E030E04EEB6B
:100A900053E4C301B2010E94F61120E030E048ECBB
:100AA00053E40E9443100E940F1187E892E00E94D5
:100AB0006A062DCF87E892E00E949206BE01695F28
:100AC0007F4F8FEA92E00E940D0E8FEA92E00E9423
:100AD000510BCE0107960E94EC0ECE010D960E949E
:100AE000EC0ECE0143960E94EC0E68960FB6F89479
:100AF000DEBF0FBECDBFDF91CF911F910F91FF9051
:100B0000EF90DF90CF90BF90AF909F907F906F90CD
:100B10005F904F90089562E070E00E944E026FE493
:100B200072E08FEA92E00E94F00D8FEA92E00C945E
:100B3000510BCF93DF93EC0161E070E00E94DF0F77
:100B4000FC0180818934B9F0823539F08434C1F4F4
:100B5000CE01DF91CF910C94D20262E070E0CE0121
:100B60000E94DF0FFC018081803379F4CE01DF9198
:100B7000CF910C94D003CE01DF91CF910C94A703B9
:100B8000CE01DF91CF910C948B05DF91CF91089529
:100B90001F93CF93DF93EC018FEA92E00E94C60A85
:100BA00011E08FEA92E00E94C60A1816190674F442
:100BB0008FEA92E00E94DF0A8E8F682FCE010E949A
:100BC000CB0F8E8D8A3069F71E83EBCF6AEF70E012
:100BD00080E090E00E9450098E818823D9F060E087
:100BE00070E0CE010E94DF0FFC018081843291F41D
:100BF0008091710080937100CE010E9499058091CF
:100C000071008160809371006BE272E0CE010E94FE
:100C1000870F1E82DF91CF911F910895EF92FF926F
:100C20000F931F93CF93DF93EC01042F122F79833F
:100C3000688349875A872B873C87882777FD80956B
:100C4000982F0E9442112BED3FE049EC50E40E94A6
:100C5000A7100E940F117B836A8380E8E82EF12C95
:100C6000F7011082E1E8F0E0108210928500109206
:100C7000840080E991E090938900809388008081CE
:100C80008860808380818260808361E08BE00E9445
:100C90002E0A61E0802F0E942E0A61E0812F0E94BF
:100CA0002E0AF7018081808360E0812F0E94670A0D
:100CB00060E08BE00E94670A81E090E09D838C8376
:100CC00018861E861D86DF91CF911F910F91FF9090
:100CD000EF900895882777FD8095982F0E94421104
:100CE0009B01AC0160E074E284E799E40E94A710E4
:100CF0000E940F1170938900609388000895FC0191
:100D00006483758381850C94670A21E0FC01208748
:100D1000E0E8F0E020812064208360E0FC0183852E
:100D20000C94670AFC011086E0E8F0E020812F7B3C
:100D3000208360E0FC0183850C94670A0F931F9366
:100D4000CF93DF93EC018B016115710511F40E94C3
:100D500092068FE0809F9001819F300D11243F8388
:100D60002E834A815B81249FC001259F900D349F73
:100D7000900D112468EE73E00E9459129B014427E4
:100D800037FD4095542F69E07DE380E090E00E94BC
:100D90008F12CA01B90122E030E040E050E00E9429
:100DA0008F123093890020938800DF91CF911F919B
:100DB0000F910895FC01858596850895883008F087
:100DC0006DC0E82FF0E0EE0FFF1FEA56FD4F718374
:100DD000608390E0FC013197E730F10590F5EE5823
:100DE000FF4F0C94AE12809169008C7F842B80930E
:100DF0006900E89A089580916900440F551F440FD7
:100E0000551F837F842B80936900E99A0895809110
:100E1000690074E0440F551F7A95E1F78F7C842BAD
:100E200080936900EA9A08958091690066E0440F12
:100E3000551F6A95E1F78F73842B80936900EB9AB5
:100E4000089580916A008C7F842B80936A00EC9ACD
:100E5000089580916A00440F551F440F551F837FEA
:100E6000842B80936A00ED9A089580916A0024E0B3
:100E7000440F551F2A95E1F78F7C842B80936A00DD
:100E8000EE9A089580916A0096E0440F551F9A9556
:100E9000E1F78F73842B80936A00EF9A08951F9275
:100EA0000F920FB60F9211240BB60F922F933F9310
:100EB0004F935F936F937F938F939F93AF93BF9362
:100EC000EF93FF9380919A0290919B02892B29F0D6
:100ED000E0919A02F0919B021995FF91EF91BF91D9
:100EE000AF919F918F917F916F915F914F913F91C2
:100EF0002F910F900BBE0F900FBE0F901F90189563
:100F00001F920F920FB60F9211240BB60F922F93D0
:100F10003F934F935F936F937F938F939F93AF9381
:100F2000BF93EF93FF9380919C0290919D02892B38
:100F300029F0E0919C02F0919D021995FF91EF91AB
:100F4000BF91AF919F918F917F916F915F914F91E1
:100F50003F912F910F900BBE0F900FBE0F901F90DF
:100F600018951F920F920FB60F9211240BB60F9285
:100F70002F933F934F935F936F937F938F939F93A1
:100F8000AF93BF93EF93FF9380919E0290919F0246
:100F9000892B29F0E0919E02F0919F021995FF9113
:100FA000EF91BF91AF919F918F917F916F915F91E1
:100FB0004F913F912F910F900BBE0F900FBE0F904E
:100FC0001F9018951F920F920FB60F9211240BB617
:100FD0000F922F933F934F935F936F937F938F93D2
:100FE0009F93AF93BF93EF93FF938091A002909153
:100FF000A102892B29F0E091A002F091A10219959C
:10100000FF91EF91BF91AF919F918F917F916F91E0
:101010005F914F913F912F910F900BBE0F900FBE9C
:101020000F901F9018951F920F920FB60F921124D8
:101030000BB60F922F933F934F935F936F937F93D2
:101040008F939F93AF93BF93EF93FF9380919602FB
:1010500090919702892B29F0E0919602F0919702E6
:101060001995FF91EF91BF91AF919F918F917F91D2
:101070006F915F914F913F912F910F900BBE0F9009
:101080000FBE0F901F9018951F920F920FB60F92E0
:1010900011240BB60F922F933F934F935F936F934F
:1010A0007F938F939F93AF93BF93EF93FF93809121
:1010B000980290919902892B29F0E0919802F09181
:1010C00099021995FF91EF91BF91AF919F918F91E7
:1010D0007F916F915F914F913F912F910F900BBE38
:1010E0000F900FBE0F901F9018951F920F920FB682
:1010F0000F9211240BB60F922F933F934F935F9350
:101100006F937F938F939F93AF93BF93EF93FF93CF
:101110008091A2029091A302892B29F0E091A20272
:10112000F091A3021995FF91EF91BF91AF919F911B
:101130008F917F916F915F914F913F912F910F9080
:101140000BBE0F900FBE0F901F9018951F920F921D
:101150000FB60F9211240BB60F922F933F934F931C
:101160005F936F937F938F939F93AF93BF93EF930F
:10117000FF938091A4029091A502892B29F0E09120
:10118000A402F091A5021995FF91EF91BF91AF9143
:101190009F918F917F916F915F914F913F912F918F
:1011A0000F900BBE0F900FBE0F901F9018951F92BF
:1011B0000F920FB60F9211242F933F938F939F930B
:1011C000AF93BF938091A7029091A802A091A9022A
:1011D000B091AA023091A60223E0230F2D3720F40C
:1011E0000196A11DB11D05C026E8230F0296A11D81
:1011F000B11D2093A6028093A7029093A802A0930A
:10120000A902B093AA028091AB029091AC02A09186
:10121000AD02B091AE020196A11DB11D8093AB024B
:101220009093AC02A093AD02B093AE02BF91AF9188
:101230009F918F913F912F910F900FBE0F901F9014
:1012400018952FB7F8946091A7027091A802809129
:10125000A9029091AA022FBF08953FB7F8948091F8
:10126000AB029091AC02A091AD02B091AE0226B556
:10127000A89B05C02F3F19F00196A11DB11D3FBFCE
:101280006627782F892F9A2F620F711D811D911D5E
:1012900042E0660F771F881F991F4A95D1F708957E
:1012A000CF92DF92EF92FF92CF93DF936B017C019D
:1012B0000E942D09EB01C114D104E104F10489F06D
:1012C0000E9441100E942D096C1B7D0B683E7340EB
:1012D00090F381E0C81AD108E108F108C851DC4F49
:1012E000EACFDF91CF91FF90EF90DF90CF900895FC
:1012F000789484B5826084BD84B5816084BD85B5F1
:10130000826085BD85B5816085BDEEE6F0E08081B7
:1013100081608083E1E8F0E01082808182608083D8
:10132000808181608083E0E8F0E08081816080835B
:10133000E1EBF0E0808184608083E0EBF0E080818D
:1013400081608083E1E9F0E0808182608083808138
:1013500081608083E0E9F0E0808181608083E1EA60
:10136000F0E0808182608083808181608083E0EA18
:10137000F0E0808181608083E1E2F1E08081826041
:101380008083808181608083E0E2F1E08081816000
:101390008083EAE7F0E080818460808380818260DE
:1013A00080838081816080838081806880831092C7
:1013B000C100089590E0FC013197E231F10508F099
:1013C0004CC0E758FF4F0C94AE12809180008F778D
:1013D00003C0809180008F7D80938000089580916C
:1013E0008000877FF9CF84B58F7702C084B58F7D69
:1013F00084BD08958091B0008F7703C08091B000C4
:101400008F7D8093B0000895809190008F7707C002
:10141000809190008F7D03C080919000877F8093A2
:10142000900008958091A0008F7707C08091A00060
:101430008F7D03C08091A000877F8093A0000895D6
:10144000809120018F7707C0809120018F7D03C09C
:1014500080912001877F809320010895CF93DF93AF
:1014600090E0FC01EC50FE4F2491FC01E65CFD4F46
:101470008491882349F190E0880F991FFC01EC5476
:10148000FD4FA591B49186569D4FFC01C591D49115
:101490009FB7611108C0F8948C91209582238C939A
:1014A000888182230AC0623051F4F8948C91322FE3
:1014B000309583238C938881822B888304C0F89491
:1014C0008C91822B8C939FBFDF91CF9108950F93C6
:1014D0001F93CF93DF931F92CDB7DEB7282F30E055
:1014E000F901E255FE4F8491F901EC50FE4F149141
:1014F000F901E65CFD4F04910023C9F0882321F037
:1015000069830E94DA096981E02FF0E0EE0FFF1F86
:10151000E656FD4FA591B4919FB7F8948C91611157
:1015200003C01095812301C0812B8C939FBF0F9026
:10153000DF91CF911F910F910895CF93DF93282FC3
:1015400030E0F901E255FE4F8491F901EC50FE4F75
:10155000D491F901E65CFD4FC491CC2391F0811147
:101560000E94DA09EC2FF0E0EE0FFF1FE058FD4F6C
:10157000A591B4912C912D2381E090E021F480E09D
:1015800002C080E090E0DF91CF910895FC01818D51
:10159000228D90E0805C9F4F821B91098F73992769
:1015A0000895FC01918D828D981731F0828DE80F9E
:1015B000F11D858D90E008958FEF9FEF0895FC0158
:1015C000918D828D981761F0828DDF01A80FB11D7A
:1015D0005D968C91928D9F5F9F73928F90E008959E
:1015E0008FEF9FEF08958AE99CE0892B41F080E01E
:1015F00090E0892B21F00E949A0C811125C080E097
:1016000090E0892B41F080E090E0892B21F00E944E
:10161000000081111CC080E090E0892B41F080E047
:1016200090E0892B21F00E940000811113C087E413
:101630009DE0892BA1F080E090E0892B81F00E9451
:10164000470D81110AC008950E940000D8CF0E9462
:101650000000E1CF0E940000EACF0C940000089542
:10166000FC01848DDF01A80FB11DA35ABF4F2C913F
:10167000848D90E001968F739927848FA689B7890E
:101680002C93A089B1898C9180648C93938D848DE7
:10169000981306C00288F389E02D80818F7D8083B6
:1016A0000895CF93DF93EC01888D8823C9F0EA89F0
:1016B000FB89808185FD05C0A889B9898C9186FD4B
:1016C0000FC00FB607FCF5CF808185FFF2CFA88948
:1016D000B9898C9185FFEDCFCE010E94300BE7CF09
:1016E000DF91CF910895CF92DF92FF920F931F93D6
:1016F000CF93DF931F92CDB7DEB76C01DC015B9611
:101700009C915B975C968C915C97981307C0509660
:10171000ED91FC915197808185FD32C0F601038DDA
:1017200010E00F5F1F4F0F731127F02EF601848D0D
:10173000F81211C00FB607FCF9CFD6015096ED9103
:10174000FC915197808185FFF1CFC60169830E948A
:10175000300B6981EBCF838DE80FF11DE35AFF4F0A
:101760006083D6015B960C935B975296ED91FC914A
:10177000539780818062808381E058968C930DC05E
:10178000D6015696ED91FC91579760835096ED9156
:10179000FC91519780818064808381E090E00F907C
:1017A000DF91CF911F910F91FF90DF90CF9008951F
:1017B000BF92CF92DF92EF92FF92CF93DF93EC0133
:1017C0006A017B01B22EE889F98982E080834115A4
:1017D00081EE580761057105A1F060E079E08DE3C5
:1017E00090E0A70196010E946D1221503109410934
:1017F00051095695479537952795211580E138076A
:1018000098F0E889F989108260E874E88EE190E048
:10181000A70196010E946D12215031094109510919
:101820005695479537952795EC85FD853083EE8550
:10183000FF852083188EEC89FD89B082EA89FB89B7
:10184000808180618083EA89FB89808188608083D0
:10185000EA89FB89808180688083EA89FB898081AD
:101860008F7D8083DF91CF91FF90EF90DF90CF90BD
:10187000BF9008951F920F920FB60F9211240BB6CE
:101880000F922F938F939F93EF93FF93E091BF025B
:10189000F091C0028081E091C502F091C60282FD04
:1018A00012C090818091C8028F5F8F732091C9020E
:1018B000821751F0E091C802F0E0E155FD4F958F9D
:1018C0008093C80201C08081FF91EF919F918F9119
:1018D0002F910F900BBE0F900FBE0F901F90189579
:1018E0001F920F920FB60F9211240BB60F922F93E7
:1018F0003F934F935F936F937F938F939F93AF9398
:10190000BF93EF93FF938FEA92E00E94300BFF9119
:10191000EF91BF91AF919F918F917F916F915F9167
:101920004F913F912F910F900BBE0F900FBE0F90D4
:101930001F9018958FEA92E00E94C60A21E0892B39
:1019400009F420E0822F08951092B2021092B102A1
:1019500088EE93E0A0E0B0E08093B3029093B402ED
:10196000A093B502B093B60288E592E09093B002DE
:101970008093AF0285EC90E09093BC028093BB0211
:1019800084EC90E09093BE028093BD0280EC90E0E6
:101990009093C0028093BF0281EC90E09093C202CA
:1019A0008093C10282EC90E09093C4028093C302C2
:1019B00086EC90E09093C6028093C5021092C80214
:1019C0001092C9021092CA021092CB0208951F927F
:1019D0000F920FB60F9211240BB60F922F938F9385
:1019E0009F93EF93FF93E0915C03F0915D038081FF
:1019F000E0916203F091630382FD12C090818091B7
:101A000065038F5F8F7320916603821751F0E09119
:101A10006503F0E0E45BFC4F958F8093650301C0A4
:101A20008081FF91EF919F918F912F910F900BBE2D
:101A30000F900FBE0F901F9018951F920F920FB628
:101A40000F9211240BB60F922F933F934F935F93F6
:101A50006F937F938F939F93AF93BF93EF93FF9376
:101A60008CE493E00E94300BFF91EF91BF91AF9116
:101A70009F918F917F916F915F914F913F912F91A6
:101A80000F900BBE0F900FBE0F901F9018958CE417
:101A900093E00E94C60A21E0892B09F420E0822FFE
:101AA000089510924F0310924E0388EE93E0A0E049
:101AB000B0E08093500390935103A0935203B093EE
:101AC000530388E592E090934D0380934C0385E3A4
:101AD00091E0909359038093580384E391E09093AD
:101AE0005B0380935A0380E391E090935D038093BE
:101AF0005C0381E391E090935F0380935E0382E354
:101B000091E0909361038093600386E391E090936A
:101B10006303809362031092650310926603109230
:101B2000670310926803089508950E9478090E943F
:101B3000940D0E94E501C3EFDAE00E94F0012097C6
:101B4000E1F30E94F30AF9CFCF92DF92EF92FF9276
:101B50000F931F93CF93DF936C017A01EB01E60E95
:101B6000F71E00E010E0CE15DF0561F06991D601A7
:101B7000ED91FC910190F081E02DC6011995080FBF
:101B8000191FF1CFC801DF91CF911F910F91FF90E5
:101B9000EF90DF90CF9008956115710581F0DB0122
:101BA0000D900020E9F7AD0141505109461B570B3C
:101BB000DC01ED91FC910280F381E02D199480E02D
:101BC00090E00895DC01ED91FC91DB0114964D91BC
:101BD0005C9115976D917C910280F381E02D1994B1
:101BE0000C94CC0DDC01ED91FC910190F081E02D85
:101BF00019940F931F93CF93DF93EC016DE00E9434
:101C0000F20D8C016AE0CE010E94F20D800F911F4F
:101C1000DF91CF911F910F9108950F931F93CF9351
:101C2000DF93EC010E94E20D8C01CE010E94F90DC0
:101C3000800F911FDF91CF911F910F9108950F9306
:101C40001F93CF93DF93EC010E94CC0D8C01CE014A
:101C50000E94F90D800F911FDF91CF911F910F917D
:101C600008958F929F92AF92BF92CF92DF92EF92A0
:101C7000FF920F931F93CF93DF93CDB7DEB7A1975A
:101C80000FB6F894DEBF0FBECDBF7C01C42EE52F8A
:101C9000CB01D22E19A221E02D1510F02AE0D22E70
:101CA0008E010F5D1F4F8D2C912CA12CB12C6C2D12
:101CB0007E2FA50194010E946D128C2DD29E801959
:101CC0001124015011098A3014F4805D01C0895C2F
:101CD000F8018083211531054105510521F0C22EFF
:101CE000E32FCA01E4CFB801C7010E94CC0DA19631
:101CF0000FB6F894DEBF0FBECDBFDF91CF911F911D
:101D00000F91FF90EF90DF90CF90BF90AF909F909A
:101D10008F900895CF92DF92EF92FF920F931F93CF
:101D2000CF93DF93EC016A017B012115310579F432
:101D3000E881F9810190F081E02D642FDF91CF914E
:101D40001F910F91FF90EF90DF90CF9019942A3060
:101D50003105E9F477FF1AC06DE20E94F20D8C01A3
:101D600044275527BA014C195D096E097F092AE0FD
:101D7000CE010E94310E800F911FDF91CF911F91F4
:101D80000F91FF90EF90DF90CF9008952AE0B70178
:101D9000A601CE01DF91CF911F910F91FF90EF909F
:101DA000DF90CF900C94310E0F931F93CF93DF935E
:101DB000EC019A01AB01662757FD6095762F0E94D2
:101DC0008A0E8C01CE010E94F90D800F911FDF91C8
:101DD000CF911F910F910895FC01808191810C9406
:101DE0006413CF93DF93EC0188819981009711F000
:101DF0000E946413198218821D821C821B821A821F
:101E0000DF91CF9108950F931F93CF93DF93EC0150
:101E10008B016F5F7F4F888199810E94F313009738
:101E200031F0998388831B830A8381E001C080E0BD
:101E3000DF91CF911F910F910895CF93DF93EC0124
:101E400088819981892B29F08A819B818617970740
:101E500060F4CE010E94030F882341F08C819D81A4
:101E6000892B19F4E881F981108281E0DF91CF910B
:101E70000895EF92FF920F931F93CF93DF93EC019E
:101E80007B018A01BA010E941D0F811104C0CE019D
:101E90000E94F10E07C01D830C83B70188819981D0
:101EA0000E940C15CE01DF91CF911F910F91FF90F1
:101EB000EF900895FC011182108213821282158224
:101EC00014826115710559F0FB0101900020E9F7BA
:101ED000AF0141505109461B570B0C94390F08951F
:101EE000CF93DF93EC01FB018617970761F06081C8
:101EF00071816115710529F0448155810E94390F66
:101F000002C00E94F10ECE01DF91CF910895CF93D0
:101F1000DF93EC016115710561F0FB010190002078
:101F2000E9F7AF0141505109461B570B0E94390F89
:101F300002C00E94F10ECE01DF91CF910895EF9281
:101F4000FF920F931F93CF93DF93EC017B010C81E2
:101F50001D816115710511F480E016C04115510510
:101F600091F0040F151FB8010E941D0F8823A1F3E3
:101F7000288139818C819D81B701820F931F0E9436
:101F80000C151D830C8381E0DF91CF911F910F9180
:101F9000FF90EF900895CF93DF931F921F92CDB7DC
:101FA000DEB769831A8241E050E0BE016F5F7F4F68
:101FB0000E949F0F0F900F90DF91CF910895FC0129
:101FC000848195816817790720F480819181009739
:101FD00029F41092E90389EE93E00895860F971F84
:101FE0000895BF92CF92DF92EF92FF920F931F93CB
:101FF000CF93DF936C017B01EA0189012417350738
:1020000020F48D2FE901042F182F6BE272E0C60136
:102010000E945A0FD70114968D919C911597C8175D
:10202000D907C8F48017910708F48C01D701ED9106
:10203000FC911197E00FF11FB08010826D917C919F
:102040006C0F7D1FC6010E94870FD701ED91FC9197
:10205000E00FF11FB082C601DF91CF911F910F9168
:10206000FF90EF90DF90CF90BF900895FC018081AA
:102070009181009711F00C94DC1460E070E0CB01CA
:10208000089508955058BB27AA270ED071C162D178
:1020900030F067D120F031F49F3F11F41EF457C1A6
:1020A0000EF4E095E7FB4DC1E92F73D180F3BA1729
:1020B000620773078407950718F071F49EF58BC1CA
:1020C0000EF4E0950B2EBA2FA02D0B01B901900153
:1020D0000C01CA01A0011124FF27591B99F0593F97
:1020E00050F4503E68F11A16F040A22F232F342FDF
:1020F0004427585FF3CF469537952795A795F0402D
:102100005395C9F77EF41F16BA0B620B730B840B41
:10211000BAF09150A1F0FF0FBB1F661F771F881FF9
:10212000C2F70EC0BA0F621F731F841F48F4879551
:1021300077956795B795F7959E3F08F0B3CF939540
:10214000880F08F09927EE0F9795879508950CD082
:102150000FC107D140F0FED030F021F45F3F19F0FD
:10216000F0C0511139C1F3C014D198F39923C9F3C8
:102170005523B1F3951B550BBB27AA27621773078D
:10218000840738F09F5F5F4F220F331F441FAA1F41
:10219000A9F333D00E2E3AF0E0E830D09150504001
:1021A000E695001CCAF729D0FE2F27D0660F771FAF
:1021B000881FBB1F261737074807AB07B0E809F091
:1021C000BB0B802DBF01FF2793585F4F2AF09E3F26
:1021D000510568F0B6C000C15F3FECF3983EDCF3F8
:1021E000869577956795B795F7959F5FC9F7880F9F
:1021F000911D9695879597F90895E1E0660F771FF1
:10220000881FBB1F621773078407BA0720F0621B81
:10221000730B840BBA0BEE1F88F7E095089504D07A
:102220006894B111D9C00895BCD088F09F5790F040
:10223000B92F9927B751A0F0D1F0660F771F881FEB
:10224000991F1AF0BA95C9F712C0B13081F0C3D006
:10225000B1E00895C0C0672F782F8827B85F39F0A4
:10226000B93FCCF3869577956795B395D9F73EF44A
:1022700090958095709561957F4F8F4F9F4F0895F2
:10228000E89409C097FB3EF4909580957095619510
:102290007F4F8F4F9F4F9923A9F0F92F96E9BB27C6
:1022A0009395F695879577956795B795F111F8CF42
:1022B000FAF4BB0F11F460FF1BC06F5F7F4F8F4FAD
:1022C0009F4F16C0882311F096E911C0772321F0A3
:1022D0009EE8872F762F05C0662371F096E8862F3B
:1022E00070E060E02AF09A95660F771F881FDAF792
:1022F000880F9695879597F90895990F0008550FBF
:10230000AA0BE0E8FEEF16161706E807F907C0F07B
:1023100012161306E407F50798F0621B730B840B83
:10232000950B39F40A2661F0232B242B252B21F45D
:1023300008950A2609F4A140A6958FEF811D811DFD
:10234000089597F99F6780E870E060E008959FEF37
:1023500080EC089500240A9416161706180609063C
:10236000089500240A94121613061406050608950B
:10237000092E0394000C11F4882352F0BB0F40F493
:10238000BF2B11F460FF04C06F5F7F4F8F4F9F4FD3
:10239000089557FD9058440F551F59F05F3F71F055
:1023A0004795880F97FB991F61F09F3F79F08795BC
:1023B0000895121613061406551FF2CF4695F1DF45
:1023C00008C0161617061806991FF1CF86957105D5
:1023D000610508940895E894BB2766277727CB0109
:1023E00097F908958ADF08F48FEF08950BD0C0CFD6
:1023F000B1DF28F0B6DF18F0952309F0A2CFA7CF00
:102400001124EACFC6DFA0F3959FD1F3950F50E0DA
:10241000551F629FF001729FBB27F00DB11D639F96
:10242000AA27F00DB11DAA1F649F6627B00DA11D3C
:10243000661F829F2227B00DA11D621F739FB00DE2
:10244000A11D621F839FA00D611D221F749F332752
:10245000A00D611D231F849F600D211D822F762FEB
:102460006A2F11249F5750408AF0E1F088234AF0E8
:10247000EE0FFF1FBB1F661F771F881F9150504034
:10248000A9F79E3F510570F05CCFA6CF5F3FECF3FC
:10249000983EDCF3869577956795B795F795E79520
:1024A0009F5FC1F7FE2B880F911D9695879597F931
:1024B000089597FB072E16F4009407D077FD09D0F6
:1024C0000E94B81207FC05D03EF4909581959F4F6D
:1024D0000895709561957F4F0895A1E21A2EAA1B69
:1024E000BB1BFD010DC0AA1FBB1FEE1FFF1FA217C4
:1024F000B307E407F50720F0A21BB30BE40BF50BC1
:10250000661F771F881F991F1A9469F76095709549
:10251000809590959B01AC01BD01CF010895052EDA
:1025200097FB1EF400940E94A61257FD07D00E944C
:102530006D1207FC03D04EF40C94A61250954095F2
:10254000309521953F4F4F4F5F4F0895909580955F
:10255000709561957F4F8F4F9F4F0895EE0FFF1F2E
:102560000590F491E02D19940790F691E02D1994BF
:10257000AA1BBB1B51E107C0AA1FBB1FA617B707A9
:1025800010F0A61BB70B881F991F5A95A9F78095C5
:102590009095BC01CD010895CF93DF9382309105D2
:1025A00010F482E090E0E091EC03F091ED0320E084
:1025B00030E0A0E0B0E0309739F140815181481718
:1025C0005907B8F04817590771F482819381109721
:1025D00029F013969C938E9312972CC09093ED0341
:1025E0008093EC0327C02115310531F042175307C2
:1025F00018F0A901DB0101C0EF019A01BD01DF0163
:102600000280F381E02DD7CF21153105F9F0281B89
:10261000390B2430310580F48A819B816115710565
:1026200021F0FB019383828304C09093ED03809398
:10263000EC03FE01329644C0FE01E20FF31F8193CA
:10264000919322503109398328833AC02091EA03BB
:102650003091EB03232B41F42091020230910302CD
:102660003093EB032093EA032091000230910102A2
:102670002115310541F42DB73EB740910402509128
:102680000502241B350BE091EA03F091EB03E217FE
:10269000F307A0F42E1B3F0B2817390778F0AC0185
:1026A0004E5F5F4F2417350748F04E0F5F1F509362
:1026B000EB034093EA038193919302C0E0E0F0E0E2
:1026C000CF01DF91CF910895CF93DF93009709F465
:1026D00087C0FC01329713821282C091EC03D09123
:1026E000ED03209781F420813181280F391F8091DB
:1026F000EA039091EB038217930779F5F093EB03CC
:10270000E093EA036DC0DE0120E030E0AE17BF07C2
:1027100050F412964D915C9113979D01411551050E
:1027200009F1DA01F3CFB383A28340815181840F91
:10273000951F8A179B0771F48D919C911197840FB7
:10274000951F02969183808312968D919C91139789
:10275000938382832115310529F4F093ED03E093EF
:10276000EC033EC0D9011396FC93EE9312974D9162
:102770005D91A40FB51FEA17FB0779F48081918161
:10278000840F951F0296D90111969C938E93828196
:10279000938113969C938E931297E0E0F0E08A81E8
:1027A0009B81009719F0FE01EC01F9CFCE01029652
:1027B00028813981820F931F2091EA033091EB0326
:1027C0002817390769F4309729F41092ED03109215
:1027D000EC0302C013821282D093EB03C093EA038E
:1027E000DF91CF9108956F927F928F929F92AF92D7
:1027F000BF92CF92DF92EF92FF920F931F93CF93EE
:10280000DF93EC01CB01209781F4DF91CF911F91F1
:102810000F91FF90EF90DF90CF90BF90AF909F907F
:102820008F907F906F900C94CC12FE01E60FF71FF3
:102830009E0122503109E217F30708F4ACC0D90118
:102840000D911C91119706171707B8F00530110567
:1028500008F49FC0A801445051094617570708F4CF
:1028600098C002501109061B170B019311936D9329
:102870007C93CF010E9464138CC05B01A01AB10A43
:102880004E01800E911EA091EC03B091ED03612CDE
:10289000712C60E070E0109709F449C0A815B905E3
:1028A000C9F5ED90FC901197670142E0C40ED11C70
:1028B000CA14DB0478F147018A189B08640142E0DE
:1028C000C40ED11C1296BC9012971396AC91B5E031
:1028D000CB16D10440F0B282A38391828082D901C9
:1028E0008D939C9309C00E5F1F4F0E0D1F1DF901A4
:1028F00011830083EB2DFA2F6115710531F0DB0197
:102900001396FC93EE93129744C0F093ED03E0937B
:10291000EC033FC06D917C9111976616770608F421
:102920003B01BD0112960D90BC91A02DB4CF6091DA
:10293000EA037091EB0368157905E9F468167906E6
:10294000D0F440910002509101024115510541F42B
:102950004DB75EB76091040270910502461B570B9C
:10296000E417F507C0F4F093EB03E093EA03F901F1
:10297000918380830EC00E94CC127C01009759F095
:10298000A801BE010E940315CE010E946413C70175
:1029900004C0CE0102C080E090E0DF91CF911F9192
:1029A0000F91FF90EF90DF90CF90BF90AF909F90EE
:1029B0008F907F906F9008951F93FC01992788272F
:1029C000BC01E89411911032E9F3193010F01E3077
:1029D000C8F31B3251F01D3249F4689406C00E94BE
:1029E0001315610F711D811D911D119110531A3026
:1029F000B0F33EF490958095709561957F4F8F4F21
:102A00009F4F1F910895FB01DC0102C001900D92C0
:102A100041505040D8F70895FB01DC0101900D9220
:102A20000020E1F70895592F482F372F262F660FE2
:102A3000771F881F991F660F771F881F991F620FC6
:102A4000731F841F951F660F771F881F991F089596
:102A500012E0C4EDD2E000E006C022970109FE01B9
:102A60000BBF0E94B412C63DD10780E00807A9F74A
:042A7000F894FFCF08
:102A74000000EE03800024523050002452300A003B
:102A8400526573656E64696E6720636F6D6D616E08
:102A94006420746F2043522E2E2E0A004661696C06
:102AA400656420746F20636F6D6D756E6963617406
:102AB400652077697468204352002452304600240C
:102AC40053500A0000000000730BA40DC60ADF0A6D
:042AD400D10A510BC7
:00000001FF
