:1000000004C100002FC100002DC100002BC1000061
:1000100029C1000027C1000025C1000023C1000044
:1000200021C100001FC100001DC100001BC1000054
:1000300019C1000017C1000015C1000013C1000064
:1000400011C1000026C100000DC100000BC100005D
:1000500009C1000007C1000005C10000CDC20000B9
:1000600001C10000E1C400002FC60000FBC0000079
:10007000F9C00000F7C00000F5C00000F3C00000A8
:10008000F1C00000EFC00000EDC0000036C100006C
:100090000BC5000058C60000E5C00000E3C000002A
:1000A000E1C00000DFC00000DDC00000DBC00000D8
:1000B000D9C00000D7C00000D5C00000D3C00000E8
:1000C000D1C00000CFC00000CDC000002DC5000091
:1000D00079C60000C7C0000067C50000B2C60000B6
:1000E000C1C0000000002100240027002A002D00CC
:1000F0003000330001010000040107010A01000083
:100100002200250028002B002E00310034000201BF
:100110000000050108010B0100002000230026005B
:1001200029002C002F00320000010000030106010D
:10013000090105050505070508080808020202026D
:100140000A0A080804040404010101010101010173
:100150000303030303030303040707070C0C0C0C3E
:100160000C0C0C0C02020202060606060606060627
:100170000B0B0B0B0B0B0B0B0102102020080810B4
:100180002040102040800201020108040201010207
:1001900004081020408080402010080402018004E0
:1001A000020180402010080402010804020101023B
:1001B0000408102040800102040810204080000044
:1001C000090A02080B0C0D070603040100000000D9
:1001D000000000000000000000000000000000001F
:1001E0000000000000000000000011100F000000DF
:1001F00000000000000000000000000000000000FF
:100200000000000078019108730111241FBECFEF98
:10021000D1E2DEBFCDBF00E00CBF12E0A0E0B2E053
:10022000E0E2FBE100E00BBF02C007900D92A232BA
:10023000B107D9F71BBE14E0A2E2B2E001C01D92E3
:10024000A73EB107E1F712E0C8E0D2E004C0229770
:10025000FE010E94800DC430D107C9F70E94C80971
:100260000C94840DCDCEFB01DC0102C001900D92F7
:1002700041505040D8F70895FB01DC0101900D92E8
:100280000020E1F7089582E292E031C182E292E03B
:1002900075C11F920F920FB60F9211240F900FBECF
:1002A0000F901F9018958130910579F46F5F7F4F03
:1002B000C9F482E292E060E072E00E94F00A89E212
:1002C00092E060E072E00C94F00A892B59F46F5FC1
:1002D0007F4F41F489E292E00E941F0B82E292E09C
:1002E0000C941F0B089580E090E06FEF7FEFDBCF61
:1002F00081E090E06FEF7FEFD6CF1F920F920FB6A5
:100300000F920BB60F9211242F933F934F935F934D
:100310006F937F938F939F93AF93BF93EF93FF93CD
:100320008DE052D361E068278DE01CD3FF91EF91FF
:10033000BF91AF919F918F917F916F915F914F91FD
:100340003F912F910F900BBE0F900FBE0F901F90FB
:1003500018950F931F93CF93DF938B0164EF71E098
:1003600080E090E091D1C0E0D0E019C08DE060E085
:10037000F9D26AEF70E080E090E086D18DE061E034
:10038000F1D26AEF70E080E090E07ED18DE060E035
:10039000E9D26AEF70E080E090E076D12196C01754
:1003A000D10724F3DF91CF911F910F9108950F93FF
:1003B0001F9362E070E0CDDF0AE514E0C80161E060
:1003C00072E00E94360AC8015CD61F910F91089511
:1003D0000F931F9365E070E0BCDF0AE514E0C801ED
:1003E00066E072E00E94360AC8014BD61F910F9159
:1003F0000895FF920F931F93CF93DF93EC0163E077
:1004000070E0A7DF80EC94E0BE01FAD780EC94E0C6
:10041000DDD5892BD9F36AEF70E080E090E034D12C
:100420008E01095F1F4FFF24F3940CC080EC94E011
:10043000FFD5682F8E87C8010E94AD0A8E858A304D
:1004400009F4FD8680EC94E0C1D51816190674F302
:100450008AE594E0B801D4D78AE594E012D6DF911A
:10046000CF911F910F91FF9008950F931F938C01CF
:1004700064E070E06EDF80EC94E0B801C1D780ECFE
:1004800094E0FFD580EC94E0A1D5892BD9F380ECE2
:1004900094E09CD518161906D4F780EC94E0C8D5E2
:1004A000182F8AE594E0612FBDD71A3081F71F918C
:1004B0000F910895CF93DF93EC0161E070E0D8D7FE
:1004C000FC01E081E93441F0E23519F0E43451F403
:1004D00006C0CE018EDF08C0CE01C7DF05C0CE0149
:1004E00077DF02C0CE0163DFDF91CF910895FF92E5
:1004F0000F931F93CF93DF93EC01182F0D2FFF2441
:10050000F3940DC08AE594E093D5682F8E87812FF0
:10051000902F0E94AD0A8E858A3009F4FE828AE50A
:1005200094E054D5181619066CF36AEF70E080E079
:1005300090E0AAD08E818823D9F0812F902F60E09F
:1005400070E096D7FC018081843291F48091710033
:1005500080937100CE01AEDF809171008160809345
:100560007100812F902F60E072E00E94080B1E82C4
:10057000DF91CF911F910F91FF900895EF92FF921D
:100580000F931F937C018DE061E039D110929000B0
:10059000E1E9F0E0108210929500109294008081C1
:1005A00084608083E1E7F0E08081816080838AE578
:1005B00094E040E052EC61E070E082D480EC94E0A2
:1005C00040E052EC61E070E07BD4F701168200E07D
:1005D00012E0C701B8010E94080BF7011586C70198
:1005E0000796B8010E94080B80E3F70186871F91E8
:1005F0000F91FF90EF9008951F920F920FB60F92F8
:1006000011242F933F938F939F93AF93BF93809128
:10061000350290913602A0913702B09138023091A4
:1006200039020196A11DB11D232F2D5F2D3720F01A
:100630002D570196A11DB11D2093390280933502DB
:1006400090933602A0933702B09338028091310222
:1006500090913202A0913302B09134020196A11D13
:10066000B11D8093310290933202A0933302B09374
:100670003402BF91AF919F918F913F912F910F9035
:100680000FBE0F901F9018959B01AC017FB7F89497
:100690008091310290913202A0913302B0913402E4
:1006A00066B5A89B05C06F3F19F00196A11DB11D4D
:1006B0007FBFBA2FA92F982F8827860F911DA11DC4
:1006C000B11D62E0880F991FAA1FBB1F6A95D1F761
:1006D000BC012DC0FFB7F894809131029091320295
:1006E000A0913302B0913402E6B5A89B05C0EF3F5C
:1006F00019F00196A11DB11DFFBFBA2FA92F982F88
:1007000088278E0F911DA11DB11DE2E0880F991F52
:10071000AA1FBB1FEA95D1F7861B970B885E9340F3
:10072000C8F2215030404040504068517C4F211564
:1007300031054105510571F60895789484B58260BC
:1007400084BD84B5816084BD85B5826085BD85B575
:10075000816085BDEEE6F0E0808181608083E1E824
:10076000F0E010828081826080838081816080835C
:10077000E0E8F0E0808181608083E1EBF0E080815F
:1007800084608083E0EBF0E0808181608083E1E938
:10079000F0E0808182608083808181608083E0E9F5
:1007A000F0E0808181608083E1EAF0E08081826016
:1007B0008083808181608083E0EAF0E080818160D5
:1007C0008083E1E2F1E080818260808380818160CA
:1007D0008083E0E2F1E0808181608083EAE7F0E0FD
:1007E0008081846080838081826080838081816059
:1007F00080838081806880831092C1000895CF93A8
:10080000DF93482F50E0CA0188589E4FFC01349175
:100810004E5C5E4FFA018491882369F190E0880F65
:10082000991FFC01EC51FF4FA591B491FC01E250DE
:10083000FF4FC591D491662351F42FB7F8948C9152
:10084000932F909589238C93888189230BC06230E4
:1008500061F42FB7F8948C91932F909589238C9302
:100860008881832B88832FBF06C09FB7F8948C9113
:10087000832B8C939FBFDF91CF910895893009F42A
:1008800049C08A30A0F4843051F1853040F4823080
:1008900079F1833000F5813009F063C026C08730DC
:1008A00079F1883098F5863009F05BC025C08D302D
:1008B00009F442C08E3028F48B30B1F18C30C0F591
:1008C0002DC0803109F442C0813109F445C08F3018
:1008D00009F047C037C0809180008F7703C08091B6
:1008E00080008F7D80938000089584B58F7702C04B
:1008F00084B58F7D84BD08958091B0008F7703C04B
:100900008091B0008F7D8093B00008958091900019
:100910008F7707C0809190008F7D03C080919000F9
:10092000877F8093900008958091A0008F7707C003
:100930008091A0008F7D03C08091A000877F80936D
:10094000A0000895809120018F7703C0809120013D
:100950008F7D80932001089580912001877F80936F
:1009600020010895FF920F931F93F62E482F50E019
:10097000CA0182549E4FFC012491CA0188589E4F9F
:10098000FC0114914E5C5E4FFA0104910023C1F00A
:10099000222311F0822F72DFE02FF0E0EE0FFF1F15
:1009A000E250FF4FA591B4919FB7F894FF2021F436
:1009B0008C911095812302C08C91812B8C939FBFC9
:1009C0001F910F91FF9008950F931F93482F50E0B0
:1009D000CA0182549E4FFC012491CA0188589E4F3F
:1009E000FC0104914E5C5E4FFA011491112319F43D
:1009F00020E030E014C0222311F0822F3FDF812F4E
:100A000090E0880F991F885E9E4FFC01A591B491DC
:100A10008C9120E030E0802311F021E030E0C9012A
:100A20001F910F91089508951F920F920FB60F9284
:100A30000BB60F9211242F933F934F938F939F9355
:100A4000EF93FF938091C00082FD1DC04091C600CE
:100A500020917A0230917B022F5F3F4F2F733070CD
:100A600080917C0290917D022817390771F0E09106
:100A70007A02F0917B02E65CFD4F408330937B026B
:100A800020937A0202C08091C600FF91EF919F915E
:100A90008F914F913F912F910F900BBE0F900FBEF2
:100AA0000F901F90189508951F920F920FB60F92F6
:100AB0000BB60F9211242F933F934F938F939F93D5
:100AC000EF93FF938091C80082FD1DC04091CE003E
:100AD00020910203309103032F5F3F4F2F7330703B
:100AE00080910403909105032817390771F0E09174
:100AF0000203F0910303EE53FD4F40833093030351
:100B00002093020302C08091CE00FF91EF919F914C
:100B10008F914F913F912F910F900BBE0F900FBE71
:100B20000F901F90189508951F920F920FB60F9275
:100B30000BB60F9211242F933F934F938F939F9354
:100B4000EF93FF938091D00082FD1DC04091D600AD
:100B500020918A0330918B032F5F3F4F2F733070AA
:100B600080918C0390918D032817390771F0E091E3
:100B70008A03F0918B03E65BFC4F408330938B0339
:100B800020938A0302C08091D600FF91EF919F913C
:100B90008F914F913F912F910F900BBE0F900FBEF1
:100BA0000F901F90189508951F920F920FB60F92F5
:100BB0000BB60F9211242F933F934F938F939F93D4
:100BC000EF93FF938091300182FD1DC0409136016B
:100BD00020911204309113042F5F3F4F2F73307018
:100BE00080911404909115042817390771F0E09151
:100BF0001204F0911304EE52FC4F4083309313041F
:100C00002093120402C080913601FF91EF919F91D1
:100C10008F914F913F912F910F900BBE0F900FBE70
:100C20000F901F901895E0916604F0916704E05CC6
:100C3000FF4F8191919120813181805C9F4F821B78
:100C4000930B60E470E011D7892B09F0ECDEE091A2
:100C50008804F0918904E05CFF4F8191919120819B
:100C60003181805C9F4F821B930B60E470E0FDD666
:100C7000892B09F018DFE091AA04F091AB04E05C45
:100C8000FF4F8191919120813181805C9F4F821B28
:100C9000930B60E470E0E9D6892B09F044DFE09122
:100CA000CC04F091CD04E05CFF4F819191912081C3
:100CB0003181805C9F4F821B930B60E470E0D5D63E
:100CC000892B09F070CF08951F920F920FB60F92E3
:100CD0000BB60F9211242F933F938F939F93EF9313
:100CE000FF932091BE023091BF028091C00290918B
:100CF000C1022817390731F48091C1008F7D80939C
:100D0000C10014C0E091C002F091C102E258FD4F51
:100D100020818091C0029091C10201968F739070E2
:100D20009093C1028093C0022093C600FF91EF917F
:100D30009F918F913F912F910F900BBE0F900FBEFF
:100D40000F901F9018951F920F920FB60F920BB62F
:100D50000F9211242F933F938F939F93EF93FF93C1
:100D600020914603309147038091480390914903B5
:100D70002817390731F48091C9008F7D8093C9000D
:100D800014C0E0914803F0914903EA5FFC4F2081D1
:100D9000809148039091490301968F7390709093CE
:100DA0004903809348032093CE00FF91EF919F91D8
:100DB0008F913F912F910F900BBE0F900FBE0F9010
:100DC0001F9018951F920F920FB60F920BB60F92AD
:100DD00011242F933F938F939F93EF93FF93209131
:100DE000CE033091CF038091D0039091D103281787
:100DF000390731F48091D1008F7D8093D10014C0E8
:100E0000E091D003F091D103E257FC4F2081809113
:100E1000D0039091D10301968F7390709093D1037A
:100E20008093D0032093D600FF91EF919F918F91F3
:100E30003F912F910F900BBE0F900FBE0F901F9000
:100E400018951F920F920FB60F920BB60F921124A6
:100E50002F933F938F939F93EF93FF93209156048B
:100E600030915704809158049091590428173907FC
:100E700031F4809131018F7D8093310114C0E09174
:100E80005804F0915904EA5EFB4F20818091580488
:100E90009091590401968F739070909359048093A8
:100EA000580420933601FF91EF919F918F913F91CC
:100EB0002F910F900BBE0F900FBE0F901F901895A3
:100EC000AF92BF92DF92EF92FF920F931F93CF9357
:100ED000DF93EC017A018B01DD24403081EE58076D
:100EE00080E0680780E0780711F0DD24D39491E07A
:100EF000A92EB12CEC89FD89DD2069F0C50108A07F
:100F000002C0880F991F0A94E2F7808360E079E0BD
:100F10008DE390E005C0108260E874E88EE190E017
:100F2000A8019701B5D5215030404040504056951A
:100F300047953795279580E12030380720F0DD2050
:100F400011F0DD24D7CFE889F9893083EA89FB895C
:100F5000208319A2EE89FF89408121E030E0C90198
:100F60000C8C02C0880F991F0A94E2F7482B40832B
:100F7000EE89FF894081C9010D8C02C0880F991F3D
:100F80000A94E2F7482B4083EE89FF894081C9012A
:100F90000E8C02C0880F991F0A94E2F7482B4083F9
:100FA000EE89FF8980810F8C02C0220F331F0A94C3
:100FB000E2F7209528232083DF91CF911F910F9195
:100FC000FF90EF90DF90BF90AF900895DC011C96EA
:100FD000ED91FC911D97E05CFF4F819191912081F3
:100FE0003181805C9F4F821B930B60E470E03DC5B4
:100FF000DC011C96ED91FC911D97E05CFF4F208178
:101000003181E054F040DF01AE5BBF4F8D919C9188
:1010100011972817390719F42FEF3FEF07C08D916B
:101020009C91E80FF91F8081282F30E0C9010895B5
:10103000DC011C96ED91FC911D97E05CFF4F208137
:101040003181E054F040DF01AE5BBF4F8D919C9148
:1010500011972817390719F42FEF3FEF10C08D9122
:101060009C911197E80FF91F20818D919C91119708
:1010700001968F73907011969C938E9330E0C90106
:101080000895DC0191968C919197882339F05496BC
:10109000ED91FC915597808186FFF9CF91961C9236
:1010A0000895CF93DF93EC01EE85FF85E05CFF4F61
:1010B00020813181E054F0402F5F3F4F2F7330701B
:1010C000DF01AE5BBF4F8D919C91119728173907B7
:1010D000D1F3E05CFF4F80819181E054F040E80F54
:1010E000F91F6083EE85FF85E05CFF4F318320832D
:1010F000EE89FF89208181E090E00F8C02C0880F8B
:10110000991F0A94E2F7282B208381E089A3EC89B8
:10111000FD8980818064808381E090E0DF91CF91C0
:1011200008951F9310925D0410925C0428EE33E042
:1011300040E050E020935E0430935F0440936004ED
:101140005093610465E172E070935B0460935A040C
:101150008AE392E090936704809366048EE792E0BE
:10116000909369048093680485EC90E090936B04FD
:1011700080936A0484EC90E090936D0480936C04F7
:1011800080EC90E090936F0480936E0481EC90E08B
:10119000909371048093700482EC90E090937304B8
:1011A0008093720486EC90E09093750480937404AD
:1011B00014E010937604B3E0B0937704A7E0A09313
:1011C0007804F5E0F0937904E1E0E0937A0410927A
:1011D0007F0410927E042093800430938104409316
:1011E00082045093830470937D0460937C0482ECAA
:1011F00092E0909389048093880486E093E0909332
:101200008B0480938A048DEC90E090938D048093FE
:101210008C048CEC90E090938F0480938E0488EC87
:1012200090E0909391048093900489EC90E09093E7
:101230009304809392048AEC90E0909395048093B9
:1012400094048EEC90E0909397048093960410930E
:101250009804B0939904A0939A04F0939B04E093AC
:101260009C041092A1041092A0042093A204309335
:10127000A3044093A4045093A50470939F04609327
:101280009E048AE493E09093AB048093AA048EE8D2
:1012900093E09093AD048093AC0485ED90E090933F
:1012A000AF048093AE0484ED90E09093B1048093FA
:1012B000B00480ED90E09093B3048093B20481ED8C
:1012C00090E09093B5048093B40482ED90E0909305
:1012D000B7048093B60486ED90E09093B9048093B0
:1012E000B8041093BA04B093BB04A093BC04F09369
:1012F000BD04E093BE041092C3041092C204209374
:10130000C4043093C5044093C6045093C70470933B
:10131000C1046093C00482ED93E09093CD04809368
:10132000CC0486E194E09093CF048093CE0485E3CF
:1013300091E09093D1048093D00484E391E0909362
:10134000D3048093D20480E391E09093D5048093FA
:10135000D40481E391E09093D7048093D60482E390
:1013600091E09093D9048093D80486E391E0909320
:10137000DB048093DA041093DC04B093DD04A093C3
:10138000DE04F093DF04E093E0041F9108950895D4
:10139000CF93DF93D2D9FBDF0E944601C3E1D6E0B1
:1013A0000E9443012097E1F33EDCFACFCF92DF9217
:1013B000EF92FF920F931F93CF93DF937C016B010A
:1013C0008A01C0E0D0E00FC0D6016D916D01D70158
:1013D000ED91FC910190F081E02DC7011995C80FA6
:1013E000D91F015010400115110571F7CE01DF9191
:1013F000CF911F910F91FF90EF90DF90CF900895C4
:10140000CF93DF93FB01EC01A881B98160817181E9
:10141000448155811296ED91FC9113971995DF91B6
:10142000CF910895DC01ED91FC910190F081E02DC8
:1014300019950895CF93DF93EC016115710519F4A7
:1014400020E030E00FC0DB010D900020E9F711979C
:10145000A61BB70BE881F9810280F381E02DAD0175
:1014600019959C01C901DF91CF910895E3CF0895AB
:10147000FC019B01848195816817790728F46081BC
:1014800071816115710529F41092E20462EE74E035
:1014900002C0620F731FCB0108950F931F93CF9368
:1014A000DF93EC018B016F5F7F4F8881998100D2C0
:1014B000009711F480E005C0998388831B830A8319
:1014C00081E0DF91CF911F910F910895CF93DF932A
:1014D000EC0188819981892B29F08A819B8186176B
:1014E000970758F4CE01D9DF882341F08C819D8184
:1014F000892B19F4E881F981108281E0DF91CF9185
:101500000895EF92FF920F931F93CF93DF93EC0117
:101510007B016C817D81E114F104B9F04115510525
:1015200091F08A01060F171FB801D0DF882369F0F8
:10153000888199812C813D81820F931FB7010E9480
:101540003C011D830C8381E001C080E0DF91CF91DD
:101550001F910F91FF90EF900895DF93CF930F921B
:101560000F92CDB7DEB769831A82BE016F5F7F4FDE
:1015700041E050E0C6DF0F900F90CF91DF910895CA
:10158000CF93DF93EC0188819981009709F0F8D01F
:10159000198218821D821C821B821A82DF91CF91D0
:1015A0000895EF92FF920F931F93CF93DF93EC0177
:1015B0007B018A01BA018ADF882319F4CE01E0DFBA
:1015C00007C01D830C8388819981B7010E943C016B
:1015D000CE01DF91CF911F910F91FF90EF90089571
:1015E000CF93DF93EC01198218821B821A821D822D
:1015F0001C826115710549F0DB010D900020E9F7AF
:101600001197A61BB70BAD01CCDFDF91CF910895E9
:101610000F931F93182F092F6115710551F0DB01EE
:101620000D900020E9F71197A61BB70BAD01B9DFAC
:1016300001C0A6DF812F902F1F910F910895FC010B
:10164000808191819DC00F931F93CF93DF93BC0145
:101650008230910510F462E070E0E091E504F091D1
:10166000E60440E050E0A0E0B0E024C08081918139
:1016700086179707D0F08617970771F482819381B8
:10168000109729F013969C938E9312972CC09093E9
:10169000E6048093E50427C04115510519F084172D
:1016A000950718F48D01AC01EF01DF018281938170
:1016B0009C01F9013097D1F641155105F9F0CA01A5
:1016C000861B970B8430910580F48A819B810115DC
:1016D000110521F0F8019383828304C09093E604FE
:1016E0008093E504FE01329645C0FE01E80FF91F24
:1016F000619371930297998388833CC08091E3043E
:101700009091E404892B41F480910D0290910E0296
:101710009093E4048093E30440910F0250911002EF
:101720004115510541F44DB75EB780910B02909180
:101730000C02481B590B2091E3043091E404241758
:101740003507B0F4CA01821B930B8617970780F008
:10175000AB014E5F5F4F8417950750F0420F531F48
:101760005093E4044093E304F9016193719302C040
:10177000E0E0F0E0CF01DF91CF911F910F9108954C
:10178000CF93DF939C01009709F48FC0EC0122975F
:101790001B821A826091E5047091E604611571055F
:1017A00081F488819981820F931F2091E304309105
:1017B000E4042817390739F5D093E404C093E3040F
:1017C00074C0DB0140E050E0AC17BD0708F1BB83FB
:1017D000AA83FE0121913191E20FF31FAE17BF07DB
:1017E00079F48D919C911197280F391F2E5F3F4FEF
:1017F0003983288312968D919C9113979B838A83BA
:101800004115510571F4D093E604C093E5044DC031
:1018100012968D919C911397AD01009711F0DC0108
:10182000D3CFDA011396DC93CE931297FA0121916C
:101830003191E20FF31FCE17DF0769F48881998198
:10184000280F391F2E5F3F4FFA01318320838A8191
:101850009B8193838283E0E0F0E0DB0112968D911F
:101860009C911397009719F0BC01FD01F6CFAB01D5
:101870004E5F5F4FDB018D919C91840F951F2091EE
:10188000E3043091E4042817390779F4309729F4F8
:101890001092E6041092E50402C0138212824250B4
:1018A00050405093E4044093E304DF91CF910895B6
:1018B0006F927F928F929F92AF92BF92CF92DF9260
:1018C000EF92FF920F931F93CF93DF938C010097BA
:1018D00021F4CB01B8DE8C01B8C08EEFE82E8FEF7B
:1018E000F82EE00EF11E4801860E971E8E149F04FE
:1018F00008F4A9C0D7014D915C911197461757077D
:10190000B0F04530510508F4A0C0CA01049786170D
:10191000970708F49AC042505040461B570BF401F9
:10192000419351936D937C93CF012ADF8EC05B016D
:10193000A41AB50A3801640E751EA091E504B09191
:10194000E604E0E0F0E0CC24DD2447C0A615B705AE
:10195000A9F5CD91DC911197CE0102968A159B05D0
:1019600068F1CE018A199B09029612962C91129762
:1019700013963C91059758F0F40122833383CA19DA
:10198000DB09D183C083D7016D937C9309C04E5F7F
:101990005F4F4C0F5D1FF70151834083C901FC016C
:1019A000C114D10431F0D6011396FC93EE93129733
:1019B0004CC0F093E604E093E50447C08D919C9100
:1019C0001197E817F90708F4FC016D0112968C9144
:1019D000129713969C919C01D901109709F0B6CFEC
:1019E0008091E3049091E40486159705E9F4E617E5
:1019F000F707D0F420910F02309110022115310524
:101A000041F42DB73EB780910B0290910C02281B38
:101A1000390B82169306B8F49092E4048092E304A2
:101A2000F7017183608311C0CB010DDEEC010097DB
:101A300051F0D7014D915C91B8010E943301C8016A
:101A40009FDE8E0102C000E010E0C801DF91CF915F
:101A50001F910F91FF90EF90DF90CF90BF90AF90CC
:101A60009F908F907F906F90089597FB092E072687
:101A70000AD077FD04D02ED006D000201AF470953D
:101A800061957F4F0895F6F7909581959F4F089542
:101A9000A1E21A2EAA1BBB1BFD010DC0AA1FBB1F72
:101AA000EE1FFF1FA217B307E407F50720F0A21BE4
:101AB000B30BE40BF50B661F771F881F991F1A9451
:101AC00069F760957095809590959B01AC01BD017B
:101AD000CF010895AA1BBB1B51E107C0AA1FBB1F62
:101AE000A617B70710F0A61BB70B881F991F5A95AA
:101AF000A9F780959095BC01CD010895EE0FFF1FC9
:101B00000590F491E02D199412E0C8E0D2E003C0F2
:101B1000FE01F6DF2296CA30D107D1F7F894FFCF45
:101B2000002453500A002444500A008000E70400B7
:101B300000000000005108D609E6071808F8074120
:021B400008009B
:00000001FF
