:1000000004C100002FC100002DC100002BC1000061
:1000100029C1000027C1000025C1000023C1000044
:1000200021C100001FC100001DC100001BC1000054
:1000300019C1000017C1000015C1000013C1000064
:1000400011C1000091C100000DC100000BC10000F2
:1000500009C1000007C1000005C10000D3C50000B0
:1000600001C10000E7C700000C946E09FBC000004E
:10007000F9C00000F7C00000F5C00000F3C00000A8
:10008000F1C00000EFC00000EDC00000A1C1000001
:100090000C945A080C94AD09E5C00000E3C00000C0
:1000A000E1C00000DFC00000DDC00000DBC00000D8
:1000B000D9C00000D7C00000D5C00000D3C00000E8
:1000C000D1C00000CFC00000CDC000000C949A0841
:1000D0000C94EC09C7C000000C94DA080C942B0AAD
:1000E000C1C0000000002100240027002A002D00CC
:1000F0003000330001010000040107010A01000083
:100100002200250028002B002E00310034000201BF
:100110000000050108010B0100002000230026005B
:1001200029002C002F00320000010000030106010D
:10013000090105050505070508080808020202026D
:100140000A0A080804040404010101010101010173
:100150000303030303030303040707070C0C0C0C3E
:100160000C0C0C0C02020202060606060606060627
:100170000B0B0B0B0B0B0B0B0102102020080810B4
:100180002040102040800201020108040201010207
:1001900004081020408080402010080402018004E0
:1001A000020180402010080402010804020101023B
:1001B0000408102040800102040810204080000044
:1001C000090A02080B0C0D070603040100000000D9
:1001D000000000000000000000000000000000001F
:1001E0000000000000000000000011100F000000DF
:1001F00000000000000000000000000000000000FF
:1002000000000000E3019B0BDE0111241FBECFEFB5
:10021000D1E2DEBFCDBF00E00CBF12E0A0E0B2E053
:10022000E0E8F5E200E00BBF02C007900D92AE32AD
:10023000B107D9F71BBE15E0AEE2B2E001C01D92D6
:10024000A430B107E1F712E0C8E0D2E004C0229781
:10025000FE010E94B012C430D107C9F70E94D20C2F
:100260000C94B412CDCE1F93FC0199278827BC01B2
:10027000E89411911032E9F3193010F01E30C8F3F0
:100280001B3249F01D3241F4689405C042D0610F21
:10029000711D811D911D119110531A30B8F33EF458
:1002A00090958095709561957F4F8F4F9F4F1F91CF
:1002B0000895FB01DC0102C001900D9241505040B5
:1002C000D8F70895FB01DC0101900D920020E1F7C1
:1002D0000895FB019F01E8944230C4F04532B4F424
:1002E0004A3029F497FB1EF4909581959F4F642F17
:1002F00077270E949A12805D8A330CF0895D819382
:10030000CB010097A1F716F45DE251931082C90169
:1003100015C0592F482F372F262F660F771F881F9C
:10032000991F660F771F881F991F620F731F841F05
:10033000951F660F771F881F991F0895DC01FC0128
:10034000672F71917723E1F7329704C07C916D9309
:1003500070836291AE17BF07C8F308958EE292E0F2
:1003600011C38EE292E056C31F920F920FB60F9206
:1003700011240F900FBE0F901F901895813091059A
:1003800079F46F5F7F4FC9F48EE292E060E072E033
:100390000E94390E85E392E060E072E00C94390E21
:1003A000892B59F46F5F7F4F41F485E392E00E94FF
:1003B000090F8EE292E00C94090F089580E090E01E
:1003C0006FEF7FEFDBCF81E090E06FEF7FEFD6CF75
:1003D0001F920F920FB60F920BB60F9211242F930C
:1003E0003F934F935F936F937F938F939F93AF93BD
:1003F000BF93EF93FF938DE0EDD561E068278DE02B
:10040000B7D5FF91EF91BF91AF919F918F917F9160
:100410006F915F914F913F912F910F900BBE0F9075
:100420000FBE0F901F9018950F931F93CF93DF93DC
:100430008B0164EF71E080E090E02CD4C0E0D0E06C
:1004400019C08DE060E094D56AEF70E080E090E044
:1004500021D48DE061E08CD56AEF70E080E090E01F
:1004600019D48DE060E084D56AEF70E080E090E020
:1004700011D42196C017D10724F3DF91CF911F919A
:100480000F9108950F931F9362E070E0CDDF07E7AF
:1004900014E0C80161E072E00E94400DC8010E94B2
:1004A0004B0B1F910F9108952F923F924F925F92A5
:1004B0006F927F928F929F92AF92BF92CF92DF9274
:1004C000EF92FF920F931F93DF93CF93CDB7DEB7D9
:1004D000A4970FB6F894DEBF0FBECDBF6C017E01AE
:1004E0000894E11CF11CC70160E072E00E94390E23
:1004F000CE01079660E072E00E94390EC60163E00B
:1005000070E092DF8E01035F1F4FC801B60144E027
:1005100050E027E030E00E94AF0EC701B8010E9412
:10052000F40EC8010E94090FC7010E94570D8B01EC
:10053000C60163E070E00E94420DFC0180818D32B3
:1005400041F4109501951F4F8FE392E060E070E059
:1005500004C08FE392E061E070E001D3F601E7842C
:10056000F088E00EF11E8FE392E060E070E0AAD226
:100570008FE392E0E6D2F7E0AF2EB12CAC0CBD1CBD
:1005800001E0E3E14E2E512C4C0E5D1E77E0272E4C
:10059000312C2C0E3D1E6FE1662E712C6C0E7D1ED3
:1005A00059E1852E912C8C0E9D1E8AC08DED94E014
:1005B00066E072E00E94400D8DED94E00E94F00A2A
:1005C000892BD1F369E170E080E090E063D30DC046
:1005D0008DED94E00E94220B182FC501612F0E941F
:1005E000C80D1A3011F4F60105878DED94E0F8D7A7
:1005F000181619066CF3C201B50143E050E026E07D
:1006000030E00E94AF0EC101B2010E94F40EC2019F
:100610000E94090FC50160E072E00E94690EC101ED
:100620000E94570DF601708B6787C3016BE072E083
:100630000E94510EF60187859089B701681B790BDE
:10064000C4014AE00E94800EC301B4010E94060E5C
:100650006FE072E00E94EC0DBC0187E794E00E941D
:100660000A0DC4010E94090FC3010E940D0FF6017B
:10067000878590898E159F0554F08FE392E060E0A6
:1006800070E020D2C60163E070E0CEDE20C09701AA
:10069000281B390B253631052CF08FE392E065E0FD
:1006A00070E00DC0C901880F991F880F991F820F34
:1006B000931F64E670E00E944A128FE392E002D238
:1006C000F601878590898E159F050CF46FCF8FE317
:1006D00092E0EFD187E794E061E172E00E94400D83
:1006E00087E794E0D8D7CE0107960E94090FCE0184
:1006F00001960E94090FA4960FB6F894DEBF0FBEB4
:10070000CDBFCF91DF911F910F91FF90EF90DF90C0
:10071000CF90BF90AF909F908F907F906F905F90A1
:100720004F903F902F9008950F931F938C0164E09A
:1007300070E07ADE8DED94E0B8010E940A0D8DED37
:1007400094E0A9D78DED94E04BD7892BD9F38DEDAB
:1007500094E046D718161906D4F78DED94E072D7B9
:10076000182F87E794E0612F0E941C0D1A3079F74B
:100770001F910F9108956F927F928F929F92AF92E7
:10078000BF92CF92DF92EF92FF920F931F93DF936E
:10079000CF93CDB7DEB72C970FB6F894DEBF0FBE60
:1007A000CDBF4C016E010894C11CD11CC60160E094
:1007B00072E00E94390EC40165E070E035DE782CED
:1007C000692CC40162E070E00E94420DFC01E081EE
:1007D000EC3409F491C0E23509F48EC0E23409F436
:1007E0008BC08E01095F1F4FC801B40144E050E087
:1007F00027E030E00E94AF0EC601B8010E94F40E5F
:10080000C8010E94090FC6010E94570D5B016C01CF
:100810008FE392E049D17C0188E29CE39C01A29E97
:10082000C001A39E900DB29E900D112463E070E074
:100830000E944A12882777FD8095982F0E94BE114A
:100840002BED3FE049E450E40E9423110E948B11FC
:100850005B016C010027F7FC0095102FAE0CBF1C4C
:10086000C01ED11E8FE392E065E070E02BD18FE3D4
:1008700092E061E070E073D18FE392E062D18FE3A8
:1008800092E012D1AA2797FDA095BA2F8A159B0551
:10089000AC05BD05A4F38DED94E0672D762D0E9487
:1008A0000A0D8DED94E09CD6892BD9F369E170E0B7
:1008B00080E090E0EFD1A7E0CA2ED12CC80CD91C63
:1008C00001E014C08DED94E0BDD6182FC601612F54
:1008D0000E94C80D1A3051F4F401058787E794E0AF
:1008E000B6010E940A0D87E794E0D5D68DED94E01D
:1008F00077D61816190634F3CE0101960E94090F17
:100900002C960FB6F894DEBF0FBECDBFCF91DF910E
:100910001F910F91FF90EF90DF90CF90BF90AF901D
:100920009F908F907F906F9008950F931F93182F33
:10093000092F61E070E00E94420DFC01E081E93482
:1009400099F0E23519F0E434B9F412C0812F902FF8
:1009500062E070E00E94420DFC018081803379F4F6
:10096000812F902FA1DD0BC0812F902FDDDE07C0DE
:10097000812F902F00DF03C0812F902F83DD1F91E7
:100980000F910895FF920F931F93CF93DF93EC0184
:10099000182F0D2FFF24F3940DC087E794E052D653
:1009A000682F8E87812F902F0E94C80D8E858A30E8
:1009B00009F4FE8287E794E013D6181619066CF343
:1009C0006AEF70E080E090E065D18E818823E1F0ED
:1009D000812F902F60E070E00E94420DFC01808129
:1009E000843291F48091710080937100CE019DDF7B
:1009F00080917100816080937100812F902F60E061
:100A000072E00E94690E1E82DF91CF911F910F91BB
:100A1000FF900895EF92FF920F931F937C018DE05A
:100A200061E0F3D110929000E1E9F0E010821092C1
:100A3000950010929400808184608083E1E7F0E06B
:100A40008081816080838FE392E068EC70E048E011
:100A500050E027E030E088D0F701108A178687E75A
:100A600094E040E052EC61E070E034D58DED94E02C
:100A700040E052EC61E070E02DD5F701168200E015
:100A800012E0C701B8010E94690EF7011586C7017F
:100A90000796B8010E94690E80E3F70186871F91CF
:100AA0000F91FF90EF900895FC0125853685C901CF
:100AB0000895FC011086AFE6B0E08C918C9383859D
:100AC00060E056C20F931F93CF93DF93EC018B012D
:100AD0006115710509F4EDDF8DE490E0089F900148
:100AE000099F300D189F300D11243F832E838A817A
:100AF0009B81AC01249FC001259F900D349F900DD8
:100B0000112468EE73E00E944A129B01442737FDCE
:100B10004095542F69E07DE380E090E00E947F12D1
:100B2000CA01B90122E030E040E050E00E947F12AB
:100B30003093890020938800DF91CF911F910F910E
:100B40000895DC0181E018968C931897EFE6F0E0A9
:100B50008081826080831B968C9161E009C2FC01D8
:100B600064837583818504C2EF92FF920F931F9374
:100B70008C01FC017183608352874187348723870E
:100B8000882777FD8095982F0E94BE112BED3FE0BE
:100B900049EC50E40E9423110E948B11F8017383E9
:100BA000628380E8E82EF12CF7011082E1E8F0E0A2
:100BB0001082109285001092840010928900109289
:100BC00088008081886080838081816080838081CB
:100BD00084608083EFE6F0E0808180838BE061E0D9
:100BE00014D1F70180818064808381E090E0F80176
:100BF000958384831086168615861F910F91FF902A
:100C0000EF9008951F920F920FB60F9211242F9319
:100C10003F938F939F93AF93BF9380915202909194
:100C20005302A0915402B0915502309156020196A0
:100C3000A11DB11D232F2D5F2D3720F02D570196BB
:100C4000A11DB11D2093560280935202909353022E
:100C5000A0935402B093550280914E0290914F029E
:100C6000A0915002B09151020196A11DB11D809337
:100C70004E0290934F02A0935002B0935102BF9145
:100C8000AF919F918F913F912F910F900FBE0F9039
:100C90001F9018959B01AC017FB7F89480914E028C
:100CA00090914F02A0915002B091510266B5A89B5D
:100CB00005C06F3F19F00196A11DB11D7FBFBA2F6E
:100CC000A92F982F8827860F911DA11DB11D62E0C5
:100CD000880F991FAA1FBB1F6A95D1F7BC012DC0B1
:100CE000FFB7F89480914E0290914F02A09150026C
:100CF000B0915102E6B5A89B05C0EF3F19F00196EF
:100D0000A11DB11DFFBFBA2FA92F982F88278E0FC5
:100D1000911DA11DB11DE2E0880F991FAA1FBB1FE5
:100D2000EA95D1F7861B970B885E9340C8F2215055
:100D300030404040504068517C4F211531054105FD
:100D4000510571F60895789484B5826084BD84B5A8
:100D5000816084BD85B5826085BD85B5816085BDB6
:100D6000EEE6F0E0808181608083E1E8F0E01082CF
:100D7000808182608083808181608083E0E8F0E010
:100D8000808181608083E1EBF0E0808184608083FA
:100D9000E0EBF0E0808181608083E1E9F0E0808138
:100DA00082608083808181608083E0E9F0E08081DF
:100DB00081608083E1EAF0E08081826080838081CD
:100DC00081608083E0EAF0E0808181608083E1E2FD
:100DD000F1E0808182608083808181608083E0E2B5
:100DE000F1E0808181608083EAE7F0E080818460C7
:100DF0008083808182608083808181608083808124
:100E0000806880831092C1000895CF93DF93482FAC
:100E100050E0CA0188589E4FFC0134914E5C5E4FF1
:100E2000FA018491882369F190E0880F991FFC01F1
:100E3000EC51FF4FA591B491FC01E250FF4FC591D9
:100E4000D491662351F42FB7F8948C91932F9095F9
:100E500089238C93888189230BC0623061F42FB77A
:100E6000F8948C91932F909589238C938881832B70
:100E700088832FBF06C09FB7F8948C91832B8C93E7
:100E80009FBFDF91CF910895893009F449C08A301E
:100E9000A0F4843051F1853040F4823079F1833010
:100EA00000F5813009F063C026C0873079F18830C1
:100EB00098F5863009F05BC025C08D3009F442C03A
:100EC0008E3028F48B30B1F18C30C0F52DC08031DC
:100ED00009F442C0813109F445C08F3009F047C0A0
:100EE00037C0809180008F7703C0809180008F7D14
:100EF00080938000089584B58F7702C084B58F7D7C
:100F000084BD08958091B0008F7703C08091B000B8
:100F10008F7D8093B0000895809190008F7707C0F7
:100F2000809190008F7D03C080919000877F809397
:100F3000900008958091A0008F7707C08091A00055
:100F40008F7D03C08091A000877F8093A0000895CB
:100F5000809120018F7703C0809120018F7D809345
:100F60002001089580912001877F809320010895BA
:100F7000FF920F931F93F62E482F50E0CA01825420
:100F80009E4FFC012491CA0188589E4FFC01149188
:100F90004E5C5E4FFA0104910023C1F0222311F050
:100FA000822F72DFE02FF0E0EE0FFF1FE250FF4FC5
:100FB000A591B4919FB7F894FF2021F48C911095DE
:100FC000812302C08C91812B8C939FBF1F910F9125
:100FD000FF9008950F931F93482F50E0CA01825449
:100FE0009E4FFC012491CA0188589E4FFC01049138
:100FF0004E5C5E4FFA011491112319F420E030E0A9
:1010000014C0222311F0822F3FDF812F90E0880F40
:10101000991F885E9E4FFC01A591B4918C9120E0B0
:1010200030E0802311F021E030E0C9011F910F91E1
:10103000089508951F920F920FB60F920BB60F925C
:1010400011242F933F934F938F939F93EF93FF938D
:101050008091C00082FD1DC04091C6002091970282
:10106000309198022F5F3F4F2F733070809199021B
:1010700090919A022817390771F0E0919702F09148
:101080009802E95AFD4F40833093980220939702CB
:1010900002C08091C600FF91EF919F918F914F9177
:1010A0003F912F910F900BBE0F900FBE0F901F908E
:1010B000189508951F920F920FB60F920BB60F92CC
:1010C00011242F933F934F938F939F93EF93FF930D
:1010D0008091C80082FD1DC04091CE0020911F0369
:1010E000309120032F5F3F4F2F7330708091210389
:1010F000909122032817390771F0E0911F03F091B6
:101100002003E152FD4F40833093200320931F03BF
:1011100002C08091CE00FF91EF919F918F914F91EE
:101120003F912F910F900BBE0F900FBE0F901F900D
:10113000189508951F920F920FB60F920BB60F924B
:1011400011242F933F934F938F939F93EF93FF938C
:101150008091D00082FD1DC04091D6002091A70350
:101160003091A8032F5F3F4F2F7330708091A903F8
:101170009091AA032817390771F0E091A703F09125
:10118000A803E959FC4F40833093A8032093A70399
:1011900002C08091D600FF91EF919F918F914F9166
:1011A0003F912F910F900BBE0F900FBE0F901F908D
:1011B000189508951F920F920FB60F920BB60F92CB
:1011C00011242F933F934F938F939F93EF93FF930C
:1011D0008091300182FD1DC04091360120912F0485
:1011E000309130042F5F3F4F2F7330708091310466
:1011F000909132042817390771F0E0912F04F09193
:101200003004E151FC4F40833093300420932F048D
:1012100002C080913601FF91EF919F918F914F9184
:101220003F912F910F900BBE0F900FBE0F901F900C
:101230001895E0918304F0918404E05CFF4F819164
:10124000919120813181805C9F4F821B930B60E4E0
:1012500070E00E944A12892B09F0EBDEE091A504B0
:10126000F091A604E05CFF4F819191912081318142
:10127000805C9F4F821B930B60E470E00E944A12D7
:10128000892B09F016DFE091C704F091C804E05CF7
:10129000FF4F8191919120813181805C9F4F821B12
:1012A000930B60E470E00E944A12892B09F041DF41
:1012B000E091E904F091EA04E05CFF4F81919191A3
:1012C00020813181805C9F4F821B930B60E470E032
:1012D0000E944A12892B09F06CCF08951F920F9239
:1012E0000FB60F920BB60F9211242F933F938F934B
:1012F0009F93EF93FF932091DB023091DC0280916A
:10130000DD029091DE022817390731F48091C10087
:101310008F7D8093C10014C0E091DD02F091DE0268
:10132000E556FD4F20818091DD029091DE0201960D
:101330008F7390709093DE028093DD022093C6003D
:10134000FF91EF919F918F913F912F910F900BBE45
:101350000F900FBE0F901F9018951F920F920FB60F
:101360000F920BB60F9211242F933F938F939F935D
:10137000EF93FF93209163033091640380916503A1
:10138000909166032817390731F48091C9008F7D49
:101390008093C90014C0E0916503F0916603ED5D90
:1013A000FC4F2081809165039091660301968F73B5
:1013B000907090936603809365032093CE00FF9115
:1013C000EF919F918F913F912F910F900BBE0F90B6
:1013D0000FBE0F901F9018951F920F920FB60F928D
:1013E0000BB60F9211242F933F938F939F93EF93FC
:1013F000FF932091EB033091EC038091ED039091EA
:10140000EE032817390731F48091D1008F7D809346
:10141000D10014C0E091ED03F091EE03E555FC4FCF
:1014200020818091ED039091EE0301968F7390706F
:101430009093EE038093ED032093D600FF91EF91FC
:101440009F918F913F912F910F900BBE0F900FBEE8
:101450000F901F9018951F920F920FB60F920BB618
:101460000F9211242F933F938F939F93EF93FF93AA
:1014700020917304309174048091750490917604E6
:101480002817390731F4809131018F7D8093310124
:1014900014C0E0917504F0917604ED5CFB4F20815F
:1014A000809175049091760401968F73907090935B
:1014B00076048093750420933601FF91EF919F91FC
:1014C0008F913F912F910F900BBE0F900FBE0F90F9
:1014D0001F901895AF92BF92DF92EF92FF920F93F9
:1014E0001F93CF93DF93EC017A018B01DD24403011
:1014F00081EE580780E0680780E0780711F0DD246E
:10150000D39491E0A92EB12CEC89FD89DD2069F0FE
:10151000C50108A002C0880F991F0A94E2F78083D2
:1015200060E079E08DE390E005C0108260E874E847
:101530008EE190E0A8019701C0D721503040404093
:101540005040569547953795279580E120303807CC
:1015500020F0DD2011F0DD24D7CFE889F989308330
:10156000EA89FB89208319A2EE89FF89408121E065
:1015700030E0C9010C8C02C0880F991F0A94E2F771
:10158000482B4083EE89FF894081C9010D8C02C040
:10159000880F991F0A94E2F7482B4083EE89FF8950
:1015A0004081C9010E8C02C0880F991F0A94E2F78E
:1015B000482B4083EE89FF8980810F8C02C0220F67
:1015C000331F0A94E2F7209528232083DF91CF91DF
:1015D0001F910F91FF90EF90DF90BF90AF90089513
:1015E000DC011C96ED91FC911D97E05CFF4F819111
:1015F000919120813181805C9F4F821B930B60E42D
:1016000070E048C7DC011C96ED91FC911D97E05CF1
:10161000FF4F20813181E054F040DF01AE5BBF4FCE
:101620008D919C9111972817390719F42FEF3FEFEF
:1016300007C08D919C91E80FF91F8081282F30E021
:10164000C9010895DC011C96ED91FC911D97E05CA9
:10165000FF4F20813181E054F040DF01AE5BBF4F8E
:101660008D919C9111972817390719F42FEF3FEFAF
:1016700010C08D919C911197E80FF91F20818D91D9
:101680009C91119701968F73907011969C938E93F5
:1016900030E0C9010895DC0191968C9191978823DF
:1016A00039F05496ED91FC915597808186FFF9CFE2
:1016B00091961C920895CF93DF93EC01EE85FF8500
:1016C000E05CFF4F20813181E054F0402F5F3F4FBD
:1016D0002F733070DF01AE5BBF4F8D919C911197DE
:1016E00028173907D1F3E05CFF4F80819181E054E6
:1016F000F040E80FF91F6083EE85FF85E05CFF4F47
:1017000031832083EE89FF89208181E090E00F8C76
:1017100002C0880F991F0A94E2F7282B208381E0EA
:1017200089A3EC89FD8980818064808381E090E0D9
:10173000DF91CF9108951F9310927A04109279044B
:1017400028EE33E040E050E020937B0430937C04AB
:1017500040937D0450937E0461E272E070937804BC
:101760006093770487E592E09093840480938304E8
:101770008BE992E0909386048093850485EC90E059
:10178000909388048093870484EC90E090938A047B
:101790008093890480EC90E090938C0480938B0478
:1017A00081EC90E090938E0480938D0482EC90E025
:1017B0009093900480938F0486EC90E09093920431
:1017C0008093910414E010939304B3E0B0939404D5
:1017D000A7E0A0939504F5E0F0939604E1E0E09390
:1017E000970410929C0410929B0420939D043093C4
:1017F0009E0440939F045093A00470939A046093B6
:1018000099048FED92E09093A6048093A50483E25F
:1018100093E09093A8048093A7048DEC90E09093BC
:10182000AA048093A9048CEC90E09093AC0480937C
:10183000AB0488EC90E09093AE048093AD0489EC07
:1018400090E09093B0048093AF048AEC90E0909382
:10185000B2048093B1048EEC90E09093B404809332
:10186000B3041093B504B093B604A093B704F093F7
:10187000B804E093B9041092BE041092BD04209302
:10188000BF043093C0044093C1045093C2047093CA
:10189000BC046093BB0487E693E09093C8048093F4
:1018A000C7048BEA93E09093CA048093C90485ED42
:1018B00090E09093CC048093CB0484ED90E09093DF
:1018C000CE048093CD0480ED90E09093D00480937B
:1018D000CF0481ED90E09093D2048093D10482ED07
:1018E00090E09093D4048093D30486ED90E090939D
:1018F000D6048093D5041093D704B093D804A09352
:10190000D904F093DA04E093DB041092E00410921F
:10191000DF042093E1043093E2044093E304509306
:10192000E4047093DE046093DD048FEE93E0909303
:10193000EA048093E90483E394E09093EC048093B9
:10194000EB0485E391E09093EE048093ED0484E34F
:1019500091E09093F0048093EF0480E391E0909302
:10196000F2048093F10481E391E09093F404809376
:10197000F30482E391E09093F6048093F50486E308
:1019800091E09093F8048093F7041093F904B093D6
:10199000FA04A093FB04F093FC04E093FD041F9170
:1019A00008950895CF93DF93CED9FBDF0E94B10154
:1019B000C9E1D9E00E94AE012097E1F33ADCFACF09
:1019C000CF92DF92EF92FF920F931F93CF93DF930B
:1019D0007C016B018A01C0E0D0E00FC0D6016D919F
:1019E0006D01D701ED91FC910190F081E02DC701CF
:1019F0001995C80FD91F015010400115110571F735
:101A0000CE01DF91CF911F910F91FF90EF90DF906A
:101A1000CF900895CF93DF93FB01EC01A881B981AA
:101A200060817181448155811296ED91FC911397EB
:101A30001995DF91CF910895DC01ED91FC91019012
:101A4000F081E02D19950895CF93DF93EC01611596
:101A5000710519F420E030E00FC0DB010D9000208B
:101A6000E9F71197A61BB70BE881F9810280F38192
:101A7000E02DAD0119959C01C901DF91CF91089529
:101A8000E3CF0895FC019B01848195816817790754
:101A900028F4608171816115710529F41092FF04A9
:101AA0006FEF74E002C0620F731FCB010895FC0159
:101AB00080819181009729F420E030E040E050E0FF
:101AC00004C00E9433019B01AC01B901CA01089511
:101AD0000F931F93CF93DF93EC018B016F5F7F4FC9
:101AE00088819981D3D2009711F480E005C0998351
:101AF00088831B830A8381E0DF91CF911F910F912F
:101B00000895CF93DF93EC0188819981892B29F087
:101B10008A819B818617970758F4CE01D9DF8823E5
:101B200041F08C819D81892B19F4E881F981108223
:101B300081E0DF91CF910895EF92FF920F931F9371
:101B4000CF93DF93EC017B016C817D81E114F10483
:101B5000B9F04115510591F08A01060F171FB80120
:101B6000D0DF882369F0888199812C813D81820FA3
:101B7000931FB7010E9462011D830C8381E001C0A5
:101B800080E0DF91CF911F910F91FF90EF9008952A
:101B9000DF93CF930F920F92CDB7DEB769831A828E
:101BA000BE016F5F7F4F41E050E0C6DF0F900F90A6
:101BB000CF91DF910895CF93DF93EC0188819981D4
:101BC000009709F0CBD1198218821D821C821B82DA
:101BD0001A82DF91CF9108950F931F93182F092F29
:101BE0006115710559F0DB010D900020E9F711979F
:101BF000A61BB70BAD01A0DF882319F4812F902F0E
:101C0000DADF812F902F1F910F9108950F931F936B
:101C1000182F092FFB0160817181448155818CDF70
:101C2000882319F4812F902FC6DF812F902F1F91C9
:101C30000F910895EF92FF920F931F93CF93DF932D
:101C4000EC017B018A01BA015CDF882319F4CE0123
:101C5000B2DF07C01D830C8388819981B7010E9480
:101C60006201CE01DF91CF911F910F91FF90EF9014
:101C70000895CF93DF93EC01198218821B821A8298
:101C80001D821C826115710549F0DB010D90002059
:101C9000E9F71197A61BB70BAD01CCDFDF91CF9110
:101CA0000895CF93DF93EC01198218821B821A8268
:101CB0001D821C826115710549F0DB010D90002029
:101CC000E9F71197A61BB70BAD01B4DFDF91CF91F8
:101CD00008950F931F93182F092F6115710551F067
:101CE000DB010D900020E9F71197A61BB70BAD01A2
:101CF000A1DF01C060DF812F902F1F910F91089508
:101D0000EF92FF920F931F93DF93CF93CDB7DEB780
:101D100062970FB6F894DEBF0FBECDBF8C01CB012A
:101D2000F8011182108213821282158214827E01C0
:101D30000894E11CF11CB70150E00E946901C80140
:101D4000B701C7DF62960FB6F894DEBF0FBECDBFF6
:101D5000CF91DF911F910F91FF90EF900895BF9267
:101D6000CF92DF92EF92FF920F931F93CF93DF9367
:101D7000082FB92E6B017A01E9012417350710F4F9
:101D8000EA017901802F9B2D66E172E072DFD601B6
:101D900014968D919C9115978E159F05C8F08C1700
:101DA0009D0708F4EC01D601ED91FC911197EC0F21
:101DB000FD1F108110826D917C916E0D7F1D802F13
:101DC0009B2D87DFD601ED91FC91EC0FFD1F108359
:101DD000802F9B2DDF91CF911F910F91FF90EF905E
:101DE000DF90CF90BF900895CF93DF93EC01FB017C
:101DF0008617970751F0608171816115710521F097
:101E00004481558117DF01C0D6DECE01DF91CF912D
:101E10000895FC0180819181A1C0FC0180819181A4
:101E20009DC00F931F93CF93DF93BC018230910528
:101E300010F462E070E0E0910205F091030540E0EB
:101E400050E0A0E0B0E024C0808191818617970720
:101E5000D0F08617970771F482819381109729F04B
:101E600013969C938E9312972CC0909303058093A6
:101E7000020527C04115510519F08417950718F47C
:101E80008D01AC01EF01DF01828193819C01F90199
:101E90003097D1F641155105F9F0CA01861B970B11
:101EA0008430910580F48A819B810115110521F010
:101EB000F8019383828304C0909303058093020505
:101EC000FE01329645C0FE01E80FF91F6193719340
:101ED0000297998388833CC0809100059091010509
:101EE000892B41F48091190290911A029093010577
:101EF0008093000540911B0250911C024115510531
:101F000041F44DB75EB78091170290911802481BBB
:101F1000590B209100053091010524173507B0F4C5
:101F2000CA01821B930B8617970780F0AB014E5FA7
:101F30005F4F8417950750F0420F531F50930105D0
:101F400040930005F9016193719302C0E0E0F0E075
:101F5000CF01DF91CF911F910F910895CF93DF9320
:101F60009C01009709F48FC0EC0122971B821A8212
:101F700060910205709103056115710581F48881F6
:101F80009981820F931F2091000530910105281738
:101F9000390739F5D0930105C093000574C0DB0102
:101FA00040E050E0AC17BD0708F1BB83AA83FE01F7
:101FB00021913191E20FF31FAE17BF0779F48D9194
:101FC0009C911197280F391F2E5F3F4F398328832B
:101FD00012968D919C9113979B838A83411551058D
:101FE00071F4D0930305C09302054DC012968D91F4
:101FF0009C911397AD01009711F0DC01D3CFDA016A
:102000001396DC93CE931297FA0121913191E20F4E
:10201000F31FCE17DF0769F488819981280F391FD4
:102020002E5F3F4FFA01318320838A819B81938306
:102030008283E0E0F0E0DB0112968D919C91139792
:10204000009719F0BC01FD01F6CFAB014E5F5F4F69
:10205000DB018D919C91840F951F2091000530919B
:1020600001052817390779F4309729F410920305F0
:102070001092020502C013821282425050405093C7
:10208000010540930005DF91CF9108956F927F92F3
:102090008F929F92AF92BF92CF92DF92EF92FF9278
:1020A0000F931F93CF93DF938C01009721F4CB0103
:1020B000B8DE8C01B8C08EEFE82E8FEFF82EE00E60
:1020C000F11E4801860E971E8E149F0408F4A9C0C5
:1020D000D7014D915C91119746175707B0F04530E5
:1020E000510508F4A0C0CA0104978617970708F4A1
:1020F0009AC042505040461B570BF40141935193F4
:102100006D937C93CF012ADF8EC05B01A41AB50AC0
:102110003801640E751EA0910205B0910305E0E040
:10212000F0E0CC24DD2447C0A615B705A9F5CD9174
:10213000DC911197CE0102968A159B0568F1CE01BC
:102140008A199B09029612962C91129713963C912C
:10215000059758F0F40122833383CA19DB09D18330
:10216000C083D7016D937C9309C04E5F5F4F4C0FC6
:102170005D1FF70151834083C901FC01C114D104E3
:1021800031F0D6011396FC93EE9312974CC0F09366
:102190000305E093020547C08D919C911197E817C4
:1021A000F90708F4FC016D0112968C9112971396B1
:1021B0009C919C01D901109709F0B6CF8091000540
:1021C0009091010586159705E9F4E617F707D0F415
:1021D00020911B0230911C022115310541F42DB7CD
:1021E0003EB78091170290911802281B390B821676
:1021F0009306B8F49092010580920005F70171836F
:10220000608311C0CB010DDEEC01009751F0D701C6
:102210004D915C91B8010E945901C8019FDE8E0169
:1022200002C000E010E0C801DF91CF911F910F9133
:10223000FF90EF90DF90CF90BF90AF909F908F90E6
:102240007F906F9008950CD0EBC0E3D040F0DAD0CF
:1022500030F021F45F3F19F0CCC0511115C1CFC04F
:10226000F0D098F39923C9F35523B1F3951B550B7F
:10227000BB27AA2762177307840738F09F5F5F4F59
:10228000220F331F441FAA1FA9F333D00E2E3AF09A
:10229000E0E830D091505040E695001CCAF729D0B4
:1022A000FE2F27D0660F771F881FBB1F2617370703
:1022B0004807AB07B0E809F0BB0B802DBF01FF2733
:1022C00093585F4F2AF09E3F510568F092C0DCC0E2
:1022D0005F3FECF3983EDCF3869577956795B7956D
:1022E000F7959F5FC9F7880F911D9695879597F988
:1022F0000895E1E0660F771F881FBB1F6217730701
:102300008407BA0720F0621B730B840BBA0BEE1F15
:1023100088F7E095089504D06894B111B5C0089588
:1023200098D088F09F5790F0B92F9927B751A0F017
:10233000D1F0660F771F881F991F1AF0BA95C9F759
:1023400012C0B13081F09FD0B1E008959CC0672FDA
:10235000782F8827B85F39F0B93FCCF38695779509
:102360006795B395D9F73EF49095809570956195F2
:102370007F4F8F4F9F4F0895E89409C097FB3EF41D
:1023800090958095709561957F4F8F4F9F4F9923C2
:10239000A9F0F92F96E9BB279395F6958795779540
:1023A0006795B795F111F8CFFAF4BB0F11F460FF00
:1023B0001BC06F5F7F4F8F4F9F4F16C0882311F058
:1023C00096E911C0772321F09EE8872F762F05C06C
:1023D000662371F096E8862F70E060E02AF09A9507
:1023E000660F771F881FDAF7880F9695879597F9FC
:1023F000089597F99F6780E870E060E008959FEF87
:1024000080EC089500240A9416161706180609068B
:10241000089500240A94121613061406050608955A
:10242000092E0394000C11F4882352F0BB0F40F4E2
:10243000BF2B11F460FF04C06F5F7F4F8F4F9F4F22
:10244000089557FD9058440F551F59F05F3F71F0A4
:102450004795880F97FB991F61F09F3F79F087950B
:102460000895121613061406551FF2CF4695F1DF94
:1024700008C0161617061806991FF1CF8695710524
:10248000610508940895E894BB2766277727CB0158
:1024900097F9089597FB092E07260AD077FD04D0F7
:1024A00049D006D000201AF4709561957F4F0895A9
:1024B000F6F7909581959F4F0895A1E21A2EAA1BD9
:1024C000BB1BFD010DC0AA1FBB1FEE1FFF1FA217E4
:1024D000B307E407F50720F0A21BB30BE40BF50BE1
:1024E000661F771F881F991F1A9469F7609570956A
:1024F000809590959B01AC01BD01CF01089597FB9C
:10250000092E05260ED057FD04D0D7DF0AD0001CB7
:1025100038F450954095309521953F4F4F4F5F4F80
:102520000895F6F790958095709561957F4F8F4F40
:102530009F4F0895AA1BBB1B51E107C0AA1FBB1FD9
:10254000A617B70710F0A61BB70B881F991F5A953F
:10255000A9F780959095BC01CD010895EE0FFF1F5E
:102560000590F491E02D199412E0C8E0D2E003C088
:10257000FE01F6DF2296CA30D107D1F7F894FFCFDB
:10258000002453500A002452300A00245230000A1A
:10259000002452500A0000800004050000000000E2
:0E25A000005B0BE00CF00A220B020B4B0B0051
:00000001FF
