:1000000004C100002FC100002DC100002BC1000061
:1000100029C1000027C1000025C1000023C1000044
:1000200021C100001FC100001DC100001BC1000054
:1000300019C1000017C1000015C1000013C1000064
:1000400011C1000091C100000DC100000BC10000F2
:1000500009C1000007C1000005C100000AC5000079
:1000600001C100001EC700000C94A508FBC00000E1
:10007000F9C00000F7C00000F5C00000F3C00000A8
:10008000F1C00000EFC00000EDC00000A1C1000001
:1000900048C700000C94E408E5C00000E3C000007D
:1000A000E1C00000DFC00000DDC00000DBC00000D8
:1000B000D9C00000D7C00000D5C00000D3C00000E8
:1000C000D1C00000CFC00000CDC000006AC7000052
:1000D0000C942309C7C00000A4C700000C94620957
:1000E000C1C0000000002100240027002A002D00CC
:1000F0003000330001010000040107010A01000083
:100100002200250028002B002E00310034000201BF
:100110000000050108010B0100002000230026005B
:1001200029002C002F00320000010000030106010D
:10013000090105050505070508080808020202026D
:100140000A0A080804040404010101010101010173
:100150000303030303030303040707070C0C0C0C3E
:100160000C0C0C0C02020202060606060606060627
:100170000B0B0B0B0B0B0B0B0102102020080810B4
:100180002040102040800201020108040201010207
:1001900004081020408080402010080402018004E0
:1001A000020180402010080402010804020101023B
:1001B0000408102040800102040810204080000044
:1001C000090A02080B0C0D070603040100000000D9
:1001D000000000000000000000000000000000001F
:1001E0000000000000000000000011100F000000DF
:1001F00000000000000000000000000000000000FF
:1002000000000000E301D20ADE0111241FBECFEF7F
:10021000D1E2DEBFCDBF00E00CBF12E0A0E0B2E053
:10022000EEEEF3E200E00BBF02C007900D92A234A5
:10023000B107D9F71BBE15E0A2E4B2E001C01D92E0
:10024000A831B107E1F712E0C8E0D2E004C022977C
:10025000FE010E94E711C430D107C9F70E94090CC2
:100260000C94EB11CDCE1F93FC0199278827BC017C
:10027000E89411911032E9F3193010F01E30C8F3F0
:100280001B3249F01D3241F4689405C042D0610F21
:10029000711D811D911D119110531A30B8F33EF458
:1002A00090958095709561957F4F8F4F9F4F1F91CF
:1002B0000895FB01DC0102C001900D9241505040B5
:1002C000D8F70895FB01DC0101900D920020E1F7C1
:1002D0000895FB019F01E8944230C4F04532B4F424
:1002E0004A3029F497FB1EF4909581959F4F642F17
:1002F00077270E94D111805D8A330CF0895D81934C
:10030000CB010097A1F716F45DE251931082C90169
:1003100015C0592F482F372F262F660F771F881F9C
:10032000991F660F771F881F991F620F731F841F05
:10033000951F660F771F881F991F0895DC01FC0128
:10034000672F71917723E1F7329704C07C916D9309
:1003500070836291AE17BF07C8F3089582E492E0FC
:100360004DC282E492E092C21F920F920FB60F929A
:1003700011240F900FBE0F901F901895813091059A
:1003800079F46F5F7F4FC9F482E492E060E072E03D
:100390000E94700D89E492E060E072E00C94700DB0
:1003A000892B59F46F5F7F4F41F489E492E00E94FA
:1003B000400E82E492E00C94400E089580E090E0BC
:1003C0006FEF7FEFDBCF81E090E06FEF7FEFD6CF75
:1003D0001F920F920FB60F920BB60F9211242F930C
:1003E0003F934F935F936F937F938F939F93AF93BD
:1003F000BF93EF93FF938DE024D561E068278DE0F4
:10040000EED4FF91EF91BF91AF919F918F917F912A
:100410006F915F914F913F912F910F900BBE0F9075
:100420000FBE0F901F9018950F931F93CF93DF93DC
:100430008B0164EF71E080E090E063D3C0E0D0E036
:1004400019C08DE060E0CBD46AEF70E080E090E00E
:1004500058D38DE061E0C3D46AEF70E080E090E0B3
:1004600050D38DE060E0BBD46AEF70E080E090E0B4
:1004700048D32196C017D10724F3DF91CF911F9164
:100480000F9108950F931F9362E070E0CDDF0BE8AA
:1004900014E0C80161E072E00E94770CC8010E947C
:1004A000820A1F910F9108950F931F9365E070E0EA
:1004B000BBDF0BE814E0C80166E072E00E94770C35
:1004C000C8010E94820A1F910F9108952F923F92B6
:1004D0004F925F926F927F928F929F92AF92BF9254
:1004E000CF92DF92EF92FF920F931F93DF93CF9300
:1004F000CDB7DEB7A4970FB6F894DEBF0FBECDBF61
:100500006C017E010894E11CF11CC70160E072E0FF
:100510000E94700DCE01079660E072E00E94700D9F
:10052000C60163E070E080DF8E01035F1F4FC801EA
:10053000B60144E050E027E030E00E94E60DC7013C
:10054000B8010E942B0EC8010E94400EC7010E94F4
:100550008E0C8B01C60163E070E00E94790CFC01F7
:1005600080818D3241F4109501951F4F83E592E013
:1005700060E070E004C083E592E061E070E026D2C4
:10058000F601E784F088E00EF11E83E592E060E07A
:1005900070E0CFD183E592E00BD2F7E0AF2EB12C23
:1005A000AC0CBD1C01E0E3E14E2E512C4C0E5D1E47
:1005B00077E0272E312C2C0E3D1E6FE1662E712C1C
:1005C0006C0E7D1E59E1852E912C8C0E9D1E8EC0C9
:1005D00081EF94E06BE072E00E94770C81EF94E091
:1005E00036D7892BD9F369E170E080E090E089D2B9
:1005F0000CC081EF94E05DD7182FC501612F0E94D8
:10060000FF0C1A3011F4F601058781EF94E01FD733
:100610001816190674F3C201B50143E050E026E054
:1006200030E00E94E60DC101B2010E942B0EC20112
:100630000E94400EC50160E072E00E94A00DC10161
:100640000E948E0CF601708B6787C30160E172E037
:100650000E94880DF60187859089B701681B790B88
:10066000C4014AE00E94B70DC301B4010E943D0DD0
:1006700064E172E00E94230DBC018BE894E00E94CB
:10068000410CC4010E94400EC3010E94440EF601B9
:10069000878590898E159F0584F083E592E060E060
:1006A00070E047D1C60163E070E0BEDE8BE894E005
:1006B00066E172E00E94770C20C09701281B390B7D
:1006C000253631052CF083E592E065E070E00DC041
:1006D000C901880F991F880F991F820F931F64E625
:1006E00070E00E94811183E592E023D1F6018785B5
:1006F00090898E159F050CF46BCF83E592E010D1A5
:100700008BE894E065E272E00E94770C8BE894E05D
:10071000F9D6CE0107960E94400ECE0101960E94A6
:10072000400EA4960FB6F894DEBF0FBECDBFCF919A
:10073000DF911F910F91FF90EF90DF90CF90BF90CE
:10074000AF909F908F907F906F905F904F903F9071
:100750002F9008950F931F938C0164E070E064DE86
:1007600081EF94E0B8010E94410C81EF94E0CAD679
:1007700081EF94E06CD6892BD9F381EF94E067D6B2
:1007800018161906D4F781EF94E093D6182F8BE84A
:1007900094E0612F0E94530C1A3079F71F910F914A
:1007A00008950F931F93182F092F61E070E00E94A6
:1007B000790CFC01E081E93499F0E23519F0E43478
:1007C000B9F412C0812F902F62E070E00E94790C82
:1007D000FC018081803379F4812F902F77DE0BC06C
:1007E000812F902FB7DF07C0812F902F5DDE03C0D0
:1007F000812F902F47DE1F910F910895FF920F9345
:100800001F93CF93DF93EC01182F0D2FFF24F39448
:100810000DC08BE894E04DD6682F8E87812F902FE6
:100820000E94FF0C8E858A3009F4FE828BE894E0EA
:100830000ED6181619066CF36AEF70E080E090E0AF
:1008400060D18E818823E1F0812F902F60E070E0ED
:100850000E94790CFC018081843291F480917100B6
:1008600080937100CE019DDF809171008160809343
:100870007100812F902F60E072E00E94A00D1E8217
:10088000DF91CF911F910F91FF900895EF92FF920A
:100890000F931F937C018DE061E0EED110929000E8
:1008A000E1E9F0E0108210929500109294008081AE
:1008B00084608083E1E7F0E080818160808383E56C
:1008C00092E068EC70E048E050E027E030E083D050
:1008D000F701108A17868BE894E040E052EC61E063
:1008E00070E02FD581EF94E040E052EC61E070E0E1
:1008F00028D5F701168200E012E0C701B8010E9476
:10090000A00DF7011586C7010796B8010E94A00D3A
:1009100080E3F70186871F910F91FF90EF90089574
:10092000FC011086AFE6B0E08C918C93838560E08B
:1009300056C20F931F93CF93DF93EC018B01611588
:10094000710509F4EDDF8DE490E0089F9001099FA7
:10095000300D189F300D11243F832E838A819B8197
:10096000AC01249FC001259F900D349F900D112450
:1009700068EE73E00E9481119B01442737FD40958A
:10098000542F69E07DE380E090E00E94B611CA0137
:10099000B90122E030E040E050E00E94B61130930F
:1009A000890020938800DF91CF911F910F910895C6
:1009B000DC0181E018968C931897EFE6F0E08081D7
:1009C000826080831B968C9161E009C2FC01648384
:1009D0007583818504C2EF92FF920F931F938C0160
:1009E000FC0171836083528741873487238788277E
:1009F00077FD8095982F0E94F5102BED3FE049EC94
:100A000050E40E945A100E94C210F801738362835E
:100A100080E8E82EF12CF7011082E1E8F0E0108286
:100A20001092850010928400109289001092880024
:100A30008081886080838081816080838081846000
:100A40008083EFE6F0E0808180838BE061E014D169
:100A5000F70180818064808381E090E0F8019583D4
:100A600084831086168615861F910F91FF90EF9054
:100A700008951F920F920FB60F9211242F933F9358
:100A80008F939F93AF93BF9380916602909167027B
:100A9000A0916802B091690230916A020196A11D8D
:100AA000B11D232F2D5F2D3720F02D570196A11D4D
:100AB000B11D20936A028093660290936702A0930F
:100AC0006802B09369028091620290916302A091E2
:100AD0006402B09165020196A11DB11D809362026E
:100AE00090936302A0936402B0936502BF91AF91AB
:100AF0009F918F913F912F910F900FBE0F901F905C
:100B000018959B01AC017FB7F89480916202909197
:100B10006302A0916402B091650266B5A89B05C00E
:100B20006F3F19F00196A11DB11D7FBFBA2FA92FEC
:100B3000982F8827860F911DA11DB11D62E0880F97
:100B4000991FAA1FBB1F6A95D1F7BC012DC0FFB723
:100B5000F8948091620290916302A0916402B09136
:100B60006502E6B5A89B05C0EF3F19F00196A11DEF
:100B7000B11DFFBFBA2FA92F982F88278E0F911D67
:100B8000A11DB11DE2E0880F991FAA1FBB1FEA95A6
:100B9000D1F7861B970B885E9340C8F221503040F6
:100BA0004040504068517C4F2115310541055105A9
:100BB00071F60895789484B5826084BD84B58160AF
:100BC00084BD85B5826085BD85B5816085BDEEE655
:100BD000F0E0808181608083E1E8F0E01082808134
:100BE00082608083808181608083E0E8F0E08081A2
:100BF00081608083E1EBF0E0808184608083E0EBC2
:100C0000F0E0808181608083E1E9F0E080818260B2
:100C10008083808181608083E0E9F0E08081816071
:100C20008083E1EAF0E0808182608083808181605E
:100C30008083E0EAF0E0808181608083E1E2F1E09E
:100C4000808182608083808181608083E0E2F1E046
:100C5000808181608083EAE7F0E080818460808326
:100C600080818260808380818160808380818068D0
:100C700080831092C1000895CF93DF93482F50E0F6
:100C8000CA0188589E4FFC0134914E5C5E4FFA01B8
:100C90008491882369F190E0880F991FFC01EC5141
:100CA000FF4FA591B491FC01E250FF4FC591D49143
:100CB000662351F42FB7F8948C91932F9095892344
:100CC0008C93888189230BC0623061F42FB7F8942C
:100CD0008C91932F909589238C938881832B888383
:100CE0002FBF06C09FB7F8948C91832B8C939FBF26
:100CF000DF91CF910895893009F449C08A30A0F47A
:100D0000843051F1853040F4823079F1833000F540
:100D1000813009F063C026C0873079F1883098F5BA
:100D2000863009F05BC025C08D3009F442C08E309A
:100D300028F48B30B1F18C30C0F52DC0803109F42E
:100D400042C0813109F445C08F3009F047C037C037
:100D5000809180008F7703C0809180008F7D809389
:100D60008000089584B58F7702C084B58F7D84BDDF
:100D700008958091B0008F7703C08091B0008F7D7F
:100D80008093B0000895809190008F7707C0809184
:100D900090008F7D03C080919000877F80939000AA
:100DA00008958091A0008F7707C08091A0008F7D6B
:100DB00003C08091A000877F8093A0000895809158
:100DC00020018F7703C0809120018F7D80932001C7
:100DD000089580912001877F809320010895FF92DC
:100DE0000F931F93F62E482F50E0CA0182549E4F56
:100DF000FC012491CA0188589E4FFC0114914E5C5D
:100E00005E4FFA0104910023C1F0222311F0822FDA
:100E100072DFE02FF0E0EE0FFF1FE250FF4FA591D1
:100E2000B4919FB7F894FF2021F48C911095812301
:100E300002C08C91812B8C939FBF1F910F91FF90CB
:100E400008950F931F93482F50E0CA0182549E4F7C
:100E5000FC012491CA0188589E4FFC0104914E5C0C
:100E60005E4FFA011491112319F420E030E014C010
:100E7000222311F0822F3FDF812F90E0880F991FEE
:100E8000885E9E4FFC01A591B4918C9120E030E0EA
:100E9000802311F021E030E0C9011F910F910895E6
:100EA00008951F920F920FB60F920BB60F92112456
:100EB0002F933F934F938F939F93EF93FF93809143
:100EC000C00082FD1DC04091C6002091AB02309150
:100ED000AC022F5F3F4F2F7330708091AD02909125
:100EE000AE022817390771F0E091AB02F091AC0225
:100EF000E559FD4F40833093AC022093AB0202C012
:100F00008091C600FF91EF919F918F914F913F91FA
:100F10002F910F900BBE0F900FBE0F901F90189542
:100F200008951F920F920FB60F920BB60F921124D5
:100F30002F933F934F938F939F93EF93FF938091C2
:100F4000C80082FD1DC04091CE0020913303309136
:100F500034032F5F3F4F2F73307080913503909192
:100F600036032817390771F0E0913303F091340309
:100F7000ED50FD4F4083309334032093330302C080
:100F80008091CE00FF91EF919F918F914F913F9172
:100F90002F910F900BBE0F900FBE0F901F901895C2
:100FA00008951F920F920FB60F920BB60F92112455
:100FB0002F933F934F938F939F93EF93FF93809142
:100FC000D00082FD1DC04091D6002091BB0330911E
:100FD000BC032F5F3F4F2F7330708091BD03909102
:100FE000BE032817390771F0E091BB03F091BC03F1
:100FF000E558FC4F40833093BC032093BB0302C0F1
:101000008091D600FF91EF919F918F914F913F91E9
:101010002F910F900BBE0F900FBE0F901F90189541
:1010200008951F920F920FB60F920BB60F921124D4
:101030002F933F934F938F939F93EF93FF938091C1
:10104000300182FD1DC04091360120914304309152
:1010500044042F5F3F4F2F7330708091450490916F
:1010600046042817390771F0E0914304F0914404D5
:10107000ED5FFB4F4083309344042093430402C050
:1010800080913601FF91EF919F918F914F913F9108
:101090002F910F900BBE0F900FBE0F901F901895C1
:1010A000E0919704F0919804E05CFF4F8191919159
:1010B00020813181805C9F4F821B930B60E470E044
:1010C0000E948111892B09F0EBDEE091B904F091C7
:1010D000BA04E05CFF4F8191919120813181805C65
:1010E0009F4F821B930B60E470E00E948111892B5B
:1010F00009F016DFE091DB04F091DC04E05CFF4FC7
:101100008191919120813181805C9F4F821B930B53
:1011100060E470E00E948111892B09F041DFE091C9
:10112000FD04F091FE04E05CFF4F819191912081DC
:101130003181805C9F4F821B930B60E470E00E94C2
:101140008111892B09F06CCF08951F920F920FB671
:101150000F920BB60F9211242F933F938F939F936F
:10116000EF93FF932091EF023091F0028091F10212
:101170009091F2022817390731F48091C1008F7DD8
:101180008093C10014C0E091F102F091F202E155A8
:10119000FD4F20818091F1029091F20201968F73B0
:1011A00090709093F2028093F1022093C600FF9119
:1011B000EF919F918F913F912F910F900BBE0F90C8
:1011C0000FBE0F901F9018951F920F920FB60F929F
:1011D0000BB60F9211242F933F938F939F93EF930E
:1011E000FF93209177033091780380917903909158
:1011F0007A032817390731F48091C9008F7D8093D5
:10120000C90014C0E0917903F0917A03E95CFC4FC6
:1012100020818091790390917A0301968F73907069
:1012200090937A03809379032093CE00FF91EF91FE
:101230009F918F913F912F910F900BBE0F900FBEFA
:101240000F901F9018951F920F920FB60F920BB62A
:101250000F9211242F933F938F939F93EF93FF93BC
:101260002091FF03309100048091010490910204C9
:101270002817390731F48091D1008F7D8093D100F8
:1012800014C0E0910104F0910204E154FC4F20816C
:10129000809101049091020401968F739070909355
:1012A0000204809301042093D600FF91EF919F9157
:1012B0008F913F912F910F900BBE0F900FBE0F900B
:1012C0001F9018951F920F920FB60F920BB60F92A8
:1012D00011242F933F938F939F93EF93FF9320912C
:1012E0008704309188048091890490918A0428179A
:1012F000390731F4809131018F7D8093310114C021
:10130000E0918904F0918A04E95BFB4F2081809190
:10131000890490918A0401968F73907090938A0447
:101320008093890420933601FF91EF919F918F91D3
:101330003F912F910F900BBE0F900FBE0F901F90FB
:101340001895AF92BF92DF92EF92FF920F931F9387
:10135000CF93DF93EC017A018B01DD24403081EEE5
:10136000580780E0680780E0780711F0DD24D39407
:1013700091E0A92EB12CEC89FD89DD2069F0C50131
:1013800008A002C0880F991F0A94E2F7808360E0EA
:1013900079E08DE390E005C0108260E874E88EE1AA
:1013A00090E0A8019701C0D7215030404040504004
:1013B000569547953795279580E12030380720F0DE
:1013C000DD2011F0DD24D7CFE889F9893083EA895F
:1013D000FB89208319A2EE89FF89408121E030E05A
:1013E000C9010C8C02C0880F991F0A94E2F7482BA0
:1013F0004083EE89FF894081C9010D8C02C0880FAE
:10140000991F0A94E2F7482B4083EE89FF894081B7
:10141000C9010E8C02C0880F991F0A94E2F7482B6D
:101420004083EE89FF8980810F8C02C0220F331F19
:101430000A94E2F7209528232083DF91CF911F9112
:101440000F91FF90EF90DF90BF90AF900895DC0177
:101450001C96ED91FC911D97E05CFF4F819191915D
:1014600020813181805C9F4F821B930B60E470E090
:1014700048C7DC011C96ED91FC911D97E05CFF4F85
:1014800020813181E054F040DF01AE5BBF4F8D9190
:101490009C9111972817390719F42FEF3FEF07C0D8
:1014A0008D919C91E80FF91F8081282F30E0C901B0
:1014B0000895DC011C96ED91FC911D97E05CFF4FB7
:1014C00020813181E054F040DF01AE5BBF4F8D9150
:1014D0009C9111972817390719F42FEF3FEF10C08F
:1014E0008D919C911197E80FF91F20818D919C910E
:1014F000119701968F73907011969C938E9330E0A4
:10150000C9010895DC0191968C919197882339F057
:101510005496ED91FC915597808186FFF9CF919675
:101520001C920895CF93DF93EC01EE85FF85E05C7C
:10153000FF4F20813181E054F0402F5F3F4F2F73E8
:101540003070DF01AE5BBF4F8D919C9111972817D2
:101550003907D1F3E05CFF4F80819181E054F04086
:10156000E80FF91F6083EE85FF85E05CFF4F318354
:101570002083EE89FF89208181E090E00F8C02C0FA
:10158000880F991F0A94E2F7282B208381E089A312
:10159000EC89FD8980818064808381E090E0DF9127
:1015A000CF9108951F9310928E0410928D0428EE0F
:1015B00033E040E050E020938F0430939004409358
:1015C00091045093920465E372E070938C046093ED
:1015D0008B048BE692E090939804809397048FEAB3
:1015E00092E090939A048093990485EC90E0909314
:1015F0009C0480939B0484EC90E090939E048093E1
:101600009D0480EC90E09093A00480939F0481EC73
:1016100090E09093A2048093A10482EC90E09093D8
:10162000A4048093A30486EC90E09093A604809396
:10163000A50414E01093A704B3E0B093A804A7E0B6
:10164000A093A904F5E0F093AA04E1E0E093AB04D1
:101650001092B0041092AF042093B1043093B204FE
:101660004093B3045093B4047093AE046093AD04FC
:1016700083EF92E09093BA048093B90487E393E0F8
:101680009093BC048093BB048DEC90E09093BE04D7
:101690008093BD048CEC90E09093C0048093BF04D1
:1016A00088EC90E09093C2048093C10489EC90E0B0
:1016B0009093C4048093C3048AEC90E09093C60492
:1016C0008093C5048EEC90E09093C8048093C70487
:1016D0001093C904B093CA04A093CB04F093CC0434
:1016E000E093CD041092D2041092D1042093D3043D
:1016F0003093D4044093D5045093D6047093D0040F
:101700006093CF048BE793E09093DC048093DB0439
:101710008FEB93E09093DE048093DD0485ED90E001
:101720009093E0048093DF0484ED90E09093E204D2
:101730008093E10480ED90E09093E4048093E304CF
:1017400081ED90E09093E6048093E50482ED90E0D3
:101750009093E8048093E70486ED90E09093EA0488
:101760008093E9041093EB04B093EC04A093ED0490
:10177000F093EE04E093EF041092F4041092F3045B
:101780002093F5043093F6044093F7045093F80443
:101790007093F2046093F10483E094E09093FE046C
:1017A0008093FD0487E494E0909300058093FF0408
:1017B00085E391E0909302058093010584E391E035
:1017C000909304058093030580E391E090930605D0
:1017D0008093050581E391E09093080580930705C8
:1017E00082E391E090930A058093090586E391E0F6
:1017F00090930C0580930B0510930D05B0930E0587
:10180000A0930F05F0931005E09311051F91089523
:101810000895CF93DF93CED9FBDF0E94B101C0E5DD
:10182000D8E00E94AE012097E1F33ADCFACFCF92E4
:10183000DF92EF92FF920F931F93CF93DF937C0180
:101840006B018A01C0E0D0E00FC0D6016D916D013F
:10185000D701ED91FC910190F081E02DC701199520
:10186000C80FD91F015010400115110571F7CE01A5
:10187000DF91CF911F910F91FF90EF90DF90CF906C
:101880000895CF93DF93FB01EC01A881B9816081BA
:101890007181448155811296ED91FC9113971995B0
:1018A000DF91CF910895DC01ED91FC910190F081E1
:1018B000E02D19950895CF93DF93EC016115710523
:1018C00019F420E030E00FC0DB010D900020E9F7B3
:1018D0001197A61BB70BE881F9810280F381E02DF7
:1018E000AD0119959C01C901DF91CF910895E3CF16
:1018F0000895FC019B01848195816817790728F47C
:10190000608171816115710529F41092130563E1FD
:1019100075E002C0620F731FCB010895FC01808146
:101920009181009729F420E030E040E050E004C0CD
:101930000E9433019B01AC01B901CA0108950F93C4
:101940001F93CF93DF93EC018B016F5F7F4F8881F3
:101950009981D3D2009711F480E005C099838883E0
:101960001B830A8381E0DF91CF911F910F9108952E
:10197000CF93DF93EC0188819981892B29F08A81AB
:101980009B818617970758F4CE01D9DF882341F051
:101990008C819D81892B19F4E881F981108281E085
:1019A000DF91CF910895EF92FF920F931F93CF9302
:1019B000DF93EC017B016C817D81E114F104B9F0CE
:1019C0004115510591F08A01060F171FB801D0DFAC
:1019D000882369F0888199812C813D81820F931F32
:1019E000B7010E9462011D830C8381E001C080E089
:1019F000DF91CF911F910F91FF90EF900895DF93AA
:101A0000CF930F920F92CDB7DEB769831A82BE01D2
:101A10006F5F7F4F41E050E0C6DF0F900F90CF9196
:101A2000DF910895CF93DF93EC018881998100972E
:101A300009F0CBD1198218821D821C821B821A8266
:101A4000DF91CF9108950F931F93182F092F6115E0
:101A5000710559F0DB010D900020E9F71197A61BE5
:101A6000B70BAD01A0DF882319F4812F902FDADFA7
:101A7000812F902F1F910F9108950F931F93182F6F
:101A8000092FFB0160817181448155818CDF88239E
:101A900019F4812F902FC6DF812F902F1F910F9166
:101AA0000895EF92FF920F931F93CF93DF93EC0172
:101AB0007B018A01BA015CDF882319F4CE01B2DF11
:101AC00007C01D830C8388819981B7010E94620140
:101AD000CE01DF91CF911F910F91FF90EF9008956C
:101AE000CF93DF93EC01198218821B821A821D8228
:101AF0001C826115710549F0DB010D900020E9F7AA
:101B00001197A61BB70BAD01CCDFDF91CF910895E4
:101B1000CF93DF93EC01198218821B821A821D82F7
:101B20001C826115710549F0DB010D900020E9F779
:101B30001197A61BB70BAD01B4DFDF91CF910895CC
:101B40000F931F93182F092F6115710551F0DB01B9
:101B50000D900020E9F71197A61BB70BAD01A1DF8F
:101B600001C060DF812F902F1F910F910895EF9298
:101B7000FF920F931F93DF93CF93CDB7DEB762979A
:101B80000FB6F894DEBF0FBECDBF8C01CB01F801BC
:101B90001182108213821282158214827E010894AF
:101BA000E11CF11CB70150E00E946901C801B701B6
:101BB000C7DF62960FB6F894DEBF0FBECDBFCF91E0
:101BC000DF911F910F91FF90EF900895BF92CF92F8
:101BD000DF92EF92FF920F931F93CF93DF93082F23
:101BE000B92E6B017A01E9012417350710F4EA01D7
:101BF0007901802F9B2D6AE272E072DFD601149684
:101C00008D919C9115978E159F05C8F08C179D0797
:101C100008F4EC01D601ED91FC911197EC0FFD1F3A
:101C2000108110826D917C916E0D7F1D802F9B2DF8
:101C300087DFD601ED91FC91EC0FFD1F1083802F03
:101C40009B2DDF91CF911F910F91FF90EF90DF902F
:101C5000CF90BF900895CF93DF93EC01FB018617DF
:101C6000970751F0608171816115710521F0448100
:101C7000558117DF01C0D6DECE01DF91CF910895E7
:101C8000FC0180819181A1C0FC01808191819DC076
:101C90000F931F93CF93DF93BC018230910510F413
:101CA00062E070E0E0911605F091170540E050E029
:101CB000A0E0B0E024C08081918186179707D0F022
:101CC0008617970771F482819381109729F01396F4
:101CD0009C938E9312972CC09093170580931605B2
:101CE00027C04115510519F08417950718F48D0187
:101CF000AC01EF01DF01828193819C01F9013097F2
:101D0000D1F641155105F9F0CA01861B970B8430B5
:101D1000910580F48A819B810115110521F0F8015C
:101D20009383828304C09093170580931605FE0168
:101D3000329645C0FE01E80FF91F61937193029737
:101D4000998388833CC08091140590911505892B57
:101D500041F480912D0290912E029093150580936D
:101D6000140540912F02509130024115510541F464
:101D70004DB75EB780912B0290912C02481B590BF6
:101D8000209114053091150524173507B0F4CA01C8
:101D9000821B930B8617970780F0AB014E5F5F4F56
:101DA0008417950750F0420F531F50931505409329
:101DB0001405F9016193719302C0E0E0F0E0CF01F6
:101DC000DF91CF911F910F910895CF93DF939C01E5
:101DD000009709F48FC0EC0122971B821A82609150
:101DE0001605709117056115710581F48881998137
:101DF000820F931F2091140530911505281739077C
:101E000039F5D0931505C093140574C0DB0140E08B
:101E100050E0AC17BD0708F1BB83AA83FE012191F6
:101E20003191E20FF31FAE17BF0779F48D919C91AA
:101E30001197280F391F2E5F3F4F39832883129641
:101E40008D919C9113979B838A834115510571F461
:101E5000D0931705C09316054DC012968D919C9195
:101E60001397AD01009711F0DC01D3CFDA0113967F
:101E7000DC93CE931297FA0121913191E20FF31F77
:101E8000CE17DF0769F488819981280F391F2E5FEB
:101E90003F4FFA01318320838A819B819383828320
:101EA000E0E0F0E0DB0112968D919C911397009792
:101EB00019F0BC01FD01F6CFAB014E5F5F4FDB01B6
:101EC0008D919C91840F951F2091140530911505DB
:101ED0002817390779F4309729F4109217051092D2
:101EE000160502C0138212824250504050931505CD
:101EF00040931405DF91CF9108956F927F928F9256
:101F00009F92AF92BF92CF92DF92EF92FF920F9388
:101F10001F93CF93DF938C01009721F4CB01B8DEA0
:101F20008C01B8C08EEFE82E8FEFF82EE00EF11E78
:101F30004801860E971E8E149F0408F4A9C0D7018D
:101F40004D915C91119746175707B0F045305105F8
:101F500008F4A0C0CA0104978617970708F49AC02E
:101F600042505040461B570BF401419351936D93DF
:101F70007C93CF012ADF8EC05B01A41AB50A380119
:101F8000640E751EA0911605B0911705E0E0F0E013
:101F9000CC24DD2447C0A615B705A9F5CD91DC9169
:101FA0001197CE0102968A159B0568F1CE018A1918
:101FB0009B09029612962C91129713963C910597C5
:101FC00058F0F40122833383CA19DB09D183C0831B
:101FD000D7016D937C9309C04E5F5F4F4C0F5D1F1F
:101FE000F70151834083C901FC01C114D10431F0D0
:101FF000D6011396FC93EE9312974CC0F0931705FD
:10200000E093160547C08D919C911197E817F90749
:1020100008F4FC016D0112968C91129713969C9115
:102020009C01D901109709F0B6CF809114059091C9
:10203000150586159705E9F4E617F707D0F4209102
:102040002F02309130022115310541F42DB73EB7F2
:1020500080912B0290912C02281B390B821693063B
:10206000B8F49092150580921405F701718360838E
:1020700011C0CB010DDEEC01009751F0D7014D915D
:102080005C91B8010E945901C8019FDE8E0102C017
:1020900000E010E0C801DF91CF911F910F91FF90F8
:1020A000EF90DF90CF90BF90AF909F908F907F90F8
:1020B0006F9008950CD0EBC0E3D040F0DAD030F050
:1020C00021F45F3F19F0CCC0511115C1CFC0F0D041
:1020D00098F39923C9F35523B1F3951B550BBB27EF
:1020E000AA2762177307840738F09F5F5F4F220F9C
:1020F000331F441FAA1FA9F333D00E2E3AF0E0E895
:1021000030D091505040E695001CCAF729D0FE2FE0
:1021100027D0660F771F881FBB1F26173707480772
:10212000AB07B0E809F0BB0B802DBF01FF27935828
:102130005F4F2AF09E3F510568F092C0DCC05F3FC0
:10214000ECF3983EDCF3869577956795B795F79510
:102150009F5FC9F7880F911D9695879597F9089508
:10216000E1E0660F771F881FBB1F621773078407A4
:10217000BA0720F0621B730B840BBA0BEE1F88F7B3
:10218000E095089504D06894B111B5C0089598D031
:1021900088F09F5790F0B92F9927B751A0F0D1F050
:1021A000660F771F881F991F1AF0BA95C9F712C0DA
:1021B000B13081F09FD0B1E008959CC0672F782F97
:1021C0008827B85F39F0B93FCCF386957795679546
:1021D000B395D9F73EF490958095709561957F4FB2
:1021E0008F4F9F4F0895E89409C097FB3EF4909558
:1021F0008095709561957F4F8F4F9F4F9923A9F0E0
:10220000F92F96E9BB279395F6958795779567956E
:10221000B795F111F8CFFAF4BB0F11F460FF1BC0B2
:102220006F5F7F4F8F4F9F4F16C0882311F096E945
:1022300011C0772321F09EE8872F762F05C06623F3
:1022400071F096E8862F70E060E02AF09A95660FAC
:10225000771F881FDAF7880F9695879597F9089565
:1022600097F99F6780E870E060E008959FEF80EC49
:10227000089500240A9416161706180609060895EC
:1022800000240A9412161306140605060895092E52
:102290000394000C11F4882352F0BB0F40F4BF2BC1
:1022A00011F460FF04C06F5F7F4F8F4F9F4F089501
:1022B00057FD9058440F551F59F05F3F71F04795F7
:1022C000880F97FB991F61F09F3F79F087950895DC
:1022D000121613061406551FF2CF4695F1DF08C0FB
:1022E000161617061806991FF1CF86957105610518
:1022F00008940895E894BB2766277727CB0197F9C0
:10230000089597FB092E07260AD077FD04D049D0FF
:1023100006D000201AF4709561957F4F0895F6F766
:10232000909581959F4F0895A1E21A2EAA1BBB1B81
:10233000FD010DC0AA1FBB1FEE1FFF1FA217B30791
:10234000E407F50720F0A21BB30BE40BF50B661FA7
:10235000771F881F991F1A9469F76095709580956B
:1023600090959B01AC01BD01CF01089597FB092E0B
:1023700005260ED057FD04D0D7DF0AD0001C38F454
:1023800050954095309521953F4F4F4F5F4F0895A1
:10239000F6F790958095709561957F4F8F4F9F4F81
:1023A0000895AA1BBB1B51E107C0AA1FBB1FA6179C
:1023B000B70710F0A61BB70B881F991F5A95A9F7EE
:1023C00080959095BC01CD010895EE0FFF1F0590FB
:1023D000F491E02D199412E0C8E0D2E003C0FE01B0
:0E23E000F6DF2296CA30D107D1F7F894FFCF6E
:1023EE00002453500A002444500A002452300A009C
:1023FE00245230000A00596120646F6E6520676FA9
:10240E006F666564002452500A00008000180500B3
:10241E000000000000920A170C270A590A390A8296
:02242E000A00A2
:00000001FF
