:1000000004C1000041C7000070C700009FC7000086
:10001000CEC70000FDC700000C9439080C946A0894
:100020000C949B081FC100001DC100001BC10000F3
:1000300019C1000017C1000015C1000013C1000064
:1000400011C10000A7C100000DC100000BC10000DC
:1000500009C1000007C1000005C100000C94CC08D4
:1000600001C100000C94F20A0C94460CFBC0000085
:10007000F9C00000F7C00000F5C00000F3C00000A8
:10008000F1C00000EFC00000EDC00000B7C10000EB
:100090000C94320B0C94850CE5C00000E3C000000A
:1000A000E1C00000DFC00000DDC00000DBC00000D8
:1000B000D9C00000D7C00000D5C00000D3C00000E8
:1000C000D1C00000CFC00000CDC000000C94720B66
:1000D0000C94C40CC7C000000C94B20B0C94030D1C
:1000E000C1C0000000002100240027002A002D00CC
:1000F0003000330001010000040107010A01000083
:100100002200250028002B002E00310034000201BF
:100110000000050108010B0100002000230026005B
:1001200029002C002F00320000010000030106010D
:10013000090105050505070508080808020202026D
:100140000A0A080804040404010101010101010173
:100150000303030303030303040707070C0C0C0C3E
:100160000C0C0C0C02020202060606060606060627
:100170000B0B0B0B0B0B0B0B0102102020080810B4
:100180002040102040800201020108040201010207
:1001900004081020408080402010080402018004E0
:1001A000020180402010080402010804020101023B
:1001B0000408102040800102040810204080000044
:1001C000090A02080B0C0D070603040100000000D9
:1001D000000000000000000000000000000000001F
:1001E0000000000000000000000011100F000000DF
:1001F00000000000000000000000000000000000FF
:1002000000000000F901740EF40111241FBECFEFAD
:10021000D1E2DEBFCDBF00E00CBF12E0A0E0B2E053
:10022000ECE7FCE200E00BBF02C007900D92A037A4
:10023000B107D9F71BBE15E0A0E7B2E001C01D92DF
:10024000A836B107E1F712E0C8E0D2E004C0229777
:10025000FE010E942E16C430D107C9F70E94AB0FD1
:100260000C943216CDCE1F93FC0199278827BC0130
:10027000E89411911032E9F3193010F01E30C8F3F0
:100280001B3249F01D3241F4689405C022D0610F41
:10029000711D811D911D119110531A30B8F33EF458
:1002A00090958095709561957F4F8F4F9F4F1F91CF
:1002B0000895FB01DC0102C001900D9241505040B5
:1002C000D8F70895FB01DC0101900D920020E1F7C1
:1002D0000895592F482F372F262F660F771F881F15
:1002E000991F660F771F881F991F620F731F841F46
:1002F000951F660F771F881F991F0895CF93DF936F
:10030000EC018E850E94C20A2C813D814E815F8165
:10031000019729F4215030404040504004C02F5FE5
:100320003F4F4F4F5F4F2C833D834E835F83DF9161
:10033000CF910895FF920F931F93FC01F22E7183CA
:100340006083538342832687378704871587148207
:10035000158216821782802F60E00E94DD09802FAF
:1003600061E00E94900A8F2D60E00E94DD091F91DC
:100370000F91FF90089580E792E06EC080E792E0D1
:100380009FC380E792E0EAD382E06BEB71E042E04A
:1003900050E0FEC41F920F920FB60F9211240F90DF
:1003A0000FBE0F901F9018958130910579F46F5F03
:1003B0007F4FC9F480E792E060E072E00E94E311B1
:1003C00087E792E060E072E00C94E311892B59F426
:1003D0006F5F7F4F41F487E792E00E946C1280E7E5
:1003E00092E00C946C12089580E090E06FEF7FEF44
:1003F000DBCF81E090E06FEF7FEFD6CF1F920F92BF
:100400000FB60F920BB60F9211242F933F934F9379
:100410005F936F937F938F939F93AF93BF93EF936C
:10042000FF938DE00E94C20A61E068278DE00E9480
:10043000900AFF91EF91BF91AF919F918F917F9122
:100440006F915F914F913F912F910F900BBE0F9045
:100450000FBE0F901F9018950E9650CF0F931F93BD
:10046000CF93DF938B0164EF71E080E090E0EAD6F8
:10047000C0E0D0E01CC08DE060E00E94900A6AEF0E
:1004800070E080E090E0DED68DE061E00E94900AAE
:100490006AEF70E080E090E0D5D68DE060E00E94E9
:1004A000900A6AEF70E080E090E0CCD62196C01709
:1004B000D1070CF3DF91CF911F910F9108950F9306
:1004C0001F9362E070E0CADF0BED14E0C80161E049
:1004D00072E00E940711C8010E94240E1F910F9123
:1004E00008952F923F924F925F926F927F928F92D8
:1004F0009F92AF92BF92CF92DF92EF92FF920F93B3
:100500001F93DF93CF93CDB7DEB7A4970FB6F894C0
:10051000DEBF0FBECDBF5C017E010894E11CF11C63
:10052000C70160E072E00E94E311CE01079660E02F
:1005300072E00E94E311CE010D9666E072E00E9427
:10054000E3118E010D5E1F4FC801B50144E050E07C
:1005500027E030E00E941212C701B8010E94571232
:10056000C8010E946C12C7010E942F118B01C501A6
:1005700063E070E00E941A11FC0180818D3241F429
:10058000109501951F4F83E992E061E070E004C08F
:1005900083E992E060E070E09CD3F501878C90A045
:1005A0008CEE9FEF880E991E800E911E8BED94E0CD
:1005B0006BE072E00E94091183E992E063EC79E05C
:1005C0003BD383E992E077D381E495E065E172E083
:1005D0000E94071181E495E00E94C90D892BD1F397
:1005E00047E0642E712C6A0C7B1C01E00DC081E495
:1005F00095E00E94FB0D182FC301612F0E94A011EE
:100600001A3011F4F501058781E495E00E94C90DC7
:100610001816190664F38E01075E1F4FC801B30157
:1006200043E050E026E030E00E94121237E0E32E73
:10063000F12CEC0EFD1EC701B8010E945712C80133
:100640000E946C12C7010E942F119B01AC01F501A1
:1006500070A3678F8BED94E0B9014AE050E00E94EF
:10066000EA102FE1422E512C4C0E5D1E1701BFC027
:10067000809180008F7B8093800081E495E065E12C
:1006800072E00E9407118091800080648093800056
:10069000CBD5AC01CB01DA017C018D01CC24DD246A
:1006A00032C0C2D56E197F09800B910B615D774016
:1006B0008040904044F18BED94E06AE172E00E944A
:1006C00007110894C11CD11CF89481E495E065E100
:1006D00072E00E9407117894A7D524E0C216D104D5
:1006E00069F48BED94E066E372E00E940911CE019B
:1006F0000D9664E572E00E94FB1180C0AC01CB0155
:10070000DA017C018D0181E495E00E94C90D892BFD
:1007100041F284E0C816D1040CF070C069E170E0C9
:1007200080E090E08FD581E495E00E94C90D0EC075
:1007300081E495E00E94FB0D182FC301612F0E94F8
:10074000A0111A3019F421E0F501258781E495E024
:100750000E94C90D181619065CF37894C201B30102
:1007600043E050E026E030E00E941212C101B201E5
:100770000E945712C2010E946C12C30160E072E035
:100780000E94FB11C1010E942F119B01AC01F501D8
:1007900070A3678F8BED94E0B9014AE050E00E94AE
:1007A000EA10F501278D30A12815390534F083E9C9
:1007B00092E063EC79E040D221C0C401821B930B2C
:1007C00045972CF083E992E06CE770E00FC02819A0
:1007D000390986E790E0289FB001299F700D389F66
:1007E000700D11246D53764F83E992E00ED2F5011E
:1007F000878D90A1881599050CF43ACF83E992E092
:100800000ED28E01035F1F4F8BED94E0B8010E9462
:100810001D108BED94E00E94240EC8010E946C1202
:10082000CE0107960E946C12CE0101960E946C12B6
:10083000A4960FB6F894DEBF0FBECDBFCF91DF9167
:100840001F910F91FF90EF90DF90CF90BF90AF90EE
:100850009F908F907F906F905F904F903F902F90E0
:1008600008950F931F938C0164E070E0F7DD81E43D
:1008700095E0B8010E94E30F81E495E00E94240E08
:1008800081E495E00E94C90D892BD1F381E495E0C4
:100890000E94C90D18161906CCF781E495E00E9454
:1008A000FB0D182F8BED94E0612F0E94F50F1A308D
:1008B00069F71F910F9108956F927F928F929F9287
:1008C000AF92BF92CF92DF92EF92FF920F931F935E
:1008D000DF93CF93CDB7DEB72C970FB6F894DEBF7A
:1008E0000FBECDBF4C017E010894E11CF11CC70175
:1008F00060E072E00E94E311C40165E070E0AEDDEB
:10090000782C692CC40162E070E00E941A11FC018D
:10091000E081EC3409F48EC0E23509F48BC0E23496
:1009200009F488C08E01095F1F4FC801B40144E07B
:1009300050E027E030E00E941212C701B8010E9487
:100940005712C8010E946C12C7010E942F117B012F
:100950008C0183E992E05ED15C01B701660F771FDD
:10096000660F771F6E0D7F1D882777FD8095982F66
:100970000E941D152BED3FE049E450E40E948214D3
:100980000E94EA147B018C01CC24B7FCC094DC2CBF
:10099000EA0CFB1C0C1D1D1D83E992E06CE770E066
:1009A0004BD183E992E061E070E093D183E992E07A
:1009B00082D183E992E02ED1AA2797FDA095BA2F84
:1009C0008E159F05A007B107A4F381E495E0672D7C
:1009D000762D0E94E30F81E495E00E94C90D892BDA
:1009E000D1F369E170E080E090E02CD457E0E52E8F
:1009F000F12CE80CF91C01E016C081E495E00E949E
:100A0000FB0D182FC701612F0E94A0111A3059F455
:100A1000F40105878BED94E0B7010E94E30F8BEDA5
:100A200094E00E94240E81E495E00E94C90D1816FE
:100A300019061CF3CE0101960E946C122C960FB67B
:100A4000F894DEBF0FBECDBFCF91DF911F910F9104
:100A5000FF90EF90DF90CF90BF90AF909F908F90DE
:100A60007F906F9008950F931F93182F092F61E0C7
:100A700070E00E941A11FC01E081E93499F0E2353E
:100A800019F0E434B9F412C0812F902F62E070E0C5
:100A90000E941A11FC018081803379F4812F902FFC
:100AA00020DD0BC0812F902FDCDE07C0812F902F1F
:100AB00003DF03C0812F902F02DD1F910F91089556
:100AC000FF920F931F93CF93DF93EC018BED94E094
:100AD0000E94C90D1C2F0D2FFF24F3940EC08BED27
:100AE00094E00E94FB0D682F8E8F812F902F0E9423
:100AF000A0118E8D8A3009F4FE828BED94E00E9465
:100B0000C90D181619065CF36AEF70E080E090E0FA
:100B100099D38E818823E1F0812F902F60E070E0DF
:100B20000E941A11FC018081843291F4809171003D
:100B300080937100CE0197DF809171008160809376
:100B40007100812F902F60E072E00E94FB111E82E5
:100B5000DF91CF911F910F91FF900895EF92FF9237
:100B60000F931F937C018DE061E027D410929000D9
:100B7000E1E9F0E0108210929500109294008081DB
:100B800084608083E1E7F0E080818160808383E995
:100B900092E061E070E048E050E027E030E09ED075
:100BA000C7010E9662E070E048EC50E02EE130E0C4
:100BB00005E110E0BFDBF70110A2178E12A211A20F
:100BC0008BED94E040E052EC61E070E05BD781E4B3
:100BD00095E040E052EC61E070E054D7F7011682F6
:100BE00000E012E0C701B8010E94FB11F701158671
:100BF000C7010796B8010E94FB1180E3F701868FB9
:100C00001F910F91FF90EF9008957093890060936A
:100C100088000895FC0125853685C9010895DC0109
:100C200018961C921897E0E8F0E080818F7B808313
:100C30001B968C9160E074C40F931F93CF93DF9346
:100C40008C01EB016115710509F4E9DFCE0124E0A7
:100C5000880F991F2A95E1F78C1B9D0BF80197834C
:100C6000868322813381AC01429FC001439F900D56
:100C7000529F900D112468EE73E00E94C8159B01ED
:100C8000442737FD4095542F69E07DE380E090E0F4
:100C90000E94FD15CA01B90122E030E040E050E0B9
:100CA0000E94FD153093890020938800DF91CF9139
:100CB0001F910F910895DC0181E018968C9318978D
:100CC000E0E8F0E08081806480831B968C9160E096
:100CD00027C4FC0164837583818522C4CF92DF928F
:100CE000EF92FF920F931F938C01C42ED22EFC0122
:100CF000718360834187528723873487882777FDF4
:100D00008095982F0E941D152BED3FE049EC50E493
:100D10000E9482140E94EA14F8017383628330E80F
:100D2000E32EF12CF7011082E1E8F0E0108210923E
:100D300085001092840083EC99E090938900809361
:100D400088008081886080838081826080838BE0DE
:100D500061E033D38C2D61E030D38D2D61E02DD354
:100D6000F701808180838D2D60E0DAD38BE060E035
:100D7000D7D381E090E0F8019583848310861686AE
:100D800015861F910F91FF90EF90DF90CF900895FF
:100D9000883008F078C0E82FF0E0EE0FFF1FEE5526
:100DA000FD4F718360838330D9F0843030F481301B
:100DB00009F444C0823060F439C0853051F1853087
:100DC000D8F0863009F446C0873009F05CC04FC0C7
:100DD000809169008C7F842B80936900E89A089544
:100DE00080916900440F551F440F551F837F842B4A
:100DF00080936900E99A08958091690074E0440F36
:100E0000551F7A95E1F78F7C842B80936900EA9ACD
:100E100008958091690066E0440F551F6A95E1F7D7
:100E20008F73842B80936900EB9A089580916A00F8
:100E30008C7F842B80936A00EC9A089580916A00DD
:100E4000440F551F440F551F837F842B80936A00E6
:100E5000ED9A089580916A0024E0440F551F2A9569
:100E6000E1F78F7C842B80936A00EE9A089580913D
:100E70006A0096E0440F551F9A95E1F78F73842B13
:100E800080936A00EF9A08951F920F920FB60F9207
:100E90000BB60F9211242F933F934F935F936F9351
:100EA0007F938F939F93AF93BF93EF93FF93809123
:100EB000A6029091A702892B29F0E091A602F09159
:100EC000A7021995FF91EF91BF91AF919F918F91DB
:100ED0007F916F915F914F913F912F910F900BBE3A
:100EE0000F900FBE0F901F9018951F920F920FB684
:100EF0000F920BB60F9211242F933F934F935F9352
:100F00006F937F938F939F93AF93BF93EF93FF93D1
:100F10008091A8029091A902892B29F0E091A80262
:100F2000F091A9021995FF91EF91BF91AF919F9117
:100F30008F917F916F915F914F913F912F910F9082
:100F40000BBE0F900FBE0F901F9018951F920F921F
:100F50000FB60F920BB60F9211242F933F934F931E
:100F60005F936F937F938F939F93AF93BF93EF9311
:100F7000FF938091AA029091AB02892B29F0E09116
:100F8000AA02F091AB021995FF91EF91BF91AF9139
:100F90009F918F917F916F915F914F913F912F9191
:100FA0000F900BBE0F900FBE0F901F9018951F92C1
:100FB0000F920FB60F920BB60F9211242F933F93FF
:100FC0004F935F936F937F938F939F93AF93BF9351
:100FD000EF93FF938091AC029091AD02892B29F0A1
:100FE000E091AC02F091AD021995FF91EF91BF91A4
:100FF000AF919F918F917F916F915F914F913F91B1
:101000002F910F900BBE0F900FBE0F901F90189551
:101010001F920F920FB60F920BB60F9211242F93BF
:101020003F934F935F936F937F938F939F93AF9370
:10103000BF93EF93FF938091A2029091A302892B1B
:1010400029F0E091A202F091A3021995FF91EF918E
:10105000BF91AF919F918F917F916F915F914F91D0
:101060003F912F910F900BBE0F900FBE0F901F90CE
:1010700018951F920F920FB60F920BB60F92112474
:101080002F933F934F935F936F937F938F939F9390
:10109000AF93BF93EF93FF938091A4029091A50229
:1010A000892B29F0E091A402F091A5021995FF91F6
:1010B000EF91BF91AF919F918F917F916F915F91D0
:1010C0004F913F912F910F900BBE0F900FBE0F903D
:1010D0001F9018951F920F920FB60F920BB60F929A
:1010E00011242F933F934F935F936F937F938F932D
:1010F0009F93AF93BF93EF93FF938091AE02909134
:10110000AF02892B29F0E091AE02F091AF02199560
:10111000FF91EF91BF91AF919F918F917F916F91CF
:101120005F914F913F912F910F900BBE0F900FBE8B
:101130000F901F9018951F920F920FB60F920BB63B
:101140000F9211242F933F934F935F936F937F934D
:101150008F939F93AF93BF93EF93FF938091B002D0
:101160009091B102892B29F0E091B002F091B10287
:101170001995FF91EF91BF91AF919F918F917F91C1
:101180006F915F914F913F912F910F900BBE0F90F8
:101190000FBE0F901F9018951F920F920FB60F92CF
:1011A00011242F933F938F939F93AF93BF9380917D
:1011B000B6029091B702A091B802B091B9023091F5
:1011C000BA020196A11DB11D232F2D5F2D3720F0EE
:1011D0002D570196A11DB11D2093BA028093B6022E
:1011E0009093B702A093B802B093B9028091B20273
:1011F0009091B302A091B402B091B5020196A11DE5
:10120000B11D8093B2029093B302A093B402B09345
:10121000B502BF91AF919F918F913F912F910F9008
:101220000FBE0F901F9018958FB7F8942091B602BB
:101230003091B7024091B8025091B9028FBFB90105
:10124000CA0108959B01AC017FB7F8948091B20266
:101250009091B302A091B402B091B50266B5A89B7B
:1012600005C06F3F19F00196A11DB11D7FBFBA2FB8
:10127000A92F982F8827860F911DA11DB11D62E00F
:10128000880F991FAA1FBB1F6A95D1F7BC012DC0FB
:10129000FFB7F8948091B2029091B302A091B4028A
:1012A000B091B502E6B5A89B05C0EF3F19F00196D5
:1012B000A11DB11DFFBFBA2FA92F982F88278E0F10
:1012C000911DA11DB11DE2E0880F991FAA1FBB1F30
:1012D000EA95D1F7861B970B885E9340C8F22150A0
:1012E00030404040504068517C4F21153105410548
:1012F000510571F60895789484B5826084BD84B5F3
:10130000816084BD85B5826085BD85B5816085BD00
:10131000EEE6F0E0808181608083E1E8F0E0108219
:10132000808182608083808181608083E0E8F0E05A
:10133000808181608083E1EBF0E080818460808344
:10134000E0EBF0E0808181608083E1E9F0E0808182
:1013500082608083808181608083E0E9F0E0808129
:1013600081608083E1EAF0E0808182608083808117
:1013700081608083E0EAF0E0808181608083E1E247
:10138000F1E0808182608083808181608083E0E2FF
:10139000F1E0808181608083EAE7F0E08081846011
:1013A000808380818260808380818160808380816E
:1013B000806880831092C1000895CF93DF93482FF7
:1013C00050E0CA0188589E4FFC0134914E5C5E4F3C
:1013D000FA018491882369F190E0880F991FFC013C
:1013E000EC51FF4FA591B491FC01E250FF4FC59124
:1013F000D491662351F42FB7F8948C91932F909544
:1014000089238C93888189230BC0623061F42FB7C4
:10141000F8948C91932F909589238C938881832BBA
:1014200088832FBF06C09FB7F8948C91832B8C9331
:101430009FBFDF91CF910895893009F449C08A3068
:10144000A0F4843051F1853040F4823079F183305A
:1014500000F5813009F063C026C0873079F188300B
:1014600098F5863009F05BC025C08D3009F442C084
:101470008E3028F48B30B1F18C30C0F52DC0803126
:1014800009F442C0813109F445C08F3009F047C0EA
:1014900037C0809180008F7703C0809180008F7D5E
:1014A00080938000089584B58F7702C084B58F7DC6
:1014B00084BD08958091B0008F7703C08091B00003
:1014C0008F7D8093B0000895809190008F7707C042
:1014D000809190008F7D03C080919000877F8093E2
:1014E000900008958091A0008F7707C08091A000A0
:1014F0008F7D03C08091A000877F8093A000089516
:10150000809120018F7703C0809120018F7D80938F
:101510002001089580912001877F80932001089504
:10152000FF920F931F93F62E482F50E0CA0182546A
:101530009E4FFC012491CA0188589E4FFC011491D2
:101540004E5C5E4FFA0104910023C1F0222311F09A
:10155000822F72DFE02FF0E0EE0FFF1FE250FF4F0F
:10156000A591B4919FB7F894FF2021F48C91109528
:10157000812302C08C91812B8C939FBF1F910F916F
:10158000FF9008950F931F93482F50E0CA01825493
:101590009E4FFC012491CA0188589E4FFC01049182
:1015A0004E5C5E4FFA011491112319F420E030E0F3
:1015B00014C0222311F0822F3FDF812F90E0880F8B
:1015C000991F885E9E4FFC01A591B4918C9120E0FB
:1015D00030E0802311F021E030E0C9011F910F912C
:1015E000089508951F920F920FB60F920BB60F92A7
:1015F00011242F933F934F938F939F93EF93FF93D8
:101600008091C00082FD1DC04091C6002091FB0268
:101610003091FC022F5F3F4F2F7330708091FD029D
:101620009091FE022817390771F0E091FB02F091CA
:10163000FC02E554FD4F40833093FC022093FB02F3
:1016400002C08091C600FF91EF919F918F914F91C1
:101650003F912F910F900BBE0F900FBE0F901F90D8
:10166000189508951F920F920FB60F920BB60F9216
:1016700011242F933F934F938F939F93EF93FF9357
:101680008091C80082FD1DC04091CE00209183034F
:10169000309184032F5F3F4F2F733070809185030B
:1016A000909186032817390771F0E0918303F09138
:1016B0008403ED5BFC4F40833093840320938303CA
:1016C00002C08091CE00FF91EF919F918F914F9139
:1016D0003F912F910F900BBE0F900FBE0F901F9058
:1016E000189508951F920F920FB60F920BB60F9296
:1016F00011242F933F934F938F939F93EF93FF93D7
:101700008091D00082FD1DC04091D60020910B0435
:1017100030910C042F5F3F4F2F73307080910D0478
:1017200090910E042817390771F0E0910B04F091A5
:101730000C04E553FC4F408330930C0420930B04BE
:1017400002C08091D600FF91EF919F918F914F91B0
:101750003F912F910F900BBE0F900FBE0F901F90D7
:10176000189508951F920F920FB60F920BB60F9215
:1017700011242F933F934F938F939F93EF93FF9356
:101780008091300182FD1DC040913601209193046B
:10179000309194042F5F3F4F2F73307080919504E8
:1017A000909196042817390771F0E0919304F09115
:1017B0009404ED5AFB4F4083309394042093930498
:1017C00002C080913601FF91EF919F918F914F91CF
:1017D0003F912F910F900BBE0F900FBE0F901F9057
:1017E0001895E091E704F091E804E05CFF4F8191E7
:1017F000919120813181805C9F4F821B930B60E42B
:1018000070E00E94C815892B09F0EBDEE091090514
:10181000F0910A05E05CFF4F819191912081318127
:10182000805C9F4F821B930B60E470E00E94C815A0
:10183000892B09F016DFE0912B05F0912C05E05C77
:10184000FF4F8191919120813181805C9F4F821B5C
:10185000930B60E470E00E94C815892B09F041DF0A
:10186000E0914D05F0914E05E05CFF4F8191919123
:1018700020813181805C9F4F821B930B60E470E07C
:101880000E94C815892B09F06CCF08951F920F9202
:101890000FB60F920BB60F9211242F933F938F9395
:1018A0009F93EF93FF9320913F03309140038091EA
:1018B0004103909142032817390731F48091C10008
:1018C0008F7D8093C10014C0E0914103F0914203E9
:1018D000E150FD4F20818091410390914203019698
:1018E0008F73907090934203809341032093C600BE
:1018F000FF91EF919F918F913F912F910F900BBE90
:101900000F900FBE0F901F9018951F920F920FB659
:101910000F920BB60F9211242F933F938F939F93A7
:10192000EF93FF932091C7033091C8038091C903BF
:101930009091CA032817390731F48091C9008F7D2F
:101940008093C90014C0E091C903F091CA03E9571C
:10195000FC4F20818091C9039091CA0301968F7337
:1019600090709093CA038093C9032093CE00FF9197
:10197000EF919F918F913F912F910F900BBE0F9000
:101980000FBE0F901F9018951F920F920FB60F92D7
:101990000BB60F9211242F933F938F939F93EF9346
:1019A000FF9320914F043091500480915104909105
:1019B00052042817390731F48091D1008F7D80932C
:1019C000D10014C0E0915104F0915204E15FFB4F4B
:1019D0002081809151049091520401968F739070F0
:1019E00090935204809351042093D600FF91EF917D
:1019F0009F918F913F912F910F900BBE0F900FBE33
:101A00000F901F9018951F920F920FB60F920BB662
:101A10000F9211242F933F938F939F93EF93FF93F4
:101A20002091D7043091D8048091D9049091DA04A0
:101A30002817390731F4809131018F7D809331016E
:101A400014C0E091D904F091DA04E956FB4F2081EB
:101A50008091D9049091DA0401968F7390709093DD
:101A6000DA048093D90420933601FF91EF919F917E
:101A70008F913F912F910F900BBE0F900FBE0F9043
:101A80001F901895AF92BF92DF92EF92FF920F9343
:101A90001F93CF93DF93EC017A018B01DD2440305B
:101AA00081EE580780E0680780E0780711F0DD24B8
:101AB000D39491E0A92EB12CEC89FD89DD2069F049
:101AC000C50108A002C0880F991F0A94E2F780831D
:101AD00060E079E08DE390E005C0108260E874E892
:101AE0008EE190E0A80197010E94DB152150304063
:101AF00040405040569547953795279580E12030D6
:101B0000380720F0DD2011F0DD24D6CFE889F989EF
:101B10003083EA89FB89208319A2EE89FF894081FD
:101B200021E030E0C9010C8C02C0880F991F0A9493
:101B3000E2F7482B4083EE89FF894081C9010D8C73
:101B400002C0880F991F0A94E2F7482B4083EE8960
:101B5000FF894081C9010E8C02C0880F991F0A9429
:101B6000E2F7482B4083EE89FF8980810F8C02C009
:101B7000220F331F0A94E2F7209528232083DF9158
:101B8000CF911F910F91FF90EF90DF90BF90AF909A
:101B90000895DC011C96ED91FC911D97E05CFF4FD0
:101BA0008191919120813181805C9F4F821B930BA9
:101BB00060E470E0EDC7DC011C96ED91FC911D978F
:101BC000E05CFF4F20813181E054F040DF01AE5BEB
:101BD000BF4F8D919C9111972817390719F42FEF5A
:101BE0003FEF07C08D919C91E80FF91F8081282F4E
:101BF00030E0C9010895DC011C96ED91FC911D9720
:101C0000E05CFF4F20813181E054F040DF01AE5BAA
:101C1000BF4F8D919C9111972817390719F42FEF19
:101C20003FEF10C08D919C911197E80FF91F208113
:101C30008D919C91119701968F73907011969C9342
:101C40008E9330E0C9010895DC0191968C919197B3
:101C5000882339F05496ED91FC915597808186FF49
:101C6000F9CF91961C920895CF93DF93EC01EE8506
:101C7000FF85E05CFF4F20813181E054F0402F5F11
:101C80003F4F2F733070DF01AE5BBF4F8D919C9142
:101C9000119728173907D1F3E05CFF4F80819181BC
:101CA000E054F040E80FF91F6083EE85FF85E05CAB
:101CB000FF4F31832083EE89FF89208181E090E00E
:101CC0000F8C02C0880F991F0A94E2F7282B2083FB
:101CD00081E089A3EC89FD8980818064808381E033
:101CE00090E0DF91CF9108951F931092DE0410923F
:101CF000DD0428EE33E040E050E02093DF04309331
:101D0000E0044093E1045093E20464E672E07093CF
:101D1000DC046093DB048BEB92E09093E804809307
:101D2000E7048FEF92E09093EA048093E90485EC56
:101D300090E09093EC048093EB0484EC90E090931B
:101D4000EE048093ED0480EC90E09093F004809397
:101D5000EF0481EC90E09093F2048093F10482EC24
:101D600090E09093F4048093F30486EC90E09093D9
:101D7000F6048093F50414E01093F704B3E0B093F5
:101D8000F804A7E0A093F904F5E0F093FA04E1E089
:101D9000E093FB04109200051092FF0420930105CC
:101DA0003093020540930305509304057093FE049D
:101DB0006093FD0483E493E090930A058093090502
:101DC00087E893E090930C0580930B058DEC90E0F1
:101DD00090930E0580930D058CEC90E09093100588
:101DE00080930F0588EC90E0909312058093110585
:101DF00089EC90E090931405809313058AEC90E0B1
:101E000090931605809315058EEC90E0909318053D
:101E10008093170510931905B0931A05A0931B051D
:101E2000F0931C05E0931D051092220510922105E8
:101E300020932305309324054093250550932605D0
:101E40007093200560931F058BEC93E090932C0515
:101E500080932B058FE094E090932E0580932D05C1
:101E600085ED90E09093300580932F0584ED90E010
:101E7000909332058093310580ED90E09093340586
:101E80008093330581ED90E090933605809335057E
:101E900082ED90E0909338058093370586ED90E0D1
:101EA00090933A058093390510933B05B0933C0518
:101EB000A0933D05F0933E05E0933F051092440545
:101EC00010924305209345053093460540934705FE
:101ED00050934805709342056093410583E594E073
:101EE00090934E0580934D0587E994E090935005BB
:101EF00080934F0585E391E09093520580935105BF
:101F000084E391E0909354058093530580E391E03E
:101F1000909356058093550581E391E09093580581
:101F20008093570582E391E090935A058093590579
:101F300086E391E090935C0580935B0510935D05CB
:101F4000B0935E05A0935F05F0936005E093610593
:101F50001F9108950895CF93DF93CDD9FBDF0E94A1
:101F6000C101C1EFDBE00E94BE012097E1F339DC43
:101F7000FACFCF92DF92EF92FF920F931F93CF93FE
:101F8000DF937C016B018A01C0E0D0E00FC0D60175
:101F90006D916D01D701ED91FC910190F081E02DE3
:101FA000C7011995C80FD91F01501040011511051F
:101FB00071F7CE01DF91CF911F910F91FF90EF90BC
:101FC000DF90CF900895CF93DF93FB01EC01A881C0
:101FD000B98160817181448155811296ED91FC91A6
:101FE00013971995DF91CF910895DC01ED91FC9144
:101FF0000190F081E02D19950895EF92FF920F93D3
:102000001F938C01DC01ED91FC910190F081E02D9A
:102010006DE019957C01D801ED91FC910190F08162
:10202000E02DC8016AE019959C012E0D3F1DC901E4
:102030001F910F91FF90EF900895EF92FF920F93F1
:102040001F937C01C0DF8C01C701D7DF9C01200FEB
:10205000311FC9011F910F91FF90EF900895CF9309
:10206000DF93EC016115710519F420E030E00FC039
:10207000DB010D900020E9F71197A61BB70BE88153
:10208000F9810280F381E02DAD0119959C01C90110
:10209000DF91CF9108954F925F927F928F929F929E
:1020A000AF92BF92CF92DF92EF92FF920F931F9366
:1020B000DF93CF93CDB7DEB7A1970FB6F894DEBF0D
:1020C0000FBECDBF2C01742ECB01223008F42AE0C4
:1020D00019A231E2C32ED12CCC0EDD1E822E992402
:1020E000AA24BB24672D752FA501940164D579011D
:1020F0008A01C801B701A50194012BD5472D461BC4
:102100000894C108D1084A3014F4405D01C0495C0C
:10211000F6014083E114F1040105110521F07E2C44
:102120005F2DC801DFCFC201B60199DFA1960FB6BE
:10213000F894DEBF0FBECDBFCF91DF911F910F91FD
:10214000FF90EF90DF90CF90BF90AF909F908F90D7
:102150007F905F904F900895CF92DF92EF92FF9221
:102160000F931F93CF93DF93EC016A017B0121153D
:10217000310541F4E881F9810190F081E02D642F6F
:1021800019951DC02A303105C9F477FF16C0E881C2
:10219000F9810190F081E02D6DE219958C014427C1
:1021A0005527BA014C195D096E097F09CE012AE055
:1021B00072DF9801280F391F03C02AE06CDF9C01F1
:1021C000C901DF91CF911F910F91FF90EF90DF90A8
:1021D000CF900895CF92DF92EF92FF920F931F93CB
:1021E0006C017B019A010027F7FC0095102FB801C4
:1021F000A701B2DF8C01C60100DF080F191FC8015B
:102200001F910F91FF90EF90DF90CF90089527CF0F
:102210000895EF92FF920F931F937C0120DF8C01B2
:10222000C701EBDE080F191FC8011F910F91FF9026
:10223000EF900895FC019B018481958168177907CF
:1022400028F4608171816115710529F4109263058C
:1022500063E675E002C0620F731FCB010895FC01B5
:1022600080819181009729F420E030E040E050E047
:1022700004C00E9433019B01AC01B901CA01089559
:102280000F931F93CF93DF93EC018B016F5F7F4F11
:10229000888199815AD2009711F480E005C0998312
:1022A00088831B830A8381E0DF91CF911F910F9177
:1022B0000895CF93DF93EC0188819981892B29F0D0
:1022C0008A819B818617970758F4CE01D9DF88232E
:1022D00041F08C819D81892B19F4E881F98110826C
:1022E00081E0DF91CF910895EF92FF920F931F93BA
:1022F000CF93DF93EC017B016C817D81E114F104CC
:10230000B9F04115510591F08A01060F171FB80168
:10231000D0DF882369F0888199812C813D81820FEB
:10232000931FB7010E9462011D830C8381E001C0ED
:1023300080E0DF91CF911F910F91FF90EF90089572
:10234000DF93CF930F920F92CDB7DEB769831A82D6
:10235000BE016F5F7F4F41E050E0C6DF0F900F90EE
:10236000CF91DF910895CF93DF93EC01888199811C
:10237000009709F052D1198218821D821C821B829B
:102380001A82DF91CF910895EF92FF920F931F93DE
:10239000CF93DF93EC017B018A01BA018ADF8823A6
:1023A00019F4CE01E0DF07C01D830C838881998179
:1023B000B7010E946201CE01DF91CF911F910F9171
:1023C000FF90EF900895CF93DF93EC01198218826C
:1023D0001B821A821D821C826115710549F0DB0186
:1023E0000D900020E9F71197A61BB70BAD01CCDFCC
:1023F000DF91CF9108950F931F93182F092F611527
:10240000710551F0DB010D900020E9F71197A61B33
:10241000B70BAD01B9DF01C0A6DF812F902F1F914F
:102420000F910895BF92CF92DF92EF92FF920F9398
:102430001F93CF93DF93082FB92E6B017A01E90127
:102440002417350710F4EA017901802F9B2D69E5E7
:1024500072E0B9DFD60114968D919C9115978E1577
:102460009F05C8F08C179D0708F4EC01D601ED918B
:10247000FC911197EC0FFD1F108110826D917C91E2
:102480006E0D7F1D802F9B2DB6DFD601ED91FC9147
:10249000EC0FFD1F1083802F9B2DDF91CF911F919B
:1024A0000F91FF90EF90DF90CF90BF900895CF9362
:1024B000DF93EC01FB018617970751F06081718172
:1024C0006115710521F0448155815EDF01C04BDF4C
:1024D000CE01DF91CF910895FC01808191819DC053
:1024E0000F931F93CF93DF93BC018230910510F4BB
:1024F00062E070E0E0916605F091670540E050E031
:10250000A0E0B0E024C08081918186179707D0F0C9
:102510008617970771F482819381109729F013969B
:102520009C938E9312972CC09093670580936605B9
:1025300027C04115510519F08417950718F48D012E
:10254000AC01EF01DF01828193819C01F901309799
:10255000D1F641155105F9F0CA01861B970B84305D
:10256000910580F48A819B810115110521F0F80104
:102570009383828304C09093670580936605FE0170
:10258000329645C0FE01E80FF91F619371930297DF
:10259000998388833CC08091640590916505892B5F
:1025A00041F480915C0290915D0290936505809367
:1025B000640540915E0250915F024115510541F45E
:1025C0004DB75EB780915A0290915B02481B590B40
:1025D000209164053091650524173507B0F4CA01D0
:1025E000821B930B8617970780F0AB014E5F5F4FFE
:1025F0008417950750F0420F531F50936505409381
:102600006405F9016193719302C0E0E0F0E0CF014D
:10261000DF91CF911F910F910895CF93DF939C018C
:10262000009709F48FC0EC0122971B821A826091F7
:102630006605709167056115710581F4888199813E
:10264000820F931F20916405309165052817390783
:1026500039F5D0936505C093640574C0DB0140E093
:1026600050E0AC17BD0708F1BB83AA83FE0121919E
:102670003191E20FF31FAE17BF0779F48D919C9152
:102680001197280F391F2E5F3F4F398328831296E9
:102690008D919C9113979B838A834115510571F409
:1026A000D0936705C09366054DC012968D919C919D
:1026B0001397AD01009711F0DC01D3CFDA01139627
:1026C000DC93CE931297FA0121913191E20FF31F1F
:1026D000CE17DF0769F488819981280F391F2E5F93
:1026E0003F4FFA01318320838A819B8193838283C8
:1026F000E0E0F0E0DB0112968D919C91139700973A
:1027000019F0BC01FD01F6CFAB014E5F5F4FDB015D
:102710008D919C91840F951F2091640530916505E2
:102720002817390779F4309729F410926705109229
:10273000660502C0138212824250504050936505D4
:1027400040936405DF91CF9108956F927F928F92AD
:102750009F92AF92BF92CF92DF92EF92FF920F9330
:102760001F93CF93DF938C01009721F4CB01B8DE48
:102770008C01B8C08EEFE82E8FEFF82EE00EF11E20
:102780004801860E971E8E149F0408F4A9C0D70135
:102790004D915C91119746175707B0F045305105A0
:1027A00008F4A0C0CA0104978617970708F49AC0D6
:1027B00042505040461B570BF401419351936D9387
:1027C0007C93CF012ADF8EC05B01A41AB50A3801C1
:1027D000640E751EA0916605B0916705E0E0F0E01B
:1027E000CC24DD2447C0A615B705A9F5CD91DC9111
:1027F0001197CE0102968A159B0568F1CE018A19C0
:102800009B09029612962C91129713963C9105976C
:1028100058F0F40122833383CA19DB09D183C083C2
:10282000D7016D937C9309C04E5F5F4F4C0F5D1FC6
:10283000F70151834083C901FC01C114D10431F077
:10284000D6011396FC93EE9312974CC0F093670554
:10285000E093660547C08D919C911197E817F907A1
:1028600008F4FC016D0112968C91129713969C91BD
:102870009C01D901109709F0B6CF80916405909121
:10288000650586159705E9F4E617F707D0F420915A
:102890005E0230915F022115310541F42DB73EB73C
:1028A00080915A0290915B02281B390B8216930685
:1028B000B8F49092650580926405F7017183608396
:1028C00011C0CB010DDEEC01009751F0D7014D9105
:1028D0005C91B8010E945901C8019FDE8E0102C0BF
:1028E00000E010E0C801DF91CF911F910F91FF90A0
:1028F000EF90DF90CF90BF90AF909F908F907F90A0
:102900006F9008950CD0EBC0E3D040F0DAD030F0F7
:1029100021F45F3F19F0CCC0511115C1CFC0F0D0E8
:1029200098F39923C9F35523B1F3951B550BBB2796
:10293000AA2762177307840738F09F5F5F4F220F43
:10294000331F441FAA1FA9F333D00E2E3AF0E0E83C
:1029500030D091505040E695001CCAF729D0FE2F88
:1029600027D0660F771F881FBB1F2617370748071A
:10297000AB07B0E809F0BB0B802DBF01FF279358D0
:102980005F4F2AF09E3F510568F092C0DCC05F3F68
:10299000ECF3983EDCF3869577956795B795F795B8
:1029A0009F5FC9F7880F911D9695879597F90895B0
:1029B000E1E0660F771F881FBB1F6217730784074C
:1029C000BA0720F0621B730B840BBA0BEE1F88F75B
:1029D000E095089504D06894B111B5C0089598D0D9
:1029E00088F09F5790F0B92F9927B751A0F0D1F0F8
:1029F000660F771F881F991F1AF0BA95C9F712C082
:102A0000B13081F09FD0B1E008959CC0672F782F3E
:102A10008827B85F39F0B93FCCF3869577956795ED
:102A2000B395D9F73EF490958095709561957F4F59
:102A30008F4F9F4F0895E89409C097FB3EF49095FF
:102A40008095709561957F4F8F4F9F4F9923A9F087
:102A5000F92F96E9BB279395F69587957795679516
:102A6000B795F111F8CFFAF4BB0F11F460FF1BC05A
:102A70006F5F7F4F8F4F9F4F16C0882311F096E9ED
:102A800011C0772321F09EE8872F762F05C066239B
:102A900071F096E8862F70E060E02AF09A95660F54
:102AA000771F881FDAF7880F9695879597F908950D
:102AB00097F99F6780E870E060E008959FEF80ECF1
:102AC000089500240A941616170618060906089594
:102AD00000240A9412161306140605060895092EFA
:102AE0000394000C11F4882352F0BB0F40F4BF2B69
:102AF00011F460FF04C06F5F7F4F8F4F9F4F0895A9
:102B000057FD9058440F551F59F05F3F71F047959E
:102B1000880F97FB991F61F09F3F79F08795089583
:102B2000121613061406551FF2CF4695F1DF08C0A2
:102B3000161617061806991FF1CF869571056105BF
:102B400008940895E894BB2766277727CB0197F967
:102B50000895629FD001739FF001829FE00DF11DE7
:102B6000649FE00DF11D929FF00D839FF00D749F07
:102B7000F00D659FF00D9927729FB00DE11DF91FB3
:102B8000639FB00DE11DF91FBD01CF011124089510
:102B900097FB092E07260AD077FD04D049D006D02E
:102BA00000201AF4709561957F4F0895F6F790957F
:102BB00081959F4F0895A1E21A2EAA1BBB1BFD0110
:102BC0000DC0AA1FBB1FEE1FFF1FA217B307E4070C
:102BD000F50720F0A21BB30BE40BF50B661F771F64
:102BE000881F991F1A9469F7609570958095909544
:102BF0009B01AC01BD01CF01089597FB092E05266D
:102C00000ED057FD04D0D7DF0AD0001C38F4509501
:102C10004095309521953F4F4F4F5F4F0895F6F700
:102C200090958095709561957F4F8F4F9F4F089538
:102C3000AA1BBB1B51E107C0AA1FBB1FA617B707E2
:102C400010F0A61BB70B881F991F5A95A9F78095FE
:102C50009095BC01CD010895EE0FFF1F0590F491F2
:102C6000E02D199412E0C8E0D2E003C0FE01F6DFC7
:0C2C70002296CA30D107D1F7F894FFCFAC
:102C7C00002453500A0024523050004E6F204D6FE8
:102C8C00746F7221002452300A00526573656E64B1
:102C9C00696E6720636F6D6D616E6420746F204385
:102CAC00522E2E2E0A004661696C656420746F20CA
:102CBC00636F6D6D756E6963617465207769746897
:102CCC00204352002452304600008000680500006A
:102CDC0000000000340EB90FC90DFB0DDB0D240EE6
:00000001FF
