:1000000004C100003FC700006EC700009DC700008C
:10001000CCC70000FBC700000C9437080C9468089C
:100020000C9499081FC100001DC100001BC10000F5
:1000300019C1000017C1000015C1000013C1000064
:1000400011C10000A7C100000DC100000BC10000DC
:1000500009C1000007C1000005C100000C94CA08D6
:1000600001C100000C94F00A0C94440CFBC0000089
:10007000F9C00000F7C00000F5C00000F3C00000A8
:10008000F1C00000EFC00000EDC00000B7C10000EB
:100090000C94300B0C94830CE5C00000E3C000000E
:1000A000E1C00000DFC00000DDC00000DBC00000D8
:1000B000D9C00000D7C00000D5C00000D3C00000E8
:1000C000D1C00000CFC00000CDC000000C94700B68
:1000D0000C94C20CC7C000000C94B00B0C94010D22
:1000E000C1C0000000002100240027002A002D00CC
:1000F0003000330001010000040107010A01000083
:100100002200250028002B002E00310034000201BF
:100110000000050108010B0100002000230026005B
:1001200029002C002F00320000010000030106010D
:10013000090105050505070508080808020202026D
:100140000A0A080804040404010101010101010173
:100150000303030303030303040707070C0C0C0C3E
:100160000C0C0C0C02020202060606060606060627
:100170000B0B0B0B0B0B0B0B0102102020080810B4
:100180002040102040800201020108040201010207
:1001900004081020408080402010080402018004E0
:1001A000020180402010080402010804020101023B
:1001B0000408102040800102040810204080000044
:1001C000090A02080B0C0D070603040100000000D9
:1001D000000000000000000000000000000000001F
:1001E0000000000000000000000011100F000000DF
:1001F00000000000000000000000000000000000FF
:1002000000000000F901720EF40111241FBECFEFAF
:10021000D1E2DEBFCDBF00E00CBF12E0A0E0B2E053
:10022000E8E7FCE200E00BBF02C007900D92A037A8
:10023000B107D9F71BBE15E0A0E7B2E001C01D92DF
:10024000A636B107E1F712E0C8E0D2E004C0229779
:10025000FE010E942C16C430D107C9F70E94A90FD5
:100260000C943016CDCE1F93FC0199278827BC0132
:10027000E89411911032E9F3193010F01E30C8F3F0
:100280001B3249F01D3241F4689405C022D0610F41
:10029000711D811D911D119110531A30B8F33EF458
:1002A00090958095709561957F4F8F4F9F4F1F91CF
:1002B0000895FB01DC0102C001900D9241505040B5
:1002C000D8F70895FB01DC0101900D920020E1F7C1
:1002D0000895592F482F372F262F660F771F881F15
:1002E000991F660F771F881F991F620F731F841F46
:1002F000951F660F771F881F991F0895CF93DF936F
:10030000EC018E850E94C00A2C813D814E815F8167
:10031000019729F4215030404040504004C02F5FE5
:100320003F4F4F4F5F4F2C833D834E835F83DF9161
:10033000CF910895FF920F931F93FC01F22E7183CA
:100340006083538342832687378704871587148207
:10035000158216821782802F60E00E94DB09802FB1
:1003600061E00E948E0A8F2D60E00E94DB091F91E0
:100370000F91FF90089580E792E06EC080E792E0D1
:100380009FC380E792E0EAD382E06BEB71E042E04A
:1003900050E0FCC41F920F920FB60F9211240F90E1
:1003A0000FBE0F901F9018958130910579F46F5F03
:1003B0007F4FC9F480E792E060E072E00E94E111B3
:1003C00087E792E060E072E00C94E111892B59F428
:1003D0006F5F7F4F41F487E792E00E946A1280E7E7
:1003E00092E00C946A12089580E090E06FEF7FEF46
:1003F000DBCF81E090E06FEF7FEFD6CF1F920F92BF
:100400000FB60F920BB60F9211242F933F934F9379
:100410005F936F937F938F939F93AF93BF93EF936C
:10042000FF938DE00E94C00A61E068278DE00E9482
:100430008E0AFF91EF91BF91AF919F918F917F9124
:100440006F915F914F913F912F910F900BBE0F9045
:100450000FBE0F901F9018950E9650CF0F931F93BD
:10046000CF93DF938B0164EF71E080E090E0E8D6FA
:10047000C0E0D0E01CC08DE060E00E948E0A6AEF10
:1004800070E080E090E0DCD68DE061E00E948E0AB2
:100490006AEF70E080E090E0D3D68DE060E00E94EB
:1004A0008E0A6AEF70E080E090E0CAD62196C0170D
:1004B000D1070CF3DF91CF911F910F9108950F9306
:1004C0001F9362E070E0CADF09ED14E0C80161E04B
:1004D00072E00E940511C8010E94220E1F910F9127
:1004E00008952F923F924F925F926F927F928F92D8
:1004F0009F92AF92BF92CF92DF92EF92FF920F93B3
:100500001F93DF93CF93CDB7DEB7A4970FB6F894C0
:10051000DEBF0FBECDBF5C017E010894E11CF11C63
:10052000C70160E072E00E94E111CE01079660E031
:1005300072E00E94E111CE010D9666E072E00E9429
:10054000E1118E010D5E1F4FC801B50144E050E07E
:1005500027E030E00E941012C701B8010E94551236
:10056000C8010E946A12C7010E942D118B01C501AA
:1005700063E070E00E941811FC0180818D3241F42B
:10058000109501951F4F81E992E061E070E004C091
:1005900081E992E060E070E09AD3F501878C90A049
:1005A0008CEE9FEF880E991E800E911E89ED94E0CF
:1005B0006BE072E00E94071181E992E063EC79E060
:1005C00039D381E992E075D38FE395E065E172E07C
:1005D0000E9405118FE395E00E94C70D892BD1F38E
:1005E00027E0622E712C6A0C7B1C01E00DC08FE3AA
:1005F00095E00E94F90D182FC301612F0E949E11F2
:100600001A3011F4F50105878FE395E00E94C70DBC
:100610001816190664F38E01075E1F4FC801B30157
:1006200043E050E026E030E00E94101297E0E92E0F
:10063000F12CEC0EFD1EC701B8010E945512C80135
:100640000E946A12C7010E942D119B01AC01F501A5
:1006500070A3678F89ED94E0B9014AE050E00E94F1
:10066000E8108FE1482E512C4C0E5D1E1701BFC0C3
:10067000809180008F7B809380008FE395E065E11F
:1006800072E00E9405118091800080648093800058
:10069000C9D5AC01CB01DA017C018D01CC24DD246C
:1006A00032C0C0D56E197F09800B910B615D774018
:1006B0008040904044F189ED94E06AE172E00E944C
:1006C00005110894C11CD11CF8948FE395E065E1F5
:1006D00072E00E9405117894A5D524E0C216D104D9
:1006E00069F489ED94E066E372E00E940711CE019F
:1006F0000D9664E572E00E94F91180C0AC01CB0157
:10070000DA017C018D018FE395E00E94C70D892BF2
:1007100041F284E0C816D1040CF070C069E170E0C9
:1007200080E090E08DD58FE395E00E94C70D0EC06C
:100730008FE395E00E94F90D182FC301612F0E94ED
:100740009E111A3019F421E0F50125878FE395E019
:100750000E94C70D181619065CF37894C201B30104
:1007600043E050E026E030E00E941012C101B201E7
:100770000E945512C2010E946A12C30160E072E039
:100780000E94F911C1010E942D119B01AC01F501DC
:1007900070A3678F89ED94E0B9014AE050E00E94B0
:1007A000E810F501278D30A12815390534F081E9CD
:1007B00092E063EC79E03ED221C0C401821B930B2E
:1007C00045972CF081E992E06CE770E00FC02819A2
:1007D000390986E790E0289FB001299F700D389F66
:1007E000700D11246D53764F81E992E00CD2F50122
:1007F000878D90A1881599050CF43ACF81E992E094
:100800000CD28E01035F1F4F89ED94E0B8010E9466
:100810001B1089ED94E00E94220EC8010E946A120A
:10082000CE0107960E946A12CE0101960E946A12BA
:10083000A4960FB6F894DEBF0FBECDBFCF91DF9167
:100840001F910F91FF90EF90DF90CF90BF90AF90EE
:100850009F908F907F906F905F904F903F902F90E0
:1008600008950F931F938C0164E070E0F7DD8FE330
:1008700095E0B8010E94E10F8FE395E00E94220EFF
:100880008FE395E00E94C70D892BD1F38FE395E0AC
:100890000E94C70D18161906CCF78FE395E00E9449
:1008A000F90D182F89ED94E0612F0E94F30F1A3093
:1008B00069F71F910F9108956F927F928F929F9287
:1008C000AF92BF92CF92DF92EF92FF920F931F935E
:1008D000DF93CF93CDB7DEB72C970FB6F894DEBF7A
:1008E0000FBECDBF4C017E010894E11CF11CC70175
:1008F00060E072E00E94E111C40165E070E0AEDDED
:10090000782C692CC40162E070E00E941811FC018F
:10091000E081EC3409F48EC0E23509F48BC0E23496
:1009200009F488C08E01095F1F4FC801B40144E07B
:1009300050E027E030E00E941012C701B8010E9489
:100940005512C8010E946A12C7010E942D117B0135
:100950008C0181E992E05CD15C01B701660F771FE1
:10096000660F771F6E0D7F1D882777FD8095982F66
:100970000E941B152BED3FE049E450E40E948014D7
:100980000E94E8147B018C01CC24B7FCC094DC2CC1
:10099000EA0CFB1C0C1D1D1D81E992E06CE770E068
:1009A00049D181E992E061E070E091D181E992E082
:1009B00080D181E992E02CD1AA2797FDA095BA2F8A
:1009C0008E159F05A007B107A4F38FE395E0672D6F
:1009D000762D0E94E10F8FE395E00E94C70D892BD1
:1009E000D1F369E170E080E090E02AD437E0E32EB3
:1009F000F12CE80CF91C01E016C08FE395E00E9491
:100A0000F90D182FC701612F0E949E111A3059F459
:100A1000F401058789ED94E0B7010E94E10F89EDAB
:100A200094E00E94220E8FE395E00E94C70D1816F5
:100A300019061CF3CE0101960E946A122C960FB67D
:100A4000F894DEBF0FBECDBFCF91DF911F910F9104
:100A5000FF90EF90DF90CF90BF90AF909F908F90DE
:100A60007F906F9008950F931F93182F092F61E0C7
:100A700070E00E941811FC01E081E93499F0E23540
:100A800019F0E434B9F412C0812F902F62E070E0C5
:100A90000E941811FC018081803379F4812F902FFE
:100AA00020DD0BC0812F902FDCDE07C0812F902F1F
:100AB00003DF03C0812F902F02DD1F910F91089556
:100AC000FF920F931F93CF93DF93EC0189ED94E096
:100AD0000E94C70D1C2F0D2FFF24F3940EC089ED2B
:100AE00094E00E94F90D682F8E8F812F902F0E9425
:100AF0009E118E8D8A3009F4FE8289ED94E00E9469
:100B0000C70D181619065CF36AEF70E080E090E0FC
:100B100097D38E818823E1F0812F902F60E070E0E1
:100B20000E941811FC018081843291F4809171003F
:100B300080937100CE0197DF809171008160809376
:100B40007100812F902F60E072E00E94F9111E82E7
:100B5000DF91CF911F910F91FF900895EF92FF9237
:100B60000F931F937C018DE061E025D410929000DB
:100B7000E1E9F0E0108210929500109294008081DB
:100B800084608083E1E7F0E080818160808381E997
:100B900092E061E070E048E050E027E030E09CD077
:100BA000C7010E9662E070E048EC50E02EE130E0C4
:100BB00005E110E0BFDBF70110A2178E89ED94E08C
:100BC00040E052EC61E070E05BD78FE395E040E0FD
:100BD00052EC61E070E054D7F701168200E012E0B9
:100BE000C701B8010E94F911F7011586C7010796E0
:100BF000B8010E94F91180E3F701868F1F910F91D0
:100C0000FF90EF9008957093890060938800089595
:100C1000FC0125853685C9010895DC0118961C92D2
:100C20001897E0E8F0E080818F7B80831B968C91A1
:100C300060E074C40F931F93CF93DF938C01EB019B
:100C40006115710509F4E9DFCE0124E0880F991FD1
:100C50002A95E1F78C1B9D0BF801978386832281EF
:100C60003381AC01429FC001439F900D529F900D74
:100C7000112468EE73E00E94C6159B01442737FDDE
:100C80004095542F69E07DE380E090E00E94FB15E1
:100C9000CA01B90122E030E040E050E00E94FB15BB
:100CA0003093890020938800DF91CF911F910F919D
:100CB0000895DC0181E018968C931897E0E8F0E045
:100CC0008081806480831B968C9160E027C4FC0146
:100CD00064837583818522C4CF92DF92EF92FF9265
:100CE0000F931F938C01C42ED22EFC01718360835D
:100CF0004187528723873487882777FD8095982FEF
:100D00000E941B152BED3FE049EC50E40E9480143B
:100D10000E94E814F8017383628330E8E32EF12C1B
:100D2000F7011082E1E8F0E0108210928500109245
:100D3000840083EC99E090938900809388008081FF
:100D4000886080838081826080838BE061E033D320
:100D50008C2D61E030D38D2D61E02DD3F7018081A2
:100D600080838D2D60E0DAD38BE060E0D7D381E023
:100D700090E0F801958384831086168615861F916E
:100D80000F91FF90EF90DF90CF900895883008F09A
:100D900078C0E82FF0E0EE0FFF1FE056FD4F7183A3
:100DA00060838330D9F0843030F4813009F444C05A
:100DB000823060F439C0853051F18530D8F086300A
:100DC00009F446C0873009F05CC04FC080916900CB
:100DD0008C7F842B80936900E89A08958091690044
:100DE000440F551F440F551F837F842B8093690048
:100DF000E99A08958091690074E0440F551F7A952F
:100E0000E1F78F7C842B80936900EA9A08958091A2
:100E1000690066E0440F551F6A95E1F78F73842BD4
:100E200080936900EB9A089580916A008C7F842BEF
:100E300080936A00EC9A089580916A00440F551FD0
:100E4000440F551F837F842B80936A00ED9A089589
:100E500080916A0024E0440F551F2A95E1F78F7CAA
:100E6000842B80936A00EE9A089580916A0096E040
:100E7000440F551F9A95E1F78F73842B80936A0076
:100E8000EF9A08951F920F920FB60F920BB60F9222
:100E900011242F933F934F935F936F937F938F937F
:100EA0009F93AF93BF93EF93FF938091A402909190
:100EB000A502892B29F0E091A402F091A5021995D1
:100EC000FF91EF91BF91AF919F918F917F916F9122
:100ED0005F914F913F912F910F900BBE0F900FBEDE
:100EE0000F901F9018951F920F920FB60F920BB68E
:100EF0000F9211242F933F934F935F936F937F93A0
:100F00008F939F93AF93BF93EF93FF938091A6022C
:100F10009091A702892B29F0E091A602F091A702F7
:100F20001995FF91EF91BF91AF919F918F917F9113
:100F30006F915F914F913F912F910F900BBE0F904A
:100F40000FBE0F901F9018951F920F920FB60F9221
:100F50000BB60F9211242F933F934F935F936F9390
:100F60007F938F939F93AF93BF93EF93FF93809162
:100F7000A8029091A902892B29F0E091A802F09192
:100F8000A9021995FF91EF91BF91AF919F918F9118
:100F90007F916F915F914F913F912F910F900BBE79
:100FA0000F900FBE0F901F9018951F920F920FB6C3
:100FB0000F920BB60F9211242F933F934F935F9391
:100FC0006F937F938F939F93AF93BF93EF93FF9311
:100FD0008091AA029091AB02892B29F0E091AA029C
:100FE000F091AB021995FF91EF91BF91AF919F9155
:100FF0008F917F916F915F914F913F912F910F90C2
:101000000BBE0F900FBE0F901F9018951F920F925E
:101010000FB60F920BB60F9211242F933F934F935D
:101020005F936F937F938F939F93AF93BF93EF9350
:10103000FF938091A0029091A102892B29F0E09169
:10104000A002F091A1021995FF91EF91BF91AF918C
:101050009F918F917F916F915F914F913F912F91D0
:101060000F900BBE0F900FBE0F901F9018951F9200
:101070000F920FB60F920BB60F9211242F933F933E
:101080004F935F936F937F938F939F93AF93BF9390
:10109000EF93FF938091A2029091A302892B29F0F4
:1010A000E091A202F091A3021995FF91EF91BF91F7
:1010B000AF919F918F917F916F915F914F913F91F0
:1010C0002F910F900BBE0F900FBE0F901F90189591
:1010D0001F920F920FB60F920BB60F9211242F93FF
:1010E0003F934F935F936F937F938F939F93AF93B0
:1010F000BF93EF93FF938091AC029091AD02892B47
:1011000029F0E091AC02F091AD021995FF91EF91B9
:10111000BF91AF919F918F917F916F915F914F910F
:101120003F912F910F900BBE0F900FBE0F901F900D
:1011300018951F920F920FB60F920BB60F921124B3
:101140002F933F934F935F936F937F938F939F93CF
:10115000AF93BF93EF93FF938091AE029091AF0254
:10116000892B29F0E091AE02F091AF021995FF9121
:10117000EF91BF91AF919F918F917F916F915F910F
:101180004F913F912F910F900BBE0F900FBE0F907C
:101190001F9018951F920F920FB60F9211242F9344
:1011A0003F938F939F93AF93BF938091B40290919D
:1011B000B502A091B602B091B7023091B802019683
:1011C000A11DB11D232F2D5F2D3720F02D57019626
:1011D000A11DB11D2093B8028093B4029093B50273
:1011E000A093B602B093B7028091B0029091B10281
:1011F000A091B202B091B3020196A11DB11D8093DE
:10120000B0029093B102A093B202B093B302BF9127
:10121000AF919F918F913F912F910F900FBE0F90A3
:101220001F9018958FB7F8942091B4023091B502B1
:101230004091B6025091B7028FBFB901CA0108951B
:101240009B01AC017FB7F8948091B0029091B102FC
:10125000A091B202B091B30266B5A89B05C06F3FE2
:1012600019F00196A11DB11D7FBFBA2FA92F982F8C
:101270008827860F911DA11DB11D62E0880F991F5F
:10128000AA1FBB1F6A95D1F7BC012DC0FFB7F89408
:101290008091B0029091B102A091B202B091B302DC
:1012A000E6B5A89B05C0EF3F19F00196A11DB11D41
:1012B000FFBFBA2FA92F982F88278E0F911DA11D30
:1012C000B11DE2E0880F991FAA1FBB1FEA95D1F755
:1012D000861B970B885E9340C8F2215030404040F7
:1012E000504068517C4F211531054105510571F67B
:1012F0000895789484B5826084BD84B5816084BD8E
:1013000085B5826085BD85B5816085BDEEE6F0E07E
:10131000808181608083E1E8F0E0108280818260DA
:101320008083808181608083E0E8F0E0808181605B
:101330008083E1EBF0E0808184608083E0EBF0E08B
:10134000808181608083E1E9F0E080818260808338
:10135000808181608083E0E9F0E08081816080832A
:10136000E1EAF0E080818260808380818160808317
:10137000E0EAF0E0808181608083E1E2F1E0808159
:1013800082608083808181608083E0E2F1E08081FF
:1013900081608083EAE7F0E08081846080838081DF
:1013A0008260808380818160808380818068808387
:1013B0001092C1000895CF93DF93482F50E0CA01E7
:1013C00088589E4FFC0134914E5C5E4FFA01849127
:1013D000882369F190E0880F991FFC01EC51FF4FC1
:1013E000A591B491FC01E250FF4FC591D4916623C1
:1013F00051F42FB7F8948C91932F909589238C9367
:10140000888189230BC0623061F42FB7F8948C91E6
:10141000932F909589238C938881832B88832FBF6A
:1014200006C09FB7F8948C91832B8C939FBFDF915C
:10143000CF910895893009F449C08A30A0F48430EE
:1014400051F1853040F4823079F1833000F58130FC
:1014500009F063C026C0873079F1883098F586306E
:1014600009F05BC025C08D3009F442C08E3028F4ED
:101470008B30B1F18C30C0F52DC0803109F442C001
:10148000813109F445C08F3009F047C037C08091E1
:1014900080008F7703C0809180008F7D80938000D3
:1014A000089584B58F7702C084B58F7D84BD08957B
:1014B0008091B0008F7703C08091B0008F7D8093C2
:1014C000B0000895809190008F7707C080919000C0
:1014D0008F7D03C080919000877F80939000089556
:1014E0008091A0008F7707C08091A0008F7D03C0FE
:1014F0008091A000877F8093A000089580912001B3
:101500008F7703C0809120018F7D80932001089503
:1015100080912001877F809320010895FF920F938F
:101520001F93F62E482F50E0CA0182549E4FFC01B3
:101530002491CA0188589E4FFC0114914E5C5E4F65
:10154000FA0104910023C1F0222311F0822F72DFEF
:10155000E02FF0E0EE0FFF1FE250FF4FA591B49196
:101560009FB7F894FF2021F48C911095812302C03D
:101570008C91812B8C939FBF1F910F91FF900895A9
:101580000F931F93482F50E0CA0182549E4FFC01D5
:101590002491CA0188589E4FFC0104914E5C5E4F15
:1015A000FA011491112319F420E030E014C0222331
:1015B00011F0822F3FDF812F90E0880F991F885E06
:1015C0009E4FFC01A591B4918C9120E030E08023E6
:1015D00011F021E030E0C9011F910F9108950895A5
:1015E0001F920F920FB60F920BB60F9211242F93EA
:1015F0003F934F938F939F93EF93FF938091C000FE
:1016000082FD1DC04091C6002091F9023091FA027E
:101610002F5F3F4F2F7330708091FB029091FC023F
:101620002817390771F0E091F902F091FA02E754B6
:10163000FD4F40833093FA022093F90202C080915B
:10164000C600FF91EF919F918F914F913F912F9104
:101650000F900BBE0F900FBE0F901F90189508951E
:101660001F920F920FB60F920BB60F9211242F9369
:101670003F934F938F939F93EF93FF938091C80075
:1016800082FD1DC04091CE002091810330918203E4
:101690002F5F3F4F2F7330708091830390918403AD
:1016A0002817390771F0E0918103F0918203EF5B15
:1016B000FC4F4083309382032093810302C08091CA
:1016C000CE00FF91EF919F918F914F913F912F917C
:1016D0000F900BBE0F900FBE0F901F90189508959E
:1016E0001F920F920FB60F920BB60F9211242F93E9
:1016F0003F934F938F939F93EF93FF938091D000ED
:1017000082FD1DC04091D6002091090430910A0449
:101710002F5F3F4F2F73307080910B0490910C041A
:101720002817390771F0E0910904F0910A04E75392
:10173000FC4F408330930A042093090402C0809137
:10174000D600FF91EF919F918F914F913F912F91F3
:101750000F900BBE0F900FBE0F901F90189508951D
:101760001F920F920FB60F920BB60F9211242F9368
:101770003F934F938F939F93EF93FF93809130010B
:1017800082FD1DC040913601209191043091920458
:101790002F5F3F4F2F73307080919304909194048A
:1017A0002817390771F0E0919104F0919204EF5AF3
:1017B000FB4F4083309392042093910402C08091A8
:1017C0003601FF91EF919F918F914F913F912F9112
:1017D0000F900BBE0F900FBE0F901F901895E091C9
:1017E000E504F091E604E05CFF4F81919191208146
:1017F0003181805C9F4F821B930B60E470E00E94FC
:10180000C615892B09F0EBDEE0910705F09108057C
:10181000E05CFF4F8191919120813181805C9F4FED
:10182000821B930B60E470E00E94C615892B09F0BF
:1018300016DFE0912905F0912A05E05CFF4F8191C8
:10184000919120813181805C9F4F821B930B60E4DA
:1018500070E00E94C615892B09F041DFE0914B052D
:10186000F0914C05E05CFF4F819191912081318195
:10187000805C9F4F821B930B60E470E00E94C61552
:10188000892B09F06CCF08951F920F920FB60F921B
:101890000BB60F9211242F933F938F939F93EF9347
:1018A000FF9320913D0330913E0380913F0390913F
:1018B00040032817390731F48091C1008F7D809350
:1018C000C10014C0E0913F03F0914003E350FD4F8D
:1018D000208180913F039091400301968F73907017
:1018E0009093400380933F032093C600FF91EF91B4
:1018F0009F918F913F912F910F900BBE0F900FBE34
:101900000F901F9018951F920F920FB60F920BB663
:101910000F9211242F933F938F939F93EF93FF93F5
:101920002091C5033091C6038091C7039091C803ED
:101930002817390731F48091C9008F7D8093C90041
:1019400014C0E091C703F091C803EB57FC4F20810E
:101950008091C7039091C80301968F739070909304
:10196000C8038093C7032093CE00FF91EF919F910E
:101970008F913F912F910F900BBE0F900FBE0F9044
:101980001F9018951F920F920FB60F920BB60F92E1
:1019900011242F933F938F939F93EF93FF93209165
:1019A0004D0430914E0480914F04909150042817BB
:1019B000390731F48091D1008F7D8093D10014C01C
:1019C000E0914F04F0915004E35FFB4F2081809140
:1019D0004F049091500401968F739070909350042F
:1019E00080934F042093D600FF91EF919F918F91A8
:1019F0003F912F910F900BBE0F900FBE0F901F9035
:101A000018951F920F920FB60F920BB60F921124DA
:101A10002F933F938F939F93EF93FF932091D50440
:101A20003091D6048091D7049091D80428173907B3
:101A300031F4809131018F7D8093310114C0E091A8
:101A4000D704F091D804EB56FB4F20818091D70446
:101A50009091D80401968F7390709093D8048093DE
:101A6000D70420933601FF91EF919F918F913F9181
:101A70002F910F900BBE0F900FBE0F901F901895D7
:101A8000AF92BF92DF92EF92FF920F931F93CF938B
:101A9000DF93EC017A018B01DD24403081EE5807A1
:101AA00080E0680780E0780711F0DD24D39491E0AE
:101AB000A92EB12CEC89FD89DD2069F0C50108A0B3
:101AC00002C0880F991F0A94E2F7808360E079E0F2
:101AD0008DE390E005C0108260E874E88EE190E04C
:101AE000A80197010E94D915215030404040504034
:101AF000569547953795279580E12030380720F097
:101B0000DD2011F0DD24D6CFE889F9893083EA8918
:101B1000FB89208319A2EE89FF89408121E030E012
:101B2000C9010C8C02C0880F991F0A94E2F7482B58
:101B30004083EE89FF894081C9010D8C02C0880F66
:101B4000991F0A94E2F7482B4083EE89FF89408170
:101B5000C9010E8C02C0880F991F0A94E2F7482B26
:101B60004083EE89FF8980810F8C02C0220F331FD2
:101B70000A94E2F7209528232083DF91CF911F91CB
:101B80000F91FF90EF90DF90BF90AF900895DC0130
:101B90001C96ED91FC911D97E05CFF4F8191919116
:101BA00020813181805C9F4F821B930B60E470E049
:101BB000EDC7DC011C96ED91FC911D97E05CFF4F99
:101BC00020813181E054F040DF01AE5BBF4F8D9149
:101BD0009C9111972817390719F42FEF3FEF07C091
:101BE0008D919C91E80FF91F8081282F30E0C90169
:101BF0000895DC011C96ED91FC911D97E05CFF4F70
:101C000020813181E054F040DF01AE5BBF4F8D9108
:101C10009C9111972817390719F42FEF3FEF10C047
:101C20008D919C911197E80FF91F20818D919C91C6
:101C3000119701968F73907011969C938E9330E05C
:101C4000C9010895DC0191968C919197882339F010
:101C50005496ED91FC915597808186FFF9CF91962E
:101C60001C920895CF93DF93EC01EE85FF85E05C35
:101C7000FF4F20813181E054F0402F5F3F4F2F73A1
:101C80003070DF01AE5BBF4F8D919C91119728178B
:101C90003907D1F3E05CFF4F80819181E054F0403F
:101CA000E80FF91F6083EE85FF85E05CFF4F31830D
:101CB0002083EE89FF89208181E090E00F8C02C0B3
:101CC000880F991F0A94E2F7282B208381E089A3CB
:101CD000EC89FD8980818064808381E090E0DF91E0
:101CE000CF9108951F931092DC041092DB0428EE2C
:101CF00033E040E050E02093DD043093DE04409375
:101D0000DF045093E00464E672E07093DA046093B9
:101D1000D90489EB92E09093E6048093E5048DEF7B
:101D200092E09093E8048093E70485EC90E0909330
:101D3000EA048093E90484EC90E09093EC048093AF
:101D4000EB0480EC90E09093EE048093ED0481EC42
:101D500090E09093F0048093EF0482EC90E09093F5
:101D6000F2048093F10486EC90E09093F404809365
:101D7000F30414E01093F504B3E0B093F604A7E085
:101D8000A093F704F5E0F093F804E1E0E093F904A0
:101D90001092FE041092FD042093FF04309300057E
:101DA00040930105509302057093FC046093FB047B
:101DB00081E493E0909308058093070585E893E01C
:101DC00090930A05809309058DEC90E090930C05A3
:101DD00080930B058CEC90E090930E0580930D059D
:101DE00088EC90E09093100580930F0589EC90E0CB
:101DF00090931205809311058AEC90E0909314055E
:101E0000809313058EEC90E0909316058093150552
:101E100010931705B0931805A0931905F0931A05B0
:101E2000E0931B051092200510921F0520932105B9
:101E300030932205409323055093240570931E058B
:101E400060931D0589EC93E090932A058093290502
:101E50008DE094E090932C0580932B0585ED90E028
:101E600090932E0580932D0584ED90E0909330059E
:101E700080932F0580ED90E090933205809331059B
:101E800081ED90E0909334058093330582ED90E0EE
:101E9000909336058093350586ED90E09093380554
:101EA0008093370510933905B0933A05A0933B050D
:101EB000F0933C05E0933D051092420510924105D8
:101EC00020934305309344054093450550934605C0
:101ED0007093400560933F0581E594E090934C0535
:101EE00080934B0585E994E090934E0580934D05D2
:101EF00085E391E09093500580934F0584E391E052
:101F0000909352058093510580E391E0909354059E
:101F10008093530581E391E0909356058093550596
:101F200082E391E0909358058093570586E391E012
:101F300090935A058093590510935B05B0935C0507
:101F4000A0935D05F0935E05E0935F051F910895F2
:101F50000895CF93DF93CDD9FBDF0E94C101CFEE6F
:101F6000DBE00E94BE012097E1F339DCFACFCF928B
:101F7000DF92EF92FF920F931F93CF93DF937C0139
:101F80006B018A01C0E0D0E00FC0D6016D916D01F8
:101F9000D701ED91FC910190F081E02DC7011995D9
:101FA000C80FD91F015010400115110571F7CE015E
:101FB000DF91CF911F910F91FF90EF90DF90CF9025
:101FC0000895CF93DF93FB01EC01A881B981608173
:101FD0007181448155811296ED91FC911397199569
:101FE000DF91CF910895DC01ED91FC910190F0819A
:101FF000E02D19950895EF92FF920F931F938C0196
:10200000DC01ED91FC910190F081E02D6DE01995DE
:102010007C01D801ED91FC910190F081E02DC80187
:102020006AE019959C012E0D3F1DC9011F910F916A
:10203000FF90EF900895EF92FF920F931F937C0112
:10204000C0DF8C01C701D7DF9C01200F311FC90100
:102050001F910F91FF90EF900895CF93DF93EC01C4
:102060006115710519F420E030E00FC0DB010D901F
:102070000020E9F71197A61BB70BE881F9810280D0
:10208000F381E02DAD0119959C01C901DF91CF913C
:1020900008954F925F927F928F929F92AF92BF92DC
:1020A000CF92DF92EF92FF920F931F93DF93CF9324
:1020B000CDB7DEB7A1970FB6F894DEBF0FBECDBF88
:1020C0002C01742ECB01223008F42AE019A231E24F
:1020D000C32ED12CCC0EDD1E822E9924AA24BB2423
:1020E000672D752FA501940164D579018A01C80176
:1020F000B701A50194012BD5472D461B0894C108B3
:10210000D1084A3014F4405D01C0495CF6014083B7
:10211000E114F1040105110521F07E2C5F2DC801A9
:10212000DFCFC201B60199DFA1960FB6F894DEBFEA
:102130000FBECDBFCF91DF911F910F91FF90EF9018
:10214000DF90CF90BF90AF909F908F907F905F90E7
:102150004F900895CF92DF92EF92FF920F931F93CB
:10216000CF93DF93EC016A017B012115310541F426
:10217000E881F9810190F081E02D642F19951DC04F
:102180002A303105C9F477FF16C0E881F981019042
:10219000F081E02D6DE219958C0144275527BA0195
:1021A0004C195D096E097F09CE012AE072DF9801A2
:1021B000280F391F03C02AE06CDF9C01C901DF91A1
:1021C000CF911F910F91FF90EF90DF90CF900895E6
:1021D000CF92DF92EF92FF920F931F936C017B01DE
:1021E0009A010027F7FC0095102FB801A701B2DF74
:1021F0008C01C60100DF080F191FC8011F910F9144
:10220000FF90EF90DF90CF90089527CF0895EF9241
:10221000FF920F931F937C0120DF8C01C701EBDE3F
:10222000080F191FC8011F910F91FF90EF9008959B
:10223000FC019B01848195816817790728F46081EE
:1022400071816115710529F41092610561E675E0EF
:1022500002C0620F731FCB010895FC018081918140
:10226000009729F420E030E040E050E004C00E94F4
:1022700033019B01AC01B901CA0108950F931F936B
:10228000CF93DF93EC018B016F5F7F4F8881998142
:102290005AD2009711F480E005C0998388831B838C
:1022A0000A8381E0DF91CF911F910F910895CF9321
:1022B000DF93EC0188819981892B29F08A819B81A8
:1022C0008617970758F4CE01D9DF882341F08C8117
:1022D0009D81892B19F4E881F981108281E0DF91D9
:1022E000CF910895EF92FF920F931F93CF93DF93B7
:1022F000EC017B016C817D81E114F104B9F04115A1
:10230000510591F08A01060F171FB801D0DF88230D
:1023100069F0888199812C813D81820F931FB701DB
:102320000E9462011D830C8381E001C080E0DF9187
:10233000CF911F910F91FF90EF900895DF93CF936E
:102340000F920F92CDB7DEB769831A82BE016F5F1D
:102350007F4F41E050E0C6DF0F900F90CF91DF91AB
:102360000895CF93DF93EC0188819981009709F05C
:1023700052D1198218821D821C821B821A82DF911F
:10238000CF910895EF92FF920F931F93CF93DF9316
:10239000EC017B018A01BA018ADF882319F4CE019E
:1023A000E0DF07C01D830C8388819981B7010E94FB
:1023B0006201CE01DF91CF911F910F91FF90EF90BD
:1023C0000895CF93DF93EC01198218821B821A8241
:1023D0001D821C826115710549F0DB010D90002002
:1023E000E9F71197A61BB70BAD01CCDFDF91CF91B9
:1023F00008950F931F93182F092F6115710551F040
:10240000DB010D900020E9F71197A61BB70BAD017A
:10241000B9DF01C0A6DF812F902F1F910F91089582
:10242000BF92CF92DF92EF92FF920F931F93CF93C1
:10243000DF93082FB92E6B017A01E90124173507C4
:1024400010F4EA017901802F9B2D69E572E0B9DF74
:10245000D60114968D919C9115978E159F05C8F005
:102460008C179D0708F4EC01D601ED91FC911197B2
:10247000EC0FFD1F108110826D917C916E0D7F1D00
:10248000802F9B2DB6DFD601ED91FC91EC0FFD1F47
:102490001083802F9B2DDF91CF911F910F91FF9083
:1024A000EF90DF90CF90BF900895CF93DF93EC0132
:1024B000FB018617970751F06081718161157105E5
:1024C00021F0448155815EDF01C04BDFCE01DF91F9
:1024D000CF910895FC01808191819DC00F931F933E
:1024E000CF93DF93BC018230910510F462E070E07D
:1024F000E0916405F091650540E050E0A0E0B0E0B7
:1025000024C08081918186179707D0F0861797079E
:1025100071F482819381109729F013969C938E9386
:1025200012972CC0909365058093640527C04115D0
:10253000510519F08417950718F48D01AC01EF01CE
:10254000DF01828193819C01F9013097D1F6411519
:102550005105F9F0CA01861B970B8430910580F470
:102560008A819B810115110521F0F80193838283F3
:1025700004C09093650580936405FE01329645C0C2
:10258000FE01E80FF91F6193719302979983888385
:102590003CC08091620590916305892B41F4809144
:1025A0005C0290915D029093630580936205409177
:1025B0005E0250915F024115510541F44DB75EB77F
:1025C00080915A0290915B02481B590B2091620541
:1025D0003091630524173507B0F4CA01821B930BB1
:1025E0008617970780F0AB014E5F5F4F8417950702
:1025F00050F0420F531F5093630540936205F90159
:102600006193719302C0E0E0F0E0CF01DF91CF91E0
:102610001F910F910895CF93DF939C01009709F4C8
:102620008FC0EC0122971B821A8260916405709121
:1026300065056115710581F488819981820F931F69
:1026400020916205309163052817390739F5D09339
:102650006305C093620574C0DB0140E050E0AC1735
:10266000BD0708F1BB83AA83FE0121913191E20FDE
:10267000F31FAE17BF0779F48D919C911197280F26
:10268000391F2E5F3F4F3983288312968D919C917D
:1026900013979B838A834115510571F4D093650587
:1026A000C09364054DC012968D919C911397AD0116
:1026B000009711F0DC01D3CFDA011396DC93CE93AF
:1026C0001297FA0121913191E20FF31FCE17DF0724
:1026D00069F488819981280F391F2E5F3F4FFA01D5
:1026E000318320838A819B8193838283E0E0F0E0C1
:1026F000DB0112968D919C911397009719F0BC0104
:10270000FD01F6CFAB014E5F5F4FDB018D919C91D8
:10271000840F951F209162053091630528173907B2
:1027200079F4309729F4109265051092640502C07F
:1027300013821282425050405093630540936205C9
:10274000DF91CF9108956F927F928F929F92AF9277
:10275000BF92CF92DF92EF92FF920F931F93CF938E
:10276000DF938C01009721F4CB01B8DE8C01B8C057
:102770008EEFE82E8FEFF82EE00EF11E4801860E48
:10278000971E8E149F0408F4A9C0D7014D915C9147
:10279000119746175707B0F04530510508F4A0C00F
:1027A000CA0104978617970708F49AC04250504010
:1027B000461B570BF401419351936D937C93CF01CA
:1027C0002ADF8EC05B01A41AB50A3801640E751E9B
:1027D000A0916405B0916505E0E0F0E0CC24DD2433
:1027E00047C0A615B705A9F5CD91DC911197CE018B
:1027F00002968A159B0568F1CE018A199B090296FB
:1028000012962C91129713963C91059758F0F4016B
:1028100022833383CA19DB09D183C083D7016D9327
:102820007C9309C04E5F5F4F4C0F5D1FF7015183D2
:102830004083C901FC01C114D10431F0D6011396C3
:10284000FC93EE9312974CC0F0936505E0936405FA
:1028500047C08D919C911197E817F90708F4FC0186
:102860006D0112968C91129713969C919C01D9013F
:10287000109709F0B6CF8091620590916305861597
:102880009705E9F4E617F707D0F420915E0230913E
:102890005F022115310541F42DB73EB780915A02F0
:1028A00090915B02281B390B82169306B8F4909224
:1028B000630580926205F7017183608311C0CB01CB
:1028C0000DDEEC01009751F0D7014D915C91B801FC
:1028D0000E945901C8019FDE8E0102C000E010E095
:1028E000C801DF91CF911F910F91FF90EF90DF9082
:1028F000CF90BF90AF909F908F907F906F900895F2
:102900000CD0EBC0E3D040F0DAD030F021F45F3FE0
:1029100019F0CCC0511115C1CFC0F0D098F3992354
:10292000C9F35523B1F3951B550BBB27AA27621793
:102930007307840738F09F5F5F4F220F331F441FD8
:10294000AA1FA9F333D00E2E3AF0E0E830D0915010
:102950005040E695001CCAF729D0FE2F27D0660FFD
:10296000771F881FBB1F261737074807AB07B0E83C
:1029700009F0BB0B802DBF01FF2793585F4F2AF052
:102980009E3F510568F092C0DCC05F3FECF3983E7B
:10299000DCF3869577956795B795F7959F5FC9F7AF
:1029A000880F911D9695879597F90895E1E0660F38
:1029B000771F881FBB1F621773078407BA0720F0B1
:1029C000621B730B840BBA0BEE1F88F7E09508951A
:1029D00004D06894B111B5C0089598D088F09F577D
:1029E00090F0B92F9927B751A0F0D1F0660F771F5B
:1029F000881F991F1AF0BA95C9F712C0B13081F03B
:102A00009FD0B1E008959CC0672F782F8827B85FCA
:102A100039F0B93FCCF3869577956795B395D9F79B
:102A20003EF490958095709561957F4F8F4F9F4FA5
:102A30000895E89409C097FB3EF4909580957095B1
:102A400061957F4F8F4F9F4F9923A9F0F92F96E9FA
:102A5000BB279395F695879577956795B795F1116F
:102A6000F8CFFAF4BB0F11F460FF1BC06F5F7F4F0C
:102A70008F4F9F4F16C0882311F096E911C077231E
:102A800021F09EE8872F762F05C0662371F096E827
:102A9000862F70E060E02AF09A95660F771F881FF6
:102AA000DAF7880F9695879597F9089597F99F67B4
:102AB00080E870E060E008959FEF80EC08950024C6
:102AC0000A941616170618060906089500240A9493
:102AD00012161306140605060895092E0394000C19
:102AE00011F4882352F0BB0F40F4BF2B11F460FFA8
:102AF00004C06F5F7F4F8F4F9F4F089557FD9058D1
:102B0000440F551F59F05F3F71F04795880F97FBB1
:102B1000991F61F09F3F79F087950895121613066B
:102B20001406551FF2CF4695F1DF08C0161617069A
:102B30001806991FF1CF86957105610508940895CF
:102B4000E894BB2766277727CB0197F90895629F02
:102B5000D001739FF001829FE00DF11D649FE00D95
:102B6000F11D929FF00D839FF00D749FF00D659FF6
:102B7000F00D9927729FB00DE11DF91F639FB00DF5
:102B8000E11DF91FBD01CF011124089597FB092E06
:102B900007260AD077FD04D049D006D000201AF4C9
:102BA000709561957F4F0895F6F7909581959F4FA9
:102BB0000895A1E21A2EAA1BBB1BFD010DC0AA1F7E
:102BC000BB1FEE1FFF1FA217B307E407F50720F096
:102BD000A21BB30BE40BF50B661F771F881F991F11
:102BE0001A9469F760957095809590959B01AC015A
:102BF000BD01CF01089597FB092E05260ED057FD84
:102C000004D0D7DF0AD0001C38F450954095309599
:102C100021953F4F4F4F5F4F0895F6F79095809560
:102C2000709561957F4F8F4F9F4F0895AA1BBB1BD7
:102C300051E107C0AA1FBB1FA617B70710F0A61BBC
:102C4000B70B881F991F5A95A9F780959095BC01DD
:102C5000CD010895EE0FFF1F0590F491E02D19941A
:102C600012E0C8E0D2E003C0FE01F6DF2296CA30CF
:082C7000D107D1F7F894FFCF62
:102C7800002453500A0024523050004E6F204D6FEC
:102C8800746F7221002452300A00526573656E64B5
:102C9800696E6720636F6D6D616E6420746F204389
:102CA800522E2E2E0A004661696C656420746F20CE
:102CB800636F6D6D756E696361746520776974689B
:102CC8002043520024523046000080006605000070
:102CD80000000000320EB70FC70DF90DD90D220EF6
:00000001FF
