:100000000C946B010C94970B0C94C80B0C94F90B8B
:100010000C942A0C0C945B0C0C948C0C0C94BD0C62
:100020000C94EE0C0C949C010C949C010C949C017F
:100030000C949C010C949C010C949C010C949C01CC
:100040000C949C010C94DA030C949C010C949C017C
:100050000C949C010C949C010C949C010C941F0D1D
:100060000C949C010C9482100C94B8100C949C017C
:100070000C949C010C949C010C949C010C949C018C
:100080000C949C010C949C010C949C010C94AC036A
:100090000C949C010C949C010C949C010C949C016C
:1000A0000C949C010C949C010C949C010C949C015C
:1000B0000C949C010C949C010C949C010C949C014C
:1000C0000C949C010C949C010C949C010C949C013C
:1000D0000C949C010C949C010C942F110C946511B0
:1000E0000C949C01710B3B0B430B4F0B5C0B7D0B7A
:1000F0008A0B3B0E3E0E2D0E310E370E750E420E44
:10010000460E4C0E500E540E5A0E5E0E620E750EBA
:10011000680E6C0E700E0C94E2100C94540E0C943D
:100120000E0F0C9429020C94F0030C944C0E0C94BA
:100130005E0E0C945C0B0C94680E0C94710B0C947A
:10014000430B0C948F110C94750E0C94700E0C9440
:100150003E0E0C946C0E0C94420E0C94E4030C9422
:10016000EC100C945A0E0C94BB0F0C94EC110C94E4
:10017000620E0C942D0E0C94270F0C944F0B0C94C4
:10018000190F0C943B0B0C94500E0C94370E0C94DE
:10019000460E0C947D0B0C943B0F0C94310E0C947A
:1001A0008A0B0C9499110C943B0E0C94990F00003F
:1001B0000A0B02090C0D0E080703040100000000E1
:1001C000000000000000000000000000000000002F
:1001D00000000000000000000000121110000000EC
:1001E000000000000000000000000000000000000F
:1001F00000000000010210202008081020401020FC
:1002000040800201020108040201010204081020DA
:1002100040808040201008040201800402018040D8
:100220002010080402010804020101020408102041
:1002300040800102040810204080050505050705DF
:1002400008080808020202020A0A08080404040452
:10025000010101010101010103030303030303037E
:10026000040707070C0C0C0C0C0C0C0C020202020D
:1002700006060606060606060B0B0B0B0B0B0B0BF6
:10028000000020002300260029002C002F0032004F
:100290000001000003010601090100002200250001
:1002A00028002B002E00310034000201000005015F
:1002B00008010B0100002100240027002A002D0066
:1002C0003000330001010000040107010A01E403CA
:1002D000EC109911F00311241FBECFEFD1E2DEBF65
:1002E000CDBF00E00CBF12E0A0E0B2E0E8E1F4E333
:1002F00000E00BBF02C007900D92A03FB107D9F7F5
:1003000024E0A0EFB2E001C01D92AB37B207E1F7E5
:1003100012E0C4EDD2E000E006C022970109FE0120
:100320000BBF0E945A17CE3CD10780E00807A9F7FF
:100330000E94DD110C94FA190C940000EF92FF92C8
:100340000F931F93CF93DF931F92CDB7DEB77C013E
:10035000FC01718360835383428326873787048738
:100360001587148215821682178260E0802F2983F8
:100370000E94760E61E0802F0E94AF0E60E029811E
:10038000822F0E94760EF701108A0F90DF91CF9195
:100390001F910F91FF90EF900895FC018089448197
:1003A000558166817781882329F04150510961097F
:1003B000710904C04F5F5F4F6F4F7F4F4483558378
:1003C000668377830895CF92DF92EF92FF92CF9367
:1003D000DF93EC016C817D818E819F810E94FC15F1
:1003E0009B01AC010E94FD142BED3FE049E450E479
:1003F0000E94B0166B017C016A817B81882777FDA2
:100400008095982F0E94FC159B01AC01C701B60195
:100410000E94611520E030E04AE952E40E94611533
:1004200023E333E343E950E40E94B0160E94C91568
:10043000CB01DF91CF91FF90EF90DF90CF900895A7
:10044000FC0164817581868197810895FC01608B30
:10045000089580EF92E00C94A90380EF92E00E944F
:100460003C0242E050E069E272E082E00C94260B2C
:1004700080EF92E00C94FD090F931F93CF93DF93CD
:10048000EC0161E08DE00E94760E10929000E1E9AF
:10049000F0E01082109295001092940080818460A8
:1004A0008083E1E7F0E080818160808329E030E0B3
:1004B0004AE050E061E070E084E193E00E94430A8A
:1004C00005E110E02EE130E04CE251E062E070E046
:1004D000CE010E960E949E0119A218A21BA21AA27A
:1004E00026E040E052EC61E070E08CE393E00E9493
:1004F000201026E040E052EC61E070E089ED93E0EE
:100500000E9420101E8267EB72E0CE010E94CF1382
:100510001D8667EB72E0CE0107960E94CF1380E341
:100520008F8FDF91CF911F910F910895EF92FF92DE
:100530000F931F93CF93DF938C017B01FC0182A16A
:1005400093A1E80EF91EE8012E9660E0CE010E940C
:10055000260260E070E084E193E00E94B40A68E55E
:100560007BE184E193E00E949F0A84E193E00E9492
:10057000BA0AF80182A193A18E159F0584F464E65E
:1005800070E080E090E00E94980DCE010E94200271
:10059000CE010E94E301F80193A382A3EACFCE012A
:1005A0000E94200284E193E0DF91CF911F910F918F
:1005B000FF90EF900C94C70AEF92FF920F931F9356
:1005C000CF93DF93EC010AA11BA1061B170B61E07F
:1005D00070E084E193E00E94B40A7E018EE0E80EB0
:1005E000F11C61E0C7010E94260260ED77E084E122
:1005F00093E00E949F0A84E193E00E94BA0A8AA1D4
:100600009BA10817190734F4C7010E94E3019BA3BB
:100610008AA3F5CF84E193E0DF91CF911F910F91F1
:10062000FF90EF900C94C70A0F931F93CF93DF9323
:100630008B0164EF71E080E090E00E94980DC0E0D3
:10064000D0E0C017D10704F560E08DE00E94AF0E46
:100650006AEF70E080E090E00E94980D61E08DE02C
:100660000E94AF0E6AEF70E080E090E00E94980D6B
:1006700060E08DE00E94AF0E6AEF70E080E090E0F5
:100680000E94980D2196DDCFDF91CF911F910F91A0
:100690000895CF92DF92EF92FF920F931F93CF9323
:1006A000DF93CDB7DEB72C970FB6F894DEBF0FBE41
:1006B000CDBF8C0167EB72E0CE0107960E94A213BA
:1006C00063E070E0C8010E94140327E030E044E0DA
:1006D00050E0B801CE0101960E94AB14BE016F5FDD
:1006E0007F4FCE0107960E94B813CE0101960E945B
:1006F0003413CE0107960E94F0146B017C0163E075
:1007000070E0C8010E949914FC018081B6018B320F
:1007100021F4C8010E94960203C0C8010E94DC02B5
:1007200066E072E08CE393E00E946712CE010796C8
:100730000E9434132C960FB6F894DEBF0FBECDBFC7
:10074000DF91CF911F910F91FF90EF90DF90CF90AD
:1007500008950E960C94CD011F920F920FB60F9232
:1007600011240BB60F922F933F934F935F936F9388
:100770007F938F939F93AF93BF93EF93FF938DE0FE
:100780000E94E50E61E068278DE00E94AF0EFF91A8
:10079000EF91BF91AF919F918F917F916F915F91F9
:1007A0004F913F912F910F900BBE0F900FBE0F9066
:1007B0001F9018951F920F920FB60F9211240F9051
:1007C0000FBE0F901F90189567EB72E080EF92E0DC
:1007D0000E94A21367EB72E087EF92E00C94A213E1
:1007E00087EF92E00E94341380EF92E00C94341370
:1007F0000F931F93CF93DF93CDB7DEB762970FB6FA
:10080000F894DEBF0FBECDBF8A014AE0CE010D963F
:100810000E94001467EB72E0CE0107960E94A213BB
:1008200089899A898330910519F46AE072E007C0DA
:10083000029719F460E172E002C065E172E0CE0156
:1008400001960E94A213BE01635F7F4FCE01019605
:100850000E946C14B8010E946C1466EB72E00E9456
:100860007F14BC01CE0107960E94B813CE010196F9
:100870000E943413BE01695F7F4F89ED93E00E94AF
:100880002A1289ED93E00E940E0F892BD1F369E1C2
:1008900070E080E090E00E94980D10E089ED93E018
:1008A0000E940E0F1816190644F489ED93E00E9479
:1008B000270F843299F711E0F1CF112311F3CE0104
:1008C00007960E943413CE010D960E94341362964F
:1008D0000FB6F894DEBF0FBECDBFDF91CF911F9151
:1008E0000F910895EF92FF920F931F93CF93DF9391
:1008F00000D000D0CDB7DEB78C017C018EE0E80ED1
:10090000F11CC7010E94E3018134910524F569E1DE
:1009100072E08CE393E00E94671266E070E0C80129
:100920000E9496026AE272E08CE393E00E946712F2
:1009300064ED72E0CE0101960E94A213AE014F5FFA
:100940005F4F65E070E0C8010E94F803CE01019698
:100950000E943413D6CF62E372E08CE393E00E94EE
:1009600067126EE170E0C8010E94960265E472E0D1
:100970008CE393E00E94671226960FB6F894DEBFD0
:100980000FBECDBFDF91CF911F910F91FF90EF90E0
:1009900008950F931F93CF93DF9300D000D0CDB76E
:1009A000DEB78C016AE472E089ED93E00E943812B0
:1009B0006AE272E08CE393E00E94671289ED93E0B3
:1009C0000E940E0F892BD1F36AE070E080E090E086
:1009D0000E94980D89ED93E00E940E0F18161906DB
:1009E000ACF489ED93E00E94270F682FCE010196A9
:1009F0000E94E713BE016F5F7F4F8CE393E00E947C
:100A00005512CE0101960E943413E4CF69E172E0E1
:100A10008CE393E00E94671263E270E0C8010E94D9
:100A2000960260E572E08CE393E00E94671261E653
:100A300072E08CE393E00E94381260E672E089ED88
:100A400093E00E94381266E672E08CE393E00E9425
:100A5000671289ED93E00E940E0F892BD1F36AE0B3
:100A600070E080E090E00E94980D89ED93E00E9494
:100A70000E0F18161906ACF489ED93E00E94270FAB
:100A8000682FCE0101960E94E713BE016F5F7F4F72
:100A90008CE393E00E945512CE0101960E9434131C
:100AA000E4CF61E772E08CE393E00E9467126FE7A6
:100AB00072E089ED93E00E94381289ED93E00E9484
:100AC0000E0F892BD1F36AE070E080E090E00E9485
:100AD000980D10E089ED93E00E940E0F181619068C
:100AE00044F489ED93E00E94270F843299F711E0D6
:100AF000F1CF112319F066E872E002C06CE872E0F1
:100B00008CE393E00E94381226960FB6F894DEBF6D
:100B10000FBECDBFDF91CF911F910F910895FF922E
:100B20000F931F93CF93DF93CDB7DEB72D970FB6FB
:100B3000F894DEBF0FBECDBF8C0167EB72E0CE0133
:100B400007960E94A21362E070E0C8010E94991407
:100B5000FC0180818C3409F466C0823509F463C0DD
:100B6000823409F460C026E030E043E050E0B80190
:100B7000CE0101960E94AB14BE016F5F7F4FCE0184
:100B800007960E94B813CE0101960E943413CE013D
:100B900007960E94F014695F7F4FC8010E94960279
:100BA000B80189ED93E00E942A1289ED93E00E943A
:100BB0000E0F892BD1F369E170E080E090E00E9494
:100BC000980DFF24F394095F1F4F89ED93E00E9475
:100BD0000E0F18161906CCF789ED93E00E94270F27
:100BE000282F682F843239F0FF2029F08CE393E01E
:100BF0000E943A12EACFC8012D870E9458142D8511
:100C00002A3079F4B8018CE393E00E942A128CE335
:100C100093E00E94990F67EB72E0C8010E94CF1326
:100C200002C0F12CD2CFCE0107960E9434132D962C
:100C30000FB6F894DEBF0FBECDBFDF91CF911F91ED
:100C40000F91FF900895CF93DF93EC0164E070E083
:100C50000E941403BE0189ED93E00E942A1289EDDF
:100C600093E00E94990F89ED93E00E940E0F1816F1
:100C70001906CCF789ED93E00E94270FC82F682F43
:100C80008CE393E00E943A12CA3069F78CE393E058
:100C9000DF91CF910C94990F4F925F926F927F9258
:100CA0009F92AF92BF92CF92DF92EF92FF920F93FB
:100CB0001F93CF93DF93CDB7DEB768970FB6F89445
:100CC000DEBF0FBECDBF8C0167EB72E0CE01439655
:100CD0000E94A21367EB72E0CE010D960E94A21350
:100CE00062E972E0CE0107960E94A21327E030E08D
:100CF00044E050E0B801CE0101960E94AB14BE0161
:100D00006F5F7F4FCE0143960E94B813CE010196CC
:100D10000E943413CE0143960E94F0146B017C01B3
:100D20005B0163E070E0C8010E949914FC018081BE
:100D30008D3239F4AA24BB24AC18BD0861E070E000
:100D400002C060E070E084E193E00E94B40AF80120
:100D5000E0A0F1A0EA0CFB1CF4E1EF1AF10860E955
:100D600071E084E193E00E94D30A84E193E00E9461
:100D7000BA0A67E972E089ED93E00E94381289EDC2
:100D800093E00E940E0F892BD1F3C80107966C01E6
:100D9000AA24A39489ED93E00E940E0F1816190659
:100DA0007CF489ED93E00E94270FB82E682FC601CE
:100DB0000E9458149AE0B912EDCFF801A586EACF47
:100DC00026E030E043E050E0B601CE0101960E94FB
:100DD000AB14BE016F5F7F4FCE010D960E94B8131A
:100DE000CE0101960E943413CE010D960E94F0149C
:100DF000F80171A360A34AE050E08CE393E00E9405
:100E00001C1399249394F80180A191A18E159F053C
:100E10000CF0CCC0809180008F7B8093800067E9CC
:100E200072E089ED93E00E94381280918000806426
:100E3000809380000E94690D2B013C01A12CB12CF4
:100E400089ED93E00E940E0F892B89F50E94690DB0
:100E50006419750986099709613D774081059105F7
:100E60007CF36CE972E08CE393E00E9438122FEF80
:100E7000A21AB20AF89467E972E089ED93E00E9441
:100E8000381278940E94690D2B013C0184E0A81669
:100E9000B104B1F668EB72E08CE393E00E94671254
:100EA00066ED72E0CE0107960E94CF137FC069E124
:100EB00070E080E090E00E94980D89ED93E00E9440
:100EC0000E0F89ED93E00E940E0F181619067CF4A0
:100ED00089ED93E00E94270FB82E682FC6010E946B
:100EE00058149AE0B912EDCFF8019586EACF7894BC
:100EF00026E030E043E050E0B601CE0101960E94CA
:100F0000AB14BE016F5F7F4FCE010D960E94B813E8
:100F1000CE0101960E94341367EB72E0C6010E9475
:100F2000CF13CE010D960E94F014F80171A360A3B7
:100F30004AE050E08CE393E00E941C13F80180A18A
:100F400091A18E159F053CF060E971E084E193E08A
:100F50000E94D30A2BC0B701681B790B882777FD45
:100F60008095982F0E94FC152B013C0120E030E079
:100F700040EA51E40E94AC1618161CF468E57BE1C7
:100F800010C020E030E045EA53E4C301B2010E9402
:100F9000B01620E030E048EC53E40E94FD140E94BB
:100FA000C91584E193E00E949F0A2DCF84E193E06C
:100FB0000E94C70ABE01695F7F4F8CE393E00E94E5
:100FC00055128CE393E00E94990FCE0107960E9480
:100FD0003413CE010D960E943413CE0143960E9425
:100FE000341368960FB6F894DEBF0FBECDBFDF9105
:100FF000CF911F910F91FF90EF90DF90CF90BF9016
:10100000AF909F907F906F905F904F9008954F9218
:101010005F926F927F928F929F92AF92BF92DF9278
:10102000EF92FF920F931F93CF93DF93CDB7DEB76D
:1010300068970FB6F894DEBF0FBECDBF8C0167EB8B
:1010400072E0CE0143960E94A21367EB72E0CE01DC
:101050000D960E94A21362E972E0CE0107960E94EB
:10106000A21360E070E084E193E00E94B40A68E5B6
:101070007BE184E193E00E949F0A84E193E00E9477
:10108000BA0A67E972E089ED93E00E94381289EDAF
:1010900093E00E940E0F892BD1F3C80107967C01C3
:1010A000BB24B39489ED93E00E940E0F1816190625
:1010B0007CF489ED93E00E94270FD82E682FC7019A
:1010C0000E9458149AE0D912EDCFF801B586EACF04
:1010D00026E030E043E050E0B701CE0101960E94E7
:1010E000AB14BE016F5F7F4FCE010D960E94B81307
:1010F000CE0101960E943413CE010D960E94F01489
:10110000F80171A360A34AE050E08CE393E00E94F1
:101110001C13DD24D394F80180A191A146970CF40F
:10112000CBC0809180008F7B8093800067E972E064
:1011300089ED93E00E943812809180008064809352
:1011400080000E94690D2B013C01A12CB12C89ED7E
:1011500093E00E940E0F892B89F50E94690D641996
:10116000750986099709613D7740810591057CF3F2
:101170006CE972E08CE393E00E9438122FEFA21A20
:10118000B20AF89467E972E089ED93E00E943812A0
:1011900078940E94690D2B013C0184E0A816B104EB
:1011A000B1F668EB72E08CE393E00E94671266EDA3
:1011B00072E0CE0107960E94CF137EC069E170E015
:1011C00080E090E00E94980D89ED93E00E940E0F60
:1011D00089ED93E00E940E0F181619067CF489ED34
:1011E00093E00E94270FB82E682FC7010E94581461
:1011F0009AE0B912EDCFF801D586EACF789426E0CF
:1012000030E043E050E0B701CE0101960E94AB14FC
:10121000BE016F5F7F4FCE010D960E94B813CE01C5
:1012200001960E94341367EB72E0C7010E94CF134E
:10123000CE010D960E94F014F80171A360A34AE05C
:1012400050E08CE393E00E941C13F80160A171A1AF
:10125000653171053CF460E971E084E193E00E943E
:10126000D30A2AC065517109882777FD8095982F88
:101270000E94FC154B015C0120E030E040EA51E4A3
:101280000E94AC1618161CF468E57BE110C020E043
:1012900030E045EA53E4C501B4010E94B01620E0F5
:1012A00030E048EC53E40E94FD140E94C91584E12B
:1012B00093E00E949F0A2FCF84E193E00E94C70A27
:1012C000BE01695F7F4F8CE393E00E9455128CE36F
:1012D00093E00E94990FCE0107960E943413CE012D
:1012E0000D960E943413CE0143960E9434136896E3
:1012F0000FB6F894DEBF0FBECDBFDF91CF911F9127
:101300000F91FF90EF90DF90BF90AF909F908F90E4
:101310007F906F905F904F90089562E070E00E9420
:1013200014036BED72E08CE393E00E9438128CE3BF
:1013300093E00C94990FCF93DF93EC0161E070E0A0
:101340000E949914FC018081843471F13CF4813451
:1013500009F04BC0CE010E94490305C08934F9F061
:10136000823509F042C062E070E0CE010E9499141B
:10137000FC018081803329F4CE01DF91CF910C9460
:101380004C0662E070E0CE010E949914FC0180815D
:10139000813481F5CE01DF91CF910C940708CE0105
:1013A000DF91CF910C94230662E070E0CE010E94A1
:1013B0009914FC018081843429F4CE01DF91CF910E
:1013C0000C94720462E070E0CE010E949914FC015A
:1013D0008081843529F4CE01DF91CF910C94C9042A
:1013E000CE01DF91CF910C948F05CE01DF91CF918B
:1013F0000C948D09DF91CF9108951F93CF93DF93C4
:10140000EC018CE393E00E940E0F11E08CE393E07B
:101410000E940E0F1816190674F48CE393E00E94D4
:10142000270F8F8F682FCE010E9458148F8D8A301E
:1014300069F71E83EBCF6AEF70E080E090E00E94D6
:10144000980D8E818823D9F060E070E0CE010E9473
:101450009914FC018081843291F480917100809311
:101460007100CE010E949B09809171008160809380
:10147000710067EB72E0CE010E94CF131E82DF91F4
:10148000CF911F910895EF92FF920F931F93CF93E7
:10149000DF93EC01042F122F7983688349875A87E1
:1014A0002B873C87882777FD8095982F0E94FC1515
:1014B0002BED3FE049EC50E40E9461150E94C915F4
:1014C0007B836A8380E8E82EF12CF7011082E1E843
:1014D000F0E01082109285001092840080E991E083
:1014E00090938900809388008081886080838081C8
:1014F0008260808361E08BE00E94760E61E0802F45
:101500000E94760E61E0812F0E94760EF7018081A5
:10151000808360E0812F0E94AF0E60E08BE00E942C
:10152000AF0E81E090E09D838C8318861E861D8619
:10153000DF91CF911F910F91FF90EF900895882731
:1015400077FD8095982F0E94FC159B01AC0160E00F
:1015500074E284E799E40E9461150E94C9157093B2
:101560008900609388000895FC01648375838185F8
:101570000C94AF0E21E0FC012087E0E8F0E0208130
:101580002064208360E0FC0183850C94AF0EFC0195
:101590001086E0E8F0E020812F7B208360E0FC01F2
:1015A00083850C94AF0ECF92DF92EF92FF920F9350
:1015B0001F93CF93DF93EC018B016115710511F43B
:1015C0000E94C70AB801882777FD8095982F0E944E
:1015D000FC1520E030E04AE952E40E94B0166B01AD
:1015E0007C010E94C9157F836E836A817B81882775
:1015F00077FD8095982F0E94FC159B01AC01C701D7
:10160000B6010E94B0160E94C91528EE33E040E0F2
:1016100050E00E94351769E07DE380E090E00E9491
:101620003517CA01B90122E030E040E050E00E94E5
:1016300035173093890020938800DF91CF911F9157
:101640000F91FF90EF90DF90CF900895883008F0D1
:101650006DC0E82FF0E0EE0FFF1FED5DFC4F7183D2
:10166000608390E0FC013197E730F10590F5EE588A
:10167000FF4F0C945417809169008C7F842B8093CA
:101680006900E89A089580916900440F551F440F3E
:10169000551F837F842B80936900E99A0895809178
:1016A000690074E0440F551F7A95E1F78F7C842B15
:1016B00080936900EA9A08958091690066E0440F7A
:1016C000551F6A95E1F78F73842B80936900EB9A1D
:1016D000089580916A008C7F842B80936A00EC9A35
:1016E000089580916A00440F551F440F551F837F52
:1016F000842B80936A00ED9A089580916A0024E01B
:10170000440F551F2A95E1F78F7C842B80936A0044
:10171000EE9A089580916A0096E0440F551F9A95BD
:10172000E1F78F73842B80936A00EF9A08951F92DC
:101730000F920FB60F9211240BB60F922F933F9377
:101740004F935F936F937F938F939F93AF93BF93C9
:10175000EF93FF938091270390912803892B29F021
:10176000E0912703F09128031995FF91EF91BF9124
:10177000AF919F918F917F916F915F914F913F9129
:101780002F910F900BBE0F900FBE0F901F901895CA
:101790001F920F920FB60F9211240BB60F922F9338
:1017A0003F934F935F936F937F938F939F93AF93E9
:1017B000BF93EF93FF938091290390912A03892B84
:1017C00029F0E0912903F0912A031995FF91EF91F7
:1017D000BF91AF919F918F917F916F915F914F9149
:1017E0003F912F910F900BBE0F900FBE0F901F9047
:1017F00018951F920F920FB60F9211240BB60F92ED
:101800002F933F934F935F936F937F938F939F9308
:10181000AF93BF93EF93FF9380912B0390912C0391
:10182000892B29F0E0912B03F0912C031995FF915E
:10183000EF91BF91AF919F918F917F916F915F9148
:101840004F913F912F910F900BBE0F900FBE0F90B5
:101850001F9018951F920F920FB60F9211240BB67E
:101860000F922F933F934F935F936F937F938F9339
:101870009F93AF93BF93EF93FF9380912D0390912C
:101880002E03892B29F0E0912D03F0912E03199559
:10189000FF91EF91BF91AF919F918F917F916F9148
:1018A0005F914F913F912F910F900BBE0F900FBE04
:1018B0000F901F9018951F920F920FB60F92112440
:1018C0000BB60F922F933F934F935F936F937F933A
:1018D0008F939F93AF93BF93EF93FF9380912303D5
:1018E00090912403892B29F0E0912303F0912403A4
:1018F0001995FF91EF91BF91AF919F918F917F913A
:101900006F915F914F913F912F910F900BBE0F9070
:101910000FBE0F901F9018951F920F920FB60F9247
:1019200011240BB60F922F933F934F935F936F93B6
:101930007F938F939F93AF93BF93EF93FF93809188
:10194000250390912603892B29F0E0912503F0913E
:1019500026031995FF91EF91BF91AF919F918F91C0
:101960007F916F915F914F913F912F910F900BBE9F
:101970000F900FBE0F901F9018951F920F920FB6E9
:101980000F9211240BB60F922F933F934F935F93B7
:101990006F937F938F939F93AF93BF93EF93FF9337
:1019A00080912F0390913003892B29F0E0912F0330
:1019B000F09130031995FF91EF91BF91AF919F91F5
:1019C0008F917F916F915F914F913F912F910F90E8
:1019D0000BBE0F900FBE0F901F9018951F920F9285
:1019E0000FB60F9211240BB60F922F933F934F9384
:1019F0005F936F937F938F939F93AF93BF93EF9377
:101A0000FF938091310390913203892B29F0E0916B
:101A10003103F09132031995FF91EF91BF91AF918E
:101A20009F918F917F916F915F914F913F912F91F6
:101A30000F900BBE0F900FBE0F901F9018951F9226
:101A40000F920FB60F9211242F933F938F939F9372
:101A5000AF93BF938091340390913503A0913603E7
:101A6000B09137033091330323E0230F2D3720F457
:101A70000196A11DB11D05C026E8230F0296A11DE8
:101A8000B11D209333038093340390933503A093C7
:101A90003603B09337038091380390913903A091B6
:101AA0003A03B0913B030196A11DB11D8093380309
:101AB00090933903A0933A03B0933B03BF91AF9146
:101AC0009F918F913F912F910F900FBE0F901F907C
:101AD00018952FB7F8946091340370913503809175
:101AE0003603909137032FBF08953FB7F894809144
:101AF000380390913903A0913A03B0913B0326B586
:101B0000A89B05C02F3F19F00196A11DB11D3FBF35
:101B10006627782F892F9A2F620F711D811D911DC5
:101B200042E0660F771F881F991F4A95D1F70895E5
:101B3000CF92DF92EF92FF92CF93DF936B017C0104
:101B40000E94750DEB01C114D104E104F10489F088
:101B50000E94FB140E94750D6C1B7D0B683E734048
:101B600090F381E0C81AD108E108F108C851DC4FB0
:101B7000EACFDF91CF91FF90EF90DF90CF90089563
:101B8000789484B5826084BD84B5816084BD85B558
:101B9000826085BD85B5816085BDEEE6F0E080811F
:101BA00081608083E1E8F0E0108280818260808340
:101BB000808181608083E0E8F0E0808181608083C3
:101BC000E1EBF0E0808184608083E0EBF0E08081F5
:101BD00081608083E1E9F0E08081826080838081A0
:101BE00081608083E0E9F0E0808181608083E1EAC8
:101BF000F0E0808182608083808181608083E0EA80
:101C0000F0E0808181608083E1E2F1E080818260A8
:101C10008083808181608083E0E2F1E08081816067
:101C20008083EAE7F0E08081846080838081826045
:101C3000808380818160808380818068808310922E
:101C4000C100089590E0FC013197E231F10508F000
:101C50004CC0E758FF4F0C945417809180008F7749
:101C600003C0809180008F7D8093800008958091D3
:101C70008000877FF9CF84B58F7702C084B58F7DD0
:101C800084BD08958091B0008F7703C08091B0002B
:101C90008F7D8093B0000895809190008F7707C06A
:101CA000809190008F7D03C080919000877F80930A
:101CB000900008958091A0008F7707C08091A000C8
:101CC0008F7D03C08091A000877F8093A00008953E
:101CD000809120018F7707C0809120018F7D03C004
:101CE00080912001877F809320010895CF93DF9317
:101CF00090E0FC01EC50FE4F2491FC01E65CFD4FAE
:101D00008491882349F190E0880F991FFC01EC54DD
:101D1000FD4FA591B49186569D4FFC01C591D4917C
:101D20009FB7611108C0F8948C91209582238C9301
:101D3000888182230AC0623051F4F8948C91322F4A
:101D4000309583238C938881822B888304C0F894F8
:101D50008C91822B8C939FBFDF91CF9108950F932D
:101D60001F93CF93DF931F92CDB7DEB7282F30E0BC
:101D7000F901E255FE4F8491F901EC50FE4F1491A8
:101D8000F901E65CFD4F04910023C9F0882321F09E
:101D900069830E94220E6981E02FF0E0EE0FFF1FA1
:101DA000E656FD4FA591B4919FB7F8948C916111BF
:101DB00003C01095812301C0812B8C939FBF0F908E
:101DC000DF91CF911F910F910895CF93DF93282F2B
:101DD00030E0F901E255FE4F8491F901EC50FE4FDD
:101DE000D491F901E65CFD4FC491CC2391F08111AF
:101DF0000E94220EEC2FF0E0EE0FFF1FE058FD4F87
:101E0000A591B4912C912D2381E090E021F480E004
:101E100002C080E090E0DF91CF910895FC01818DB8
:101E2000228D90E0805C9F4F821B91098F739927D0
:101E30000895FC01918D828D981731F0828DE80F05
:101E4000F11D858D90E008958FEF9FEF0895FC01BF
:101E5000918D828D981761F0828DDF01A80FB11DE1
:101E60005D968C91928D9F5F9F73928F90E0089505
:101E70008FEF9FEF089582EE90E1892B41F080E093
:101E800090E0892B21F00E94E210811125C080E0B2
:101E900090E0892B41F080E090E0892B21F00E94B6
:101EA000000081111CC080E090E0892B41F080E0AF
:101EB00090E0892B21F00E940000811113C08FE86F
:101EC00091E1892BA1F080E090E0892B81F00E94C4
:101ED0008F1181110AC008950E940000D8CF0E947E
:101EE0000000E1CF0E940000EACF0C9400000895AA
:101EF000FC01848DDF01A80FB11DA35ABF4F2C91A7
:101F0000848D90E001968F739927848FA689B78975
:101F10002C93A089B1898C9180648C93938D848D4E
:101F2000981306C00288F389E02D80818F7D80831D
:101F30000895CF93DF93EC01888D8823C9F0EA8957
:101F4000FB89808185FD05C0A889B9898C9186FDB2
:101F50000FC00FB607FCF5CF808185FFF2CFA889AF
:101F6000B9898C9185FFEDCFCE010E94780FE7CF24
:101F7000DF91CF910895CF92DF92FF920F931F933D
:101F8000CF93DF931F92CDB7DEB76C01DC015B9678
:101F90009C915B975C968C915C97981307C05096C8
:101FA000ED91FC915197808185FD32C0F601038D42
:101FB00010E00F5F1F4F0F731127F02EF601848D75
:101FC000F81211C00FB607FCF9CFD6015096ED916B
:101FD000FC915197808185FFF1CFC60169830E94F2
:101FE000780F6981EBCF838DE80FF11DE35AFF4F26
:101FF0006083D6015B960C935B975296ED91FC91B2
:10200000539780818062808381E058968C930DC0C5
:10201000D6015696ED91FC91579760835096ED91BD
:10202000FC91519780818064808381E090E00F90E3
:10203000DF91CF911F910F91FF90DF90CF90089586
:10204000BF92CF92DF92EF92FF92CF93DF93EC019A
:102050006A017B01B22EE889F98982E0808341150B
:1020600081EE580761057105A1F060E079E08DE32C
:1020700090E0A70196010E941317215031094109F0
:1020800051095695479537952795211580E13807D1
:1020900098F0E889F989108260E874E88EE190E0B0
:1020A000A70196010E9413172150310941095109D6
:1020B0005695479537952795EC85FD853083EE85B8
:1020C000FF852083188EEC89FD89B082EA89FB891F
:1020D000808180618083EA89FB8980818860808338
:1020E000EA89FB89808180688083EA89FB89808115
:1020F0008F7D8083DF91CF91FF90EF90DF90CF9025
:10210000BF9008951F920F920FB60F9211240BB635
:102110000F922F938F939F93EF93FF93E0914C0334
:10212000F0914D038081E0915203F091530382FDC1
:1021300012C09081809155038F5F8F732091560359
:10214000821751F0E0915503F0E0E45CFC4F958F6D
:102150008093550301C08081FF91EF919F918F91F2
:102160002F910F900BBE0F900FBE0F901F901895E0
:102170001F920F920FB60F9211240BB60F922F934E
:102180003F934F935F936F937F938F939F93AF93FF
:10219000BF93EF93FF938CE393E00E94780FFF913E
:1021A000EF91BF91AF919F918F917F916F915F91CF
:1021B0004F913F912F910F900BBE0F900FBE0F903C
:1021C0001F9018958CE393E00E940E0F21E0892B5D
:1021D00009F420E0822F089510923F0310923E03ED
:1021E00088EE93E0A0E0B0E0809340039093410339
:1021F000A0934203B093430384EE92E090933D0397
:1022000080933C0385EC90E09093490380934803CE
:1022100084EC90E090934B0380934A0380EC90E031
:1022200090934D0380934C0381EC90E090934F0387
:1022300080934E0382EC90E090935103809350037F
:1022400086EC90E0909353038093520310925503D1
:1022500010925603109257031092580308951F923C
:102260000F920FB60F9211240BB60F922F938F93EC
:102270009F93EF93FF93E091E903F091EA0380814C
:10228000E091EF03F091F00382FD12C09081809104
:10229000F2038F5F8F732091F303821751F0E09167
:1022A000F203F0E0E752FC4F958F8093F20301C0F8
:1022B0008081FF91EF919F918F912F910F900BBE95
:1022C0000F900FBE0F901F9018951F920F920FB690
:1022D0000F9211240BB60F922F933F934F935F935E
:1022E0006F937F938F939F93AF93BF93EF93FF93DE
:1022F00089ED93E00E94780FFF91EF91BF91AF912C
:102300009F918F917F916F915F914F913F912F910D
:102310000F900BBE0F900FBE0F901F90189589ED78
:1023200093E00E940E0F21E0892B09F420E0822F18
:1023300008951092DC031092DB0388EE93E0A0E096
:10234000B0E08093DD039093DE03A093DF03B093AE
:10235000E00384EE92E09093DA038093D90385E35F
:1023600091E09093E6038093E50384E391E09093FA
:10237000E8038093E70380E391E09093EA0380937E
:10238000E90381E391E09093EC038093EB0382E314
:1023900091E09093EE038093ED0386E391E09093B8
:1023A000F0038093EF031092F2031092F303109264
:1023B000F4031092F503089508950E94C00D0E9441
:1023C000DC110E942D02CBE3DFE00E94380220974F
:1023D000E1F30E943B0FF9CFCF92DF92EF92FF9291
:1023E0000F931F93CF93DF936C017A01EB01E60EFD
:1023F000F71E00E010E0CE15DF0561F06991D6010F
:10240000ED91FC910190F081E02DC6011995080F26
:10241000191FF1CFC801DF91CF911F910F91FF904C
:10242000EF90DF90CF9008956115710581F0DB0189
:102430000D900020E9F7AD0141505109461B570BA3
:10244000DC01ED91FC910280F381E02D199480E094
:1024500090E00895DC01ED91FC91DB0114964D9123
:102460005C9115976D917C910280F381E02D199418
:102470000C941412DC01ED91FC910190F081E02D9F
:1024800019940F931F93CF93DF93EC016DE00E949B
:102490003A128C016AE0CE010E943A12800F911F1D
:1024A000DF91CF911F910F9108950F931F93CF93B9
:1024B000DF93EC010E942A128C01CE010E9441128E
:1024C000800F911FDF91CF911F910F9108950F936E
:1024D0001F93CF93DF93EC010E9414128C01CE0165
:1024E0000E944112800F911FDF91CF911F910F9198
:1024F00008958F929F92AF92BF92CF92DF92EF9208
:10250000FF920F931F93CF93DF93CDB7DEB7A197C1
:102510000FB6F894DEBF0FBECDBF7C01C42EE52FF1
:10252000CB01D22E19A221E02D1510F02AE0D22ED7
:102530008E010F5D1F4F8D2C912CA12CB12C6C2D79
:102540007E2FA50194010E9413178C2DD29E801915
:102550001124015011098A3014F4805D01C0895C96
:10256000F8018083211531054105510521F0C22E66
:10257000E32FCA01E4CFB801C7010E941412A1964B
:102580000FB6F894DEBF0FBECDBFDF91CF911F9184
:102590000F91FF90EF90DF90CF90BF90AF909F9002
:1025A0008F900895CF92DF92EF92FF920F931F9337
:1025B000CF93DF93EC016A017B012115310579F49A
:1025C000E881F9810190F081E02D642FDF91CF91B6
:1025D0001F910F91FF90EF90DF90CF9019942A30C8
:1025E0003105E9F477FF1AC06DE20E943A128C01BE
:1025F00044275527BA014C195D096E097F092AE065
:10260000CE010E947912800F911FDF91CF911F910F
:102610000F91FF90EF90DF90CF9008952AE0B701DF
:10262000A601CE01DF91CF911F910F91FF90EF9006
:10263000DF90CF900C9479120F931F93CF93DF9379
:10264000EC019A01AB01662757FD6095762F0E9439
:10265000D2128C01CE010E944112800F911FDF9196
:10266000CF911F910F910895FC01808191810C946D
:10267000F617CF93DF93EC0188819981009711F0D1
:102680000E94F617198218821D821C821B821A82F0
:10269000DF91CF9108950F931F93CF93DF93EC01B8
:1026A0008B016F5F7F4F888199810E948518009709
:1026B00031F0998388831B830A8381E001C080E025
:1026C000DF91CF911F910F910895CF93DF93EC018C
:1026D00088819981892B29F08A819B8186179707A8
:1026E00060F4CE010E944B13882341F08C819D81C0
:1026F000892B19F4E881F981108281E0DF91CF9173
:102700000895EF92FF920F931F93CF93DF93EC0105
:102710007B018A01BA010E946513811104C0CE01B8
:102720000E94391307C01D830C83B70188819981EA
:102730000E949E19CE01DF91CF911F910F91FF90C2
:10274000EF900895FC01118210821382128215828B
:1027500014826115710559F0FB0101900020E9F721
:10276000AF0141505109461B570B0C94811308953A
:10277000CF93DF93EC01FB018617970761F060812F
:1027800071816115710529F0448155810E94811381
:1027900002C00E943913CE01DF91CF910895CF93EB
:1027A000DF93EC016115710561F0FB0101900020E0
:1027B000E9F7AF0141505109461B570B0E948113A5
:1027C00002C00E943913CE01DF91CF910895CF93BB
:1027D000DF931F921F92CDB7DEB7FC0111821082EA
:1027E000138212821582148269831A82BE016F5F7E
:1027F0007F4F0E94CF130F900F90DF91CF910895DC
:102800000F931F93CF93DF93CDB7DEB762970FB6C9
:10281000F894DEBF0FBECDBF8C01CB01F801118251
:102820001082138212821582148250E0BE016F5F03
:102830007F4F0E94A519BE016F5F7F4FC8010E94A4
:10284000CF1362960FB6F894DEBF0FBECDBFDF91F7
:10285000CF911F910F910895EF92FF920F931F93C5
:10286000CF93DF93EC017B010C811D816115710514
:1028700011F480E016C04115510591F0040F151FA9
:10288000B8010E9465138823A1F3288139818C81C6
:102890009D81B701820F931F0E949E191D830C8397
:1028A00081E0DF91CF911F910F91FF90EF900895FC
:1028B000CF93DF931F921F92CDB7DEB769831A8241
:1028C00041E050E0BE016F5F7F4F0E942C140F90DB
:1028D0000F90DF91CF910895CF93DF93EC01FB012F
:1028E00044815581608171810E942C14811103C043
:1028F000CE010E943913CE01DF91CF910895CF937D
:10290000DF93EC016115710569F0FB010190002076
:10291000E9F7AF0141505109461B570B0E942C1497
:10292000811103C0CE010E943913CE01DF91CF91F6
:102930000895FC01848195816817790720F48081CE
:102940009181009729F41092760486E794E0089527
:10295000860F971F0895BF92CF92DF92EF92FF925A
:102960000F931F93CF93DF936C017B01EA018901E1
:102970002417350720F48D2FE901042F182F67EB5A
:1029800072E0C6010E94A213D70114968D919C910A
:102990001597C817D907C8F48017910708F48C0158
:1029A000D701ED91FC911197E00FF11FB0801082DB
:1029B0006D917C916C0F7D1FC6010E94CF13D701D2
:1029C000ED91FC91E00FF11FB082C601DF91CF9134
:1029D0001F910F91FF90EF90DF90CF90BF900895DF
:1029E000FC0180819181009711F00C946E1960E0D8
:1029F00070E0CB01089508955058BB27AA270ED048
:102A000071C162D130F067D120F031F49F3F11F4F1
:102A10001EF457C10EF4E095E7FB4DC1E92F73D1C9
:102A200080F3BA17620773078407950718F071F4EB
:102A30009EF58BC10EF4E0950B2EBA2FA02D0B0145
:102A4000B90190010C01CA01A0011124FF27591BF3
:102A500099F0593F50F4503E68F11A16F040A22FF9
:102A6000232F342F4427585FF3CF4695379527956A
:102A7000A795F0405395C9F77EF41F16BA0B620B69
:102A8000730B840BBAF09150A1F0FF0FBB1F661FB0
:102A9000771F881FC2F70EC0BA0F621F731F841FF3
:102AA00048F4879577956795B795F7959E3F08F019
:102AB000B3CF9395880F08F09927EE0F97958795D8
:102AC00008950CD00FC107D140F0FED030F021F4B2
:102AD0005F3F19F0F0C0511139C1F3C014D198F320
:102AE0009923C9F35523B1F3951B550BBB27AA278F
:102AF00062177307840738F09F5F5F4F220F331F01
:102B0000441FAA1FA9F333D00E2E3AF0E0E830D0CC
:102B100091505040E695001CCAF729D0FE2F27D0CF
:102B2000660F771F881FBB1F261737074807AB079D
:102B3000B0E809F0BB0B802DBF01FF2793585F4F12
:102B40002AF09E3F510568F0B6C000C15F3FECF32C
:102B5000983EDCF3869577956795B795F7959F5FD7
:102B6000C9F7880F911D9695879597F90895E1E02B
:102B7000660F771F881FBB1F621773078407BA078A
:102B800020F0621B730B840BBA0BEE1F88F7E095E5
:102B9000089504D06894B111D9C00895BCD088F0CC
:102BA0009F5790F0B92F9927B751A0F0D1F0660F39
:102BB000771F881F991F1AF0BA95C9F712C0B13054
:102BC00081F0C3D0B1E00895C0C0672F782F882767
:102BD000B85F39F0B93FCCF3869577956795B39593
:102BE000D9F73EF490958095709561957F4F8F4F02
:102BF0009F4F0895E89409C097FB3EF49095809507
:102C0000709561957F4F8F4F9F4F9923A9F0F92FB2
:102C100096E9BB279395F695879577956795B79530
:102C2000F111F8CFFAF4BB0F11F460FF1BC06F5F16
:102C30007F4F8F4F9F4F16C0882311F096E911C028
:102C4000772321F09EE8872F762F05C0662371F049
:102C500096E8862F70E060E02AF09A95660F771F5D
:102C6000881FDAF7880F9695879597F90895990F39
:102C70000008550FAA0BE0E8FEEF16161706E80746
:102C8000F907C0F012161306E407F50798F0621B67
:102C9000730B840B950B39F40A2661F0232B242B3C
:102CA000252B21F408950A2609F4A140A6958FEF5B
:102CB000811D811D089597F99F6780E870E060E0AD
:102CC00008959FEF80EC089500240A9416161706C5
:102CD00018060906089500240A941216130614060D
:102CE00005060895092E0394000C11F4882352F070
:102CF000BB0F40F4BF2B11F460FF04C06F5F7F4F28
:102D00008F4F9F4F089557FD9058440F551F59F00E
:102D10005F3F71F04795880F97FB991F61F09F3FC8
:102D200079F087950895121613061406551FF2CFF1
:102D30004695F1DF08C0161617061806991FF1CF41
:102D400086957105610508940895E894BB27662768
:102D50007727CB0197F908958ADF08F48FEF08955C
:102D60000BD0C0CFB1DF28F0B6DF18F0952309F003
:102D7000A2CFA7CF1124EACFC6DFA0F3959FD1F34E
:102D8000950F50E0551F629FF001729FBB27F00D19
:102D9000B11D639FAA27F00DB11DAA1F649F66276E
:102DA000B00DA11D661F829F2227B00DA11D621FBD
:102DB000739FB00DA11D621F839FA00D611D221F77
:102DC000749F3327A00D611D231F849F600D211D5B
:102DD000822F762F6A2F11249F5750408AF0E1F0FE
:102DE00088234AF0EE0FFF1FBB1F661F771F881F47
:102DF00091505040A9F79E3F510570F05CCFA6CF8F
:102E00005F3FECF3983EDCF3869577956795B79531
:102E1000F795E7959F5FC1F7FE2B880F911D96955B
:102E2000879597F90895A1E21A2EAA1BBB1BFD01F5
:102E30000DC0AA1FBB1FEE1FFF1FA217B307E40799
:102E4000F50720F0A21BB30BE40BF50B661F771FF1
:102E5000881F991F1A9469F76095709580959095D1
:102E60009B01AC01BD01CF010895052E97FB1EF417
:102E700000940E944C1757FD07D00E94131707FCBF
:102E800003D04EF40C944C175095409530952195F5
:102E90003F4F4F4F5F4F0895909580957095619586
:102EA0007F4F8F4F9F4F0895EE0FFF1F0590F491B6
:102EB000E02D19940790F691E02D1994CF93DF93AC
:102EC0008230910510F482E090E0E0917904F09175
:102ED0007A0420E030E0A0E0B0E0309739F14081A2
:102EE000518148175907B8F04817590771F4828182
:102EF0009381109729F013969C938E9312972CC070
:102F000090937A048093790427C02115310531F01C
:102F10004217530718F0A901DB0101C0EF019A0124
:102F2000BD01DF010280F381E02DD7CF21153105EE
:102F3000F9F0281B390B2430310580F48A819B81FC
:102F40006115710521F0FB019383828304C0909386
:102F50007A0480937904FE01329644C0FE01E20FA8
:102F6000F31F8193919322503109398328833AC00A
:102F70002091770430917804232B41F420910202B0
:102F8000309103023093780420937704209100025B
:102F9000309101022115310541F42DB73EB7409122
:102FA000040250910502241B350BE0917704F09147
:102FB0007804E217F307A0F42E1B3F0B28173907FC
:102FC00078F0AC014E5F5F4F2417350748F04E0F85
:102FD0005F1F50937804409377048193919302C0CC
:102FE000E0E0F0E0CF01DF91CF910895CF93DF9340
:102FF000009709F487C0FC01329713821282C091B6
:103000007904D0917A04209781F420813181280FAE
:10301000391F80917704909178048217930779F58E
:10302000F0937804E09377046DC0DE0120E030E097
:10303000AE17BF0750F412964D915C9113979D0106
:103040004115510509F1DA01F3CFB383A283408121
:103050005181840F951F8A179B0771F48D919C9164
:103060001197840F951F02969183808312968D91FC
:103070009C911397938382832115310529F4F09352
:103080007A04E09379043EC0D9011396FC93EE9341
:1030900012974D915D91A40FB51FEA17FB0779F4C4
:1030A00080819181840F951F0296D90111969C937E
:1030B0008E938281938113969C938E931297E0E076
:1030C000F0E08A819B81009719F0FE01EC01F9CFB5
:1030D000CE01029628813981820F931F20917704B7
:1030E000309178042817390769F4309729F4109241
:1030F0007A041092790402C013821282D093780469
:10310000C0937704DF91CF9108956F927F928F9251
:103110009F92AF92BF92CF92DF92EF92FF920F9366
:103120001F93CF93DF93EC01CB01209781F4DF91C4
:10313000CF911F910F91FF90EF90DF90CF90BF90B4
:10314000AF909F908F907F906F900C945E17FE01D0
:10315000E60FF71F9E0122503109E217F30708F42A
:10316000ACC0D9010D911C91119706171707B8F043
:103170000530110508F49FC0A801445051094617B5
:10318000570708F498C002501109061B170B01934A
:1031900011936D937C93CF010E94F6178CC05B0155
:1031A000A01AB10A4E01800E911EA0917904B0912F
:1031B0007A04612C712C60E070E0109709F449C02A
:1031C000A815B905C9F5ED90FC901197670142E08B
:1031D000C40ED11CCA14DB0478F147018A189B087D
:1031E000640142E0C40ED11C1296BC901297139653
:1031F000AC91B5E0CB16D10440F0B282A3839182AA
:103200008082D9018D939C9309C00E5F1F4F0E0DD4
:103210001F1DF90111830083EB2DFA2F6115710534
:1032200031F0DB011396FC93EE93129744C0F093B8
:103230007A04E09379043FC06D917C9111976616F2
:10324000770608F43B01BD0112960D90BC91A02DAC
:10325000B4CF609177047091780468157905E9F42A
:1032600068167906D0F44091000250910102411590
:10327000510541F44DB75EB76091040270910502AB
:10328000461B570BE417F507C0F4F0937804E0935E
:103290007704F901918380830EC00E945E177C0140
:1032A000009759F0A801BE010E949519CE010E9415
:1032B000F617C70104C0CE0102C080E090E0DF91A4
:1032C000CF911F910F91FF90EF90DF90CF90BF9023
:1032D000AF909F908F907F906F9008951F93FC0107
:1032E00099278827BC01E89411911032E9F319302D
:1032F00010F01E30C8F31B3251F01D3249F46894AF
:1033000006C00E94BB19610F711D811D911D119195
:1033100010531A30B0F33EF49095809570956195F6
:103320007F4F8F4F9F4F1F910895FB01DC0102C01B
:1033300001900D9241505040D8F70895FB01DC01F7
:1033400001900D920020E1F708954532510520F4D7
:10335000423010F00C94B019FB011082CB0108959B
:10336000BB274A3031F4992322F4BDE29095819530
:103370009F4F0C94D119592F482F372F262F660FA6
:10338000771F881F991F660F771F881F991F620F6D
:10339000731F841F951F660F771F881F991F08953D
:1033A000BB27FB015527AA27880F991FAA1FA4171F
:1033B00010F0A41B83955051B9F7A05DAA3308F013
:1033C000A95DA193009779F7B111B1931192CB0147
:1033D0000C94EA19DC01FC01672F71917723E1F766
:1033E000329704C07C916D9370836291AE17BF07D2
:1033F000C8F3089512E0C4EDD2E000E006C02297C1
:103400000109FE010BBF0E945A17C63DD10780E09B
:083410000807A9F7F894FFCFAB
:1034180000007B04800024415000244446303000E2
:103428002444463000244446004465706C6F796932
:103438006E67205465746865720044726976696EB7
:10344800670053706F6F6C696E672052656D6169B4
:103458006E646572002444445000244454470A00B2
:10346800546574686572204465706C6F7965640092
:10347800244454530A0043522053746F7070656497
:1034880000435220496E20526576657273650024A8
:10349800445452410A00244454500A0024445446D7
:1034A8000A0024523050002452300A0052657365D5
:1034B8006E64696E6720636F6D6D616E6420746FF2
:1034C8002043522E2E2E0A004661696C65642074D2
:1034D8006F20636F6D6D756E6963617465207769C0
:1034E80074682043520024523046002453500A0086
:1034F80000000000BB0FEC110E0F270F190F990FDA
:00000001FF
