:100000000C946B010C94390C0C946A0C0C949B0CA2
:100010000C94CC0C0C94FD0C0C942E0D0C945F0DD8
:100020000C94900D0C949C010C949C010C949C01DC
:100030000C949C010C949C010C949C010C949C01CC
:100040000C949C010C94F3030C949C010C949C0163
:100050000C949C010C949C010C949C010C94C10D7B
:100060000C949C010C9424110C945A110C949C0136
:100070000C949C010C949C010C949C010C949C018C
:100080000C949C010C949C010C949C010C94C50351
:100090000C949C010C949C010C949C010C949C016C
:1000A0000C949C010C949C010C949C010C949C015C
:1000B0000C949C010C949C010C949C010C949C014C
:1000C0000C949C010C949C010C949C010C949C013C
:1000D0000C949C010C949C010C94D1110C9407126B
:1000E0000C949C01130CDD0BE50BF10BFE0B1F0CAC
:1000F0002C0CDD0EE00ECF0ED30ED90E170FE40E32
:10010000E80EEE0EF20EF60EFC0E000F040F170FA7
:100110000A0F0E0F120F0C94130C0C94F20E0C9489
:1001200029020C9409040C94000F0C942C0C0C94D0
:10013000DD0E0C948E110C94E40E0C94F10B0C94C7
:10014000E80E0C94FE0B0C94FD030C94170F0C940A
:100150000A0F0C9484110C945D100C948E120C9464
:100160003B100C94E50B0C94BB0F0C94DD0B0C9422
:10017000B00F0C941F0C0C94E00E0C940E0F0C940A
:100180003B120C94C90F0C94DD0F0C94D90E0C94F7
:10019000040F0C94FC0E0C94CF0E0C94F60E0C94E1
:1001A000D30E0C94120F0C9431120C94EE0E00002E
:1001B0000A0B02090C0D0E080703040100000000E1
:1001C000000000000000000000000000000000002F
:1001D00000000000000000000000121110000000EC
:1001E000000000000000000000000000000000000F
:1001F00000000000010210202008081020401020FC
:1002000040800201020108040201010204081020DA
:1002100040808040201008040201800402018040D8
:100220002010080402010804020101020408102041
:1002300040800102040810204080050505050705DF
:1002400008080808020202020A0A08080404040452
:10025000010101010101010103030303030303037E
:10026000040707070C0C0C0C0C0C0C0C020202020D
:1002700006060606060606060B0B0B0B0B0B0B0BF6
:10028000000020002300260029002C002F0032004F
:100290000001000003010601090100002200250001
:1002A00028002B002E00310034000201000005015F
:1002B00008010B0100002100240027002A002D0066
:1002C0003000330001010000040107010A01FD03B1
:1002D0008E113B12090411241FBECFEFD1E2DEBF05
:1002E000CDBF00E00CBF13E0A0E0B2E0ECE5F5E329
:1002F00000E00BBF02C007900D92AE35B107D9F7F1
:1003000024E0AEE5B3E001C01D92A93EB207E1F7DB
:1003100012E0C4EDD2E000E006C022970109FE0120
:100320000BBF0E94FC17CE3CD10780E00807A9F75D
:100330000E947F120C949C1A0C940000EF92FF9282
:100340000F931F93CF93DF931F92CDB7DEB77C013E
:10035000FC01718360835383428326873787048738
:100360001587148215821682178260E0802F2983F8
:100370000E94180F61E0802F0E94510F60E02981D8
:10038000822F0E94180FF701108A0F90DF91CF91F2
:100390001F910F91FF90EF900895FC018089448197
:1003A000558166817781882329F04150510961097F
:1003B000710904C04F5F5F4F6F4F7F4F4483558378
:1003C000668377830895CF92DF92EF92FF92CF9367
:1003D000DF93EC016C817D818E819F810E949E164E
:1003E0009B01AC010E949F152BED3FE049E450E4D6
:1003F0000E9452176B017C016A817B81882777FDFF
:100400008095982F0E949E169B01AC01C701B601F2
:100410000E94031620E030E04AE952E40E940316ED
:1004200023E333E343E950E40E9452170E946B1622
:10043000CB01DF91CF91FF90EF90DF90CF900895A7
:10044000FC0164817581868197810895FC01608B30
:1004500008958EE593E00C94C2038EE593E00E942C
:100460003C0242E050E069E272E082E00C94C80B8A
:100470008EE593E00C949F0A0F931F93CF93DF9325
:10048000EC0161E08DE00E94180F10929000E1E90C
:10049000F0E01082109295001092940080818460A8
:1004A0008083E1E7F0E080818160808329E030E0B3
:1004B0004AE050E061E070E082E893E00E94E50AE3
:1004C00005E110E02EE130E04CE251E062E070E046
:1004D000CE010E960E949E0119A218A21BA21AA27A
:1004E00026E040E052EC61E070E08AEA93E00E948E
:1004F000C21026E040E052EC61E070E087E494E056
:100500000E94C2101E8262ED72E0CE010E94711440
:100510001D8662ED72E0CE0107960E94711480E3A1
:100520008F8FDF91CF911F910F910895EF92FF92DE
:100530000F931F93CF93DF938C017B01EC012E96D9
:10054000CE010E94E301F80193A382A3E80EF91EF5
:1005500060E0CE010E94260260E070E082E893E055
:100560000E94560B68E57BE182E893E00E94410B14
:1005700082E893E00E945C0BF80182A193A18E15A2
:100580009F0584F464E670E080E090E00E943A0EFB
:10059000CE010E942002CE010E94E301F80193A344
:1005A00082A3EACFCE010E94200282E893E0DF918D
:1005B000CF911F910F91FF90EF900C94690BEF92E8
:1005C000FF920F931F93CF93DF93EC017B018C017C
:1005D000025F1F4FC8010E94E3019BA38AA39C01F5
:1005E0002E193F09790161E070E082E893E00E94F2
:1005F000560B61E0C8010E94260268E57BE182E8B3
:1006000093E00E94410B82E893E00E945C0B8AA178
:100610009BA1E816F906BCF4C8010E94E3019BA364
:100620008AA364E670E080E090E00E943A0E8AA11E
:100630009BA18E3691055CF760ED77E082E893E050
:100640000E94410BE4CF82E893E0DF91CF911F91AC
:100650000F91FF90EF900C94690B0F931F93CF9322
:10066000DF938B0164EF71E080E090E00E943A0E2E
:10067000C0E0D0E0C017D10704F560E08DE00E9433
:10068000510F6AEF70E080E090E00E943A0E61E066
:100690008DE00E94510F6AEF70E080E090E00E94D0
:1006A0003A0E60E08DE00E94510F6AEF70E080E04A
:1006B00090E00E943A0E2196DDCFDF91CF911F91FD
:1006C0000F910895CF92DF92EF92FF920F931F93B5
:1006D000CF93DF93CDB7DEB72C970FB6F894DEBF7C
:1006E0000FBECDBF8C0162ED72E0CE0107960E9475
:1006F000441463E070E0C8010E942D0327E030E05D
:1007000044E050E0B801CE0101960E944D15BE01B3
:100710006F5F7F4FCE0107960E945A14CE0101965B
:100720000E94D613CE0107960E9492156B017C01A0
:1007300063E070E0C8010E943B15FC018081B601B6
:100740008B3221F4C8010E94960203C0C8010E94A6
:10075000DF0266E072E08AEA93E00E940913CE01AC
:1007600007960E94D6132C960FB6F894DEBF0FBEE4
:10077000CDBFDF91CF911F910F91FF90EF90DF9050
:10078000CF9008950E960C94CD011F920F920FB644
:100790000F9211240BB60F922F933F934F935F93B9
:1007A0006F937F938F939F93AF93BF93EF93FF9339
:1007B0008DE00E94870F61E068278DE00E94510F55
:1007C000FF91EF91BF91AF919F918F917F916F9129
:1007D0005F914F913F912F910F900BBE0F900FBEE5
:1007E0000F901F9018951F920F920FB60F92112421
:1007F0000F900FBE0F901F90189562ED72E08EE57E
:1008000093E00E94441462ED72E085E693E00C945C
:10081000441485E693E00E94D6138EE593E00C9491
:10082000D613EF92FF920F931F93CF93DF93CDB721
:10083000DEB72D970FB6F894DEBF0FBECDBF8C018B
:1008400062ED72E0CE0107960E94441462E070E00F
:10085000C8010E943B15FC0120817801F7E0EF0EF2
:10086000F11C62ED72E0C7012D870E9471142D8585
:100870002C3449F1223509F44EC0223409F4A1C0C8
:1008800026E030E043E050E0B801CE0101960E943E
:100890004D15BE016F5F7F4FCE0107960E945A141F
:1008A000CE0101960E94D613CE0107960E949215A2
:1008B000695F7F4FC8010E949602B80187E494E007
:1008C0000E94CC1249C0B80187E494E00E94CC1287
:1008D00087E494E00E94B00F892BD1F365E070E0CB
:1008E00080E090E00E943A0E87E494E00E94B00F0E
:1008F000181619064CF487E494E00E94C90F682F7B
:10090000C7010E94FA14F0CF6AE072E08AEA93E02D
:100910000E94DA1256C0B80187E494E00E94CC121B
:1009200087E494E00E94B00F892BD1F365E070E07A
:1009300080E090E00E943A0E87E494E00E94B00FBD
:10094000181619060CF787E494E00E94C90F682F67
:10095000C7010E94FA14F0CF87E494E00E94B00F20
:10096000892BD1F369E170E080E090E00E943A0EBB
:1009700001E087E494E00E94B00F18161906CCF746
:1009800087E494E00E94C90F182F682F843239F051
:10099000002329F08AEA93E00E94DC12EACFC70123
:1009A0000E94FA141A3059F4B7018AEA93E00E94BF
:1009B000CC1262ED72E0C7010E94711402C000E027
:1009C000D8CFCE0107960E94D6132D960FB6F89475
:1009D000DEBF0FBECDBFDF91CF911F910F91FF9072
:1009E000EF9008950F931F93CF93DF93CDB7DEB7AA
:1009F00062970FB6F894DEBF0FBECDBF8A014AE002
:100A0000CE010D960E94A21462ED72E0CE0107960F
:100A10000E94441489899A898330910519F46FE002
:100A200072E007C0029719F465E172E002C06AE162
:100A300072E0CE0101960E944414BE01635F7F4FB5
:100A4000CE0101960E940E15B8010E940E1561EDAF
:100A500072E00E942115BC01CE0107960E945A1433
:100A6000CE0101960E94D613BE01695F7F4F87E4D5
:100A700094E00E94CC1287E494E00E94B00F892B8E
:100A8000D1F369E170E080E090E00E943A0E10E05E
:100A900087E494E00E94B00F1816190644F487E426
:100AA00094E00E94C90F843299F711E0F1CF11232D
:100AB00011F3CE0107960E94D613CE010D960E9427
:100AC000D61362960FB6F894DEBF0FBECDBFDF918E
:100AD000CF911F910F910895EF92FF920F931F9363
:100AE000CF93DF9300D000D0CDB7DEB78C017C016F
:100AF0008EE0E80EF11CC7010E94E301C29724F5C5
:100B00006EE172E08AEA93E00E94091367E070E008
:100B1000C8010E9496026FE272E08AEA93E00E94A6
:100B200009136FEE72E0CE0101960E944414AE01EB
:100B30004F5F5F4F65E070E0C8010E94F204CE0194
:100B400001960E94D613D7CF67E372E08AEA93E05A
:100B50000E9409136DE270E0C8010E9496026AE4E7
:100B600072E08AEA93E00E94091326960FB6F89481
:100B7000DEBF0FBECDBFDF91CF911F910F91FF90D0
:100B8000EF9008954F925F926F927F928F929F9213
:100B9000AF92BF92DF92EF92FF920F931F93CF938A
:100BA000DF93CDB7DEB768970FB6F894DEBF0FBE00
:100BB000CDBF8C016FE472E08AEA93E00E940913D2
:100BC00062ED72E0CE0143960E94441462ED72E041
:100BD000CE010D960E9444146BE672E0CE0107969A
:100BE0000E94441460E070E082E893E00E94560B9B
:100BF00068E57BE182E893E00E94410B82E893E0A4
:100C00000E945C0B60E772E08AEA93E00E9409139D
:100C100066E872E087E494E00E94DA1287E494E0E8
:100C20000E94B00F892BD1F365E070E080E090E086
:100C30000E943A0EC80107967C0187E494E00E9466
:100C4000B00F18161906D4F487E494E00E94C90F77
:100C5000D82E682FCE0101960E948914BE016F5FC5
:100C60007F4F8AEA93E00E94F712CE0101960E941C
:100C7000D6136D2DC7010E94FA14DFCF6BE872E026
:100C80008AEA93E00E94091326E030E043E050E056
:100C9000B701CE0101960E944D15BE016F5F7F4FD7
:100CA000CE010D960E945A14CE0101960E94D613D1
:100CB000CE010D960E949215F80171A360A3B701B1
:100CC0008AEA93E00E94CC1262ED72E0C7010E94B2
:100CD000711462EA72E08AEA93E00E940913DD244B
:100CE000D394F80180A191A146970CF4C7C08091DC
:100CF00080008F7B8093800066E872E087E494E058
:100D00000E94DA12809180008064809380000E94AB
:100D10000B0E2B013C01A12CB12C87E494E00E9426
:100D2000B00F892B89F50E940B0E6419750986098D
:100D3000970969387341810591057CF367EB72E08F
:100D40008AEA93E00E94DA122FEFA21AB20AF8940C
:100D500066E872E087E494E00E94DA1278940E94D8
:100D60000B0E2B013C0184E0A816B104B1F663ED33
:100D700072E08AEA93E00E94091361EF72E0CE010B
:100D800007960E9471147AC069E170E080E090E0FB
:100D90000E943A0E87E494E00E94B00F18161906DC
:100DA0007CF487E494E00E94C90FB82E682FC70135
:100DB0000E94FA149AE0B912EDCFF801D586EACF75
:100DC000789426E030E043E050E0B701CE01019690
:100DD0000E944D15BE016F5F7F4FCE010D960E94A0
:100DE0005A14CE0101960E94D61362ED72E0C7013B
:100DF0000E947114CE010D960E949215F80171A304
:100E000060A34AE050E08AEA93E00E94BE13F80132
:100E100060A171A1653171053CF460E971E082E87F
:100E200093E00E94750B2AC065517109882777FDF0
:100E30008095982F0E949E164B015C0120E030E0C7
:100E400040EA51E40E944E1718161CF468E57BE155
:100E500010C020E030E045EA53E4C501B4010E942F
:100E6000521720E030E048EC53E40E949F150E94A6
:100E70006B1682E893E00E94410B33CF82E893E047
:100E80000E94690B67E070E0C8010E949602BE01F3
:100E9000695F7F4F8AEA93E00E94F712CE010796BE
:100EA0000E94D613CE010D960E94D613CE01439612
:100EB0000E94D61368960FB6F894DEBF0FBECDBF62
:100EC000DF91CF911F910F91FF90EF90DF90BF9036
:100ED000AF909F908F907F906F905F904F9008950C
:100EE0000F931F93CF93DF9300D000D0CDB7DEB721
:100EF0008C0166EF72E087E494E00E94DA126FE200
:100F000072E08AEA93E00E94091387E494E00E9469
:100F1000B00F892BD1F36AE070E080E090E00E948E
:100F20003A0E87E494E00E94B00F18161906ACF44C
:100F300087E494E00E94C90F682FCE0101960E94B9
:100F40008914BE016F5F7F4F8AEA93E00E94F71217
:100F5000CE0101960E94D613E4CF6EE172E08AEAD8
:100F600093E00E94091368E270E0C8010E949602B3
:100F70006CEF72E08AEA93E00E9409136DE073E07F
:100F80008AEA93E00E94DA126CE073E087E494E06E
:100F90000E94DA1262E173E08AEA93E00E94091388
:100FA00087E494E00E94B00F892BD1F36AE070E0EF
:100FB00080E090E00E943A0E87E494E00E94B00F37
:100FC00018161906ACF487E494E00E94C90F682F44
:100FD000CE0101960E948914BE016F5F7F4F8AEA9D
:100FE00093E00E94F712CE0101960E94D613E4CF3F
:100FF0006DE173E08AEA93E00E9409136BE273E00B
:1010000087E494E00E94DA1287E494E00E94B00F33
:10101000892BD1F36AE070E080E090E00E943A0E04
:1010200010E087E494E00E94B00F1816190644F40B
:1010300087E494E00E94C90F843299F711E0F1CF60
:10104000112319F062E373E002C068E373E08AEAF7
:1010500093E00E94DA1226960FB6F894DEBF0FBE18
:10106000CDBFDF91CF911F910F910895CF93DF9363
:10107000EC0164E070E00E942D03BE0187E494E07F
:101080000E94CC1287E494E00E943B1087E494E035
:101090000E94B00F18161906CCF787E494E00E945E
:1010A000C90FC82F682F8AEA93E00E94DC12CA3069
:1010B00069F78AEA93E0DF91CF910C943B104F924D
:1010C0005F926F927F929F92AF92BF92CF92DF9288
:1010D000EF92FF920F931F93CF93DF93CDB7DEB7BD
:1010E00068970FB6F894DEBF0FBECDBF8C0162EDDE
:1010F00072E0CE0143960E94441462ED72E0CE018C
:101100000D960E9444146BE672E0CE0107960E9491
:10111000441427E030E044E050E0B801CE010196ED
:101120000E944D15BE016F5F7F4FCE0143960E9416
:101130005A14CE0101960E94D613CE0143960E9406
:1011400092156B017C015B0163E070E0C8010E94B5
:101150003B15FC0180818D3239F4AA24BB24AC18E4
:10116000BD0861E070E002C060E070E082E893E0FA
:101170000E94560BF801E0A0F1A0EA0CFB1CF4E180
:10118000EF1AF10860E971E082E893E00E94750BC4
:1011900082E893E00E945C0B6EE373E087E494E0E6
:1011A0000E94DA1287E494E00E94B00F892BD1F3F9
:1011B000C80107966C01AA24A39487E494E00E94D6
:1011C000B00F181619067CF487E494E00E94C90F4A
:1011D000B82E682FC6010E94FA149AE0B912EDCF1A
:1011E000F801A586EACF26E030E043E050E0B60102
:1011F000CE0101960E944D15BE016F5F7F4FCE015B
:101200000D960E945A14CE0101960E94D613CE016B
:101210000D960E949215F80171A360A34AE050E078
:101220008AEA93E00E94BE1399249394F80180A166
:1012300091A18E159F050CF0CCC0809180008F7B12
:10124000809380006EE373E087E494E00E94DA12FA
:10125000809180008064809380000E940B0E2B019F
:101260003C01A12CB12C87E494E00E94B00F892BA3
:1012700089F50E940B0E6419750986099709613D6D
:101280007740810591057CF367EB72E08AEA93E091
:101290000E94DA122FEFA21AB20AF8946EE373E0FA
:1012A00087E494E00E94DA1278940E940B0E2B01DE
:1012B0003C0184E0A816B104B1F663ED72E08AEA5D
:1012C00093E00E94091361EF72E0CE0107960E943D
:1012D00071147FC069E170E080E090E00E943A0EF6
:1012E00087E494E00E94B00F87E494E00E94B00F7E
:1012F000181619067CF487E494E00E94C90FB82EF2
:10130000682FC6010E94FA149AE0B912EDCFF801D5
:101310009586EACF789426E030E043E050E0B601CD
:10132000CE0101960E944D15BE016F5F7F4FCE0129
:101330000D960E945A14CE0101960E94D61362EDBA
:1013400072E0C6010E947114CE010D960E949215A2
:10135000F80171A360A34AE050E08AEA93E00E949A
:10136000BE13F80180A191A18E159F053CF060E9A4
:1013700071E082E893E00E94750B2BC0B701681BF7
:10138000790B882777FD8095982F0E949E162B0158
:101390003C0120E030E040EA51E40E944E1718166C
:1013A0001CF468E57BE110C020E030E045EA53E43E
:1013B000C301B2010E94521720E030E048EC53E430
:1013C0000E949F150E946B1682E893E00E94410BD9
:1013D0002DCF82E893E00E94690BBE01695F7F4FC9
:1013E0008AEA93E00E94F7128AEA93E00E943B1097
:1013F000CE0107960E94D613CE010D960E94D613F9
:10140000CE0143960E94D61368960FB6F894DEBFBD
:101410000FBECDBFDF91CF911F910F91FF90EF9045
:10142000DF90CF90BF90AF909F907F906F905F9034
:101430004F900895CF93DF93EC010E960E94E30145
:10144000BC01CE010E94DF0263E473E08AEA93E00C
:101450000E94DA128AEA93E0DF91CF910C943B105C
:1014600069E473E08AEA93E00E94DA128AEA93E080
:101470000C943B10CF93DF93EC0161E070E00E948D
:101480003B15FC0180818434A1F144F4813409F0DE
:1014900051C0CE01DF91CF910C946203893421F1C8
:1014A000823509F047C062E070E0CE010E943B1532
:1014B000FC018081803329F4CE01DF91CF910C941F
:1014C0005F0862E070E0CE010E943B15FC01808164
:1014D000843429F4CE01DF91CF910C94C205CE0162
:1014E000DF91CF910C941A0ACE01DF91CF910C9429
:1014F000360862E070E0CE010E943B15FC0180815D
:10150000843429F4CE01DF91CF910C946C0562E014
:1015100070E0CE010E943B15FC018081843529F4E6
:10152000CE01DF91CF910C947007CE01DF91CF9166
:101530000C941104CE01DF91CF910C94300A1F93CB
:10154000CF93DF93EC018AEA93E00E94B00F11E0A1
:101550008AEA93E00E94B00F1816190674F48AEA1A
:1015600093E00E94C90F8F8F682FCE010E94FA145A
:101570008F8D8A3069F71E83EBCF6AEF70E080E0D1
:1015800090E00E943A0E8E818823D9F060E070E0EE
:10159000CE010E943B15FC018081843291F4809140
:1015A000710080937100CE010E943A0A809171000F
:1015B00081608093710062ED72E0CE010E9471142F
:1015C0001E82DF91CF911F910895EF92FF920F93AA
:1015D0001F93CF93DF93EC01042F122F798368833D
:1015E00049875A872B873C87882777FD8095982FD6
:1015F0000E949E162BED3FE049EC50E40E9403163A
:101600000E946B167B836A8380E8E82EF12CF70139
:101610001082E1E8F0E010821092850010928400C0
:1016200080E991E0909389008093880080818860B0
:10163000808380818260808361E08BE00E94180F4C
:1016400061E0802F0E94180F61E0812F0E94180F27
:10165000F7018081808360E0812F0E94510F60E05C
:101660008BE00E94510F81E090E09D838C8318866F
:101670001E861D86DF91CF911F910F91FF90EF90F5
:101680000895882777FD8095982F0E949E169B01CC
:10169000AC0160E074E284E799E40E9403160E94C2
:1016A0006B1670938900609388000895FC01648331
:1016B000758381850C94510F21E0FC012087E0E8BF
:1016C000F0E020812064208360E0FC0183850C949D
:1016D000510FFC011086E0E8F0E020812F7B208391
:1016E00060E0FC0183850C94510FCF92DF92EF9262
:1016F000FF920F931F93CF93DF93EC018B01611542
:10170000710511F40E94690BB801882777FD809557
:10171000982F0E949E1620E030E04AE952E40E9491
:1017200052176B017C010E946B167F836E836A8166
:101730007B81882777FD8095982F0E949E169B01BC
:10174000AC01C701B6010E9452170E946B1628EE29
:1017500033E040E050E00E94D71769E07DE380E08D
:1017600090E00E94D717CA01B90122E030E040E0C2
:1017700050E00E94D7173093890020938800DF91B2
:10178000CF911F910F91FF90EF90DF90CF90089530
:10179000883008F06DC0E82FF0E0EE0FFF1FEF5625
:1017A000FC4F7183608390E0FC013197E730F105D5
:1017B00090F5EE58FF4F0C94F617809169008C7FDE
:1017C000842B80936900E89A089580916900440F02
:1017D000551F440F551F837F842B80936900E99A1E
:1017E00008958091690074E0440F551F7A95E1F7E0
:1017F0008F7C842B80936900EA9A08958091690018
:1018000066E0440F551F6A95E1F78F73842B809330
:101810006900EB9A089580916A008C7F842B8093F5
:101820006A00EC9A089580916A00440F551F440F96
:10183000551F837F842B80936A00ED9A08958091D1
:101840006A0024E0440F551F2A95E1F78F7C842B12
:1018500080936A00EE9A089580916A0096E0440FA2
:10186000551F9A95E1F78F73842B80936A00EF9A46
:1018700008951F920F920FB60F9211240BB60F927C
:101880002F933F934F935F936F937F938F939F9388
:10189000AF93BF93EF93FF9380919503909196033D
:1018A000892B29F0E0919503F09196031995FF910A
:1018B000EF91BF91AF919F918F917F916F915F91C8
:1018C0004F913F912F910F900BBE0F900FBE0F9035
:1018D0001F9018951F920F920FB60F9211240BB6FE
:1018E0000F922F933F934F935F936F937F938F93B9
:1018F0009F93AF93BF93EF93FF9380919703909142
:101900009803892B29F0E0919703F091980319959A
:10191000FF91EF91BF91AF919F918F917F916F91C7
:101920005F914F913F912F910F900BBE0F900FBE83
:101930000F901F9018951F920F920FB60F921124BF
:101940000BB60F922F933F934F935F936F937F93B9
:101950008F939F93AF93BF93EF93FF9380919903DE
:1019600090919A03892B29F0E0919903F0919A03C1
:101970001995FF91EF91BF91AF919F918F917F91B9
:101980006F915F914F913F912F910F900BBE0F90F0
:101990000FBE0F901F9018951F920F920FB60F92C7
:1019A00011240BB60F922F933F934F935F936F9336
:1019B0007F938F939F93AF93BF93EF93FF93809108
:1019C0009B0390919C03892B29F0E0919B03F0915C
:1019D0009C031995FF91EF91BF91AF919F918F91CA
:1019E0007F916F915F914F913F912F910F900BBE1F
:1019F0000F900FBE0F901F9018951F920F920FB669
:101A00000F9211240BB60F922F933F934F935F9336
:101A10006F937F938F939F93AF93BF93EF93FF93B6
:101A20008091910390919203892B29F0E091910389
:101A3000F09192031995FF91EF91BF91AF919F9112
:101A40008F917F916F915F914F913F912F910F9067
:101A50000BBE0F900FBE0F901F9018951F920F9204
:101A60000FB60F9211240BB60F922F933F934F9303
:101A70005F936F937F938F939F93AF93BF93EF93F6
:101A8000FF938091930390919403892B29F0E09127
:101A90009303F09194031995FF91EF91BF91AF914A
:101AA0009F918F917F916F915F914F913F912F9176
:101AB0000F900BBE0F900FBE0F901F9018951F92A6
:101AC0000F920FB60F9211240BB60F922F933F93E4
:101AD0004F935F936F937F938F939F93AF93BF9336
:101AE000EF93FF9380919D0390919E03892B29F0A2
:101AF000E0919D03F0919E031995FF91EF91BF91A5
:101B0000AF919F918F917F916F915F914F913F9195
:101B10002F910F900BBE0F900FBE0F901F90189536
:101B20001F920F920FB60F9211240BB60F922F93A4
:101B30003F934F935F936F937F938F939F93AF9355
:101B4000BF93EF93FF9380919F039091A003892B04
:101B500029F0E0919F03F091A0031995FF91EF9177
:101B6000BF91AF919F918F917F916F915F914F91B5
:101B70003F912F910F900BBE0F900FBE0F901F90B3
:101B800018951F920F920FB60F9211242F933F9327
:101B90008F939F93AF93BF938091A2039091A303E0
:101BA000A091A403B091A5033091A10323E0230FDA
:101BB0002D3720F40196A11DB11D05C026E8230F85
:101BC0000296A11DB11D2093A1038093A2039093BF
:101BD000A303A093A403B093A5038091A6039091BF
:101BE000A703A091A803B091A9030196A11DB11D5F
:101BF0008093A6039093A703A093A803B093A9038F
:101C0000BF91AF919F918F913F912F910F900FBEF8
:101C10000F901F9018952FB7F8946091A2037091C0
:101C2000A3038091A4039091A5032FBF08953FB70C
:101C3000F8948091A6039091A703A091A803B09176
:101C4000A90326B5A89B05C02F3F19F00196A11D39
:101C5000B11D3FBF6627782F892F9A2F620F711D04
:101C6000811D911D42E0660F771F881F991F4A95BD
:101C7000D1F70895CF92DF92EF92FF92CF93DF9347
:101C80006B017C010E94170EEB01C114D104E10429
:101C9000F10489F00E949D150E94170E6C1B7D0BAC
:101CA000683E734090F381E0C81AD108E108F1085A
:101CB000C851DC4FEACFDF91CF91FF90EF90DF90DA
:101CC000CF900895789484B5826084BD84B5816096
:101CD00084BD85B5826085BD85B5816085BDEEE634
:101CE000F0E0808181608083E1E8F0E01082808113
:101CF00082608083808181608083E0E8F0E0808181
:101D000081608083E1EBF0E0808184608083E0EBA0
:101D1000F0E0808181608083E1E9F0E08081826091
:101D20008083808181608083E0E9F0E08081816050
:101D30008083E1EAF0E0808182608083808181603D
:101D40008083E0EAF0E0808181608083E1E2F1E07D
:101D5000808182608083808181608083E0E2F1E025
:101D6000808181608083EAE7F0E080818460808305
:101D700080818260808380818160808380818068AF
:101D800080831092C100089590E0FC013197E23108
:101D9000F10508F04CC0E758FF4F0C94F6178091FE
:101DA00080008F7703C0809180008F7D80938000BA
:101DB000089580918000877FF9CF84B58F7702C026
:101DC00084B58F7D84BD08958091B0008F7703C066
:101DD0008091B0008F7D8093B00008958091900035
:101DE0008F7707C0809190008F7D03C08091900015
:101DF000877F8093900008958091A0008F7707C01F
:101E00008091A0008F7D03C08091A000877F809388
:101E1000A0000895809120018F7707C08091200154
:101E20008F7D03C080912001877F809320010895DA
:101E3000CF93DF9390E0FC01EC50FE4F2491FC0126
:101E4000E65CFD4F8491882349F190E0880F991F4B
:101E5000FC01EC54FD4FA591B49186569D4FFC01B9
:101E6000C591D4919FB7611108C0F8948C912095C9
:101E700082238C93888182230AC0623051F4F894C3
:101E80008C91322F309583238C938881822B888389
:101E900004C0F8948C91822B8C939FBFDF91CF91DB
:101EA00008950F931F93CF93DF931F92CDB7DEB7A3
:101EB000282F30E0F901E255FE4F8491F901EC50F2
:101EC000FE4F1491F901E65CFD4F04910023C9F027
:101ED000882321F069830E94C40E6981E02FF0E01D
:101EE000EE0FFF1FE656FD4FA591B4919FB7F894F2
:101EF0008C91611103C01095812301C0812B8C93BB
:101F00009FBF0F90DF91CF911F910F910895CF93B5
:101F1000DF93282F30E0F901E255FE4F8491F9015B
:101F2000EC50FE4FD491F901E65CFD4FC491CC23F7
:101F300091F081110E94C40EEC2FF0E0EE0FFF1F14
:101F4000E058FD4FA591B4912C912D2381E090E0B4
:101F500021F480E002C080E090E0DF91CF9108950D
:101F6000FC01818D228D90E0805C9F4F821B910946
:101F70008F7399270895FC01918D828D981731F008
:101F8000828DE80FF11D858D90E008958FEF9FEF12
:101F90000895FC01918D828D981761F0828DDF018B
:101FA000A80FB11D5D968C91928D9F5F9F73928F4C
:101FB00090E008958FEF9FEF089584E891E1892BD9
:101FC00041F080E090E0892B21F00E948411811182
:101FD00025C080E090E0892B41F080E090E0892BE3
:101FE00021F00E94000081111CC080E090E0892B4C
:101FF00041F080E090E0892B21F00E9400008111E7
:1020000013C081E392E1892BA1F080E090E0892B5D
:1020100081F00E94311281110AC008950E940000CF
:10202000D8CF0E940000E1CF0E940000EACF0C94BC
:1020300000000895FC01848DDF01A80FB11DA35A93
:10204000BF4F2C91848D90E001968F739927848FD8
:10205000A689B7892C93A089B1898C9180648C93CF
:10206000938D848D981306C00288F389E02D8081BA
:102070008F7D80830895CF93DF93EC01888D882333
:10208000C9F0EA89FB89808185FD05C0A889B989E5
:102090008C9186FD0FC00FB607FCF5CF808185FFC0
:1020A000F2CFA889B9898C9185FFEDCFCE010E942E
:1020B0001A10E7CFDF91CF910895CF92DF92FF9270
:1020C0000F931F93CF93DF931F92CDB7DEB76C01B1
:1020D000DC015B969C915B975C968C915C97981366
:1020E00007C05096ED91FC915197808185FD32C0DB
:1020F000F601038D10E00F5F1F4F0F731127F02EB5
:10210000F601848DF81211C00FB607FCF9CFD60185
:102110005096ED91FC915197808185FFF1CFC601DA
:1021200069830E941A106981EBCF838DE80FF11D3E
:10213000E35AFF4F6083D6015B960C935B975296F0
:10214000ED91FC91539780818062808381E0589665
:102150008C930DC0D6015696ED91FC9157976083F4
:102160005096ED91FC91519780818064808381E04D
:1021700090E00F90DF91CF911F910F91FF90DF9032
:10218000CF900895BF92CF92DF92EF92FF92CF93BC
:10219000DF93EC016A017B01B22EE889F98982E0C4
:1021A0008083411581EE580761057105A1F060E05B
:1021B00079E08DE390E0A70196010E94B5172150C8
:1021C00031094109510956954795379527952115AC
:1021D00080E1380798F0E889F989108260E874E8AE
:1021E0008EE190E0A70196010E94B51721503109B8
:1021F000410951095695479537952795EC85FD85F9
:102200003083EE85FF852083188EEC89FD89B082AE
:10221000EA89FB89808180618083EA89FB898081EA
:1022200088608083EA89FB89808180688083EA896D
:10223000FB8980818F7D8083DF91CF91FF90EF902C
:10224000DF90CF90BF9008951F920F920FB60F921C
:1022500011240BB60F922F938F939F93EF93FF93BD
:10226000E091BA03F091BB038081E091C003F0914B
:10227000C10382FD12C090818091C3038F5F8F7371
:102280002091C403821751F0E091C303F0E0E655BA
:10229000FC4F958F8093C30301C08081FF91EF9124
:1022A0009F918F912F910F900BBE0F900FBE0F90AB
:1022B0001F9018951F920F920FB60F9211240BB614
:1022C0000F922F933F934F935F936F937F938F93CF
:1022D0009F93AF93BF93EF93FF938AEA93E00E949B
:1022E0001A10FF91EF91BF91AF919F918F917F91C4
:1022F0006F915F914F913F912F910F900BBE0F9077
:102300000FBE0F901F9018958AEA93E00E94B00FBD
:1023100021E0892B09F420E0822F08951092AD036B
:102320001092AC0388EE93E0A0E0B0E08093AE039F
:102330009093AF03A093B003B093B10382E593E011
:102340009093AB038093AA0385EC90E09093B7033E
:102350008093B60384EC90E09093B9038093B80324
:1023600080EC90E09093BB038093BA0381EC90E003
:102370009093BD038093BC0382EC90E09093BF03E5
:102380008093BE0386EC90E09093C1038093C003DA
:102390001092C3031092C4031092C5031092C60397
:1023A00008951F920F920FB60F9211240BB60F9241
:1023B0002F938F939F93EF93FF93E0915704F091A6
:1023C00058048081E0915D04F0915E0482FD12C0AA
:1023D0009081809160048F5F8F73209161048217D8
:1023E00051F0E0916004F0E0E95BFB4F958F809342
:1023F000600401C08081FF91EF919F918F912F9197
:102400000F900BBE0F900FBE0F901F9018951F924C
:102410000F920FB60F9211240BB60F922F933F938A
:102420004F935F936F937F938F939F93AF93BF93DC
:10243000EF93FF9387E494E00E941A10FF91EF91CD
:10244000BF91AF919F918F917F916F915F914F91CC
:102450003F912F910F900BBE0F900FBE0F901F90CA
:10246000189587E494E00E94B00F21E0892B09F4CD
:1024700020E0822F089510924A041092490488EEB9
:1024800093E0A0E0B0E080934B0490934C04A093C1
:102490004D04B0934E0482E593E0909348048093FA
:1024A000470485E391E0909354048093530484E3BC
:1024B00091E0909356048093550480E391E09093CB
:1024C00058048093570481E391E090935A048093D9
:1024D000590482E391E090935C0480935B0486E36B
:1024E00091E090935E0480935D04109260041092DA
:1024F00061041092620410926304089508950E948A
:10250000620E0E947E120E942D02CDEDDFE00E943D
:1025100038022097E1F30E94DD0FF9CFCF92DF92CE
:10252000EF92FF920F931F93CF93DF936C017A0189
:10253000EB01E60EF71E00E010E0CE15DF0561F0BE
:102540006991D601ED91FC910190F081E02DC601D9
:102550001995080F191FF1CFC801DF91CF911F9175
:102560000F91FF90EF90DF90CF9008956115710566
:1025700081F0DB010D900020E9F7AD0141505109D8
:10258000461B570BDC01ED91FC910280F381E02D9D
:10259000199480E090E00895DC01ED91FC91DB015D
:1025A00014964D915C9115976D917C910280F38109
:1025B000E02D19940C94B612DC01ED91FC91019080
:1025C000F081E02D19940F931F93CF93DF93EC01CB
:1025D0006DE00E94DC128C016AE0CE010E94DC12E8
:1025E000800F911FDF91CF911F910F9108950F934D
:1025F0001F93CF93DF93EC010E94CC128C01CE018C
:102600000E94E312800F911FDF91CF911F910F91D4
:1026100008950F931F93CF93DF93EC010E94B6129E
:102620008C01CE010E94E312800F911FDF91CF91A8
:102630001F910F9108958F929F92AF92BF92CF9268
:10264000DF92EF92FF920F931F93CF93DF93CDB75B
:10265000DEB7A1970FB6F894DEBF0FBECDBF7C01E9
:10266000C42EE52FCB01D22E19A221E02D1510F09A
:102670002AE0D22E8E010F5D1F4F8D2C912CA12CA4
:10268000B12C6C2D7E2FA50194010E94B5178C2DC5
:10269000D29E80191124015011098A3014F4805DF2
:1026A00001C0895CF8018083211531054105510580
:1026B00021F0C22EE32FCA01E4CFB801C7010E9466
:1026C000B612A1960FB6F894DEBF0FBECDBFDF9154
:1026D000CF911F910F91FF90EF90DF90CF90BF901F
:1026E000AF909F908F900895CF92DF92EF92FF92DC
:1026F0000F931F93CF93DF93EC016A017B012115A8
:10270000310579F4E881F9810190F081E02D642FA1
:10271000DF91CF911F910F91FF90EF90DF90CF90BD
:1027200019942A303105E9F477FF1AC06DE20E944E
:10273000DC128C0144275527BA014C195D096E093A
:102740007F092AE0CE010E941B13800F911FDF91A9
:10275000CF911F910F91FF90EF90DF90CF90089550
:102760002AE0B701A601CE01DF91CF911F910F9111
:10277000FF90EF90DF90CF900C941B130F931F935B
:10278000CF93DF93EC019A01AB01662757FD60956B
:10279000762F0E9474138C01CE010E94E312800FE9
:1027A000911FDF91CF911F910F910895FC018081BE
:1027B00091810C949818CF93DF93EC0188819981D3
:1027C000009711F00E949818198218821D821C82AD
:1027D0001B821A82DF91CF9108950F931F93CF939D
:1027E000DF93EC018B016F5F7F4F888199810E949D
:1027F0002719009731F0998388831B830A8381E02E
:1028000001C080E0DF91CF911F910F910895CF9388
:10281000DF93EC0188819981892B29F08A819B8142
:102820008617970760F4CE010E94ED13882341F0CC
:102830008C819D81892B19F4E881F981108281E0D6
:10284000DF91CF910895EF92FF920F931F93CF9353
:10285000DF93EC017B018A01BA010E940714811108
:1028600004C0CE010E94DB1307C01D830C83B70197
:10287000888199810E94401ACE01DF91CF911F91EA
:102880000F91FF90EF900895FC0111821082138246
:102890001282158214826115710559F0FB010190B5
:1028A0000020E9F7AF0141505109461B570B0C942A
:1028B00023140895CF93DF93EC01FB01861797074C
:1028C00061F0608171816115710529F04481558144
:1028D0000E94231402C00E94DB13CE01DF91CF912E
:1028E0000895CF93DF93EC016115710561F0FB0151
:1028F00001900020E9F7AF0141505109461B570BE9
:102900000E94231402C00E94DB13CE01DF91CF91FD
:102910000895CF93DF931F921F92CDB7DEB7FC01CE
:1029200011821082138212821582148269831A82A4
:10293000BE016F5F7F4F0E9471140F900F90DF9167
:10294000CF9108950F931F93CF93DF93CDB7DEB749
:1029500062970FB6F894DEBF0FBECDBF8C01CB01DE
:10296000F80111821082138212821582148250E0C3
:10297000BE016F5F7F4F0E94471ABE016F5F7F4F9E
:10298000C8010E94711462960FB6F894DEBF0FBEA4
:10299000CDBFDF91CF911F910F910895EF92FF92DC
:1029A0000F931F93CF93DF93EC017B010C811D816B
:1029B0006115710511F480E016C04115510591F0C3
:1029C000040F151FB8010E9407148823A1F3288162
:1029D00039818C819D81B701820F931F0E94401A1B
:1029E0001D830C8381E0DF91CF911F910F91FF90A8
:1029F000EF900895CF93DF931F921F92CDB7DEB76C
:102A000069831A8241E050E0BE016F5F7F4F0E94F0
:102A1000CE140F900F90DF91CF910895CF93DF9355
:102A2000EC01FB0144815581608171810E94CE14CB
:102A3000811103C0CE010E94DB13CE01DF91CF9143
:102A40000895CF93DF93EC016115710569F0FB01E7
:102A500001900020E9F7AF0141505109461B570B87
:102A60000E94CE14811103C0CE010E94DB13CE015F
:102A7000DF91CF910895FC018481958168177907D2
:102A800020F480819181009729F41092E40484EE6F
:102A900094E00895860F971F0895BF92CF92DF921A
:102AA000EF92FF920F931F93CF93DF936C017B0103
:102AB000EA0189012417350720F48D2FE901042F3D
:102AC000182F62ED72E0C6010E944414D7011496DB
:102AD0008D919C911597C817D907C8F48017910755
:102AE00008F48C01D701ED91FC911197E00FF11FD3
:102AF000B08010826D917C916C0F7D1FC6010E9489
:102B00007114D701ED91FC91E00FF11FB082C60165
:102B1000DF91CF911F910F91FF90EF90DF90CF90B9
:102B2000BF900895FC0180819181009711F00C9471
:102B3000101A60E070E0CB01089508955058BB274B
:102B4000AA270ED071C162D130F067D120F031F4E4
:102B50009F3F11F41EF457C10EF4E095E7FB4DC101
:102B6000E92F73D180F3BA176207730784079507BB
:102B700018F071F49EF58BC10EF4E0950B2EBA2F70
:102B8000A02D0B01B90190010C01CA01A001112473
:102B9000FF27591B99F0593F50F4503E68F11A161F
:102BA000F040A22F232F342F4427585FF3CF4695B0
:102BB00037952795A795F0405395C9F77EF41F16D2
:102BC000BA0B620B730B840BBAF09150A1F0FF0F9C
:102BD000BB1F661F771F881FC2F70EC0BA0F621F88
:102BE000731F841F48F4879577956795B795F79578
:102BF0009E3F08F0B3CF9395880F08F09927EE0F0A
:102C00009795879508950CD00FC107D140F0FED05D
:102C100030F021F45F3F19F0F0C0511139C1F3C019
:102C200014D198F39923C9F35523B1F3951B550B90
:102C3000BB27AA2762177307840738F09F5F5F4F8F
:102C4000220F331F441FAA1FA9F333D00E2E3AF0D0
:102C5000E0E830D091505040E695001CCAF729D0EA
:102C6000FE2F27D0660F771F881FBB1F2617370739
:102C70004807AB07B0E809F0BB0B802DBF01FF2769
:102C800093585F4F2AF09E3F510568F0B6C000C1CF
:102C90005F3FECF3983EDCF3869577956795B795A3
:102CA000F7959F5FC9F7880F911D9695879597F9BE
:102CB0000895E1E0660F771F881FBB1F6217730737
:102CC0008407BA0720F0621B730B840BBA0BEE1F4C
:102CD00088F7E095089504D06894B111D9C008959B
:102CE000BCD088F09F5790F0B92F9927B751A0F02A
:102CF000D1F0660F771F881F991F1AF0BA95C9F790
:102D000012C0B13081F0C3D0B1E00895C0C0672FC8
:102D1000782F8827B85F39F0B93FCCF3869577953F
:102D20006795B395D9F73EF4909580957095619528
:102D30007F4F8F4F9F4F0895E89409C097FB3EF453
:102D400090958095709561957F4F8F4F9F4F9923F8
:102D5000A9F0F92F96E9BB279395F6958795779576
:102D60006795B795F111F8CFFAF4BB0F11F460FF36
:102D70001BC06F5F7F4F8F4F9F4F16C0882311F08E
:102D800096E911C0772321F09EE8872F762F05C0A2
:102D9000662371F096E8862F70E060E02AF09A953D
:102DA000660F771F881FDAF7880F9695879597F932
:102DB0000895990F0008550FAA0BE0E8FEEF1616CC
:102DC0001706E807F907C0F012161306E407F5071F
:102DD00098F0621B730B840B950B39F40A2661F093
:102DE000232B242B252B21F408950A2609F4A14036
:102DF000A6958FEF811D811D089597F99F6780E843
:102E000070E060E008959FEF80EC089500240A943C
:102E10001616170618060906089500240A941216B5
:102E20001306140605060895092E0394000C11F4E8
:102E3000882352F0BB0F40F4BF2B11F460FF04C095
:102E40006F5F7F4F8F4F9F4F089557FD9058440FEE
:102E5000551F59F05F3F71F04795880F97FB991FF9
:102E600061F09F3F79F087950895121613061406B6
:102E7000551FF2CF4695F1DF08C016161706180643
:102E8000991FF1CF86957105610508940895E8941E
:102E9000BB2766277727CB0197F908958ADF08F4C7
:102EA0008FEF08950BD0C0CFB1DF28F0B6DF18F058
:102EB000952309F0A2CFA7CF1124EACFC6DFA0F354
:102EC000959FD1F3950F50E0551F629FF001729FBF
:102ED000BB27F00DB11D639FAA27F00DB11DAA1FDE
:102EE000649F6627B00DA11D661F829F2227B00D2B
:102EF000A11D621F739FB00DA11D621F839FA00DB6
:102F0000611D221F749F3327A00D611D231F849F05
:102F1000600D211D822F762F6A2F11249F5750405C
:102F20008AF0E1F088234AF0EE0FFF1FBB1F661FF7
:102F3000771F881F91505040A9F79E3F510570F0B0
:102F40005CCFA6CF5F3FECF3983EDCF38695779598
:102F50006795B795F795E7959F5FC1F7FE2B880FAB
:102F6000911D9695879597F90895A1E21A2EAA1BAF
:102F7000BB1BFD010DC0AA1FBB1FEE1FFF1FA21729
:102F8000B307E407F50720F0A21BB30BE40BF50B26
:102F9000661F771F881F991F1A9469F760957095AF
:102FA000809590959B01AC01BD01CF010895052E40
:102FB00097FB1EF400940E94EE1757FD07D00E9465
:102FC000B51707FC03D04EF40C94EE1750954095BE
:102FD000309521953F4F4F4F5F4F089590958095C5
:102FE000709561957F4F8F4F9F4F0895EE0FFF1F94
:102FF0000590F491E02D19940790F691E02D199425
:10300000CF93DF938230910510F482E090E0E0915D
:10301000E704F091E80420E030E0A0E0B0E0309771
:1030200039F14081518148175907B8F048175907BD
:1030300071F482819381109729F013969C938E935B
:1030400012972CC09093E8048093E70427C02115C1
:10305000310531F04217530718F0A901DB0101C017
:10306000EF019A01BD01DF010280F381E02DD7CF8E
:1030700021153105F9F0281B390B2430310580F476
:103080008A819B816115710521F0FB019383828305
:1030900004C09093E8048093E704FE01329644C094
:1030A000FE01E20FF31F819391932250310939837E
:1030B00028833AC02091E5043091E604232B41F4A3
:1030C00020910202309103023093E6042093E5043C
:1030D00020910002309101022115310541F42DB7F4
:1030E0003EB74091040250910502241B350BE0913C
:1030F000E504F091E604E217F307A0F42E1B3F0B62
:103100002817390778F0AC014E5F5F4F2417350759
:1031100048F04E0F5F1F5093E6044093E5048193FF
:10312000919302C0E0E0F0E0CF01DF91CF910895EC
:10313000CF93DF93009709F487C0FC013297138285
:103140001282C091E704D091E804209781F4208195
:103150003181280F391F8091E5049091E604821790
:10316000930779F5F093E604E093E5046DC0DE0182
:1031700020E030E0AE17BF0750F412964D915C91FD
:1031800013979D014115510509F1DA01F3CFB3837E
:10319000A28340815181840F951F8A179B0771F488
:1031A0008D919C911197840F951F02969183808336
:1031B00012968D919C9113979383828321153105EB
:1031C00029F4F093E804E093E7043EC0D901139694
:1031D000FC93EE9312974D915D91A40FB51FEA17E2
:1031E000FB0779F480819181840F951F0296D901A4
:1031F00011969C938E938281938113969C938E93C8
:103200001297E0E0F0E08A819B81009719F0FE01BF
:10321000EC01F9CFCE01029628813981820F931FEC
:103220002091E5043091E6042817390769F43097B6
:1032300029F41092E8041092E70402C0138212826B
:10324000D093E604C093E504DF91CF9108956F9287
:103250007F928F929F92AF92BF92CF92DF92EF9226
:10326000FF920F931F93CF93DF93EC01CB01209735
:1032700081F4DF91CF911F910F91FF90EF90DF903C
:10328000CF90BF90AF909F908F907F906F900C9455
:103290000018FE01E60FF71F9E0122503109E217C8
:1032A000F30708F4ACC0D9010D911C9111970617D2
:1032B0001707B8F00530110508F49FC0A801445065
:1032C00051094617570708F498C002501109061B08
:1032D000170B019311936D937C93CF010E94981863
:1032E0008CC05B01A01AB10A4E01800E911EA09104
:1032F000E704B091E804612C712C60E070E0109755
:1033000009F449C0A815B905C9F5ED90FC901197CD
:10331000670142E0C40ED11CCA14DB0478F14701F6
:103320008A189B08640142E0C40ED11C1296BC901E
:1033300012971396AC91B5E0CB16D10440F0B2824F
:10334000A38391828082D9018D939C9309C00E5FE3
:103350001F4F0E0D1F1DF90111830083EB2DFA2F56
:103360006115710531F0DB011396FC93EE93129712
:1033700044C0F093E804E093E7043FC06D917C9172
:1033800011976616770608F43B01BD0112960D9061
:10339000BC91A02DB4CF6091E5047091E60468154E
:1033A0007905E9F468167906D0F44091000250914D
:1033B00001024115510541F44DB75EB76091040219
:1033C00070910502461B570BE417F507C0F4F09304
:1033D000E604E093E504F901918380830EC00E9426
:1033E00000187C01009759F0A801BE010E94371A0D
:1033F000CE010E949818C70104C0CE0102C080E02F
:1034000090E0DF91CF911F910F91FF90EF90DF90AF
:10341000CF90BF90AF909F908F907F906F900895C6
:103420001F93FC0199278827BC01E8941191103261
:10343000E9F3193010F01E30C8F31B3251F01D3281
:1034400049F4689406C00E945D1A610F711D811DC8
:10345000911D119110531A30B0F33EF49095809560
:10346000709561957F4F8F4F9F4F1F910895FB017E
:10347000DC0102C001900D9241505040D8F70895F0
:10348000FB01DC0101900D920020E1F70895453227
:10349000510520F4423010F00C94521AFB011082B6
:1034A000CB010895BB274A3031F4992322F4BDE2C1
:1034B000909581959F4F0C94731A592F482F372F51
:1034C000262F660F771F881F991F660F771F881F8B
:1034D000991F620F731F841F951F660F771F881F28
:1034E000991F0895BB27FB015527AA27880F991F0D
:1034F000AA1FA41710F0A41B83955051B9F7A05D23
:10350000AA3308F0A95DA193009779F7B111B1939F
:103510001192CB010C948C1ADC01FC01672F719184
:103520007723E1F7329704C07C916D9370836291A9
:10353000AE17BF07C8F3089512E0C4EDD2E000E073
:1035400006C022970109FE010BBF0E94FC17C63D71
:0C355000D10780E00807A9F7F894FFCF2E
:10355C000000E9048000244150002444500A002457
:10356C004446303000244446300024444600446530
:10357C00706C6F79696E672054657468657200446D
:10358C00726976696E670053706F6F6C696E672035
:10359C0052656D61696E6465720024444450004547
:1035AC006E7465726564204175746F205261707021
:1035BC00656C20436F6D6D616E6400245230500059
:1035CC0047657474696E6720446570746820667210
:1035DC006F6D204352002452440A005265636569A2
:1035EC0076656420496E697469616C2044657074F9
:1035FC006800456E746572696E6720526170706503
:10360C006C204C6F6F7000526573656E64696E67E9
:10361C0020636F6D6D616E6420746F2043522E2E8B
:10362C002E0A004661696C656420746F20636F6DAF
:10363C006D756E6963617465207769746820435297
:10364C00002452304600244454470A0054657468E0
:10365C006572204465706C6F796564002444545322
:10366C000A0043522053746F7070656400435220FB
:10367C00496E20526576657273650024445452413C
:10368C000A00244454500A00244454460A0024528C
:10369C00300A00245255500A002453500A000000EE
:0E36AC0000005D108E12B00FC90FBB0F3B1057
:00000001FF
